{
	"contracts/PriorityHeap.sol": {
		"PriorityHeap": {
			"abi": [
				{
					"inputs": [],
					"name": "extractMin",
					"outputs": [
						{
							"components": [
								{
									"internalType": "uint256",
									"name": "id",
									"type": "uint256"
								},
								{
									"internalType": "uint256",
									"name": "priority",
									"type": "uint256"
								}
							],
							"internalType": "struct PriorityHeap.Task",
							"name": "",
							"type": "tuple"
						}
					],
					"stateMutability": "nonpayable",
					"type": "function"
				},
				{
					"inputs": [
						{
							"internalType": "uint256",
							"name": "",
							"type": "uint256"
						}
					],
					"name": "heap",
					"outputs": [
						{
							"internalType": "uint256",
							"name": "id",
							"type": "uint256"
						},
						{
							"internalType": "uint256",
							"name": "priority",
							"type": "uint256"
						}
					],
					"stateMutability": "view",
					"type": "function"
				},
				{
					"inputs": [
						{
							"internalType": "uint256",
							"name": "id",
							"type": "uint256"
						},
						{
							"internalType": "uint256",
							"name": "priority",
							"type": "uint256"
						}
					],
					"name": "insert",
					"outputs": [],
					"stateMutability": "nonpayable",
					"type": "function"
				}
			],
			"devdoc": {
				"kind": "dev",
				"methods": {},
				"version": 1
			},
			"evm": {
				"assembly": "    /* \"contracts/PriorityHeap.sol\":61:2274  contract PriorityHeap {... */\n  mstore(0x40, 0x80)\n  callvalue\n  dup1\n  iszero\n  tag_1\n  jumpi\n  0x00\n  dup1\n  revert\ntag_1:\n  pop\n  dataSize(sub_0)\n  dup1\n  dataOffset(sub_0)\n  0x00\n  codecopy\n  0x00\n  return\nstop\n\nsub_0: assembly {\n        /* \"contracts/PriorityHeap.sol\":61:2274  contract PriorityHeap {... */\n      mstore(0x40, 0x80)\n      callvalue\n      dup1\n      iszero\n      tag_1\n      jumpi\n      0x00\n      dup1\n      revert\n    tag_1:\n      pop\n      jumpi(tag_2, lt(calldatasize, 0x04))\n      shr(0xe0, calldataload(0x00))\n      dup1\n      0x1c01f292\n      eq\n      tag_3\n      jumpi\n      dup1\n      0x1d834a1b\n      eq\n      tag_4\n      jumpi\n      dup1\n      0xb8bfdb05\n      eq\n      tag_5\n      jumpi\n    tag_2:\n      0x00\n      dup1\n      revert\n        /* \"contracts/PriorityHeap.sol\":90:108  Task[] public heap */\n    tag_3:\n      tag_6\n      0x04\n      dup1\n      calldatasize\n      sub\n      dup2\n      add\n      swap1\n      tag_7\n      swap2\n      swap1\n      tag_8\n      jump\t// in\n    tag_7:\n      tag_9\n      jump\t// in\n    tag_6:\n      mload(0x40)\n      tag_10\n      swap3\n      swap2\n      swap1\n      tag_11\n      jump\t// in\n    tag_10:\n      mload(0x40)\n      dup1\n      swap2\n      sub\n      swap1\n      return\n        /* \"contracts/PriorityHeap.sol\":228:399  function insert(uint id, uint priority) public {... */\n    tag_4:\n      tag_12\n      0x04\n      dup1\n      calldatasize\n      sub\n      dup2\n      add\n      swap1\n      tag_13\n      swap2\n      swap1\n      tag_14\n      jump\t// in\n    tag_13:\n      tag_15\n      jump\t// in\n    tag_12:\n      stop\n        /* \"contracts/PriorityHeap.sol\":1163:1425  function extractMin() public returns (Task memory) {... */\n    tag_5:\n      tag_16\n      tag_17\n      jump\t// in\n    tag_16:\n      mload(0x40)\n      tag_18\n      swap2\n      swap1\n      tag_19\n      jump\t// in\n    tag_18:\n      mload(0x40)\n      dup1\n      swap2\n      sub\n      swap1\n      return\n        /* \"contracts/PriorityHeap.sol\":90:108  Task[] public heap */\n    tag_9:\n      0x00\n      dup2\n      dup2\n      sload\n      dup2\n      lt\n      tag_20\n      jumpi\n      0x00\n      dup1\n      revert\n    tag_20:\n      swap1\n      0x00\n      mstore\n      keccak256(0x00, 0x20)\n      swap1\n      0x02\n      mul\n      add\n      0x00\n      swap2\n      pop\n      swap1\n      pop\n      dup1\n      0x00\n      add\n      sload\n      swap1\n      dup1\n      0x01\n      add\n      sload\n      swap1\n      pop\n      dup3\n      jump\t// out\n        /* \"contracts/PriorityHeap.sol\":228:399  function insert(uint id, uint priority) public {... */\n    tag_15:\n        /* \"contracts/PriorityHeap.sol\":286:305  Task memory newTask */\n      0x00\n        /* \"contracts/PriorityHeap.sol\":308:326  Task(id, priority) */\n      mload(0x40)\n      dup1\n      0x40\n      add\n      0x40\n      mstore\n      dup1\n        /* \"contracts/PriorityHeap.sol\":313:315  id */\n      dup5\n        /* \"contracts/PriorityHeap.sol\":308:326  Task(id, priority) */\n      dup2\n      mstore\n      0x20\n      add\n        /* \"contracts/PriorityHeap.sol\":317:325  priority */\n      dup4\n        /* \"contracts/PriorityHeap.sol\":308:326  Task(id, priority) */\n      dup2\n      mstore\n      pop\n        /* \"contracts/PriorityHeap.sol\":286:326  Task memory newTask = Task(id, priority) */\n      swap1\n      pop\n        /* \"contracts/PriorityHeap.sol\":337:341  heap */\n      0x00\n        /* \"contracts/PriorityHeap.sol\":347:354  newTask */\n      dup2\n        /* \"contracts/PriorityHeap.sol\":337:355  heap.push(newTask) */\n      swap1\n      dup1\n      0x01\n      dup2\n      sload\n      add\n      dup1\n      dup3\n      sstore\n      dup1\n      swap2\n      pop\n      pop\n      0x01\n      swap1\n      sub\n      swap1\n      0x00\n      mstore\n      keccak256(0x00, 0x20)\n      swap1\n      0x02\n      mul\n      add\n      0x00\n      swap1\n      swap2\n      swap1\n      swap2\n      swap1\n      swap2\n      pop\n      0x00\n      dup3\n      add\n      mload\n      dup2\n      0x00\n      add\n      sstore\n      0x20\n      dup3\n      add\n      mload\n      dup2\n      0x01\n      add\n      sstore\n      pop\n      pop\n        /* \"contracts/PriorityHeap.sol\":366:391  bubbleUp(heap.length - 1) */\n      tag_24\n        /* \"contracts/PriorityHeap.sol\":389:390  1 */\n      0x01\n        /* \"contracts/PriorityHeap.sol\":375:379  heap */\n      0x00\n        /* \"contracts/PriorityHeap.sol\":375:386  heap.length */\n      dup1\n      sload\n      swap1\n      pop\n        /* \"contracts/PriorityHeap.sol\":375:390  heap.length - 1 */\n      tag_25\n      swap2\n      swap1\n      tag_26\n      jump\t// in\n    tag_25:\n        /* \"contracts/PriorityHeap.sol\":366:374  bubbleUp */\n      tag_27\n        /* \"contracts/PriorityHeap.sol\":366:391  bubbleUp(heap.length - 1) */\n      jump\t// in\n    tag_24:\n        /* \"contracts/PriorityHeap.sol\":275:399  {... */\n      pop\n        /* \"contracts/PriorityHeap.sol\":228:399  function insert(uint id, uint priority) public {... */\n      pop\n      pop\n      jump\t// out\n        /* \"contracts/PriorityHeap.sol\":1163:1425  function extractMin() public returns (Task memory) {... */\n    tag_17:\n        /* \"contracts/PriorityHeap.sol\":1201:1212  Task memory */\n      tag_28\n      tag_29\n      jump\t// in\n    tag_28:\n        /* \"contracts/PriorityHeap.sol\":1247:1248  0 */\n      0x00\n        /* \"contracts/PriorityHeap.sol\":1233:1237  heap */\n      dup1\n        /* \"contracts/PriorityHeap.sol\":1233:1244  heap.length */\n      dup1\n      sload\n      swap1\n      pop\n        /* \"contracts/PriorityHeap.sol\":1233:1248  heap.length > 0 */\n      gt\n        /* \"contracts/PriorityHeap.sol\":1225:1273  require(heap.length > 0, \"No tasks in the heap\") */\n      tag_31\n      jumpi\n      mload(0x40)\n      0x08c379a000000000000000000000000000000000000000000000000000000000\n      dup2\n      mstore\n      0x04\n      add\n      tag_32\n      swap1\n      tag_33\n      jump\t// in\n    tag_32:\n      mload(0x40)\n      dup1\n      swap2\n      sub\n      swap1\n      revert\n    tag_31:\n        /* \"contracts/PriorityHeap.sol\":1284:1299  Task memory min */\n      0x00\n        /* \"contracts/PriorityHeap.sol\":1302:1306  heap */\n      dup1\n        /* \"contracts/PriorityHeap.sol\":1307:1308  0 */\n      0x00\n        /* \"contracts/PriorityHeap.sol\":1302:1309  heap[0] */\n      dup2\n      sload\n      dup2\n      lt\n      tag_34\n      jumpi\n      tag_35\n      tag_36\n      jump\t// in\n    tag_35:\n    tag_34:\n      swap1\n      0x00\n      mstore\n      keccak256(0x00, 0x20)\n      swap1\n      0x02\n      mul\n      add\n        /* \"contracts/PriorityHeap.sol\":1284:1309  Task memory min = heap[0] */\n      mload(0x40)\n      dup1\n      0x40\n      add\n      0x40\n      mstore\n      swap1\n      dup2\n      0x00\n      dup3\n      add\n      sload\n      dup2\n      mstore\n      0x20\n      add\n      0x01\n      dup3\n      add\n      sload\n      dup2\n      mstore\n      pop\n      pop\n      swap1\n      pop\n        /* \"contracts/PriorityHeap.sol\":1330:1334  heap */\n      0x00\n        /* \"contracts/PriorityHeap.sol\":1349:1350  1 */\n      0x01\n        /* \"contracts/PriorityHeap.sol\":1335:1339  heap */\n      0x00\n        /* \"contracts/PriorityHeap.sol\":1335:1346  heap.length */\n      dup1\n      sload\n      swap1\n      pop\n        /* \"contracts/PriorityHeap.sol\":1335:1350  heap.length - 1 */\n      tag_38\n      swap2\n      swap1\n      tag_26\n      jump\t// in\n    tag_38:\n        /* \"contracts/PriorityHeap.sol\":1330:1351  heap[heap.length - 1] */\n      dup2\n      sload\n      dup2\n      lt\n      tag_39\n      jumpi\n      tag_40\n      tag_36\n      jump\t// in\n    tag_40:\n    tag_39:\n      swap1\n      0x00\n      mstore\n      keccak256(0x00, 0x20)\n      swap1\n      0x02\n      mul\n      add\n        /* \"contracts/PriorityHeap.sol\":1320:1324  heap */\n      0x00\n        /* \"contracts/PriorityHeap.sol\":1325:1326  0 */\n      dup1\n        /* \"contracts/PriorityHeap.sol\":1320:1327  heap[0] */\n      dup2\n      sload\n      dup2\n      lt\n      tag_42\n      jumpi\n      tag_43\n      tag_36\n      jump\t// in\n    tag_43:\n    tag_42:\n      swap1\n      0x00\n      mstore\n      keccak256(0x00, 0x20)\n      swap1\n      0x02\n      mul\n      add\n        /* \"contracts/PriorityHeap.sol\":1320:1351  heap[0] = heap[heap.length - 1] */\n      0x00\n      dup3\n      add\n      sload\n      dup2\n      0x00\n      add\n      sstore\n      0x01\n      dup3\n      add\n      sload\n      dup2\n      0x01\n      add\n      sstore\n      swap1\n      pop\n      pop\n        /* \"contracts/PriorityHeap.sol\":1362:1366  heap */\n      0x00\n        /* \"contracts/PriorityHeap.sol\":1362:1372  heap.pop() */\n      dup1\n      sload\n      dup1\n      tag_45\n      jumpi\n      tag_46\n      tag_47\n      jump\t// in\n    tag_46:\n    tag_45:\n      0x01\n      swap1\n      sub\n      dup2\n      dup2\n      swap1\n      0x00\n      mstore\n      keccak256(0x00, 0x20)\n      swap1\n      0x02\n      mul\n      add\n      0x00\n      dup1\n      dup3\n      add\n      0x00\n      swap1\n      sstore\n      0x01\n      dup3\n      add\n      0x00\n      swap1\n      sstore\n      pop\n      pop\n      swap1\n      sstore\n        /* \"contracts/PriorityHeap.sol\":1383:1396  bubbleDown(0) */\n      tag_49\n        /* \"contracts/PriorityHeap.sol\":1394:1395  0 */\n      0x00\n        /* \"contracts/PriorityHeap.sol\":1383:1393  bubbleDown */\n      tag_50\n        /* \"contracts/PriorityHeap.sol\":1383:1396  bubbleDown(0) */\n      jump\t// in\n    tag_49:\n        /* \"contracts/PriorityHeap.sol\":1414:1417  min */\n      dup1\n        /* \"contracts/PriorityHeap.sol\":1407:1417  return min */\n      swap2\n      pop\n      pop\n        /* \"contracts/PriorityHeap.sol\":1163:1425  function extractMin() public returns (Task memory) {... */\n      swap1\n      jump\t// out\n        /* \"contracts/PriorityHeap.sol\":510:905  function bubbleUp(uint index) internal {... */\n    tag_27:\n        /* \"contracts/PriorityHeap.sol\":560:898  while (index > 0 && heap[parent(index)].priority > heap[index].priority) {... */\n    tag_52:\n        /* \"contracts/PriorityHeap.sol\":575:576  0 */\n      0x00\n        /* \"contracts/PriorityHeap.sol\":567:572  index */\n      dup2\n        /* \"contracts/PriorityHeap.sol\":567:576  index > 0 */\n      gt\n        /* \"contracts/PriorityHeap.sol\":567:631  index > 0 && heap[parent(index)].priority > heap[index].priority */\n      dup1\n      iszero\n      tag_54\n      jumpi\n      pop\n        /* \"contracts/PriorityHeap.sol\":611:615  heap */\n      0x00\n        /* \"contracts/PriorityHeap.sol\":616:621  index */\n      dup2\n        /* \"contracts/PriorityHeap.sol\":611:622  heap[index] */\n      dup2\n      sload\n      dup2\n      lt\n      tag_55\n      jumpi\n      tag_56\n      tag_36\n      jump\t// in\n    tag_56:\n    tag_55:\n      swap1\n      0x00\n      mstore\n      keccak256(0x00, 0x20)\n      swap1\n      0x02\n      mul\n      add\n        /* \"contracts/PriorityHeap.sol\":611:631  heap[index].priority */\n      0x01\n      add\n      sload\n        /* \"contracts/PriorityHeap.sol\":580:584  heap */\n      0x00\n        /* \"contracts/PriorityHeap.sol\":585:598  parent(index) */\n      tag_58\n        /* \"contracts/PriorityHeap.sol\":592:597  index */\n      dup4\n        /* \"contracts/PriorityHeap.sol\":585:591  parent */\n      tag_59\n        /* \"contracts/PriorityHeap.sol\":585:598  parent(index) */\n      jump\t// in\n    tag_58:\n        /* \"contracts/PriorityHeap.sol\":580:599  heap[parent(index)] */\n      dup2\n      sload\n      dup2\n      lt\n      tag_60\n      jumpi\n      tag_61\n      tag_36\n      jump\t// in\n    tag_61:\n    tag_60:\n      swap1\n      0x00\n      mstore\n      keccak256(0x00, 0x20)\n      swap1\n      0x02\n      mul\n      add\n        /* \"contracts/PriorityHeap.sol\":580:608  heap[parent(index)].priority */\n      0x01\n      add\n      sload\n        /* \"contracts/PriorityHeap.sol\":580:631  heap[parent(index)].priority > heap[index].priority */\n      gt\n        /* \"contracts/PriorityHeap.sol\":567:631  index > 0 && heap[parent(index)].priority > heap[index].priority */\n    tag_54:\n        /* \"contracts/PriorityHeap.sol\":560:898  while (index > 0 && heap[parent(index)].priority > heap[index].priority) {... */\n      iszero\n      tag_53\n      jumpi\n        /* \"contracts/PriorityHeap.sol\":729:745  Task memory temp */\n      0x00\n        /* \"contracts/PriorityHeap.sol\":748:752  heap */\n      dup1\n        /* \"contracts/PriorityHeap.sol\":753:758  index */\n      dup3\n        /* \"contracts/PriorityHeap.sol\":748:759  heap[index] */\n      dup2\n      sload\n      dup2\n      lt\n      tag_63\n      jumpi\n      tag_64\n      tag_36\n      jump\t// in\n    tag_64:\n    tag_63:\n      swap1\n      0x00\n      mstore\n      keccak256(0x00, 0x20)\n      swap1\n      0x02\n      mul\n      add\n        /* \"contracts/PriorityHeap.sol\":729:759  Task memory temp = heap[index] */\n      mload(0x40)\n      dup1\n      0x40\n      add\n      0x40\n      mstore\n      swap1\n      dup2\n      0x00\n      dup3\n      add\n      sload\n      dup2\n      mstore\n      0x20\n      add\n      0x01\n      dup3\n      add\n      sload\n      dup2\n      mstore\n      pop\n      pop\n      swap1\n      pop\n        /* \"contracts/PriorityHeap.sol\":788:792  heap */\n      0x00\n        /* \"contracts/PriorityHeap.sol\":793:806  parent(index) */\n      tag_66\n        /* \"contracts/PriorityHeap.sol\":800:805  index */\n      dup4\n        /* \"contracts/PriorityHeap.sol\":793:799  parent */\n      tag_59\n        /* \"contracts/PriorityHeap.sol\":793:806  parent(index) */\n      jump\t// in\n    tag_66:\n        /* \"contracts/PriorityHeap.sol\":788:807  heap[parent(index)] */\n      dup2\n      sload\n      dup2\n      lt\n      tag_67\n      jumpi\n      tag_68\n      tag_36\n      jump\t// in\n    tag_68:\n    tag_67:\n      swap1\n      0x00\n      mstore\n      keccak256(0x00, 0x20)\n      swap1\n      0x02\n      mul\n      add\n        /* \"contracts/PriorityHeap.sol\":774:778  heap */\n      0x00\n        /* \"contracts/PriorityHeap.sol\":779:784  index */\n      dup4\n        /* \"contracts/PriorityHeap.sol\":774:785  heap[index] */\n      dup2\n      sload\n      dup2\n      lt\n      tag_70\n      jumpi\n      tag_71\n      tag_36\n      jump\t// in\n    tag_71:\n    tag_70:\n      swap1\n      0x00\n      mstore\n      keccak256(0x00, 0x20)\n      swap1\n      0x02\n      mul\n      add\n        /* \"contracts/PriorityHeap.sol\":774:807  heap[index] = heap[parent(index)] */\n      0x00\n      dup3\n      add\n      sload\n      dup2\n      0x00\n      add\n      sstore\n      0x01\n      dup3\n      add\n      sload\n      dup2\n      0x01\n      add\n      sstore\n      swap1\n      pop\n      pop\n        /* \"contracts/PriorityHeap.sol\":844:848  temp */\n      dup1\n        /* \"contracts/PriorityHeap.sol\":822:826  heap */\n      0x00\n        /* \"contracts/PriorityHeap.sol\":827:840  parent(index) */\n      tag_73\n        /* \"contracts/PriorityHeap.sol\":834:839  index */\n      dup5\n        /* \"contracts/PriorityHeap.sol\":827:833  parent */\n      tag_59\n        /* \"contracts/PriorityHeap.sol\":827:840  parent(index) */\n      jump\t// in\n    tag_73:\n        /* \"contracts/PriorityHeap.sol\":822:841  heap[parent(index)] */\n      dup2\n      sload\n      dup2\n      lt\n      tag_74\n      jumpi\n      tag_75\n      tag_36\n      jump\t// in\n    tag_75:\n    tag_74:\n      swap1\n      0x00\n      mstore\n      keccak256(0x00, 0x20)\n      swap1\n      0x02\n      mul\n      add\n        /* \"contracts/PriorityHeap.sol\":822:848  heap[parent(index)] = temp */\n      0x00\n      dup3\n      add\n      mload\n      dup2\n      0x00\n      add\n      sstore\n      0x20\n      dup3\n      add\n      mload\n      dup2\n      0x01\n      add\n      sstore\n      swap1\n      pop\n      pop\n        /* \"contracts/PriorityHeap.sol\":873:886  parent(index) */\n      tag_77\n        /* \"contracts/PriorityHeap.sol\":880:885  index */\n      dup3\n        /* \"contracts/PriorityHeap.sol\":873:879  parent */\n      tag_59\n        /* \"contracts/PriorityHeap.sol\":873:886  parent(index) */\n      jump\t// in\n    tag_77:\n        /* \"contracts/PriorityHeap.sol\":865:886  index = parent(index) */\n      swap2\n      pop\n        /* \"contracts/PriorityHeap.sol\":633:898  {... */\n      pop\n        /* \"contracts/PriorityHeap.sol\":560:898  while (index > 0 && heap[parent(index)].priority > heap[index].priority) {... */\n      jump(tag_52)\n    tag_53:\n        /* \"contracts/PriorityHeap.sol\":510:905  function bubbleUp(uint index) internal {... */\n      pop\n      jump\t// out\n        /* \"contracts/PriorityHeap.sol\":1535:2271  function bubbleDown(uint index) internal {... */\n    tag_50:\n        /* \"contracts/PriorityHeap.sol\":1587:1600  uint smallest */\n      0x00\n        /* \"contracts/PriorityHeap.sol\":1603:1608  index */\n      dup2\n        /* \"contracts/PriorityHeap.sol\":1587:1608  uint smallest = index */\n      swap1\n      pop\n        /* \"contracts/PriorityHeap.sol\":1619:1633  uint leftChild */\n      0x00\n        /* \"contracts/PriorityHeap.sol\":1648:1649  1 */\n      0x01\n        /* \"contracts/PriorityHeap.sol\":1640:1645  index */\n      dup4\n        /* \"contracts/PriorityHeap.sol\":1636:1637  2 */\n      0x02\n        /* \"contracts/PriorityHeap.sol\":1636:1645  2 * index */\n      tag_79\n      swap2\n      swap1\n      tag_80\n      jump\t// in\n    tag_79:\n        /* \"contracts/PriorityHeap.sol\":1636:1649  2 * index + 1 */\n      tag_81\n      swap2\n      swap1\n      tag_82\n      jump\t// in\n    tag_81:\n        /* \"contracts/PriorityHeap.sol\":1619:1649  uint leftChild = 2 * index + 1 */\n      swap1\n      pop\n        /* \"contracts/PriorityHeap.sol\":1660:1675  uint rightChild */\n      0x00\n        /* \"contracts/PriorityHeap.sol\":1690:1691  2 */\n      0x02\n        /* \"contracts/PriorityHeap.sol\":1682:1687  index */\n      dup5\n        /* \"contracts/PriorityHeap.sol\":1678:1679  2 */\n      0x02\n        /* \"contracts/PriorityHeap.sol\":1678:1687  2 * index */\n      tag_83\n      swap2\n      swap1\n      tag_80\n      jump\t// in\n    tag_83:\n        /* \"contracts/PriorityHeap.sol\":1678:1691  2 * index + 2 */\n      tag_84\n      swap2\n      swap1\n      tag_82\n      jump\t// in\n    tag_84:\n        /* \"contracts/PriorityHeap.sol\":1660:1691  uint rightChild = 2 * index + 2 */\n      swap1\n      pop\n        /* \"contracts/PriorityHeap.sol\":1720:1724  heap */\n      0x00\n        /* \"contracts/PriorityHeap.sol\":1720:1731  heap.length */\n      dup1\n      sload\n      swap1\n      pop\n        /* \"contracts/PriorityHeap.sol\":1708:1717  leftChild */\n      dup3\n        /* \"contracts/PriorityHeap.sol\":1708:1731  leftChild < heap.length */\n      lt\n        /* \"contracts/PriorityHeap.sol\":1708:1785  leftChild < heap.length && heap[leftChild].priority < heap[smallest].priority */\n      dup1\n      iszero\n      tag_85\n      jumpi\n      pop\n        /* \"contracts/PriorityHeap.sol\":1762:1766  heap */\n      0x00\n        /* \"contracts/PriorityHeap.sol\":1767:1775  smallest */\n      dup4\n        /* \"contracts/PriorityHeap.sol\":1762:1776  heap[smallest] */\n      dup2\n      sload\n      dup2\n      lt\n      tag_86\n      jumpi\n      tag_87\n      tag_36\n      jump\t// in\n    tag_87:\n    tag_86:\n      swap1\n      0x00\n      mstore\n      keccak256(0x00, 0x20)\n      swap1\n      0x02\n      mul\n      add\n        /* \"contracts/PriorityHeap.sol\":1762:1785  heap[smallest].priority */\n      0x01\n      add\n      sload\n        /* \"contracts/PriorityHeap.sol\":1735:1739  heap */\n      0x00\n        /* \"contracts/PriorityHeap.sol\":1740:1749  leftChild */\n      dup4\n        /* \"contracts/PriorityHeap.sol\":1735:1750  heap[leftChild] */\n      dup2\n      sload\n      dup2\n      lt\n      tag_89\n      jumpi\n      tag_90\n      tag_36\n      jump\t// in\n    tag_90:\n    tag_89:\n      swap1\n      0x00\n      mstore\n      keccak256(0x00, 0x20)\n      swap1\n      0x02\n      mul\n      add\n        /* \"contracts/PriorityHeap.sol\":1735:1759  heap[leftChild].priority */\n      0x01\n      add\n      sload\n        /* \"contracts/PriorityHeap.sol\":1735:1785  heap[leftChild].priority < heap[smallest].priority */\n      lt\n        /* \"contracts/PriorityHeap.sol\":1708:1785  leftChild < heap.length && heap[leftChild].priority < heap[smallest].priority */\n    tag_85:\n        /* \"contracts/PriorityHeap.sol\":1704:1834  if (leftChild < heap.length && heap[leftChild].priority < heap[smallest].priority) {... */\n      iszero\n      tag_92\n      jumpi\n        /* \"contracts/PriorityHeap.sol\":1813:1822  leftChild */\n      dup2\n        /* \"contracts/PriorityHeap.sol\":1802:1822  smallest = leftChild */\n      swap3\n      pop\n        /* \"contracts/PriorityHeap.sol\":1704:1834  if (leftChild < heap.length && heap[leftChild].priority < heap[smallest].priority) {... */\n    tag_92:\n        /* \"contracts/PriorityHeap.sol\":1861:1865  heap */\n      0x00\n        /* \"contracts/PriorityHeap.sol\":1861:1872  heap.length */\n      dup1\n      sload\n      swap1\n      pop\n        /* \"contracts/PriorityHeap.sol\":1848:1858  rightChild */\n      dup2\n        /* \"contracts/PriorityHeap.sol\":1848:1872  rightChild < heap.length */\n      lt\n        /* \"contracts/PriorityHeap.sol\":1848:1927  rightChild < heap.length && heap[rightChild].priority < heap[smallest].priority */\n      dup1\n      iszero\n      tag_93\n      jumpi\n      pop\n        /* \"contracts/PriorityHeap.sol\":1904:1908  heap */\n      0x00\n        /* \"contracts/PriorityHeap.sol\":1909:1917  smallest */\n      dup4\n        /* \"contracts/PriorityHeap.sol\":1904:1918  heap[smallest] */\n      dup2\n      sload\n      dup2\n      lt\n      tag_94\n      jumpi\n      tag_95\n      tag_36\n      jump\t// in\n    tag_95:\n    tag_94:\n      swap1\n      0x00\n      mstore\n      keccak256(0x00, 0x20)\n      swap1\n      0x02\n      mul\n      add\n        /* \"contracts/PriorityHeap.sol\":1904:1927  heap[smallest].priority */\n      0x01\n      add\n      sload\n        /* \"contracts/PriorityHeap.sol\":1876:1880  heap */\n      0x00\n        /* \"contracts/PriorityHeap.sol\":1881:1891  rightChild */\n      dup3\n        /* \"contracts/PriorityHeap.sol\":1876:1892  heap[rightChild] */\n      dup2\n      sload\n      dup2\n      lt\n      tag_97\n      jumpi\n      tag_98\n      tag_36\n      jump\t// in\n    tag_98:\n    tag_97:\n      swap1\n      0x00\n      mstore\n      keccak256(0x00, 0x20)\n      swap1\n      0x02\n      mul\n      add\n        /* \"contracts/PriorityHeap.sol\":1876:1901  heap[rightChild].priority */\n      0x01\n      add\n      sload\n        /* \"contracts/PriorityHeap.sol\":1876:1927  heap[rightChild].priority < heap[smallest].priority */\n      lt\n        /* \"contracts/PriorityHeap.sol\":1848:1927  rightChild < heap.length && heap[rightChild].priority < heap[smallest].priority */\n    tag_93:\n        /* \"contracts/PriorityHeap.sol\":1844:1977  if (rightChild < heap.length && heap[rightChild].priority < heap[smallest].priority) {... */\n      iszero\n      tag_100\n      jumpi\n        /* \"contracts/PriorityHeap.sol\":1955:1965  rightChild */\n      dup1\n        /* \"contracts/PriorityHeap.sol\":1944:1965  smallest = rightChild */\n      swap3\n      pop\n        /* \"contracts/PriorityHeap.sol\":1844:1977  if (rightChild < heap.length && heap[rightChild].priority < heap[smallest].priority) {... */\n    tag_100:\n        /* \"contracts/PriorityHeap.sol\":2003:2008  index */\n      dup4\n        /* \"contracts/PriorityHeap.sol\":1991:1999  smallest */\n      dup4\n        /* \"contracts/PriorityHeap.sol\":1991:2008  smallest != index */\n      eq\n        /* \"contracts/PriorityHeap.sol\":1987:2264  if (smallest != index) {... */\n      tag_101\n      jumpi\n        /* \"contracts/PriorityHeap.sol\":2106:2122  Task memory temp */\n      0x00\n        /* \"contracts/PriorityHeap.sol\":2125:2129  heap */\n      dup1\n        /* \"contracts/PriorityHeap.sol\":2130:2135  index */\n      dup6\n        /* \"contracts/PriorityHeap.sol\":2125:2136  heap[index] */\n      dup2\n      sload\n      dup2\n      lt\n      tag_102\n      jumpi\n      tag_103\n      tag_36\n      jump\t// in\n    tag_103:\n    tag_102:\n      swap1\n      0x00\n      mstore\n      keccak256(0x00, 0x20)\n      swap1\n      0x02\n      mul\n      add\n        /* \"contracts/PriorityHeap.sol\":2106:2136  Task memory temp = heap[index] */\n      mload(0x40)\n      dup1\n      0x40\n      add\n      0x40\n      mstore\n      swap1\n      dup2\n      0x00\n      dup3\n      add\n      sload\n      dup2\n      mstore\n      0x20\n      add\n      0x01\n      dup3\n      add\n      sload\n      dup2\n      mstore\n      pop\n      pop\n      swap1\n      pop\n        /* \"contracts/PriorityHeap.sol\":2165:2169  heap */\n      0x00\n        /* \"contracts/PriorityHeap.sol\":2170:2178  smallest */\n      dup5\n        /* \"contracts/PriorityHeap.sol\":2165:2179  heap[smallest] */\n      dup2\n      sload\n      dup2\n      lt\n      tag_105\n      jumpi\n      tag_106\n      tag_36\n      jump\t// in\n    tag_106:\n    tag_105:\n      swap1\n      0x00\n      mstore\n      keccak256(0x00, 0x20)\n      swap1\n      0x02\n      mul\n      add\n        /* \"contracts/PriorityHeap.sol\":2151:2155  heap */\n      0x00\n        /* \"contracts/PriorityHeap.sol\":2156:2161  index */\n      dup7\n        /* \"contracts/PriorityHeap.sol\":2151:2162  heap[index] */\n      dup2\n      sload\n      dup2\n      lt\n      tag_108\n      jumpi\n      tag_109\n      tag_36\n      jump\t// in\n    tag_109:\n    tag_108:\n      swap1\n      0x00\n      mstore\n      keccak256(0x00, 0x20)\n      swap1\n      0x02\n      mul\n      add\n        /* \"contracts/PriorityHeap.sol\":2151:2179  heap[index] = heap[smallest] */\n      0x00\n      dup3\n      add\n      sload\n      dup2\n      0x00\n      add\n      sstore\n      0x01\n      dup3\n      add\n      sload\n      dup2\n      0x01\n      add\n      sstore\n      swap1\n      pop\n      pop\n        /* \"contracts/PriorityHeap.sol\":2211:2215  temp */\n      dup1\n        /* \"contracts/PriorityHeap.sol\":2194:2198  heap */\n      0x00\n        /* \"contracts/PriorityHeap.sol\":2199:2207  smallest */\n      dup6\n        /* \"contracts/PriorityHeap.sol\":2194:2208  heap[smallest] */\n      dup2\n      sload\n      dup2\n      lt\n      tag_111\n      jumpi\n      tag_112\n      tag_36\n      jump\t// in\n    tag_112:\n    tag_111:\n      swap1\n      0x00\n      mstore\n      keccak256(0x00, 0x20)\n      swap1\n      0x02\n      mul\n      add\n        /* \"contracts/PriorityHeap.sol\":2194:2215  heap[smallest] = temp */\n      0x00\n      dup3\n      add\n      mload\n      dup2\n      0x00\n      add\n      sstore\n      0x20\n      dup3\n      add\n      mload\n      dup2\n      0x01\n      add\n      sstore\n      swap1\n      pop\n      pop\n        /* \"contracts/PriorityHeap.sol\":2232:2252  bubbleDown(smallest) */\n      tag_114\n        /* \"contracts/PriorityHeap.sol\":2243:2251  smallest */\n      dup5\n        /* \"contracts/PriorityHeap.sol\":2232:2242  bubbleDown */\n      tag_50\n        /* \"contracts/PriorityHeap.sol\":2232:2252  bubbleDown(smallest) */\n      jump\t// in\n    tag_114:\n        /* \"contracts/PriorityHeap.sol\":2010:2264  {... */\n      pop\n        /* \"contracts/PriorityHeap.sol\":1987:2264  if (smallest != index) {... */\n    tag_101:\n        /* \"contracts/PriorityHeap.sol\":1576:2271  {... */\n      pop\n      pop\n      pop\n        /* \"contracts/PriorityHeap.sol\":1535:2271  function bubbleDown(uint index) internal {... */\n      pop\n      jump\t// out\n        /* \"contracts/PriorityHeap.sol\":979:1077  function parent(uint index) internal pure returns (uint) {... */\n    tag_59:\n        /* \"contracts/PriorityHeap.sol\":1030:1034  uint */\n      0x00\n        /* \"contracts/PriorityHeap.sol\":1068:1069  2 */\n      0x02\n        /* \"contracts/PriorityHeap.sol\":1063:1064  1 */\n      0x01\n        /* \"contracts/PriorityHeap.sol\":1055:1060  index */\n      dup4\n        /* \"contracts/PriorityHeap.sol\":1055:1064  index - 1 */\n      tag_116\n      swap2\n      swap1\n      tag_26\n      jump\t// in\n    tag_116:\n        /* \"contracts/PriorityHeap.sol\":1054:1069  (index - 1) / 2 */\n      tag_117\n      swap2\n      swap1\n      tag_118\n      jump\t// in\n    tag_117:\n        /* \"contracts/PriorityHeap.sol\":1047:1069  return (index - 1) / 2 */\n      swap1\n      pop\n        /* \"contracts/PriorityHeap.sol\":979:1077  function parent(uint index) internal pure returns (uint) {... */\n      swap2\n      swap1\n      pop\n      jump\t// out\n    tag_29:\n      mload(0x40)\n      dup1\n      0x40\n      add\n      0x40\n      mstore\n      dup1\n      0x00\n      dup2\n      mstore\n      0x20\n      add\n      0x00\n      dup2\n      mstore\n      pop\n      swap1\n      jump\t// out\n        /* \"#utility.yul\":88:205   */\n    tag_120:\n        /* \"#utility.yul\":197:198   */\n      0x00\n        /* \"#utility.yul\":194:195   */\n      dup1\n        /* \"#utility.yul\":187:199   */\n      revert\n        /* \"#utility.yul\":334:411   */\n    tag_122:\n        /* \"#utility.yul\":371:378   */\n      0x00\n        /* \"#utility.yul\":400:405   */\n      dup2\n        /* \"#utility.yul\":389:405   */\n      swap1\n      pop\n        /* \"#utility.yul\":334:411   */\n      swap2\n      swap1\n      pop\n      jump\t// out\n        /* \"#utility.yul\":417:539   */\n    tag_123:\n        /* \"#utility.yul\":490:514   */\n      tag_139\n        /* \"#utility.yul\":508:513   */\n      dup2\n        /* \"#utility.yul\":490:514   */\n      tag_122\n      jump\t// in\n    tag_139:\n        /* \"#utility.yul\":483:488   */\n      dup2\n        /* \"#utility.yul\":480:515   */\n      eq\n        /* \"#utility.yul\":470:533   */\n      tag_140\n      jumpi\n        /* \"#utility.yul\":529:530   */\n      0x00\n        /* \"#utility.yul\":526:527   */\n      dup1\n        /* \"#utility.yul\":519:531   */\n      revert\n        /* \"#utility.yul\":470:533   */\n    tag_140:\n        /* \"#utility.yul\":417:539   */\n      pop\n      jump\t// out\n        /* \"#utility.yul\":545:684   */\n    tag_124:\n        /* \"#utility.yul\":591:596   */\n      0x00\n        /* \"#utility.yul\":629:635   */\n      dup2\n        /* \"#utility.yul\":616:636   */\n      calldataload\n        /* \"#utility.yul\":607:636   */\n      swap1\n      pop\n        /* \"#utility.yul\":645:678   */\n      tag_142\n        /* \"#utility.yul\":672:677   */\n      dup2\n        /* \"#utility.yul\":645:678   */\n      tag_123\n      jump\t// in\n    tag_142:\n        /* \"#utility.yul\":545:684   */\n      swap3\n      swap2\n      pop\n      pop\n      jump\t// out\n        /* \"#utility.yul\":690:1019   */\n    tag_8:\n        /* \"#utility.yul\":749:755   */\n      0x00\n        /* \"#utility.yul\":798:800   */\n      0x20\n        /* \"#utility.yul\":786:795   */\n      dup3\n        /* \"#utility.yul\":777:784   */\n      dup5\n        /* \"#utility.yul\":773:796   */\n      sub\n        /* \"#utility.yul\":769:801   */\n      slt\n        /* \"#utility.yul\":766:885   */\n      iszero\n      tag_144\n      jumpi\n        /* \"#utility.yul\":804:883   */\n      tag_145\n      tag_120\n      jump\t// in\n    tag_145:\n        /* \"#utility.yul\":766:885   */\n    tag_144:\n        /* \"#utility.yul\":924:925   */\n      0x00\n        /* \"#utility.yul\":949:1002   */\n      tag_146\n        /* \"#utility.yul\":994:1001   */\n      dup5\n        /* \"#utility.yul\":985:991   */\n      dup3\n        /* \"#utility.yul\":974:983   */\n      dup6\n        /* \"#utility.yul\":970:992   */\n      add\n        /* \"#utility.yul\":949:1002   */\n      tag_124\n      jump\t// in\n    tag_146:\n        /* \"#utility.yul\":939:1002   */\n      swap2\n      pop\n        /* \"#utility.yul\":895:1012   */\n      pop\n        /* \"#utility.yul\":690:1019   */\n      swap3\n      swap2\n      pop\n      pop\n      jump\t// out\n        /* \"#utility.yul\":1025:1143   */\n    tag_125:\n        /* \"#utility.yul\":1112:1136   */\n      tag_148\n        /* \"#utility.yul\":1130:1135   */\n      dup2\n        /* \"#utility.yul\":1112:1136   */\n      tag_122\n      jump\t// in\n    tag_148:\n        /* \"#utility.yul\":1107:1110   */\n      dup3\n        /* \"#utility.yul\":1100:1137   */\n      mstore\n        /* \"#utility.yul\":1025:1143   */\n      pop\n      pop\n      jump\t// out\n        /* \"#utility.yul\":1149:1481   */\n    tag_11:\n        /* \"#utility.yul\":1270:1274   */\n      0x00\n        /* \"#utility.yul\":1308:1310   */\n      0x40\n        /* \"#utility.yul\":1297:1306   */\n      dup3\n        /* \"#utility.yul\":1293:1311   */\n      add\n        /* \"#utility.yul\":1285:1311   */\n      swap1\n      pop\n        /* \"#utility.yul\":1321:1392   */\n      tag_150\n        /* \"#utility.yul\":1389:1390   */\n      0x00\n        /* \"#utility.yul\":1378:1387   */\n      dup4\n        /* \"#utility.yul\":1374:1391   */\n      add\n        /* \"#utility.yul\":1365:1371   */\n      dup6\n        /* \"#utility.yul\":1321:1392   */\n      tag_125\n      jump\t// in\n    tag_150:\n        /* \"#utility.yul\":1402:1474   */\n      tag_151\n        /* \"#utility.yul\":1470:1472   */\n      0x20\n        /* \"#utility.yul\":1459:1468   */\n      dup4\n        /* \"#utility.yul\":1455:1473   */\n      add\n        /* \"#utility.yul\":1446:1452   */\n      dup5\n        /* \"#utility.yul\":1402:1474   */\n      tag_125\n      jump\t// in\n    tag_151:\n        /* \"#utility.yul\":1149:1481   */\n      swap4\n      swap3\n      pop\n      pop\n      pop\n      jump\t// out\n        /* \"#utility.yul\":1487:1961   */\n    tag_14:\n        /* \"#utility.yul\":1555:1561   */\n      0x00\n        /* \"#utility.yul\":1563:1569   */\n      dup1\n        /* \"#utility.yul\":1612:1614   */\n      0x40\n        /* \"#utility.yul\":1600:1609   */\n      dup4\n        /* \"#utility.yul\":1591:1598   */\n      dup6\n        /* \"#utility.yul\":1587:1610   */\n      sub\n        /* \"#utility.yul\":1583:1615   */\n      slt\n        /* \"#utility.yul\":1580:1699   */\n      iszero\n      tag_153\n      jumpi\n        /* \"#utility.yul\":1618:1697   */\n      tag_154\n      tag_120\n      jump\t// in\n    tag_154:\n        /* \"#utility.yul\":1580:1699   */\n    tag_153:\n        /* \"#utility.yul\":1738:1739   */\n      0x00\n        /* \"#utility.yul\":1763:1816   */\n      tag_155\n        /* \"#utility.yul\":1808:1815   */\n      dup6\n        /* \"#utility.yul\":1799:1805   */\n      dup3\n        /* \"#utility.yul\":1788:1797   */\n      dup7\n        /* \"#utility.yul\":1784:1806   */\n      add\n        /* \"#utility.yul\":1763:1816   */\n      tag_124\n      jump\t// in\n    tag_155:\n        /* \"#utility.yul\":1753:1816   */\n      swap3\n      pop\n        /* \"#utility.yul\":1709:1826   */\n      pop\n        /* \"#utility.yul\":1865:1867   */\n      0x20\n        /* \"#utility.yul\":1891:1944   */\n      tag_156\n        /* \"#utility.yul\":1936:1943   */\n      dup6\n        /* \"#utility.yul\":1927:1933   */\n      dup3\n        /* \"#utility.yul\":1916:1925   */\n      dup7\n        /* \"#utility.yul\":1912:1934   */\n      add\n        /* \"#utility.yul\":1891:1944   */\n      tag_124\n      jump\t// in\n    tag_156:\n        /* \"#utility.yul\":1881:1944   */\n      swap2\n      pop\n        /* \"#utility.yul\":1836:1954   */\n      pop\n        /* \"#utility.yul\":1487:1961   */\n      swap3\n      pop\n      swap3\n      swap1\n      pop\n      jump\t// out\n        /* \"#utility.yul\":1967:2075   */\n    tag_126:\n        /* \"#utility.yul\":2044:2068   */\n      tag_158\n        /* \"#utility.yul\":2062:2067   */\n      dup2\n        /* \"#utility.yul\":2044:2068   */\n      tag_122\n      jump\t// in\n    tag_158:\n        /* \"#utility.yul\":2039:2042   */\n      dup3\n        /* \"#utility.yul\":2032:2069   */\n      mstore\n        /* \"#utility.yul\":1967:2075   */\n      pop\n      pop\n      jump\t// out\n        /* \"#utility.yul\":2141:2642   */\n    tag_127:\n        /* \"#utility.yul\":2280:2284   */\n      0x40\n        /* \"#utility.yul\":2275:2278   */\n      dup3\n        /* \"#utility.yul\":2271:2285   */\n      add\n        /* \"#utility.yul\":2365:2369   */\n      0x00\n        /* \"#utility.yul\":2358:2363   */\n      dup3\n        /* \"#utility.yul\":2354:2370   */\n      add\n        /* \"#utility.yul\":2348:2371   */\n      mload\n        /* \"#utility.yul\":2384:2447   */\n      tag_160\n        /* \"#utility.yul\":2441:2445   */\n      0x00\n        /* \"#utility.yul\":2436:2439   */\n      dup6\n        /* \"#utility.yul\":2432:2446   */\n      add\n        /* \"#utility.yul\":2418:2430   */\n      dup3\n        /* \"#utility.yul\":2384:2447   */\n      tag_126\n      jump\t// in\n    tag_160:\n        /* \"#utility.yul\":2295:2457   */\n      pop\n        /* \"#utility.yul\":2543:2547   */\n      0x20\n        /* \"#utility.yul\":2536:2541   */\n      dup3\n        /* \"#utility.yul\":2532:2548   */\n      add\n        /* \"#utility.yul\":2526:2549   */\n      mload\n        /* \"#utility.yul\":2562:2625   */\n      tag_161\n        /* \"#utility.yul\":2619:2623   */\n      0x20\n        /* \"#utility.yul\":2614:2617   */\n      dup6\n        /* \"#utility.yul\":2610:2624   */\n      add\n        /* \"#utility.yul\":2596:2608   */\n      dup3\n        /* \"#utility.yul\":2562:2625   */\n      tag_126\n      jump\t// in\n    tag_161:\n        /* \"#utility.yul\":2467:2635   */\n      pop\n        /* \"#utility.yul\":2249:2642   */\n      pop\n        /* \"#utility.yul\":2141:2642   */\n      pop\n      pop\n      jump\t// out\n        /* \"#utility.yul\":2648:2954   */\n    tag_19:\n        /* \"#utility.yul\":2783:2787   */\n      0x00\n        /* \"#utility.yul\":2821:2823   */\n      0x40\n        /* \"#utility.yul\":2810:2819   */\n      dup3\n        /* \"#utility.yul\":2806:2824   */\n      add\n        /* \"#utility.yul\":2798:2824   */\n      swap1\n      pop\n        /* \"#utility.yul\":2834:2947   */\n      tag_163\n        /* \"#utility.yul\":2944:2945   */\n      0x00\n        /* \"#utility.yul\":2933:2942   */\n      dup4\n        /* \"#utility.yul\":2929:2946   */\n      add\n        /* \"#utility.yul\":2920:2926   */\n      dup5\n        /* \"#utility.yul\":2834:2947   */\n      tag_127\n      jump\t// in\n    tag_163:\n        /* \"#utility.yul\":2648:2954   */\n      swap3\n      swap2\n      pop\n      pop\n      jump\t// out\n        /* \"#utility.yul\":2960:3140   */\n    tag_128:\n        /* \"#utility.yul\":3008:3085   */\n      0x4e487b7100000000000000000000000000000000000000000000000000000000\n        /* \"#utility.yul\":3005:3006   */\n      0x00\n        /* \"#utility.yul\":2998:3086   */\n      mstore\n        /* \"#utility.yul\":3105:3109   */\n      0x11\n        /* \"#utility.yul\":3102:3103   */\n      0x04\n        /* \"#utility.yul\":3095:3110   */\n      mstore\n        /* \"#utility.yul\":3129:3133   */\n      0x24\n        /* \"#utility.yul\":3126:3127   */\n      0x00\n        /* \"#utility.yul\":3119:3134   */\n      revert\n        /* \"#utility.yul\":3146:3340   */\n    tag_26:\n        /* \"#utility.yul\":3186:3190   */\n      0x00\n        /* \"#utility.yul\":3206:3226   */\n      tag_166\n        /* \"#utility.yul\":3224:3225   */\n      dup3\n        /* \"#utility.yul\":3206:3226   */\n      tag_122\n      jump\t// in\n    tag_166:\n        /* \"#utility.yul\":3201:3226   */\n      swap2\n      pop\n        /* \"#utility.yul\":3240:3260   */\n      tag_167\n        /* \"#utility.yul\":3258:3259   */\n      dup4\n        /* \"#utility.yul\":3240:3260   */\n      tag_122\n      jump\t// in\n    tag_167:\n        /* \"#utility.yul\":3235:3260   */\n      swap3\n      pop\n        /* \"#utility.yul\":3284:3285   */\n      dup3\n        /* \"#utility.yul\":3281:3282   */\n      dup3\n        /* \"#utility.yul\":3277:3286   */\n      sub\n        /* \"#utility.yul\":3269:3286   */\n      swap1\n      pop\n        /* \"#utility.yul\":3308:3309   */\n      dup2\n        /* \"#utility.yul\":3302:3306   */\n      dup2\n        /* \"#utility.yul\":3299:3310   */\n      gt\n        /* \"#utility.yul\":3296:3333   */\n      iszero\n      tag_168\n      jumpi\n        /* \"#utility.yul\":3313:3331   */\n      tag_169\n      tag_128\n      jump\t// in\n    tag_169:\n        /* \"#utility.yul\":3296:3333   */\n    tag_168:\n        /* \"#utility.yul\":3146:3340   */\n      swap3\n      swap2\n      pop\n      pop\n      jump\t// out\n        /* \"#utility.yul\":3346:3515   */\n    tag_129:\n        /* \"#utility.yul\":3430:3441   */\n      0x00\n        /* \"#utility.yul\":3464:3470   */\n      dup3\n        /* \"#utility.yul\":3459:3462   */\n      dup3\n        /* \"#utility.yul\":3452:3471   */\n      mstore\n        /* \"#utility.yul\":3504:3508   */\n      0x20\n        /* \"#utility.yul\":3499:3502   */\n      dup3\n        /* \"#utility.yul\":3495:3509   */\n      add\n        /* \"#utility.yul\":3480:3509   */\n      swap1\n      pop\n        /* \"#utility.yul\":3346:3515   */\n      swap3\n      swap2\n      pop\n      pop\n      jump\t// out\n        /* \"#utility.yul\":3521:3691   */\n    tag_130:\n        /* \"#utility.yul\":3661:3683   */\n      0x4e6f207461736b7320696e207468652068656170000000000000000000000000\n        /* \"#utility.yul\":3657:3658   */\n      0x00\n        /* \"#utility.yul\":3649:3655   */\n      dup3\n        /* \"#utility.yul\":3645:3659   */\n      add\n        /* \"#utility.yul\":3638:3684   */\n      mstore\n        /* \"#utility.yul\":3521:3691   */\n      pop\n      jump\t// out\n        /* \"#utility.yul\":3697:4063   */\n    tag_131:\n        /* \"#utility.yul\":3839:3842   */\n      0x00\n        /* \"#utility.yul\":3860:3927   */\n      tag_173\n        /* \"#utility.yul\":3924:3926   */\n      0x14\n        /* \"#utility.yul\":3919:3922   */\n      dup4\n        /* \"#utility.yul\":3860:3927   */\n      tag_129\n      jump\t// in\n    tag_173:\n        /* \"#utility.yul\":3853:3927   */\n      swap2\n      pop\n        /* \"#utility.yul\":3936:4029   */\n      tag_174\n        /* \"#utility.yul\":4025:4028   */\n      dup3\n        /* \"#utility.yul\":3936:4029   */\n      tag_130\n      jump\t// in\n    tag_174:\n        /* \"#utility.yul\":4054:4056   */\n      0x20\n        /* \"#utility.yul\":4049:4052   */\n      dup3\n        /* \"#utility.yul\":4045:4057   */\n      add\n        /* \"#utility.yul\":4038:4057   */\n      swap1\n      pop\n        /* \"#utility.yul\":3697:4063   */\n      swap2\n      swap1\n      pop\n      jump\t// out\n        /* \"#utility.yul\":4069:4488   */\n    tag_33:\n        /* \"#utility.yul\":4235:4239   */\n      0x00\n        /* \"#utility.yul\":4273:4275   */\n      0x20\n        /* \"#utility.yul\":4262:4271   */\n      dup3\n        /* \"#utility.yul\":4258:4276   */\n      add\n        /* \"#utility.yul\":4250:4276   */\n      swap1\n      pop\n        /* \"#utility.yul\":4322:4331   */\n      dup2\n        /* \"#utility.yul\":4316:4320   */\n      dup2\n        /* \"#utility.yul\":4312:4332   */\n      sub\n        /* \"#utility.yul\":4308:4309   */\n      0x00\n        /* \"#utility.yul\":4297:4306   */\n      dup4\n        /* \"#utility.yul\":4293:4310   */\n      add\n        /* \"#utility.yul\":4286:4333   */\n      mstore\n        /* \"#utility.yul\":4350:4481   */\n      tag_176\n        /* \"#utility.yul\":4476:4480   */\n      dup2\n        /* \"#utility.yul\":4350:4481   */\n      tag_131\n      jump\t// in\n    tag_176:\n        /* \"#utility.yul\":4342:4481   */\n      swap1\n      pop\n        /* \"#utility.yul\":4069:4488   */\n      swap2\n      swap1\n      pop\n      jump\t// out\n        /* \"#utility.yul\":4494:4674   */\n    tag_36:\n        /* \"#utility.yul\":4542:4619   */\n      0x4e487b7100000000000000000000000000000000000000000000000000000000\n        /* \"#utility.yul\":4539:4540   */\n      0x00\n        /* \"#utility.yul\":4532:4620   */\n      mstore\n        /* \"#utility.yul\":4639:4643   */\n      0x32\n        /* \"#utility.yul\":4636:4637   */\n      0x04\n        /* \"#utility.yul\":4629:4644   */\n      mstore\n        /* \"#utility.yul\":4663:4667   */\n      0x24\n        /* \"#utility.yul\":4660:4661   */\n      0x00\n        /* \"#utility.yul\":4653:4668   */\n      revert\n        /* \"#utility.yul\":4680:4860   */\n    tag_47:\n        /* \"#utility.yul\":4728:4805   */\n      0x4e487b7100000000000000000000000000000000000000000000000000000000\n        /* \"#utility.yul\":4725:4726   */\n      0x00\n        /* \"#utility.yul\":4718:4806   */\n      mstore\n        /* \"#utility.yul\":4825:4829   */\n      0x31\n        /* \"#utility.yul\":4822:4823   */\n      0x04\n        /* \"#utility.yul\":4815:4830   */\n      mstore\n        /* \"#utility.yul\":4849:4853   */\n      0x24\n        /* \"#utility.yul\":4846:4847   */\n      0x00\n        /* \"#utility.yul\":4839:4854   */\n      revert\n        /* \"#utility.yul\":4866:5276   */\n    tag_80:\n        /* \"#utility.yul\":4906:4913   */\n      0x00\n        /* \"#utility.yul\":4929:4949   */\n      tag_180\n        /* \"#utility.yul\":4947:4948   */\n      dup3\n        /* \"#utility.yul\":4929:4949   */\n      tag_122\n      jump\t// in\n    tag_180:\n        /* \"#utility.yul\":4924:4949   */\n      swap2\n      pop\n        /* \"#utility.yul\":4963:4983   */\n      tag_181\n        /* \"#utility.yul\":4981:4982   */\n      dup4\n        /* \"#utility.yul\":4963:4983   */\n      tag_122\n      jump\t// in\n    tag_181:\n        /* \"#utility.yul\":4958:4983   */\n      swap3\n      pop\n        /* \"#utility.yul\":5018:5019   */\n      dup3\n        /* \"#utility.yul\":5015:5016   */\n      dup3\n        /* \"#utility.yul\":5011:5020   */\n      mul\n        /* \"#utility.yul\":5040:5070   */\n      tag_182\n        /* \"#utility.yul\":5058:5069   */\n      dup2\n        /* \"#utility.yul\":5040:5070   */\n      tag_122\n      jump\t// in\n    tag_182:\n        /* \"#utility.yul\":5029:5070   */\n      swap2\n      pop\n        /* \"#utility.yul\":5219:5220   */\n      dup3\n        /* \"#utility.yul\":5210:5217   */\n      dup3\n        /* \"#utility.yul\":5206:5221   */\n      div\n        /* \"#utility.yul\":5203:5204   */\n      dup5\n        /* \"#utility.yul\":5200:5222   */\n      eq\n        /* \"#utility.yul\":5180:5181   */\n      dup4\n        /* \"#utility.yul\":5173:5182   */\n      iszero\n        /* \"#utility.yul\":5153:5236   */\n      or\n        /* \"#utility.yul\":5130:5269   */\n      tag_183\n      jumpi\n        /* \"#utility.yul\":5249:5267   */\n      tag_184\n      tag_128\n      jump\t// in\n    tag_184:\n        /* \"#utility.yul\":5130:5269   */\n    tag_183:\n        /* \"#utility.yul\":4914:5276   */\n      pop\n        /* \"#utility.yul\":4866:5276   */\n      swap3\n      swap2\n      pop\n      pop\n      jump\t// out\n        /* \"#utility.yul\":5282:5473   */\n    tag_82:\n        /* \"#utility.yul\":5322:5325   */\n      0x00\n        /* \"#utility.yul\":5341:5361   */\n      tag_186\n        /* \"#utility.yul\":5359:5360   */\n      dup3\n        /* \"#utility.yul\":5341:5361   */\n      tag_122\n      jump\t// in\n    tag_186:\n        /* \"#utility.yul\":5336:5361   */\n      swap2\n      pop\n        /* \"#utility.yul\":5375:5395   */\n      tag_187\n        /* \"#utility.yul\":5393:5394   */\n      dup4\n        /* \"#utility.yul\":5375:5395   */\n      tag_122\n      jump\t// in\n    tag_187:\n        /* \"#utility.yul\":5370:5395   */\n      swap3\n      pop\n        /* \"#utility.yul\":5418:5419   */\n      dup3\n        /* \"#utility.yul\":5415:5416   */\n      dup3\n        /* \"#utility.yul\":5411:5420   */\n      add\n        /* \"#utility.yul\":5404:5420   */\n      swap1\n      pop\n        /* \"#utility.yul\":5439:5442   */\n      dup1\n        /* \"#utility.yul\":5436:5437   */\n      dup3\n        /* \"#utility.yul\":5433:5443   */\n      gt\n        /* \"#utility.yul\":5430:5466   */\n      iszero\n      tag_188\n      jumpi\n        /* \"#utility.yul\":5446:5464   */\n      tag_189\n      tag_128\n      jump\t// in\n    tag_189:\n        /* \"#utility.yul\":5430:5466   */\n    tag_188:\n        /* \"#utility.yul\":5282:5473   */\n      swap3\n      swap2\n      pop\n      pop\n      jump\t// out\n        /* \"#utility.yul\":5479:5659   */\n    tag_132:\n        /* \"#utility.yul\":5527:5604   */\n      0x4e487b7100000000000000000000000000000000000000000000000000000000\n        /* \"#utility.yul\":5524:5525   */\n      0x00\n        /* \"#utility.yul\":5517:5605   */\n      mstore\n        /* \"#utility.yul\":5624:5628   */\n      0x12\n        /* \"#utility.yul\":5621:5622   */\n      0x04\n        /* \"#utility.yul\":5614:5629   */\n      mstore\n        /* \"#utility.yul\":5648:5652   */\n      0x24\n        /* \"#utility.yul\":5645:5646   */\n      0x00\n        /* \"#utility.yul\":5638:5653   */\n      revert\n        /* \"#utility.yul\":5665:5850   */\n    tag_118:\n        /* \"#utility.yul\":5705:5706   */\n      0x00\n        /* \"#utility.yul\":5722:5742   */\n      tag_192\n        /* \"#utility.yul\":5740:5741   */\n      dup3\n        /* \"#utility.yul\":5722:5742   */\n      tag_122\n      jump\t// in\n    tag_192:\n        /* \"#utility.yul\":5717:5742   */\n      swap2\n      pop\n        /* \"#utility.yul\":5756:5776   */\n      tag_193\n        /* \"#utility.yul\":5774:5775   */\n      dup4\n        /* \"#utility.yul\":5756:5776   */\n      tag_122\n      jump\t// in\n    tag_193:\n        /* \"#utility.yul\":5751:5776   */\n      swap3\n      pop\n        /* \"#utility.yul\":5795:5796   */\n      dup3\n        /* \"#utility.yul\":5785:5820   */\n      tag_194\n      jumpi\n        /* \"#utility.yul\":5800:5818   */\n      tag_195\n      tag_132\n      jump\t// in\n    tag_195:\n        /* \"#utility.yul\":5785:5820   */\n    tag_194:\n        /* \"#utility.yul\":5842:5843   */\n      dup3\n        /* \"#utility.yul\":5839:5840   */\n      dup3\n        /* \"#utility.yul\":5835:5844   */\n      div\n        /* \"#utility.yul\":5830:5844   */\n      swap1\n      pop\n        /* \"#utility.yul\":5665:5850   */\n      swap3\n      swap2\n      pop\n      pop\n      jump\t// out\n\n    auxdata: 0xa264697066735822122010aef25b646dea58773eec1dd45ad386c7cb71c02fa7f50da11f870a83d1501b64736f6c63430008150033\n}\n",
				"bytecode": {
					"linkReferences": {},
					"object": "608060405234801561000f575f80fd5b506109478061001d5f395ff3fe608060405234801561000f575f80fd5b506004361061003f575f3560e01c80631c01f292146100435780631d834a1b14610074578063b8bfdb0514610090575b5f80fd5b61005d6004803603810190610058919061061a565b6100ae565b60405161006b929190610654565b60405180910390f35b61008e6004803603810190610089919061067b565b6100dc565b005b61009861014e565b6040516100a591906106f5565b60405180910390f35b5f81815481106100bc575f80fd5b905f5260205f2090600202015f91509050805f0154908060010154905082565b5f60405180604001604052808481526020018381525090505f81908060018154018082558091505060019003905f5260205f2090600202015f909190919091505f820151815f015560208201518160010155505061014960015f80549050610144919061073b565b610284565b505050565b6101566105cb565b5f80805490501161019c576040517f08c379a0000000000000000000000000000000000000000000000000000000008152600401610193906107c8565b60405180910390fd5b5f805f815481106101b0576101af6107e6565b5b905f5260205f2090600202016040518060400160405290815f820154815260200160018201548152505090505f60015f805490506101ee919061073b565b815481106101ff576101fe6107e6565b5b905f5260205f2090600202015f808154811061021e5761021d6107e6565b5b905f5260205f2090600202015f820154815f0155600182015481600101559050505f8054806102505761024f610813565b5b600190038181905f5260205f2090600202015f8082015f9055600182015f90555050905561027d5f6103d0565b8091505090565b5b5f811180156102df57505f81815481106102a2576102a16107e6565b5b905f5260205f209060020201600101545f6102bc836105aa565b815481106102cd576102cc6107e6565b5b905f5260205f20906002020160010154115b156103cd575f8082815481106102f8576102f76107e6565b5b905f5260205f2090600202016040518060400160405290815f820154815260200160018201548152505090505f61032e836105aa565b8154811061033f5761033e6107e6565b5b905f5260205f2090600202015f838154811061035e5761035d6107e6565b5b905f5260205f2090600202015f820154815f015560018201548160010155905050805f61038a846105aa565b8154811061039b5761039a6107e6565b5b905f5260205f2090600202015f820151815f0155602082015181600101559050506103c5826105aa565b915050610285565b50565b5f8190505f60018360026103e49190610840565b6103ee9190610881565b90505f60028460026104009190610840565b61040a9190610881565b90505f805490508210801561046257505f838154811061042d5761042c6107e6565b5b905f5260205f209060020201600101545f83815481106104505761044f6107e6565b5b905f5260205f20906002020160010154105b1561046b578192505b5f80549050811080156104c157505f838154811061048c5761048b6107e6565b5b905f5260205f209060020201600101545f82815481106104af576104ae6107e6565b5b905f5260205f20906002020160010154105b156104ca578092505b8383146105a4575f8085815481106104e5576104e46107e6565b5b905f5260205f2090600202016040518060400160405290815f820154815260200160018201548152505090505f8481548110610524576105236107e6565b5b905f5260205f2090600202015f8681548110610543576105426107e6565b5b905f5260205f2090600202015f820154815f015560018201548160010155905050805f8581548110610578576105776107e6565b5b905f5260205f2090600202015f820151815f0155602082015181600101559050506105a2846103d0565b505b50505050565b5f60026001836105ba919061073b565b6105c491906108e1565b9050919050565b60405180604001604052805f81526020015f81525090565b5f80fd5b5f819050919050565b6105f9816105e7565b8114610603575f80fd5b50565b5f81359050610614816105f0565b92915050565b5f6020828403121561062f5761062e6105e3565b5b5f61063c84828501610606565b91505092915050565b61064e816105e7565b82525050565b5f6040820190506106675f830185610645565b6106746020830184610645565b9392505050565b5f8060408385031215610691576106906105e3565b5b5f61069e85828601610606565b92505060206106af85828601610606565b9150509250929050565b6106c2816105e7565b82525050565b604082015f8201516106dc5f8501826106b9565b5060208201516106ef60208501826106b9565b50505050565b5f6040820190506107085f8301846106c8565b92915050565b7f4e487b71000000000000000000000000000000000000000000000000000000005f52601160045260245ffd5b5f610745826105e7565b9150610750836105e7565b92508282039050818111156107685761076761070e565b5b92915050565b5f82825260208201905092915050565b7f4e6f207461736b7320696e2074686520686561700000000000000000000000005f82015250565b5f6107b260148361076e565b91506107bd8261077e565b602082019050919050565b5f6020820190508181035f8301526107df816107a6565b9050919050565b7f4e487b71000000000000000000000000000000000000000000000000000000005f52603260045260245ffd5b7f4e487b71000000000000000000000000000000000000000000000000000000005f52603160045260245ffd5b5f61084a826105e7565b9150610855836105e7565b9250828202610863816105e7565b9150828204841483151761087a5761087961070e565b5b5092915050565b5f61088b826105e7565b9150610896836105e7565b92508282019050808211156108ae576108ad61070e565b5b92915050565b7f4e487b71000000000000000000000000000000000000000000000000000000005f52601260045260245ffd5b5f6108eb826105e7565b91506108f6836105e7565b925082610906576109056108b4565b5b82820490509291505056fea264697066735822122010aef25b646dea58773eec1dd45ad386c7cb71c02fa7f50da11f870a83d1501b64736f6c63430008150033",
					"opcodes": "PUSH1 0x80 PUSH1 0x40 MSTORE CALLVALUE DUP1 ISZERO PUSH2 0xF JUMPI PUSH0 DUP1 REVERT JUMPDEST POP PUSH2 0x947 DUP1 PUSH2 0x1D PUSH0 CODECOPY PUSH0 RETURN INVALID PUSH1 0x80 PUSH1 0x40 MSTORE CALLVALUE DUP1 ISZERO PUSH2 0xF JUMPI PUSH0 DUP1 REVERT JUMPDEST POP PUSH1 0x4 CALLDATASIZE LT PUSH2 0x3F JUMPI PUSH0 CALLDATALOAD PUSH1 0xE0 SHR DUP1 PUSH4 0x1C01F292 EQ PUSH2 0x43 JUMPI DUP1 PUSH4 0x1D834A1B EQ PUSH2 0x74 JUMPI DUP1 PUSH4 0xB8BFDB05 EQ PUSH2 0x90 JUMPI JUMPDEST PUSH0 DUP1 REVERT JUMPDEST PUSH2 0x5D PUSH1 0x4 DUP1 CALLDATASIZE SUB DUP2 ADD SWAP1 PUSH2 0x58 SWAP2 SWAP1 PUSH2 0x61A JUMP JUMPDEST PUSH2 0xAE JUMP JUMPDEST PUSH1 0x40 MLOAD PUSH2 0x6B SWAP3 SWAP2 SWAP1 PUSH2 0x654 JUMP JUMPDEST PUSH1 0x40 MLOAD DUP1 SWAP2 SUB SWAP1 RETURN JUMPDEST PUSH2 0x8E PUSH1 0x4 DUP1 CALLDATASIZE SUB DUP2 ADD SWAP1 PUSH2 0x89 SWAP2 SWAP1 PUSH2 0x67B JUMP JUMPDEST PUSH2 0xDC JUMP JUMPDEST STOP JUMPDEST PUSH2 0x98 PUSH2 0x14E JUMP JUMPDEST PUSH1 0x40 MLOAD PUSH2 0xA5 SWAP2 SWAP1 PUSH2 0x6F5 JUMP JUMPDEST PUSH1 0x40 MLOAD DUP1 SWAP2 SUB SWAP1 RETURN JUMPDEST PUSH0 DUP2 DUP2 SLOAD DUP2 LT PUSH2 0xBC JUMPI PUSH0 DUP1 REVERT JUMPDEST SWAP1 PUSH0 MSTORE PUSH1 0x20 PUSH0 KECCAK256 SWAP1 PUSH1 0x2 MUL ADD PUSH0 SWAP2 POP SWAP1 POP DUP1 PUSH0 ADD SLOAD SWAP1 DUP1 PUSH1 0x1 ADD SLOAD SWAP1 POP DUP3 JUMP JUMPDEST PUSH0 PUSH1 0x40 MLOAD DUP1 PUSH1 0x40 ADD PUSH1 0x40 MSTORE DUP1 DUP5 DUP2 MSTORE PUSH1 0x20 ADD DUP4 DUP2 MSTORE POP SWAP1 POP PUSH0 DUP2 SWAP1 DUP1 PUSH1 0x1 DUP2 SLOAD ADD DUP1 DUP3 SSTORE DUP1 SWAP2 POP POP PUSH1 0x1 SWAP1 SUB SWAP1 PUSH0 MSTORE PUSH1 0x20 PUSH0 KECCAK256 SWAP1 PUSH1 0x2 MUL ADD PUSH0 SWAP1 SWAP2 SWAP1 SWAP2 SWAP1 SWAP2 POP PUSH0 DUP3 ADD MLOAD DUP2 PUSH0 ADD SSTORE PUSH1 0x20 DUP3 ADD MLOAD DUP2 PUSH1 0x1 ADD SSTORE POP POP PUSH2 0x149 PUSH1 0x1 PUSH0 DUP1 SLOAD SWAP1 POP PUSH2 0x144 SWAP2 SWAP1 PUSH2 0x73B JUMP JUMPDEST PUSH2 0x284 JUMP JUMPDEST POP POP POP JUMP JUMPDEST PUSH2 0x156 PUSH2 0x5CB JUMP JUMPDEST PUSH0 DUP1 DUP1 SLOAD SWAP1 POP GT PUSH2 0x19C JUMPI PUSH1 0x40 MLOAD PUSH32 0x8C379A000000000000000000000000000000000000000000000000000000000 DUP2 MSTORE PUSH1 0x4 ADD PUSH2 0x193 SWAP1 PUSH2 0x7C8 JUMP JUMPDEST PUSH1 0x40 MLOAD DUP1 SWAP2 SUB SWAP1 REVERT JUMPDEST PUSH0 DUP1 PUSH0 DUP2 SLOAD DUP2 LT PUSH2 0x1B0 JUMPI PUSH2 0x1AF PUSH2 0x7E6 JUMP JUMPDEST JUMPDEST SWAP1 PUSH0 MSTORE PUSH1 0x20 PUSH0 KECCAK256 SWAP1 PUSH1 0x2 MUL ADD PUSH1 0x40 MLOAD DUP1 PUSH1 0x40 ADD PUSH1 0x40 MSTORE SWAP1 DUP2 PUSH0 DUP3 ADD SLOAD DUP2 MSTORE PUSH1 0x20 ADD PUSH1 0x1 DUP3 ADD SLOAD DUP2 MSTORE POP POP SWAP1 POP PUSH0 PUSH1 0x1 PUSH0 DUP1 SLOAD SWAP1 POP PUSH2 0x1EE SWAP2 SWAP1 PUSH2 0x73B JUMP JUMPDEST DUP2 SLOAD DUP2 LT PUSH2 0x1FF JUMPI PUSH2 0x1FE PUSH2 0x7E6 JUMP JUMPDEST JUMPDEST SWAP1 PUSH0 MSTORE PUSH1 0x20 PUSH0 KECCAK256 SWAP1 PUSH1 0x2 MUL ADD PUSH0 DUP1 DUP2 SLOAD DUP2 LT PUSH2 0x21E JUMPI PUSH2 0x21D PUSH2 0x7E6 JUMP JUMPDEST JUMPDEST SWAP1 PUSH0 MSTORE PUSH1 0x20 PUSH0 KECCAK256 SWAP1 PUSH1 0x2 MUL ADD PUSH0 DUP3 ADD SLOAD DUP2 PUSH0 ADD SSTORE PUSH1 0x1 DUP3 ADD SLOAD DUP2 PUSH1 0x1 ADD SSTORE SWAP1 POP POP PUSH0 DUP1 SLOAD DUP1 PUSH2 0x250 JUMPI PUSH2 0x24F PUSH2 0x813 JUMP JUMPDEST JUMPDEST PUSH1 0x1 SWAP1 SUB DUP2 DUP2 SWAP1 PUSH0 MSTORE PUSH1 0x20 PUSH0 KECCAK256 SWAP1 PUSH1 0x2 MUL ADD PUSH0 DUP1 DUP3 ADD PUSH0 SWAP1 SSTORE PUSH1 0x1 DUP3 ADD PUSH0 SWAP1 SSTORE POP POP SWAP1 SSTORE PUSH2 0x27D PUSH0 PUSH2 0x3D0 JUMP JUMPDEST DUP1 SWAP2 POP POP SWAP1 JUMP JUMPDEST JUMPDEST PUSH0 DUP2 GT DUP1 ISZERO PUSH2 0x2DF JUMPI POP PUSH0 DUP2 DUP2 SLOAD DUP2 LT PUSH2 0x2A2 JUMPI PUSH2 0x2A1 PUSH2 0x7E6 JUMP JUMPDEST JUMPDEST SWAP1 PUSH0 MSTORE PUSH1 0x20 PUSH0 KECCAK256 SWAP1 PUSH1 0x2 MUL ADD PUSH1 0x1 ADD SLOAD PUSH0 PUSH2 0x2BC DUP4 PUSH2 0x5AA JUMP JUMPDEST DUP2 SLOAD DUP2 LT PUSH2 0x2CD JUMPI PUSH2 0x2CC PUSH2 0x7E6 JUMP JUMPDEST JUMPDEST SWAP1 PUSH0 MSTORE PUSH1 0x20 PUSH0 KECCAK256 SWAP1 PUSH1 0x2 MUL ADD PUSH1 0x1 ADD SLOAD GT JUMPDEST ISZERO PUSH2 0x3CD JUMPI PUSH0 DUP1 DUP3 DUP2 SLOAD DUP2 LT PUSH2 0x2F8 JUMPI PUSH2 0x2F7 PUSH2 0x7E6 JUMP JUMPDEST JUMPDEST SWAP1 PUSH0 MSTORE PUSH1 0x20 PUSH0 KECCAK256 SWAP1 PUSH1 0x2 MUL ADD PUSH1 0x40 MLOAD DUP1 PUSH1 0x40 ADD PUSH1 0x40 MSTORE SWAP1 DUP2 PUSH0 DUP3 ADD SLOAD DUP2 MSTORE PUSH1 0x20 ADD PUSH1 0x1 DUP3 ADD SLOAD DUP2 MSTORE POP POP SWAP1 POP PUSH0 PUSH2 0x32E DUP4 PUSH2 0x5AA JUMP JUMPDEST DUP2 SLOAD DUP2 LT PUSH2 0x33F JUMPI PUSH2 0x33E PUSH2 0x7E6 JUMP JUMPDEST JUMPDEST SWAP1 PUSH0 MSTORE PUSH1 0x20 PUSH0 KECCAK256 SWAP1 PUSH1 0x2 MUL ADD PUSH0 DUP4 DUP2 SLOAD DUP2 LT PUSH2 0x35E JUMPI PUSH2 0x35D PUSH2 0x7E6 JUMP JUMPDEST JUMPDEST SWAP1 PUSH0 MSTORE PUSH1 0x20 PUSH0 KECCAK256 SWAP1 PUSH1 0x2 MUL ADD PUSH0 DUP3 ADD SLOAD DUP2 PUSH0 ADD SSTORE PUSH1 0x1 DUP3 ADD SLOAD DUP2 PUSH1 0x1 ADD SSTORE SWAP1 POP POP DUP1 PUSH0 PUSH2 0x38A DUP5 PUSH2 0x5AA JUMP JUMPDEST DUP2 SLOAD DUP2 LT PUSH2 0x39B JUMPI PUSH2 0x39A PUSH2 0x7E6 JUMP JUMPDEST JUMPDEST SWAP1 PUSH0 MSTORE PUSH1 0x20 PUSH0 KECCAK256 SWAP1 PUSH1 0x2 MUL ADD PUSH0 DUP3 ADD MLOAD DUP2 PUSH0 ADD SSTORE PUSH1 0x20 DUP3 ADD MLOAD DUP2 PUSH1 0x1 ADD SSTORE SWAP1 POP POP PUSH2 0x3C5 DUP3 PUSH2 0x5AA JUMP JUMPDEST SWAP2 POP POP PUSH2 0x285 JUMP JUMPDEST POP JUMP JUMPDEST PUSH0 DUP2 SWAP1 POP PUSH0 PUSH1 0x1 DUP4 PUSH1 0x2 PUSH2 0x3E4 SWAP2 SWAP1 PUSH2 0x840 JUMP JUMPDEST PUSH2 0x3EE SWAP2 SWAP1 PUSH2 0x881 JUMP JUMPDEST SWAP1 POP PUSH0 PUSH1 0x2 DUP5 PUSH1 0x2 PUSH2 0x400 SWAP2 SWAP1 PUSH2 0x840 JUMP JUMPDEST PUSH2 0x40A SWAP2 SWAP1 PUSH2 0x881 JUMP JUMPDEST SWAP1 POP PUSH0 DUP1 SLOAD SWAP1 POP DUP3 LT DUP1 ISZERO PUSH2 0x462 JUMPI POP PUSH0 DUP4 DUP2 SLOAD DUP2 LT PUSH2 0x42D JUMPI PUSH2 0x42C PUSH2 0x7E6 JUMP JUMPDEST JUMPDEST SWAP1 PUSH0 MSTORE PUSH1 0x20 PUSH0 KECCAK256 SWAP1 PUSH1 0x2 MUL ADD PUSH1 0x1 ADD SLOAD PUSH0 DUP4 DUP2 SLOAD DUP2 LT PUSH2 0x450 JUMPI PUSH2 0x44F PUSH2 0x7E6 JUMP JUMPDEST JUMPDEST SWAP1 PUSH0 MSTORE PUSH1 0x20 PUSH0 KECCAK256 SWAP1 PUSH1 0x2 MUL ADD PUSH1 0x1 ADD SLOAD LT JUMPDEST ISZERO PUSH2 0x46B JUMPI DUP2 SWAP3 POP JUMPDEST PUSH0 DUP1 SLOAD SWAP1 POP DUP2 LT DUP1 ISZERO PUSH2 0x4C1 JUMPI POP PUSH0 DUP4 DUP2 SLOAD DUP2 LT PUSH2 0x48C JUMPI PUSH2 0x48B PUSH2 0x7E6 JUMP JUMPDEST JUMPDEST SWAP1 PUSH0 MSTORE PUSH1 0x20 PUSH0 KECCAK256 SWAP1 PUSH1 0x2 MUL ADD PUSH1 0x1 ADD SLOAD PUSH0 DUP3 DUP2 SLOAD DUP2 LT PUSH2 0x4AF JUMPI PUSH2 0x4AE PUSH2 0x7E6 JUMP JUMPDEST JUMPDEST SWAP1 PUSH0 MSTORE PUSH1 0x20 PUSH0 KECCAK256 SWAP1 PUSH1 0x2 MUL ADD PUSH1 0x1 ADD SLOAD LT JUMPDEST ISZERO PUSH2 0x4CA JUMPI DUP1 SWAP3 POP JUMPDEST DUP4 DUP4 EQ PUSH2 0x5A4 JUMPI PUSH0 DUP1 DUP6 DUP2 SLOAD DUP2 LT PUSH2 0x4E5 JUMPI PUSH2 0x4E4 PUSH2 0x7E6 JUMP JUMPDEST JUMPDEST SWAP1 PUSH0 MSTORE PUSH1 0x20 PUSH0 KECCAK256 SWAP1 PUSH1 0x2 MUL ADD PUSH1 0x40 MLOAD DUP1 PUSH1 0x40 ADD PUSH1 0x40 MSTORE SWAP1 DUP2 PUSH0 DUP3 ADD SLOAD DUP2 MSTORE PUSH1 0x20 ADD PUSH1 0x1 DUP3 ADD SLOAD DUP2 MSTORE POP POP SWAP1 POP PUSH0 DUP5 DUP2 SLOAD DUP2 LT PUSH2 0x524 JUMPI PUSH2 0x523 PUSH2 0x7E6 JUMP JUMPDEST JUMPDEST SWAP1 PUSH0 MSTORE PUSH1 0x20 PUSH0 KECCAK256 SWAP1 PUSH1 0x2 MUL ADD PUSH0 DUP7 DUP2 SLOAD DUP2 LT PUSH2 0x543 JUMPI PUSH2 0x542 PUSH2 0x7E6 JUMP JUMPDEST JUMPDEST SWAP1 PUSH0 MSTORE PUSH1 0x20 PUSH0 KECCAK256 SWAP1 PUSH1 0x2 MUL ADD PUSH0 DUP3 ADD SLOAD DUP2 PUSH0 ADD SSTORE PUSH1 0x1 DUP3 ADD SLOAD DUP2 PUSH1 0x1 ADD SSTORE SWAP1 POP POP DUP1 PUSH0 DUP6 DUP2 SLOAD DUP2 LT PUSH2 0x578 JUMPI PUSH2 0x577 PUSH2 0x7E6 JUMP JUMPDEST JUMPDEST SWAP1 PUSH0 MSTORE PUSH1 0x20 PUSH0 KECCAK256 SWAP1 PUSH1 0x2 MUL ADD PUSH0 DUP3 ADD MLOAD DUP2 PUSH0 ADD SSTORE PUSH1 0x20 DUP3 ADD MLOAD DUP2 PUSH1 0x1 ADD SSTORE SWAP1 POP POP PUSH2 0x5A2 DUP5 PUSH2 0x3D0 JUMP JUMPDEST POP JUMPDEST POP POP POP POP JUMP JUMPDEST PUSH0 PUSH1 0x2 PUSH1 0x1 DUP4 PUSH2 0x5BA SWAP2 SWAP1 PUSH2 0x73B JUMP JUMPDEST PUSH2 0x5C4 SWAP2 SWAP1 PUSH2 0x8E1 JUMP JUMPDEST SWAP1 POP SWAP2 SWAP1 POP JUMP JUMPDEST PUSH1 0x40 MLOAD DUP1 PUSH1 0x40 ADD PUSH1 0x40 MSTORE DUP1 PUSH0 DUP2 MSTORE PUSH1 0x20 ADD PUSH0 DUP2 MSTORE POP SWAP1 JUMP JUMPDEST PUSH0 DUP1 REVERT JUMPDEST PUSH0 DUP2 SWAP1 POP SWAP2 SWAP1 POP JUMP JUMPDEST PUSH2 0x5F9 DUP2 PUSH2 0x5E7 JUMP JUMPDEST DUP2 EQ PUSH2 0x603 JUMPI PUSH0 DUP1 REVERT JUMPDEST POP JUMP JUMPDEST PUSH0 DUP2 CALLDATALOAD SWAP1 POP PUSH2 0x614 DUP2 PUSH2 0x5F0 JUMP JUMPDEST SWAP3 SWAP2 POP POP JUMP JUMPDEST PUSH0 PUSH1 0x20 DUP3 DUP5 SUB SLT ISZERO PUSH2 0x62F JUMPI PUSH2 0x62E PUSH2 0x5E3 JUMP JUMPDEST JUMPDEST PUSH0 PUSH2 0x63C DUP5 DUP3 DUP6 ADD PUSH2 0x606 JUMP JUMPDEST SWAP2 POP POP SWAP3 SWAP2 POP POP JUMP JUMPDEST PUSH2 0x64E DUP2 PUSH2 0x5E7 JUMP JUMPDEST DUP3 MSTORE POP POP JUMP JUMPDEST PUSH0 PUSH1 0x40 DUP3 ADD SWAP1 POP PUSH2 0x667 PUSH0 DUP4 ADD DUP6 PUSH2 0x645 JUMP JUMPDEST PUSH2 0x674 PUSH1 0x20 DUP4 ADD DUP5 PUSH2 0x645 JUMP JUMPDEST SWAP4 SWAP3 POP POP POP JUMP JUMPDEST PUSH0 DUP1 PUSH1 0x40 DUP4 DUP6 SUB SLT ISZERO PUSH2 0x691 JUMPI PUSH2 0x690 PUSH2 0x5E3 JUMP JUMPDEST JUMPDEST PUSH0 PUSH2 0x69E DUP6 DUP3 DUP7 ADD PUSH2 0x606 JUMP JUMPDEST SWAP3 POP POP PUSH1 0x20 PUSH2 0x6AF DUP6 DUP3 DUP7 ADD PUSH2 0x606 JUMP JUMPDEST SWAP2 POP POP SWAP3 POP SWAP3 SWAP1 POP JUMP JUMPDEST PUSH2 0x6C2 DUP2 PUSH2 0x5E7 JUMP JUMPDEST DUP3 MSTORE POP POP JUMP JUMPDEST PUSH1 0x40 DUP3 ADD PUSH0 DUP3 ADD MLOAD PUSH2 0x6DC PUSH0 DUP6 ADD DUP3 PUSH2 0x6B9 JUMP JUMPDEST POP PUSH1 0x20 DUP3 ADD MLOAD PUSH2 0x6EF PUSH1 0x20 DUP6 ADD DUP3 PUSH2 0x6B9 JUMP JUMPDEST POP POP POP POP JUMP JUMPDEST PUSH0 PUSH1 0x40 DUP3 ADD SWAP1 POP PUSH2 0x708 PUSH0 DUP4 ADD DUP5 PUSH2 0x6C8 JUMP JUMPDEST SWAP3 SWAP2 POP POP JUMP JUMPDEST PUSH32 0x4E487B7100000000000000000000000000000000000000000000000000000000 PUSH0 MSTORE PUSH1 0x11 PUSH1 0x4 MSTORE PUSH1 0x24 PUSH0 REVERT JUMPDEST PUSH0 PUSH2 0x745 DUP3 PUSH2 0x5E7 JUMP JUMPDEST SWAP2 POP PUSH2 0x750 DUP4 PUSH2 0x5E7 JUMP JUMPDEST SWAP3 POP DUP3 DUP3 SUB SWAP1 POP DUP2 DUP2 GT ISZERO PUSH2 0x768 JUMPI PUSH2 0x767 PUSH2 0x70E JUMP JUMPDEST JUMPDEST SWAP3 SWAP2 POP POP JUMP JUMPDEST PUSH0 DUP3 DUP3 MSTORE PUSH1 0x20 DUP3 ADD SWAP1 POP SWAP3 SWAP2 POP POP JUMP JUMPDEST PUSH32 0x4E6F207461736B7320696E207468652068656170000000000000000000000000 PUSH0 DUP3 ADD MSTORE POP JUMP JUMPDEST PUSH0 PUSH2 0x7B2 PUSH1 0x14 DUP4 PUSH2 0x76E JUMP JUMPDEST SWAP2 POP PUSH2 0x7BD DUP3 PUSH2 0x77E JUMP JUMPDEST PUSH1 0x20 DUP3 ADD SWAP1 POP SWAP2 SWAP1 POP JUMP JUMPDEST PUSH0 PUSH1 0x20 DUP3 ADD SWAP1 POP DUP2 DUP2 SUB PUSH0 DUP4 ADD MSTORE PUSH2 0x7DF DUP2 PUSH2 0x7A6 JUMP JUMPDEST SWAP1 POP SWAP2 SWAP1 POP JUMP JUMPDEST PUSH32 0x4E487B7100000000000000000000000000000000000000000000000000000000 PUSH0 MSTORE PUSH1 0x32 PUSH1 0x4 MSTORE PUSH1 0x24 PUSH0 REVERT JUMPDEST PUSH32 0x4E487B7100000000000000000000000000000000000000000000000000000000 PUSH0 MSTORE PUSH1 0x31 PUSH1 0x4 MSTORE PUSH1 0x24 PUSH0 REVERT JUMPDEST PUSH0 PUSH2 0x84A DUP3 PUSH2 0x5E7 JUMP JUMPDEST SWAP2 POP PUSH2 0x855 DUP4 PUSH2 0x5E7 JUMP JUMPDEST SWAP3 POP DUP3 DUP3 MUL PUSH2 0x863 DUP2 PUSH2 0x5E7 JUMP JUMPDEST SWAP2 POP DUP3 DUP3 DIV DUP5 EQ DUP4 ISZERO OR PUSH2 0x87A JUMPI PUSH2 0x879 PUSH2 0x70E JUMP JUMPDEST JUMPDEST POP SWAP3 SWAP2 POP POP JUMP JUMPDEST PUSH0 PUSH2 0x88B DUP3 PUSH2 0x5E7 JUMP JUMPDEST SWAP2 POP PUSH2 0x896 DUP4 PUSH2 0x5E7 JUMP JUMPDEST SWAP3 POP DUP3 DUP3 ADD SWAP1 POP DUP1 DUP3 GT ISZERO PUSH2 0x8AE JUMPI PUSH2 0x8AD PUSH2 0x70E JUMP JUMPDEST JUMPDEST SWAP3 SWAP2 POP POP JUMP JUMPDEST PUSH32 0x4E487B7100000000000000000000000000000000000000000000000000000000 PUSH0 MSTORE PUSH1 0x12 PUSH1 0x4 MSTORE PUSH1 0x24 PUSH0 REVERT JUMPDEST PUSH0 PUSH2 0x8EB DUP3 PUSH2 0x5E7 JUMP JUMPDEST SWAP2 POP PUSH2 0x8F6 DUP4 PUSH2 0x5E7 JUMP JUMPDEST SWAP3 POP DUP3 PUSH2 0x906 JUMPI PUSH2 0x905 PUSH2 0x8B4 JUMP JUMPDEST JUMPDEST DUP3 DUP3 DIV SWAP1 POP SWAP3 SWAP2 POP POP JUMP INVALID LOG2 PUSH5 0x6970667358 0x22 SLT KECCAK256 LT 0xAE CALLCODE JUMPDEST PUSH5 0x6DEA58773E 0xEC SAR 0xD4 GAS 0xD3 DUP7 0xC7 0xCB PUSH18 0xC02FA7F50DA11F870A83D1501B64736F6C63 NUMBER STOP ADDMOD ISZERO STOP CALLER "
				},
				"gasEstimates": {
					"creation": {
						"codeDepositCost": "475000",
						"executionCost": "509",
						"totalCost": "475509"
					},
					"external": {
						"extractMin()": "infinite",
						"heap(uint256)": "infinite",
						"insert(uint256,uint256)": "infinite"
					},
					"internal": {
						"bubbleDown(uint256)": "infinite",
						"bubbleUp(uint256)": "infinite",
						"parent(uint256)": "infinite"
					}
				},
				"methodIdentifiers": {
					"extractMin()": "b8bfdb05",
					"heap(uint256)": "1c01f292",
					"insert(uint256,uint256)": "1d834a1b"
				}
			},
			"storageLayout": {
				"storage": [
					{
						"astId": 396,
						"contract": "contracts/PriorityHeap.sol:PriorityHeap",
						"label": "heap",
						"offset": 0,
						"slot": "0",
						"type": "t_array(t_struct(Task)401_storage)dyn_storage"
					}
				],
				"types": {
					"t_array(t_struct(Task)401_storage)dyn_storage": {
						"base": "t_struct(Task)401_storage",
						"encoding": "dynamic_array",
						"label": "struct PriorityHeap.Task[]",
						"numberOfBytes": "32"
					},
					"t_struct(Task)401_storage": {
						"encoding": "inplace",
						"label": "struct PriorityHeap.Task",
						"members": [
							{
								"astId": 398,
								"contract": "contracts/PriorityHeap.sol:PriorityHeap",
								"label": "id",
								"offset": 0,
								"slot": "0",
								"type": "t_uint256"
							},
							{
								"astId": 400,
								"contract": "contracts/PriorityHeap.sol:PriorityHeap",
								"label": "priority",
								"offset": 0,
								"slot": "1",
								"type": "t_uint256"
							}
						],
						"numberOfBytes": "64"
					},
					"t_uint256": {
						"encoding": "inplace",
						"label": "uint256",
						"numberOfBytes": "32"
					}
				}
			},
			"userdoc": {
				"kind": "user",
				"methods": {},
				"version": 1
			}
		}
	}
}