{
	"contracts/HospitalTaskManager.sol": {
		"HospitalTaskManager": {
			"abi": [
				{
					"inputs": [
						{
							"internalType": "address",
							"name": "_taskPriorityHeap",
							"type": "address"
						}
					],
					"stateMutability": "nonpayable",
					"type": "constructor"
				},
				{
					"anonymous": false,
					"inputs": [
						{
							"indexed": false,
							"internalType": "uint256",
							"name": "taskId",
							"type": "uint256"
						},
						{
							"indexed": false,
							"internalType": "address",
							"name": "assignedCaretaker",
							"type": "address"
						}
					],
					"name": "TaskAssigned",
					"type": "event"
				},
				{
					"anonymous": false,
					"inputs": [
						{
							"indexed": false,
							"internalType": "uint256",
							"name": "taskId",
							"type": "uint256"
						},
						{
							"indexed": false,
							"internalType": "uint256",
							"name": "timeSpent",
							"type": "uint256"
						}
					],
					"name": "TaskCompleted",
					"type": "event"
				},
				{
					"anonymous": false,
					"inputs": [
						{
							"indexed": false,
							"internalType": "uint256",
							"name": "taskId",
							"type": "uint256"
						}
					],
					"name": "TaskStarted",
					"type": "event"
				},
				{
					"inputs": [
						{
							"internalType": "address",
							"name": "caretakerAddress",
							"type": "address"
						}
					],
					"name": "activateCaretaker",
					"outputs": [],
					"stateMutability": "nonpayable",
					"type": "function"
				},
				{
					"inputs": [
						{
							"internalType": "address",
							"name": "caretakerAddress",
							"type": "address"
						},
						{
							"internalType": "string",
							"name": "name",
							"type": "string"
						}
					],
					"name": "addCaretaker",
					"outputs": [],
					"stateMutability": "nonpayable",
					"type": "function"
				},
				{
					"inputs": [
						{
							"internalType": "address",
							"name": "requester",
							"type": "address"
						},
						{
							"internalType": "bytes32",
							"name": "patientName",
							"type": "bytes32"
						},
						{
							"internalType": "uint256",
							"name": "roomFrom",
							"type": "uint256"
						},
						{
							"internalType": "uint256",
							"name": "roomTo",
							"type": "uint256"
						},
						{
							"internalType": "uint256",
							"name": "bedNumber",
							"type": "uint256"
						},
						{
							"internalType": "uint256",
							"name": "priority",
							"type": "uint256"
						}
					],
					"name": "assignTask",
					"outputs": [],
					"stateMutability": "nonpayable",
					"type": "function"
				},
				{
					"inputs": [
						{
							"internalType": "address",
							"name": "",
							"type": "address"
						}
					],
					"name": "caretakers",
					"outputs": [
						{
							"internalType": "address",
							"name": "caretakerAddress",
							"type": "address"
						},
						{
							"internalType": "string",
							"name": "name",
							"type": "string"
						},
						{
							"internalType": "bool",
							"name": "isActive",
							"type": "bool"
						}
					],
					"stateMutability": "view",
					"type": "function"
				},
				{
					"inputs": [
						{
							"internalType": "address",
							"name": "caretakerAddress",
							"type": "address"
						}
					],
					"name": "deactivateCaretaker",
					"outputs": [],
					"stateMutability": "nonpayable",
					"type": "function"
				},
				{
					"inputs": [
						{
							"internalType": "uint256",
							"name": "taskId",
							"type": "uint256"
						}
					],
					"name": "endTask",
					"outputs": [],
					"stateMutability": "nonpayable",
					"type": "function"
				},
				{
					"inputs": [
						{
							"internalType": "uint256",
							"name": "taskId",
							"type": "uint256"
						}
					],
					"name": "getTaskTime",
					"outputs": [
						{
							"internalType": "uint256",
							"name": "",
							"type": "uint256"
						}
					],
					"stateMutability": "view",
					"type": "function"
				},
				{
					"inputs": [],
					"name": "medicalStaffAddress",
					"outputs": [
						{
							"internalType": "address",
							"name": "",
							"type": "address"
						}
					],
					"stateMutability": "view",
					"type": "function"
				},
				{
					"inputs": [],
					"name": "owner",
					"outputs": [
						{
							"internalType": "address",
							"name": "",
							"type": "address"
						}
					],
					"stateMutability": "view",
					"type": "function"
				},
				{
					"inputs": [
						{
							"internalType": "address",
							"name": "caretakerAddress",
							"type": "address"
						}
					],
					"name": "removeCaretaker",
					"outputs": [],
					"stateMutability": "nonpayable",
					"type": "function"
				},
				{
					"inputs": [
						{
							"internalType": "address",
							"name": "_medicalStaffAddress",
							"type": "address"
						}
					],
					"name": "setMedicalStaffAddress",
					"outputs": [],
					"stateMutability": "nonpayable",
					"type": "function"
				},
				{
					"inputs": [
						{
							"internalType": "uint256",
							"name": "taskId",
							"type": "uint256"
						}
					],
					"name": "startTask",
					"outputs": [],
					"stateMutability": "nonpayable",
					"type": "function"
				},
				{
					"inputs": [],
					"name": "taskCount",
					"outputs": [
						{
							"internalType": "uint256",
							"name": "",
							"type": "uint256"
						}
					],
					"stateMutability": "view",
					"type": "function"
				},
				{
					"inputs": [],
					"name": "taskPriorityHeap",
					"outputs": [
						{
							"internalType": "contract PriorityHeap",
							"name": "",
							"type": "address"
						}
					],
					"stateMutability": "view",
					"type": "function"
				},
				{
					"inputs": [
						{
							"internalType": "uint256",
							"name": "",
							"type": "uint256"
						}
					],
					"name": "tasks",
					"outputs": [
						{
							"internalType": "address",
							"name": "assignedCaretakerAddress",
							"type": "address"
						},
						{
							"internalType": "address",
							"name": "requester",
							"type": "address"
						},
						{
							"internalType": "bytes32",
							"name": "patientName",
							"type": "bytes32"
						},
						{
							"internalType": "uint256",
							"name": "roomFrom",
							"type": "uint256"
						},
						{
							"internalType": "uint256",
							"name": "roomTo",
							"type": "uint256"
						},
						{
							"internalType": "uint256",
							"name": "bedNumber",
							"type": "uint256"
						},
						{
							"internalType": "uint256",
							"name": "priority",
							"type": "uint256"
						},
						{
							"internalType": "bool",
							"name": "isAssigned",
							"type": "bool"
						},
						{
							"internalType": "bool",
							"name": "isStarted",
							"type": "bool"
						},
						{
							"internalType": "bool",
							"name": "isCompleted",
							"type": "bool"
						},
						{
							"internalType": "uint256",
							"name": "startTime",
							"type": "uint256"
						},
						{
							"internalType": "uint256",
							"name": "endTime",
							"type": "uint256"
						}
					],
					"stateMutability": "view",
					"type": "function"
				}
			],
			"devdoc": {
				"kind": "dev",
				"methods": {},
				"version": 1
			},
			"evm": {
				"assembly": "    /* \"contracts/HospitalTaskManager.sol\":93:3941  contract HospitalTaskManager {... */\n  mstore(0x40, 0x80)\n    /* \"contracts/HospitalTaskManager.sol\":1010:1011  0 */\n  0x00\n    /* \"contracts/HospitalTaskManager.sol\":986:1011  uint public taskCount = 0 */\n  0x05\n  sstore\n    /* \"contracts/HospitalTaskManager.sol\":282:419  constructor(address _taskPriorityHeap) {... */\n  callvalue\n  dup1\n  iszero\n  tag_1\n  jumpi\n  0x00\n  dup1\n  revert\ntag_1:\n  pop\n  mload(0x40)\n  sub(codesize, bytecodeSize)\n  dup1\n  bytecodeSize\n  dup4\n  codecopy\n  dup2\n  dup2\n  add\n  0x40\n  mstore\n  dup2\n  add\n  swap1\n  tag_2\n  swap2\n  swap1\n  tag_3\n  jump\t// in\ntag_2:\n    /* \"contracts/HospitalTaskManager.sol\":340:350  msg.sender */\n  caller\n    /* \"contracts/HospitalTaskManager.sol\":332:337  owner */\n  0x00\n  dup1\n    /* \"contracts/HospitalTaskManager.sol\":332:350  owner = msg.sender */\n  0x0100\n  exp\n  dup2\n  sload\n  dup2\n  0xffffffffffffffffffffffffffffffffffffffff\n  mul\n  not\n  and\n  swap1\n  dup4\n  0xffffffffffffffffffffffffffffffffffffffff\n  and\n  mul\n  or\n  swap1\n  sstore\n  pop\n    /* \"contracts/HospitalTaskManager.sol\":393:410  _taskPriorityHeap */\n  dup1\n    /* \"contracts/HospitalTaskManager.sol\":361:377  taskPriorityHeap */\n  0x02\n  0x00\n    /* \"contracts/HospitalTaskManager.sol\":361:411  taskPriorityHeap = PriorityHeap(_taskPriorityHeap) */\n  0x0100\n  exp\n  dup2\n  sload\n  dup2\n  0xffffffffffffffffffffffffffffffffffffffff\n  mul\n  not\n  and\n  swap1\n  dup4\n  0xffffffffffffffffffffffffffffffffffffffff\n  and\n  mul\n  or\n  swap1\n  sstore\n  pop\n    /* \"contracts/HospitalTaskManager.sol\":282:419  constructor(address _taskPriorityHeap) {... */\n  pop\n    /* \"contracts/HospitalTaskManager.sol\":93:3941  contract HospitalTaskManager {... */\n  jump(tag_6)\n    /* \"#utility.yul\":88:205   */\ntag_8:\n    /* \"#utility.yul\":197:198   */\n  0x00\n    /* \"#utility.yul\":194:195   */\n  dup1\n    /* \"#utility.yul\":187:199   */\n  revert\n    /* \"#utility.yul\":334:460   */\ntag_10:\n    /* \"#utility.yul\":371:378   */\n  0x00\n    /* \"#utility.yul\":411:453   */\n  0xffffffffffffffffffffffffffffffffffffffff\n    /* \"#utility.yul\":404:409   */\n  dup3\n    /* \"#utility.yul\":400:454   */\n  and\n    /* \"#utility.yul\":389:454   */\n  swap1\n  pop\n    /* \"#utility.yul\":334:460   */\n  swap2\n  swap1\n  pop\n  jump\t// out\n    /* \"#utility.yul\":466:562   */\ntag_11:\n    /* \"#utility.yul\":503:510   */\n  0x00\n    /* \"#utility.yul\":532:556   */\n  tag_20\n    /* \"#utility.yul\":550:555   */\n  dup3\n    /* \"#utility.yul\":532:556   */\n  tag_10\n  jump\t// in\ntag_20:\n    /* \"#utility.yul\":521:556   */\n  swap1\n  pop\n    /* \"#utility.yul\":466:562   */\n  swap2\n  swap1\n  pop\n  jump\t// out\n    /* \"#utility.yul\":568:690   */\ntag_12:\n    /* \"#utility.yul\":641:665   */\n  tag_22\n    /* \"#utility.yul\":659:664   */\n  dup2\n    /* \"#utility.yul\":641:665   */\n  tag_11\n  jump\t// in\ntag_22:\n    /* \"#utility.yul\":634:639   */\n  dup2\n    /* \"#utility.yul\":631:666   */\n  eq\n    /* \"#utility.yul\":621:684   */\n  tag_23\n  jumpi\n    /* \"#utility.yul\":680:681   */\n  0x00\n    /* \"#utility.yul\":677:678   */\n  dup1\n    /* \"#utility.yul\":670:682   */\n  revert\n    /* \"#utility.yul\":621:684   */\ntag_23:\n    /* \"#utility.yul\":568:690   */\n  pop\n  jump\t// out\n    /* \"#utility.yul\":696:839   */\ntag_13:\n    /* \"#utility.yul\":753:758   */\n  0x00\n    /* \"#utility.yul\":784:790   */\n  dup2\n    /* \"#utility.yul\":778:791   */\n  mload\n    /* \"#utility.yul\":769:791   */\n  swap1\n  pop\n    /* \"#utility.yul\":800:833   */\n  tag_25\n    /* \"#utility.yul\":827:832   */\n  dup2\n    /* \"#utility.yul\":800:833   */\n  tag_12\n  jump\t// in\ntag_25:\n    /* \"#utility.yul\":696:839   */\n  swap3\n  swap2\n  pop\n  pop\n  jump\t// out\n    /* \"#utility.yul\":845:1196   */\ntag_3:\n    /* \"#utility.yul\":915:921   */\n  0x00\n    /* \"#utility.yul\":964:966   */\n  0x20\n    /* \"#utility.yul\":952:961   */\n  dup3\n    /* \"#utility.yul\":943:950   */\n  dup5\n    /* \"#utility.yul\":939:962   */\n  sub\n    /* \"#utility.yul\":935:967   */\n  slt\n    /* \"#utility.yul\":932:1051   */\n  iszero\n  tag_27\n  jumpi\n    /* \"#utility.yul\":970:1049   */\n  tag_28\n  tag_8\n  jump\t// in\ntag_28:\n    /* \"#utility.yul\":932:1051   */\ntag_27:\n    /* \"#utility.yul\":1090:1091   */\n  0x00\n    /* \"#utility.yul\":1115:1179   */\n  tag_29\n    /* \"#utility.yul\":1171:1178   */\n  dup5\n    /* \"#utility.yul\":1162:1168   */\n  dup3\n    /* \"#utility.yul\":1151:1160   */\n  dup6\n    /* \"#utility.yul\":1147:1169   */\n  add\n    /* \"#utility.yul\":1115:1179   */\n  tag_13\n  jump\t// in\ntag_29:\n    /* \"#utility.yul\":1105:1179   */\n  swap2\n  pop\n    /* \"#utility.yul\":1061:1189   */\n  pop\n    /* \"#utility.yul\":845:1196   */\n  swap3\n  swap2\n  pop\n  pop\n  jump\t// out\n    /* \"contracts/HospitalTaskManager.sol\":93:3941  contract HospitalTaskManager {... */\ntag_6:\n  dataSize(sub_0)\n  dup1\n  dataOffset(sub_0)\n  0x00\n  codecopy\n  0x00\n  return\nstop\n\nsub_0: assembly {\n        /* \"contracts/HospitalTaskManager.sol\":93:3941  contract HospitalTaskManager {... */\n      mstore(0x40, 0x80)\n      callvalue\n      dup1\n      iszero\n      tag_1\n      jumpi\n      0x00\n      dup1\n      revert\n    tag_1:\n      pop\n      jumpi(tag_2, lt(calldatasize, 0x04))\n      shr(0xe0, calldataload(0x00))\n      dup1\n      0x9673e405\n      gt\n      tag_18\n      jumpi\n      dup1\n      0xb6cb58a5\n      gt\n      tag_19\n      jumpi\n      dup1\n      0xb6cb58a5\n      eq\n      tag_14\n      jumpi\n      dup1\n      0xcbcc57ff\n      eq\n      tag_15\n      jumpi\n      dup1\n      0xdc3489cf\n      eq\n      tag_16\n      jumpi\n      dup1\n      0xedd92a3f\n      eq\n      tag_17\n      jumpi\n      jump(tag_2)\n    tag_19:\n      dup1\n      0x9673e405\n      eq\n      tag_10\n      jumpi\n      dup1\n      0x9e088b0b\n      eq\n      tag_11\n      jumpi\n      dup1\n      0xa19c8958\n      eq\n      tag_12\n      jumpi\n      dup1\n      0xa3748a2e\n      eq\n      tag_13\n      jumpi\n      jump(tag_2)\n    tag_18:\n      dup1\n      0x6115786d\n      gt\n      tag_20\n      jumpi\n      dup1\n      0x6115786d\n      eq\n      tag_6\n      jumpi\n      dup1\n      0x7e335de2\n      eq\n      tag_7\n      jumpi\n      dup1\n      0x8d977672\n      eq\n      tag_8\n      jumpi\n      dup1\n      0x8da5cb5b\n      eq\n      tag_9\n      jumpi\n      jump(tag_2)\n    tag_20:\n      dup1\n      0x46cf351e\n      eq\n      tag_3\n      jumpi\n      dup1\n      0x4a1aedcf\n      eq\n      tag_4\n      jumpi\n      dup1\n      0x5f944326\n      eq\n      tag_5\n      jumpi\n    tag_2:\n      0x00\n      dup1\n      revert\n        /* \"contracts/HospitalTaskManager.sol\":2116:2238  function removeCaretaker(address caretakerAddress) public onlyOwner {... */\n    tag_3:\n      tag_21\n      0x04\n      dup1\n      calldatasize\n      sub\n      dup2\n      add\n      swap1\n      tag_22\n      swap2\n      swap1\n      tag_23\n      jump\t// in\n    tag_22:\n      tag_24\n      jump\t// in\n    tag_21:\n      stop\n        /* \"contracts/HospitalTaskManager.sol\":156:190  address public medicalStaffAddress */\n    tag_4:\n      tag_25\n      tag_26\n      jump\t// in\n    tag_25:\n      mload(0x40)\n      tag_27\n      swap2\n      swap1\n      tag_28\n      jump\t// in\n    tag_27:\n      mload(0x40)\n      dup1\n      swap2\n      sub\n      swap1\n      return\n        /* \"contracts/HospitalTaskManager.sol\":3017:3327  function startTask(uint taskId) public onlyActiveCaretaker onlyAssignedCaretaker(taskId) {... */\n    tag_5:\n      tag_29\n      0x04\n      dup1\n      calldatasize\n      sub\n      dup2\n      add\n      swap1\n      tag_30\n      swap2\n      swap1\n      tag_31\n      jump\t// in\n    tag_30:\n      tag_32\n      jump\t// in\n    tag_29:\n      stop\n        /* \"contracts/HospitalTaskManager.sol\":3335:3713  function endTask(uint taskId) public onlyActiveCaretaker onlyAssignedCaretaker(taskId) {... */\n    tag_6:\n      tag_33\n      0x04\n      dup1\n      calldatasize\n      sub\n      dup2\n      add\n      swap1\n      tag_34\n      swap2\n      swap1\n      tag_31\n      jump\t// in\n    tag_34:\n      tag_35\n      jump\t// in\n    tag_33:\n      stop\n        /* \"contracts/HospitalTaskManager.sol\":237:273  PriorityHeap public taskPriorityHeap */\n    tag_7:\n      tag_36\n      tag_37\n      jump\t// in\n    tag_36:\n      mload(0x40)\n      tag_38\n      swap2\n      swap1\n      tag_39\n      jump\t// in\n    tag_38:\n      mload(0x40)\n      dup1\n      swap2\n      sub\n      swap1\n      return\n        /* \"contracts/HospitalTaskManager.sol\":945:979  mapping(uint => Task) public tasks */\n    tag_8:\n      tag_40\n      0x04\n      dup1\n      calldatasize\n      sub\n      dup2\n      add\n      swap1\n      tag_41\n      swap2\n      swap1\n      tag_31\n      jump\t// in\n    tag_41:\n      tag_42\n      jump\t// in\n    tag_40:\n      mload(0x40)\n      tag_43\n      swap13\n      swap12\n      swap11\n      swap10\n      swap9\n      swap8\n      swap7\n      swap6\n      swap5\n      swap4\n      swap3\n      swap2\n      swap1\n      tag_44\n      jump\t// in\n    tag_43:\n      mload(0x40)\n      dup1\n      swap2\n      sub\n      swap1\n      return\n        /* \"contracts/HospitalTaskManager.sol\":129:149  address public owner */\n    tag_9:\n      tag_45\n      tag_46\n      jump\t// in\n    tag_45:\n      mload(0x40)\n      tag_47\n      swap2\n      swap1\n      tag_28\n      jump\t// in\n    tag_47:\n      mload(0x40)\n      dup1\n      swap2\n      sub\n      swap1\n      return\n        /* \"contracts/HospitalTaskManager.sol\":1786:1926  function setMedicalStaffAddress(address _medicalStaffAddress) public onlyOwner {... */\n    tag_10:\n      tag_48\n      0x04\n      dup1\n      calldatasize\n      sub\n      dup2\n      add\n      swap1\n      tag_49\n      swap2\n      swap1\n      tag_23\n      jump\t// in\n    tag_49:\n      tag_50\n      jump\t// in\n    tag_48:\n      stop\n        /* \"contracts/HospitalTaskManager.sol\":2387:2523  function deactivateCaretaker(address caretakerAddress) public onlyOwner {... */\n    tag_11:\n      tag_51\n      0x04\n      dup1\n      calldatasize\n      sub\n      dup2\n      add\n      swap1\n      tag_52\n      swap2\n      swap1\n      tag_23\n      jump\t// in\n    tag_52:\n      tag_53\n      jump\t// in\n    tag_51:\n      stop\n        /* \"contracts/HospitalTaskManager.sol\":3721:3938  function getTaskTime(uint taskId) public view returns (uint) {... */\n    tag_12:\n      tag_54\n      0x04\n      dup1\n      calldatasize\n      sub\n      dup2\n      add\n      swap1\n      tag_55\n      swap2\n      swap1\n      tag_31\n      jump\t// in\n    tag_55:\n      tag_56\n      jump\t// in\n    tag_54:\n      mload(0x40)\n      tag_57\n      swap2\n      swap1\n      tag_58\n      jump\t// in\n    tag_57:\n      mload(0x40)\n      dup1\n      swap2\n      sub\n      swap1\n      return\n        /* \"contracts/HospitalTaskManager.sol\":2246:2379  function activateCaretaker(address caretakerAddress) public onlyOwner {... */\n    tag_13:\n      tag_59\n      0x04\n      dup1\n      calldatasize\n      sub\n      dup2\n      add\n      swap1\n      tag_60\n      swap2\n      swap1\n      tag_23\n      jump\t// in\n    tag_60:\n      tag_61\n      jump\t// in\n    tag_59:\n      stop\n        /* \"contracts/HospitalTaskManager.sol\":986:1011  uint public taskCount = 0 */\n    tag_14:\n      tag_62\n      tag_63\n      jump\t// in\n    tag_62:\n      mload(0x40)\n      tag_64\n      swap2\n      swap1\n      tag_58\n      jump\t// in\n    tag_64:\n      mload(0x40)\n      dup1\n      swap2\n      sub\n      swap1\n      return\n        /* \"contracts/HospitalTaskManager.sol\":2531:3009  function assignTask(... */\n    tag_15:\n      tag_65\n      0x04\n      dup1\n      calldatasize\n      sub\n      dup2\n      add\n      swap1\n      tag_66\n      swap2\n      swap1\n      tag_67\n      jump\t// in\n    tag_66:\n      tag_68\n      jump\t// in\n    tag_65:\n      stop\n        /* \"contracts/HospitalTaskManager.sol\":891:938  mapping(address => Caretaker) public caretakers */\n    tag_16:\n      tag_69\n      0x04\n      dup1\n      calldatasize\n      sub\n      dup2\n      add\n      swap1\n      tag_70\n      swap2\n      swap1\n      tag_23\n      jump\t// in\n    tag_70:\n      tag_71\n      jump\t// in\n    tag_69:\n      mload(0x40)\n      tag_72\n      swap4\n      swap3\n      swap2\n      swap1\n      tag_73\n      jump\t// in\n    tag_72:\n      mload(0x40)\n      dup1\n      swap2\n      sub\n      swap1\n      return\n        /* \"contracts/HospitalTaskManager.sol\":1934:2108  function addCaretaker(address caretakerAddress, string memory name) public onlyOwner {... */\n    tag_17:\n      tag_74\n      0x04\n      dup1\n      calldatasize\n      sub\n      dup2\n      add\n      swap1\n      tag_75\n      swap2\n      swap1\n      tag_76\n      jump\t// in\n    tag_75:\n      tag_77\n      jump\t// in\n    tag_74:\n      stop\n        /* \"contracts/HospitalTaskManager.sol\":2116:2238  function removeCaretaker(address caretakerAddress) public onlyOwner {... */\n    tag_24:\n        /* \"contracts/HospitalTaskManager.sol\":1233:1238  owner */\n      0x00\n      dup1\n      sload\n      swap1\n      0x0100\n      exp\n      swap1\n      div\n      0xffffffffffffffffffffffffffffffffffffffff\n      and\n        /* \"contracts/HospitalTaskManager.sol\":1219:1238  msg.sender == owner */\n      0xffffffffffffffffffffffffffffffffffffffff\n      and\n        /* \"contracts/HospitalTaskManager.sol\":1219:1229  msg.sender */\n      caller\n        /* \"contracts/HospitalTaskManager.sol\":1219:1238  msg.sender == owner */\n      0xffffffffffffffffffffffffffffffffffffffff\n      and\n      eq\n        /* \"contracts/HospitalTaskManager.sol\":1211:1274  require(msg.sender == owner, \"Only the owner can execute this\") */\n      tag_79\n      jumpi\n      mload(0x40)\n      0x08c379a000000000000000000000000000000000000000000000000000000000\n      dup2\n      mstore\n      0x04\n      add\n      tag_80\n      swap1\n      tag_81\n      jump\t// in\n    tag_80:\n      mload(0x40)\n      dup1\n      swap2\n      sub\n      swap1\n      revert\n    tag_79:\n        /* \"contracts/HospitalTaskManager.sol\":2202:2212  caretakers */\n      0x03\n        /* \"contracts/HospitalTaskManager.sol\":2202:2230  caretakers[caretakerAddress] */\n      0x00\n        /* \"contracts/HospitalTaskManager.sol\":2213:2229  caretakerAddress */\n      dup3\n        /* \"contracts/HospitalTaskManager.sol\":2202:2230  caretakers[caretakerAddress] */\n      0xffffffffffffffffffffffffffffffffffffffff\n      and\n      0xffffffffffffffffffffffffffffffffffffffff\n      and\n      dup2\n      mstore\n      0x20\n      add\n      swap1\n      dup2\n      mstore\n      0x20\n      add\n      0x00\n      keccak256\n      0x00\n        /* \"contracts/HospitalTaskManager.sol\":2195:2230  delete caretakers[caretakerAddress] */\n      dup1\n      dup3\n      add\n      exp(0x0100, 0x00)\n      dup2\n      sload\n      swap1\n      0xffffffffffffffffffffffffffffffffffffffff\n      mul\n      not\n      and\n      swap1\n      sstore\n      0x01\n      dup3\n      add\n      0x00\n      tag_83\n      swap2\n      swap1\n      tag_84\n      jump\t// in\n    tag_83:\n      0x02\n      dup3\n      add\n      exp(0x0100, 0x00)\n      dup2\n      sload\n      swap1\n      0xff\n      mul\n      not\n      and\n      swap1\n      sstore\n      pop\n      pop\n        /* \"contracts/HospitalTaskManager.sol\":2116:2238  function removeCaretaker(address caretakerAddress) public onlyOwner {... */\n      pop\n      jump\t// out\n        /* \"contracts/HospitalTaskManager.sol\":156:190  address public medicalStaffAddress */\n    tag_26:\n      0x01\n      0x00\n      swap1\n      sload\n      swap1\n      0x0100\n      exp\n      swap1\n      div\n      0xffffffffffffffffffffffffffffffffffffffff\n      and\n      dup2\n      jump\t// out\n        /* \"contracts/HospitalTaskManager.sol\":3017:3327  function startTask(uint taskId) public onlyActiveCaretaker onlyAssignedCaretaker(taskId) {... */\n    tag_32:\n        /* \"contracts/HospitalTaskManager.sol\":1352:1362  caretakers */\n      0x03\n        /* \"contracts/HospitalTaskManager.sol\":1352:1374  caretakers[msg.sender] */\n      0x00\n        /* \"contracts/HospitalTaskManager.sol\":1363:1373  msg.sender */\n      caller\n        /* \"contracts/HospitalTaskManager.sol\":1352:1374  caretakers[msg.sender] */\n      0xffffffffffffffffffffffffffffffffffffffff\n      and\n      0xffffffffffffffffffffffffffffffffffffffff\n      and\n      dup2\n      mstore\n      0x20\n      add\n      swap1\n      dup2\n      mstore\n      0x20\n      add\n      0x00\n      keccak256\n        /* \"contracts/HospitalTaskManager.sol\":1352:1383  caretakers[msg.sender].isActive */\n      0x02\n      add\n      0x00\n      swap1\n      sload\n      swap1\n      0x0100\n      exp\n      swap1\n      div\n      0xff\n      and\n        /* \"contracts/HospitalTaskManager.sol\":1344:1422  require(caretakers[msg.sender].isActive, \"Only active caretakers are allowed\") */\n      tag_86\n      jumpi\n      mload(0x40)\n      0x08c379a000000000000000000000000000000000000000000000000000000000\n      dup2\n      mstore\n      0x04\n      add\n      tag_87\n      swap1\n      tag_88\n      jump\t// in\n    tag_87:\n      mload(0x40)\n      dup1\n      swap2\n      sub\n      swap1\n      revert\n    tag_86:\n        /* \"contracts/HospitalTaskManager.sol\":3098:3104  taskId */\n      dup1\n        /* \"contracts/HospitalTaskManager.sol\":1555:1565  msg.sender */\n      caller\n        /* \"contracts/HospitalTaskManager.sol\":1513:1565  tasks[taskId].assignedCaretakerAddress == msg.sender */\n      0xffffffffffffffffffffffffffffffffffffffff\n      and\n        /* \"contracts/HospitalTaskManager.sol\":1513:1518  tasks */\n      0x04\n        /* \"contracts/HospitalTaskManager.sol\":1513:1526  tasks[taskId] */\n      0x00\n        /* \"contracts/HospitalTaskManager.sol\":1519:1525  taskId */\n      dup4\n        /* \"contracts/HospitalTaskManager.sol\":1513:1526  tasks[taskId] */\n      dup2\n      mstore\n      0x20\n      add\n      swap1\n      dup2\n      mstore\n      0x20\n      add\n      0x00\n      keccak256\n        /* \"contracts/HospitalTaskManager.sol\":1513:1551  tasks[taskId].assignedCaretakerAddress */\n      0x00\n      add\n      0x00\n      swap1\n      sload\n      swap1\n      0x0100\n      exp\n      swap1\n      div\n      0xffffffffffffffffffffffffffffffffffffffff\n      and\n        /* \"contracts/HospitalTaskManager.sol\":1513:1565  tasks[taskId].assignedCaretakerAddress == msg.sender */\n      0xffffffffffffffffffffffffffffffffffffffff\n      and\n      eq\n        /* \"contracts/HospitalTaskManager.sol\":1505:1610  require(tasks[taskId].assignedCaretakerAddress == msg.sender, \"Not the assigned caretaker for this task\") */\n      tag_90\n      jumpi\n      mload(0x40)\n      0x08c379a000000000000000000000000000000000000000000000000000000000\n      dup2\n      mstore\n      0x04\n      add\n      tag_91\n      swap1\n      tag_92\n      jump\t// in\n    tag_91:\n      mload(0x40)\n      dup1\n      swap2\n      sub\n      swap1\n      revert\n    tag_90:\n        /* \"contracts/HospitalTaskManager.sol\":3117:3134  Task storage task */\n      0x00\n        /* \"contracts/HospitalTaskManager.sol\":3137:3142  tasks */\n      0x04\n        /* \"contracts/HospitalTaskManager.sol\":3137:3150  tasks[taskId] */\n      0x00\n        /* \"contracts/HospitalTaskManager.sol\":3143:3149  taskId */\n      dup5\n        /* \"contracts/HospitalTaskManager.sol\":3137:3150  tasks[taskId] */\n      dup2\n      mstore\n      0x20\n      add\n      swap1\n      dup2\n      mstore\n      0x20\n      add\n      0x00\n      keccak256\n        /* \"contracts/HospitalTaskManager.sol\":3117:3150  Task storage task = tasks[taskId] */\n      swap1\n      pop\n        /* \"contracts/HospitalTaskManager.sol\":3170:3174  task */\n      dup1\n        /* \"contracts/HospitalTaskManager.sol\":3170:3184  task.isStarted */\n      0x07\n      add\n      0x01\n      swap1\n      sload\n      swap1\n      0x0100\n      exp\n      swap1\n      div\n      0xff\n      and\n        /* \"contracts/HospitalTaskManager.sol\":3169:3184  !task.isStarted */\n      iszero\n        /* \"contracts/HospitalTaskManager.sol\":3161:3209  require(!task.isStarted, \"Task already started\") */\n      tag_94\n      jumpi\n      mload(0x40)\n      0x08c379a000000000000000000000000000000000000000000000000000000000\n      dup2\n      mstore\n      0x04\n      add\n      tag_95\n      swap1\n      tag_96\n      jump\t// in\n    tag_95:\n      mload(0x40)\n      dup1\n      swap2\n      sub\n      swap1\n      revert\n    tag_94:\n        /* \"contracts/HospitalTaskManager.sol\":3237:3241  true */\n      0x01\n        /* \"contracts/HospitalTaskManager.sol\":3220:3224  task */\n      dup2\n        /* \"contracts/HospitalTaskManager.sol\":3220:3234  task.isStarted */\n      0x07\n      add\n      0x01\n        /* \"contracts/HospitalTaskManager.sol\":3220:3241  task.isStarted = true */\n      0x0100\n      exp\n      dup2\n      sload\n      dup2\n      0xff\n      mul\n      not\n      and\n      swap1\n      dup4\n      iszero\n      iszero\n      mul\n      or\n      swap1\n      sstore\n      pop\n        /* \"contracts/HospitalTaskManager.sol\":3269:3284  block.timestamp */\n      timestamp\n        /* \"contracts/HospitalTaskManager.sol\":3252:3256  task */\n      dup2\n        /* \"contracts/HospitalTaskManager.sol\":3252:3266  task.startTime */\n      0x08\n      add\n        /* \"contracts/HospitalTaskManager.sol\":3252:3284  task.startTime = block.timestamp */\n      dup2\n      swap1\n      sstore\n      pop\n        /* \"contracts/HospitalTaskManager.sol\":3300:3319  TaskStarted(taskId) */\n      0xa20ac7f16cfb4313b156d64f380ccd1f8276f438d0b621eb33db07cfc639da47\n        /* \"contracts/HospitalTaskManager.sol\":3312:3318  taskId */\n      dup4\n        /* \"contracts/HospitalTaskManager.sol\":3300:3319  TaskStarted(taskId) */\n      mload(0x40)\n      tag_97\n      swap2\n      swap1\n      tag_58\n      jump\t// in\n    tag_97:\n      mload(0x40)\n      dup1\n      swap2\n      sub\n      swap1\n      log1\n        /* \"contracts/HospitalTaskManager.sol\":3106:3327  {... */\n      pop\n        /* \"contracts/HospitalTaskManager.sol\":1433:1434  _ */\n      pop\n        /* \"contracts/HospitalTaskManager.sol\":3017:3327  function startTask(uint taskId) public onlyActiveCaretaker onlyAssignedCaretaker(taskId) {... */\n      pop\n      jump\t// out\n        /* \"contracts/HospitalTaskManager.sol\":3335:3713  function endTask(uint taskId) public onlyActiveCaretaker onlyAssignedCaretaker(taskId) {... */\n    tag_35:\n        /* \"contracts/HospitalTaskManager.sol\":1352:1362  caretakers */\n      0x03\n        /* \"contracts/HospitalTaskManager.sol\":1352:1374  caretakers[msg.sender] */\n      0x00\n        /* \"contracts/HospitalTaskManager.sol\":1363:1373  msg.sender */\n      caller\n        /* \"contracts/HospitalTaskManager.sol\":1352:1374  caretakers[msg.sender] */\n      0xffffffffffffffffffffffffffffffffffffffff\n      and\n      0xffffffffffffffffffffffffffffffffffffffff\n      and\n      dup2\n      mstore\n      0x20\n      add\n      swap1\n      dup2\n      mstore\n      0x20\n      add\n      0x00\n      keccak256\n        /* \"contracts/HospitalTaskManager.sol\":1352:1383  caretakers[msg.sender].isActive */\n      0x02\n      add\n      0x00\n      swap1\n      sload\n      swap1\n      0x0100\n      exp\n      swap1\n      div\n      0xff\n      and\n        /* \"contracts/HospitalTaskManager.sol\":1344:1422  require(caretakers[msg.sender].isActive, \"Only active caretakers are allowed\") */\n      tag_99\n      jumpi\n      mload(0x40)\n      0x08c379a000000000000000000000000000000000000000000000000000000000\n      dup2\n      mstore\n      0x04\n      add\n      tag_100\n      swap1\n      tag_88\n      jump\t// in\n    tag_100:\n      mload(0x40)\n      dup1\n      swap2\n      sub\n      swap1\n      revert\n    tag_99:\n        /* \"contracts/HospitalTaskManager.sol\":3414:3420  taskId */\n      dup1\n        /* \"contracts/HospitalTaskManager.sol\":1555:1565  msg.sender */\n      caller\n        /* \"contracts/HospitalTaskManager.sol\":1513:1565  tasks[taskId].assignedCaretakerAddress == msg.sender */\n      0xffffffffffffffffffffffffffffffffffffffff\n      and\n        /* \"contracts/HospitalTaskManager.sol\":1513:1518  tasks */\n      0x04\n        /* \"contracts/HospitalTaskManager.sol\":1513:1526  tasks[taskId] */\n      0x00\n        /* \"contracts/HospitalTaskManager.sol\":1519:1525  taskId */\n      dup4\n        /* \"contracts/HospitalTaskManager.sol\":1513:1526  tasks[taskId] */\n      dup2\n      mstore\n      0x20\n      add\n      swap1\n      dup2\n      mstore\n      0x20\n      add\n      0x00\n      keccak256\n        /* \"contracts/HospitalTaskManager.sol\":1513:1551  tasks[taskId].assignedCaretakerAddress */\n      0x00\n      add\n      0x00\n      swap1\n      sload\n      swap1\n      0x0100\n      exp\n      swap1\n      div\n      0xffffffffffffffffffffffffffffffffffffffff\n      and\n        /* \"contracts/HospitalTaskManager.sol\":1513:1565  tasks[taskId].assignedCaretakerAddress == msg.sender */\n      0xffffffffffffffffffffffffffffffffffffffff\n      and\n      eq\n        /* \"contracts/HospitalTaskManager.sol\":1505:1610  require(tasks[taskId].assignedCaretakerAddress == msg.sender, \"Not the assigned caretaker for this task\") */\n      tag_102\n      jumpi\n      mload(0x40)\n      0x08c379a000000000000000000000000000000000000000000000000000000000\n      dup2\n      mstore\n      0x04\n      add\n      tag_103\n      swap1\n      tag_92\n      jump\t// in\n    tag_103:\n      mload(0x40)\n      dup1\n      swap2\n      sub\n      swap1\n      revert\n    tag_102:\n        /* \"contracts/HospitalTaskManager.sol\":3433:3450  Task storage task */\n      0x00\n        /* \"contracts/HospitalTaskManager.sol\":3453:3458  tasks */\n      0x04\n        /* \"contracts/HospitalTaskManager.sol\":3453:3466  tasks[taskId] */\n      0x00\n        /* \"contracts/HospitalTaskManager.sol\":3459:3465  taskId */\n      dup5\n        /* \"contracts/HospitalTaskManager.sol\":3453:3466  tasks[taskId] */\n      dup2\n      mstore\n      0x20\n      add\n      swap1\n      dup2\n      mstore\n      0x20\n      add\n      0x00\n      keccak256\n        /* \"contracts/HospitalTaskManager.sol\":3433:3466  Task storage task = tasks[taskId] */\n      swap1\n      pop\n        /* \"contracts/HospitalTaskManager.sol\":3485:3489  task */\n      dup1\n        /* \"contracts/HospitalTaskManager.sol\":3485:3499  task.isStarted */\n      0x07\n      add\n      0x01\n      swap1\n      sload\n      swap1\n      0x0100\n      exp\n      swap1\n      div\n      0xff\n      and\n        /* \"contracts/HospitalTaskManager.sol\":3485:3520  task.isStarted && !task.isCompleted */\n      dup1\n      iszero\n      tag_105\n      jumpi\n      pop\n        /* \"contracts/HospitalTaskManager.sol\":3504:3508  task */\n      dup1\n        /* \"contracts/HospitalTaskManager.sol\":3504:3520  task.isCompleted */\n      0x07\n      add\n      0x02\n      swap1\n      sload\n      swap1\n      0x0100\n      exp\n      swap1\n      div\n      0xff\n      and\n        /* \"contracts/HospitalTaskManager.sol\":3503:3520  !task.isCompleted */\n      iszero\n        /* \"contracts/HospitalTaskManager.sol\":3485:3520  task.isStarted && !task.isCompleted */\n    tag_105:\n        /* \"contracts/HospitalTaskManager.sol\":3477:3562  require(task.isStarted && !task.isCompleted, \"Task not started or already completed\") */\n      tag_106\n      jumpi\n      mload(0x40)\n      0x08c379a000000000000000000000000000000000000000000000000000000000\n      dup2\n      mstore\n      0x04\n      add\n      tag_107\n      swap1\n      tag_108\n      jump\t// in\n    tag_107:\n      mload(0x40)\n      dup1\n      swap2\n      sub\n      swap1\n      revert\n    tag_106:\n        /* \"contracts/HospitalTaskManager.sol\":3592:3596  true */\n      0x01\n        /* \"contracts/HospitalTaskManager.sol\":3573:3577  task */\n      dup2\n        /* \"contracts/HospitalTaskManager.sol\":3573:3589  task.isCompleted */\n      0x07\n      add\n      0x02\n        /* \"contracts/HospitalTaskManager.sol\":3573:3596  task.isCompleted = true */\n      0x0100\n      exp\n      dup2\n      sload\n      dup2\n      0xff\n      mul\n      not\n      and\n      swap1\n      dup4\n      iszero\n      iszero\n      mul\n      or\n      swap1\n      sstore\n      pop\n        /* \"contracts/HospitalTaskManager.sol\":3622:3637  block.timestamp */\n      timestamp\n        /* \"contracts/HospitalTaskManager.sol\":3607:3611  task */\n      dup2\n        /* \"contracts/HospitalTaskManager.sol\":3607:3619  task.endTime */\n      0x09\n      add\n        /* \"contracts/HospitalTaskManager.sol\":3607:3637  task.endTime = block.timestamp */\n      dup2\n      swap1\n      sstore\n      pop\n        /* \"contracts/HospitalTaskManager.sol\":3653:3705  TaskCompleted(taskId, task.endTime - task.startTime) */\n      0xf9c405f91e34dcd1dc136cf6992ada4a8c24a2803e0fab7546364c64dac7ba2b\n        /* \"contracts/HospitalTaskManager.sol\":3667:3673  taskId */\n      dup4\n        /* \"contracts/HospitalTaskManager.sol\":3690:3694  task */\n      dup3\n        /* \"contracts/HospitalTaskManager.sol\":3690:3704  task.startTime */\n      0x08\n      add\n      sload\n        /* \"contracts/HospitalTaskManager.sol\":3675:3679  task */\n      dup4\n        /* \"contracts/HospitalTaskManager.sol\":3675:3687  task.endTime */\n      0x09\n      add\n      sload\n        /* \"contracts/HospitalTaskManager.sol\":3675:3704  task.endTime - task.startTime */\n      tag_109\n      swap2\n      swap1\n      tag_110\n      jump\t// in\n    tag_109:\n        /* \"contracts/HospitalTaskManager.sol\":3653:3705  TaskCompleted(taskId, task.endTime - task.startTime) */\n      mload(0x40)\n      tag_111\n      swap3\n      swap2\n      swap1\n      tag_112\n      jump\t// in\n    tag_111:\n      mload(0x40)\n      dup1\n      swap2\n      sub\n      swap1\n      log1\n        /* \"contracts/HospitalTaskManager.sol\":3422:3713  {... */\n      pop\n        /* \"contracts/HospitalTaskManager.sol\":1433:1434  _ */\n      pop\n        /* \"contracts/HospitalTaskManager.sol\":3335:3713  function endTask(uint taskId) public onlyActiveCaretaker onlyAssignedCaretaker(taskId) {... */\n      pop\n      jump\t// out\n        /* \"contracts/HospitalTaskManager.sol\":237:273  PriorityHeap public taskPriorityHeap */\n    tag_37:\n      0x02\n      0x00\n      swap1\n      sload\n      swap1\n      0x0100\n      exp\n      swap1\n      div\n      0xffffffffffffffffffffffffffffffffffffffff\n      and\n      dup2\n      jump\t// out\n        /* \"contracts/HospitalTaskManager.sol\":945:979  mapping(uint => Task) public tasks */\n    tag_42:\n      mstore(0x20, 0x04)\n      dup1\n      0x00\n      mstore\n      keccak256(0x00, 0x40)\n      0x00\n      swap2\n      pop\n      swap1\n      pop\n      dup1\n      0x00\n      add\n      0x00\n      swap1\n      sload\n      swap1\n      0x0100\n      exp\n      swap1\n      div\n      0xffffffffffffffffffffffffffffffffffffffff\n      and\n      swap1\n      dup1\n      0x01\n      add\n      0x00\n      swap1\n      sload\n      swap1\n      0x0100\n      exp\n      swap1\n      div\n      0xffffffffffffffffffffffffffffffffffffffff\n      and\n      swap1\n      dup1\n      0x02\n      add\n      sload\n      swap1\n      dup1\n      0x03\n      add\n      sload\n      swap1\n      dup1\n      0x04\n      add\n      sload\n      swap1\n      dup1\n      0x05\n      add\n      sload\n      swap1\n      dup1\n      0x06\n      add\n      sload\n      swap1\n      dup1\n      0x07\n      add\n      0x00\n      swap1\n      sload\n      swap1\n      0x0100\n      exp\n      swap1\n      div\n      0xff\n      and\n      swap1\n      dup1\n      0x07\n      add\n      0x01\n      swap1\n      sload\n      swap1\n      0x0100\n      exp\n      swap1\n      div\n      0xff\n      and\n      swap1\n      dup1\n      0x07\n      add\n      0x02\n      swap1\n      sload\n      swap1\n      0x0100\n      exp\n      swap1\n      div\n      0xff\n      and\n      swap1\n      dup1\n      0x08\n      add\n      sload\n      swap1\n      dup1\n      0x09\n      add\n      sload\n      swap1\n      pop\n      dup13\n      jump\t// out\n        /* \"contracts/HospitalTaskManager.sol\":129:149  address public owner */\n    tag_46:\n      0x00\n      dup1\n      sload\n      swap1\n      0x0100\n      exp\n      swap1\n      div\n      0xffffffffffffffffffffffffffffffffffffffff\n      and\n      dup2\n      jump\t// out\n        /* \"contracts/HospitalTaskManager.sol\":1786:1926  function setMedicalStaffAddress(address _medicalStaffAddress) public onlyOwner {... */\n    tag_50:\n        /* \"contracts/HospitalTaskManager.sol\":1233:1238  owner */\n      0x00\n      dup1\n      sload\n      swap1\n      0x0100\n      exp\n      swap1\n      div\n      0xffffffffffffffffffffffffffffffffffffffff\n      and\n        /* \"contracts/HospitalTaskManager.sol\":1219:1238  msg.sender == owner */\n      0xffffffffffffffffffffffffffffffffffffffff\n      and\n        /* \"contracts/HospitalTaskManager.sol\":1219:1229  msg.sender */\n      caller\n        /* \"contracts/HospitalTaskManager.sol\":1219:1238  msg.sender == owner */\n      0xffffffffffffffffffffffffffffffffffffffff\n      and\n      eq\n        /* \"contracts/HospitalTaskManager.sol\":1211:1274  require(msg.sender == owner, \"Only the owner can execute this\") */\n      tag_114\n      jumpi\n      mload(0x40)\n      0x08c379a000000000000000000000000000000000000000000000000000000000\n      dup2\n      mstore\n      0x04\n      add\n      tag_115\n      swap1\n      tag_81\n      jump\t// in\n    tag_115:\n      mload(0x40)\n      dup1\n      swap2\n      sub\n      swap1\n      revert\n    tag_114:\n        /* \"contracts/HospitalTaskManager.sol\":1898:1918  _medicalStaffAddress */\n      dup1\n        /* \"contracts/HospitalTaskManager.sol\":1876:1895  medicalStaffAddress */\n      0x01\n      0x00\n        /* \"contracts/HospitalTaskManager.sol\":1876:1918  medicalStaffAddress = _medicalStaffAddress */\n      0x0100\n      exp\n      dup2\n      sload\n      dup2\n      0xffffffffffffffffffffffffffffffffffffffff\n      mul\n      not\n      and\n      swap1\n      dup4\n      0xffffffffffffffffffffffffffffffffffffffff\n      and\n      mul\n      or\n      swap1\n      sstore\n      pop\n        /* \"contracts/HospitalTaskManager.sol\":1786:1926  function setMedicalStaffAddress(address _medicalStaffAddress) public onlyOwner {... */\n      pop\n      jump\t// out\n        /* \"contracts/HospitalTaskManager.sol\":2387:2523  function deactivateCaretaker(address caretakerAddress) public onlyOwner {... */\n    tag_53:\n        /* \"contracts/HospitalTaskManager.sol\":1233:1238  owner */\n      0x00\n      dup1\n      sload\n      swap1\n      0x0100\n      exp\n      swap1\n      div\n      0xffffffffffffffffffffffffffffffffffffffff\n      and\n        /* \"contracts/HospitalTaskManager.sol\":1219:1238  msg.sender == owner */\n      0xffffffffffffffffffffffffffffffffffffffff\n      and\n        /* \"contracts/HospitalTaskManager.sol\":1219:1229  msg.sender */\n      caller\n        /* \"contracts/HospitalTaskManager.sol\":1219:1238  msg.sender == owner */\n      0xffffffffffffffffffffffffffffffffffffffff\n      and\n      eq\n        /* \"contracts/HospitalTaskManager.sol\":1211:1274  require(msg.sender == owner, \"Only the owner can execute this\") */\n      tag_118\n      jumpi\n      mload(0x40)\n      0x08c379a000000000000000000000000000000000000000000000000000000000\n      dup2\n      mstore\n      0x04\n      add\n      tag_119\n      swap1\n      tag_81\n      jump\t// in\n    tag_119:\n      mload(0x40)\n      dup1\n      swap2\n      sub\n      swap1\n      revert\n    tag_118:\n        /* \"contracts/HospitalTaskManager.sol\":2510:2515  false */\n      0x00\n        /* \"contracts/HospitalTaskManager.sol\":2470:2480  caretakers */\n      0x03\n        /* \"contracts/HospitalTaskManager.sol\":2470:2498  caretakers[caretakerAddress] */\n      0x00\n        /* \"contracts/HospitalTaskManager.sol\":2481:2497  caretakerAddress */\n      dup4\n        /* \"contracts/HospitalTaskManager.sol\":2470:2498  caretakers[caretakerAddress] */\n      0xffffffffffffffffffffffffffffffffffffffff\n      and\n      0xffffffffffffffffffffffffffffffffffffffff\n      and\n      dup2\n      mstore\n      0x20\n      add\n      swap1\n      dup2\n      mstore\n      0x20\n      add\n      0x00\n      keccak256\n        /* \"contracts/HospitalTaskManager.sol\":2470:2507  caretakers[caretakerAddress].isActive */\n      0x02\n      add\n      0x00\n        /* \"contracts/HospitalTaskManager.sol\":2470:2515  caretakers[caretakerAddress].isActive = false */\n      0x0100\n      exp\n      dup2\n      sload\n      dup2\n      0xff\n      mul\n      not\n      and\n      swap1\n      dup4\n      iszero\n      iszero\n      mul\n      or\n      swap1\n      sstore\n      pop\n        /* \"contracts/HospitalTaskManager.sol\":2387:2523  function deactivateCaretaker(address caretakerAddress) public onlyOwner {... */\n      pop\n      jump\t// out\n        /* \"contracts/HospitalTaskManager.sol\":3721:3938  function getTaskTime(uint taskId) public view returns (uint) {... */\n    tag_56:\n        /* \"contracts/HospitalTaskManager.sol\":3776:3780  uint */\n      0x00\n        /* \"contracts/HospitalTaskManager.sol\":3793:3809  Task memory task */\n      dup1\n        /* \"contracts/HospitalTaskManager.sol\":3812:3817  tasks */\n      0x04\n        /* \"contracts/HospitalTaskManager.sol\":3812:3825  tasks[taskId] */\n      0x00\n        /* \"contracts/HospitalTaskManager.sol\":3818:3824  taskId */\n      dup5\n        /* \"contracts/HospitalTaskManager.sol\":3812:3825  tasks[taskId] */\n      dup2\n      mstore\n      0x20\n      add\n      swap1\n      dup2\n      mstore\n      0x20\n      add\n      0x00\n      keccak256\n        /* \"contracts/HospitalTaskManager.sol\":3793:3825  Task memory task = tasks[taskId] */\n      mload(0x40)\n      dup1\n      0x0180\n      add\n      0x40\n      mstore\n      swap1\n      dup2\n      0x00\n      dup3\n      add\n      0x00\n      swap1\n      sload\n      swap1\n      0x0100\n      exp\n      swap1\n      div\n      0xffffffffffffffffffffffffffffffffffffffff\n      and\n      0xffffffffffffffffffffffffffffffffffffffff\n      and\n      0xffffffffffffffffffffffffffffffffffffffff\n      and\n      dup2\n      mstore\n      0x20\n      add\n      0x01\n      dup3\n      add\n      0x00\n      swap1\n      sload\n      swap1\n      0x0100\n      exp\n      swap1\n      div\n      0xffffffffffffffffffffffffffffffffffffffff\n      and\n      0xffffffffffffffffffffffffffffffffffffffff\n      and\n      0xffffffffffffffffffffffffffffffffffffffff\n      and\n      dup2\n      mstore\n      0x20\n      add\n      0x02\n      dup3\n      add\n      sload\n      dup2\n      mstore\n      0x20\n      add\n      0x03\n      dup3\n      add\n      sload\n      dup2\n      mstore\n      0x20\n      add\n      0x04\n      dup3\n      add\n      sload\n      dup2\n      mstore\n      0x20\n      add\n      0x05\n      dup3\n      add\n      sload\n      dup2\n      mstore\n      0x20\n      add\n      0x06\n      dup3\n      add\n      sload\n      dup2\n      mstore\n      0x20\n      add\n      0x07\n      dup3\n      add\n      0x00\n      swap1\n      sload\n      swap1\n      0x0100\n      exp\n      swap1\n      div\n      0xff\n      and\n      iszero\n      iszero\n      iszero\n      iszero\n      dup2\n      mstore\n      0x20\n      add\n      0x07\n      dup3\n      add\n      0x01\n      swap1\n      sload\n      swap1\n      0x0100\n      exp\n      swap1\n      div\n      0xff\n      and\n      iszero\n      iszero\n      iszero\n      iszero\n      dup2\n      mstore\n      0x20\n      add\n      0x07\n      dup3\n      add\n      0x02\n      swap1\n      sload\n      swap1\n      0x0100\n      exp\n      swap1\n      div\n      0xff\n      and\n      iszero\n      iszero\n      iszero\n      iszero\n      dup2\n      mstore\n      0x20\n      add\n      0x08\n      dup3\n      add\n      sload\n      dup2\n      mstore\n      0x20\n      add\n      0x09\n      dup3\n      add\n      sload\n      dup2\n      mstore\n      pop\n      pop\n      swap1\n      pop\n        /* \"contracts/HospitalTaskManager.sol\":3844:3848  task */\n      dup1\n        /* \"contracts/HospitalTaskManager.sol\":3844:3860  task.isCompleted */\n      0x0120\n      add\n      mload\n        /* \"contracts/HospitalTaskManager.sol\":3836:3883  require(task.isCompleted, \"Task not completed\") */\n      tag_122\n      jumpi\n      mload(0x40)\n      0x08c379a000000000000000000000000000000000000000000000000000000000\n      dup2\n      mstore\n      0x04\n      add\n      tag_123\n      swap1\n      tag_124\n      jump\t// in\n    tag_123:\n      mload(0x40)\n      dup1\n      swap2\n      sub\n      swap1\n      revert\n    tag_122:\n        /* \"contracts/HospitalTaskManager.sol\":3916:3920  task */\n      dup1\n        /* \"contracts/HospitalTaskManager.sol\":3916:3930  task.startTime */\n      0x0140\n      add\n      mload\n        /* \"contracts/HospitalTaskManager.sol\":3901:3905  task */\n      dup2\n        /* \"contracts/HospitalTaskManager.sol\":3901:3913  task.endTime */\n      0x0160\n      add\n      mload\n        /* \"contracts/HospitalTaskManager.sol\":3901:3930  task.endTime - task.startTime */\n      tag_125\n      swap2\n      swap1\n      tag_110\n      jump\t// in\n    tag_125:\n        /* \"contracts/HospitalTaskManager.sol\":3894:3930  return task.endTime - task.startTime */\n      swap2\n      pop\n      pop\n        /* \"contracts/HospitalTaskManager.sol\":3721:3938  function getTaskTime(uint taskId) public view returns (uint) {... */\n      swap2\n      swap1\n      pop\n      jump\t// out\n        /* \"contracts/HospitalTaskManager.sol\":2246:2379  function activateCaretaker(address caretakerAddress) public onlyOwner {... */\n    tag_61:\n        /* \"contracts/HospitalTaskManager.sol\":1233:1238  owner */\n      0x00\n      dup1\n      sload\n      swap1\n      0x0100\n      exp\n      swap1\n      div\n      0xffffffffffffffffffffffffffffffffffffffff\n      and\n        /* \"contracts/HospitalTaskManager.sol\":1219:1238  msg.sender == owner */\n      0xffffffffffffffffffffffffffffffffffffffff\n      and\n        /* \"contracts/HospitalTaskManager.sol\":1219:1229  msg.sender */\n      caller\n        /* \"contracts/HospitalTaskManager.sol\":1219:1238  msg.sender == owner */\n      0xffffffffffffffffffffffffffffffffffffffff\n      and\n      eq\n        /* \"contracts/HospitalTaskManager.sol\":1211:1274  require(msg.sender == owner, \"Only the owner can execute this\") */\n      tag_127\n      jumpi\n      mload(0x40)\n      0x08c379a000000000000000000000000000000000000000000000000000000000\n      dup2\n      mstore\n      0x04\n      add\n      tag_128\n      swap1\n      tag_81\n      jump\t// in\n    tag_128:\n      mload(0x40)\n      dup1\n      swap2\n      sub\n      swap1\n      revert\n    tag_127:\n        /* \"contracts/HospitalTaskManager.sol\":2367:2371  true */\n      0x01\n        /* \"contracts/HospitalTaskManager.sol\":2327:2337  caretakers */\n      0x03\n        /* \"contracts/HospitalTaskManager.sol\":2327:2355  caretakers[caretakerAddress] */\n      0x00\n        /* \"contracts/HospitalTaskManager.sol\":2338:2354  caretakerAddress */\n      dup4\n        /* \"contracts/HospitalTaskManager.sol\":2327:2355  caretakers[caretakerAddress] */\n      0xffffffffffffffffffffffffffffffffffffffff\n      and\n      0xffffffffffffffffffffffffffffffffffffffff\n      and\n      dup2\n      mstore\n      0x20\n      add\n      swap1\n      dup2\n      mstore\n      0x20\n      add\n      0x00\n      keccak256\n        /* \"contracts/HospitalTaskManager.sol\":2327:2364  caretakers[caretakerAddress].isActive */\n      0x02\n      add\n      0x00\n        /* \"contracts/HospitalTaskManager.sol\":2327:2371  caretakers[caretakerAddress].isActive = true */\n      0x0100\n      exp\n      dup2\n      sload\n      dup2\n      0xff\n      mul\n      not\n      and\n      swap1\n      dup4\n      iszero\n      iszero\n      mul\n      or\n      swap1\n      sstore\n      pop\n        /* \"contracts/HospitalTaskManager.sol\":2246:2379  function activateCaretaker(address caretakerAddress) public onlyOwner {... */\n      pop\n      jump\t// out\n        /* \"contracts/HospitalTaskManager.sol\":986:1011  uint public taskCount = 0 */\n    tag_63:\n      sload(0x05)\n      dup2\n      jump\t// out\n        /* \"contracts/HospitalTaskManager.sol\":2531:3009  function assignTask(... */\n    tag_68:\n        /* \"contracts/HospitalTaskManager.sol\":1699:1718  medicalStaffAddress */\n      0x01\n      0x00\n      swap1\n      sload\n      swap1\n      0x0100\n      exp\n      swap1\n      div\n      0xffffffffffffffffffffffffffffffffffffffff\n      and\n        /* \"contracts/HospitalTaskManager.sol\":1685:1718  msg.sender == medicalStaffAddress */\n      0xffffffffffffffffffffffffffffffffffffffff\n      and\n        /* \"contracts/HospitalTaskManager.sol\":1685:1695  msg.sender */\n      caller\n        /* \"contracts/HospitalTaskManager.sol\":1685:1718  msg.sender == medicalStaffAddress */\n      0xffffffffffffffffffffffffffffffffffffffff\n      and\n      eq\n        /* \"contracts/HospitalTaskManager.sol\":1677:1758  require(msg.sender == medicalStaffAddress, \"Only Medical Staff can execute this\") */\n      tag_131\n      jumpi\n      mload(0x40)\n      0x08c379a000000000000000000000000000000000000000000000000000000000\n      dup2\n      mstore\n      0x04\n      add\n      tag_132\n      swap1\n      tag_133\n      jump\t// in\n    tag_132:\n      mload(0x40)\n      dup1\n      swap2\n      sub\n      swap1\n      revert\n    tag_131:\n        /* \"contracts/HospitalTaskManager.sol\":2765:2871  Task(msg.sender, requester, patientName, roomFrom, roomTo, bedNumber, priority, false, false, false, 0, 0) */\n      mload(0x40)\n      dup1\n      0x0180\n      add\n      0x40\n      mstore\n      dup1\n        /* \"contracts/HospitalTaskManager.sol\":2770:2780  msg.sender */\n      caller\n        /* \"contracts/HospitalTaskManager.sol\":2765:2871  Task(msg.sender, requester, patientName, roomFrom, roomTo, bedNumber, priority, false, false, false, 0, 0) */\n      0xffffffffffffffffffffffffffffffffffffffff\n      and\n      dup2\n      mstore\n      0x20\n      add\n        /* \"contracts/HospitalTaskManager.sol\":2782:2791  requester */\n      dup8\n        /* \"contracts/HospitalTaskManager.sol\":2765:2871  Task(msg.sender, requester, patientName, roomFrom, roomTo, bedNumber, priority, false, false, false, 0, 0) */\n      0xffffffffffffffffffffffffffffffffffffffff\n      and\n      dup2\n      mstore\n      0x20\n      add\n        /* \"contracts/HospitalTaskManager.sol\":2793:2804  patientName */\n      dup7\n        /* \"contracts/HospitalTaskManager.sol\":2765:2871  Task(msg.sender, requester, patientName, roomFrom, roomTo, bedNumber, priority, false, false, false, 0, 0) */\n      dup2\n      mstore\n      0x20\n      add\n        /* \"contracts/HospitalTaskManager.sol\":2806:2814  roomFrom */\n      dup6\n        /* \"contracts/HospitalTaskManager.sol\":2765:2871  Task(msg.sender, requester, patientName, roomFrom, roomTo, bedNumber, priority, false, false, false, 0, 0) */\n      dup2\n      mstore\n      0x20\n      add\n        /* \"contracts/HospitalTaskManager.sol\":2816:2822  roomTo */\n      dup5\n        /* \"contracts/HospitalTaskManager.sol\":2765:2871  Task(msg.sender, requester, patientName, roomFrom, roomTo, bedNumber, priority, false, false, false, 0, 0) */\n      dup2\n      mstore\n      0x20\n      add\n        /* \"contracts/HospitalTaskManager.sol\":2824:2833  bedNumber */\n      dup4\n        /* \"contracts/HospitalTaskManager.sol\":2765:2871  Task(msg.sender, requester, patientName, roomFrom, roomTo, bedNumber, priority, false, false, false, 0, 0) */\n      dup2\n      mstore\n      0x20\n      add\n        /* \"contracts/HospitalTaskManager.sol\":2835:2843  priority */\n      dup3\n        /* \"contracts/HospitalTaskManager.sol\":2765:2871  Task(msg.sender, requester, patientName, roomFrom, roomTo, bedNumber, priority, false, false, false, 0, 0) */\n      dup2\n      mstore\n      0x20\n      add\n        /* \"contracts/HospitalTaskManager.sol\":2845:2850  false */\n      0x00\n        /* \"contracts/HospitalTaskManager.sol\":2765:2871  Task(msg.sender, requester, patientName, roomFrom, roomTo, bedNumber, priority, false, false, false, 0, 0) */\n      iszero\n      iszero\n      dup2\n      mstore\n      0x20\n      add\n        /* \"contracts/HospitalTaskManager.sol\":2852:2857  false */\n      0x00\n        /* \"contracts/HospitalTaskManager.sol\":2765:2871  Task(msg.sender, requester, patientName, roomFrom, roomTo, bedNumber, priority, false, false, false, 0, 0) */\n      iszero\n      iszero\n      dup2\n      mstore\n      0x20\n      add\n        /* \"contracts/HospitalTaskManager.sol\":2859:2864  false */\n      0x00\n        /* \"contracts/HospitalTaskManager.sol\":2765:2871  Task(msg.sender, requester, patientName, roomFrom, roomTo, bedNumber, priority, false, false, false, 0, 0) */\n      iszero\n      iszero\n      dup2\n      mstore\n      0x20\n      add\n        /* \"contracts/HospitalTaskManager.sol\":2866:2867  0 */\n      0x00\n        /* \"contracts/HospitalTaskManager.sol\":2765:2871  Task(msg.sender, requester, patientName, roomFrom, roomTo, bedNumber, priority, false, false, false, 0, 0) */\n      dup2\n      mstore\n      0x20\n      add\n        /* \"contracts/HospitalTaskManager.sol\":2869:2870  0 */\n      0x00\n        /* \"contracts/HospitalTaskManager.sol\":2765:2871  Task(msg.sender, requester, patientName, roomFrom, roomTo, bedNumber, priority, false, false, false, 0, 0) */\n      dup2\n      mstore\n      pop\n        /* \"contracts/HospitalTaskManager.sol\":2746:2751  tasks */\n      0x04\n        /* \"contracts/HospitalTaskManager.sol\":2746:2762  tasks[taskCount] */\n      0x00\n        /* \"contracts/HospitalTaskManager.sol\":2752:2761  taskCount */\n      sload(0x05)\n        /* \"contracts/HospitalTaskManager.sol\":2746:2762  tasks[taskCount] */\n      dup2\n      mstore\n      0x20\n      add\n      swap1\n      dup2\n      mstore\n      0x20\n      add\n      0x00\n      keccak256\n        /* \"contracts/HospitalTaskManager.sol\":2746:2871  tasks[taskCount] = Task(msg.sender, requester, patientName, roomFrom, roomTo, bedNumber, priority, false, false, false, 0, 0) */\n      0x00\n      dup3\n      add\n      mload\n      dup2\n      0x00\n      add\n      exp(0x0100, 0x00)\n      dup2\n      sload\n      dup2\n      0xffffffffffffffffffffffffffffffffffffffff\n      mul\n      not\n      and\n      swap1\n      dup4\n      0xffffffffffffffffffffffffffffffffffffffff\n      and\n      mul\n      or\n      swap1\n      sstore\n      pop\n      0x20\n      dup3\n      add\n      mload\n      dup2\n      0x01\n      add\n      exp(0x0100, 0x00)\n      dup2\n      sload\n      dup2\n      0xffffffffffffffffffffffffffffffffffffffff\n      mul\n      not\n      and\n      swap1\n      dup4\n      0xffffffffffffffffffffffffffffffffffffffff\n      and\n      mul\n      or\n      swap1\n      sstore\n      pop\n      0x40\n      dup3\n      add\n      mload\n      dup2\n      0x02\n      add\n      sstore\n      0x60\n      dup3\n      add\n      mload\n      dup2\n      0x03\n      add\n      sstore\n      0x80\n      dup3\n      add\n      mload\n      dup2\n      0x04\n      add\n      sstore\n      0xa0\n      dup3\n      add\n      mload\n      dup2\n      0x05\n      add\n      sstore\n      0xc0\n      dup3\n      add\n      mload\n      dup2\n      0x06\n      add\n      sstore\n      0xe0\n      dup3\n      add\n      mload\n      dup2\n      0x07\n      add\n      exp(0x0100, 0x00)\n      dup2\n      sload\n      dup2\n      0xff\n      mul\n      not\n      and\n      swap1\n      dup4\n      iszero\n      iszero\n      mul\n      or\n      swap1\n      sstore\n      pop\n      0x0100\n      dup3\n      add\n      mload\n      dup2\n      0x07\n      add\n      exp(0x0100, 0x01)\n      dup2\n      sload\n      dup2\n      0xff\n      mul\n      not\n      and\n      swap1\n      dup4\n      iszero\n      iszero\n      mul\n      or\n      swap1\n      sstore\n      pop\n      0x0120\n      dup3\n      add\n      mload\n      dup2\n      0x07\n      add\n      exp(0x0100, 0x02)\n      dup2\n      sload\n      dup2\n      0xff\n      mul\n      not\n      and\n      swap1\n      dup4\n      iszero\n      iszero\n      mul\n      or\n      swap1\n      sstore\n      pop\n      0x0140\n      dup3\n      add\n      mload\n      dup2\n      0x08\n      add\n      sstore\n      0x0160\n      dup3\n      add\n      mload\n      dup2\n      0x09\n      add\n      sstore\n      swap1\n      pop\n      pop\n        /* \"contracts/HospitalTaskManager.sol\":2882:2898  taskPriorityHeap */\n      0x02\n      0x00\n      swap1\n      sload\n      swap1\n      0x0100\n      exp\n      swap1\n      div\n      0xffffffffffffffffffffffffffffffffffffffff\n      and\n        /* \"contracts/HospitalTaskManager.sol\":2882:2905  taskPriorityHeap.insert */\n      0xffffffffffffffffffffffffffffffffffffffff\n      and\n      0x1d834a1b\n        /* \"contracts/HospitalTaskManager.sol\":2906:2915  taskCount */\n      sload(0x05)\n        /* \"contracts/HospitalTaskManager.sol\":2917:2925  priority */\n      dup4\n        /* \"contracts/HospitalTaskManager.sol\":2882:2926  taskPriorityHeap.insert(taskCount, priority) */\n      mload(0x40)\n      dup4\n      0xffffffff\n      and\n      0xe0\n      shl\n      dup2\n      mstore\n      0x04\n      add\n      tag_135\n      swap3\n      swap2\n      swap1\n      tag_112\n      jump\t// in\n    tag_135:\n      0x00\n      mload(0x40)\n      dup1\n      dup4\n      sub\n      dup2\n      0x00\n      dup8\n      dup1\n      extcodesize\n      iszero\n      dup1\n      iszero\n      tag_136\n      jumpi\n      0x00\n      dup1\n      revert\n    tag_136:\n      pop\n      gas\n      call\n      iszero\n      dup1\n      iszero\n      tag_138\n      jumpi\n      returndatasize\n      0x00\n      dup1\n      returndatacopy\n      revert(0x00, returndatasize)\n    tag_138:\n      pop\n      pop\n      pop\n      pop\n        /* \"contracts/HospitalTaskManager.sol\":2943:2978  TaskAssigned(taskCount, msg.sender) */\n      0x52476d55ecef5cf13caa64038f297fe6bbf865d9584a98b8722a15a6d5db128f\n        /* \"contracts/HospitalTaskManager.sol\":2956:2965  taskCount */\n      sload(0x05)\n        /* \"contracts/HospitalTaskManager.sol\":2967:2977  msg.sender */\n      caller\n        /* \"contracts/HospitalTaskManager.sol\":2943:2978  TaskAssigned(taskCount, msg.sender) */\n      mload(0x40)\n      tag_139\n      swap3\n      swap2\n      swap1\n      tag_140\n      jump\t// in\n    tag_139:\n      mload(0x40)\n      dup1\n      swap2\n      sub\n      swap1\n      log1\n        /* \"contracts/HospitalTaskManager.sol\":2990:2999  taskCount */\n      0x05\n      0x00\n        /* \"contracts/HospitalTaskManager.sol\":2990:3001  taskCount++ */\n      dup2\n      sload\n      dup1\n      swap3\n      swap2\n      swap1\n      tag_141\n      swap1\n      tag_142\n      jump\t// in\n    tag_141:\n      swap2\n      swap1\n      pop\n      sstore\n      pop\n        /* \"contracts/HospitalTaskManager.sol\":2531:3009  function assignTask(... */\n      pop\n      pop\n      pop\n      pop\n      pop\n      pop\n      jump\t// out\n        /* \"contracts/HospitalTaskManager.sol\":891:938  mapping(address => Caretaker) public caretakers */\n    tag_71:\n      mstore(0x20, 0x03)\n      dup1\n      0x00\n      mstore\n      keccak256(0x00, 0x40)\n      0x00\n      swap2\n      pop\n      swap1\n      pop\n      dup1\n      0x00\n      add\n      0x00\n      swap1\n      sload\n      swap1\n      0x0100\n      exp\n      swap1\n      div\n      0xffffffffffffffffffffffffffffffffffffffff\n      and\n      swap1\n      dup1\n      0x01\n      add\n      dup1\n      sload\n      tag_143\n      swap1\n      tag_144\n      jump\t// in\n    tag_143:\n      dup1\n      0x1f\n      add\n      0x20\n      dup1\n      swap2\n      div\n      mul\n      0x20\n      add\n      mload(0x40)\n      swap1\n      dup2\n      add\n      0x40\n      mstore\n      dup1\n      swap3\n      swap2\n      swap1\n      dup2\n      dup2\n      mstore\n      0x20\n      add\n      dup3\n      dup1\n      sload\n      tag_145\n      swap1\n      tag_144\n      jump\t// in\n    tag_145:\n      dup1\n      iszero\n      tag_146\n      jumpi\n      dup1\n      0x1f\n      lt\n      tag_147\n      jumpi\n      0x0100\n      dup1\n      dup4\n      sload\n      div\n      mul\n      dup4\n      mstore\n      swap2\n      0x20\n      add\n      swap2\n      jump(tag_146)\n    tag_147:\n      dup3\n      add\n      swap2\n      swap1\n      0x00\n      mstore\n      keccak256(0x00, 0x20)\n      swap1\n    tag_148:\n      dup2\n      sload\n      dup2\n      mstore\n      swap1\n      0x01\n      add\n      swap1\n      0x20\n      add\n      dup1\n      dup4\n      gt\n      tag_148\n      jumpi\n      dup3\n      swap1\n      sub\n      0x1f\n      and\n      dup3\n      add\n      swap2\n    tag_146:\n      pop\n      pop\n      pop\n      pop\n      pop\n      swap1\n      dup1\n      0x02\n      add\n      0x00\n      swap1\n      sload\n      swap1\n      0x0100\n      exp\n      swap1\n      div\n      0xff\n      and\n      swap1\n      pop\n      dup4\n      jump\t// out\n        /* \"contracts/HospitalTaskManager.sol\":1934:2108  function addCaretaker(address caretakerAddress, string memory name) public onlyOwner {... */\n    tag_77:\n        /* \"contracts/HospitalTaskManager.sol\":1233:1238  owner */\n      0x00\n      dup1\n      sload\n      swap1\n      0x0100\n      exp\n      swap1\n      div\n      0xffffffffffffffffffffffffffffffffffffffff\n      and\n        /* \"contracts/HospitalTaskManager.sol\":1219:1238  msg.sender == owner */\n      0xffffffffffffffffffffffffffffffffffffffff\n      and\n        /* \"contracts/HospitalTaskManager.sol\":1219:1229  msg.sender */\n      caller\n        /* \"contracts/HospitalTaskManager.sol\":1219:1238  msg.sender == owner */\n      0xffffffffffffffffffffffffffffffffffffffff\n      and\n      eq\n        /* \"contracts/HospitalTaskManager.sol\":1211:1274  require(msg.sender == owner, \"Only the owner can execute this\") */\n      tag_150\n      jumpi\n      mload(0x40)\n      0x08c379a000000000000000000000000000000000000000000000000000000000\n      dup2\n      mstore\n      0x04\n      add\n      tag_151\n      swap1\n      tag_81\n      jump\t// in\n    tag_151:\n      mload(0x40)\n      dup1\n      swap2\n      sub\n      swap1\n      revert\n    tag_150:\n        /* \"contracts/HospitalTaskManager.sol\":2061:2100  Caretaker(caretakerAddress, name, true) */\n      mload(0x40)\n      dup1\n      0x60\n      add\n      0x40\n      mstore\n      dup1\n        /* \"contracts/HospitalTaskManager.sol\":2071:2087  caretakerAddress */\n      dup4\n        /* \"contracts/HospitalTaskManager.sol\":2061:2100  Caretaker(caretakerAddress, name, true) */\n      0xffffffffffffffffffffffffffffffffffffffff\n      and\n      dup2\n      mstore\n      0x20\n      add\n        /* \"contracts/HospitalTaskManager.sol\":2089:2093  name */\n      dup3\n        /* \"contracts/HospitalTaskManager.sol\":2061:2100  Caretaker(caretakerAddress, name, true) */\n      dup2\n      mstore\n      0x20\n      add\n        /* \"contracts/HospitalTaskManager.sol\":2095:2099  true */\n      0x01\n        /* \"contracts/HospitalTaskManager.sol\":2061:2100  Caretaker(caretakerAddress, name, true) */\n      iszero\n      iszero\n      dup2\n      mstore\n      pop\n        /* \"contracts/HospitalTaskManager.sol\":2030:2040  caretakers */\n      0x03\n        /* \"contracts/HospitalTaskManager.sol\":2030:2058  caretakers[caretakerAddress] */\n      0x00\n        /* \"contracts/HospitalTaskManager.sol\":2041:2057  caretakerAddress */\n      dup5\n        /* \"contracts/HospitalTaskManager.sol\":2030:2058  caretakers[caretakerAddress] */\n      0xffffffffffffffffffffffffffffffffffffffff\n      and\n      0xffffffffffffffffffffffffffffffffffffffff\n      and\n      dup2\n      mstore\n      0x20\n      add\n      swap1\n      dup2\n      mstore\n      0x20\n      add\n      0x00\n      keccak256\n        /* \"contracts/HospitalTaskManager.sol\":2030:2100  caretakers[caretakerAddress] = Caretaker(caretakerAddress, name, true) */\n      0x00\n      dup3\n      add\n      mload\n      dup2\n      0x00\n      add\n      exp(0x0100, 0x00)\n      dup2\n      sload\n      dup2\n      0xffffffffffffffffffffffffffffffffffffffff\n      mul\n      not\n      and\n      swap1\n      dup4\n      0xffffffffffffffffffffffffffffffffffffffff\n      and\n      mul\n      or\n      swap1\n      sstore\n      pop\n      0x20\n      dup3\n      add\n      mload\n      dup2\n      0x01\n      add\n      swap1\n      dup2\n      tag_153\n      swap2\n      swap1\n      tag_154\n      jump\t// in\n    tag_153:\n      pop\n      0x40\n      dup3\n      add\n      mload\n      dup2\n      0x02\n      add\n      exp(0x0100, 0x00)\n      dup2\n      sload\n      dup2\n      0xff\n      mul\n      not\n      and\n      swap1\n      dup4\n      iszero\n      iszero\n      mul\n      or\n      swap1\n      sstore\n      pop\n      swap1\n      pop\n      pop\n        /* \"contracts/HospitalTaskManager.sol\":1934:2108  function addCaretaker(address caretakerAddress, string memory name) public onlyOwner {... */\n      pop\n      pop\n      jump\t// out\n    tag_84:\n      pop\n      dup1\n      sload\n      tag_155\n      swap1\n      tag_144\n      jump\t// in\n    tag_155:\n      0x00\n      dup3\n      sstore\n      dup1\n      0x1f\n      lt\n      tag_157\n      jumpi\n      pop\n      jump(tag_156)\n    tag_157:\n      0x1f\n      add\n      0x20\n      swap1\n      div\n      swap1\n      0x00\n      mstore\n      keccak256(0x00, 0x20)\n      swap1\n      dup2\n      add\n      swap1\n      tag_158\n      swap2\n      swap1\n      tag_159\n      jump\t// in\n    tag_158:\n    tag_156:\n      pop\n      jump\t// out\n    tag_159:\n    tag_160:\n      dup1\n      dup3\n      gt\n      iszero\n      tag_161\n      jumpi\n      0x00\n      dup2\n      0x00\n      swap1\n      sstore\n      pop\n      0x01\n      add\n      jump(tag_160)\n    tag_161:\n      pop\n      swap1\n      jump\t// out\n        /* \"#utility.yul\":7:82   */\n    tag_162:\n        /* \"#utility.yul\":40:46   */\n      0x00\n        /* \"#utility.yul\":73:75   */\n      0x40\n        /* \"#utility.yul\":67:76   */\n      mload\n        /* \"#utility.yul\":57:76   */\n      swap1\n      pop\n        /* \"#utility.yul\":7:82   */\n      swap1\n      jump\t// out\n        /* \"#utility.yul\":88:205   */\n    tag_163:\n        /* \"#utility.yul\":197:198   */\n      0x00\n        /* \"#utility.yul\":194:195   */\n      dup1\n        /* \"#utility.yul\":187:199   */\n      revert\n        /* \"#utility.yul\":211:328   */\n    tag_164:\n        /* \"#utility.yul\":320:321   */\n      0x00\n        /* \"#utility.yul\":317:318   */\n      dup1\n        /* \"#utility.yul\":310:322   */\n      revert\n        /* \"#utility.yul\":334:460   */\n    tag_165:\n        /* \"#utility.yul\":371:378   */\n      0x00\n        /* \"#utility.yul\":411:453   */\n      0xffffffffffffffffffffffffffffffffffffffff\n        /* \"#utility.yul\":404:409   */\n      dup3\n        /* \"#utility.yul\":400:454   */\n      and\n        /* \"#utility.yul\":389:454   */\n      swap1\n      pop\n        /* \"#utility.yul\":334:460   */\n      swap2\n      swap1\n      pop\n      jump\t// out\n        /* \"#utility.yul\":466:562   */\n    tag_166:\n        /* \"#utility.yul\":503:510   */\n      0x00\n        /* \"#utility.yul\":532:556   */\n      tag_235\n        /* \"#utility.yul\":550:555   */\n      dup3\n        /* \"#utility.yul\":532:556   */\n      tag_165\n      jump\t// in\n    tag_235:\n        /* \"#utility.yul\":521:556   */\n      swap1\n      pop\n        /* \"#utility.yul\":466:562   */\n      swap2\n      swap1\n      pop\n      jump\t// out\n        /* \"#utility.yul\":568:690   */\n    tag_167:\n        /* \"#utility.yul\":641:665   */\n      tag_237\n        /* \"#utility.yul\":659:664   */\n      dup2\n        /* \"#utility.yul\":641:665   */\n      tag_166\n      jump\t// in\n    tag_237:\n        /* \"#utility.yul\":634:639   */\n      dup2\n        /* \"#utility.yul\":631:666   */\n      eq\n        /* \"#utility.yul\":621:684   */\n      tag_238\n      jumpi\n        /* \"#utility.yul\":680:681   */\n      0x00\n        /* \"#utility.yul\":677:678   */\n      dup1\n        /* \"#utility.yul\":670:682   */\n      revert\n        /* \"#utility.yul\":621:684   */\n    tag_238:\n        /* \"#utility.yul\":568:690   */\n      pop\n      jump\t// out\n        /* \"#utility.yul\":696:835   */\n    tag_168:\n        /* \"#utility.yul\":742:747   */\n      0x00\n        /* \"#utility.yul\":780:786   */\n      dup2\n        /* \"#utility.yul\":767:787   */\n      calldataload\n        /* \"#utility.yul\":758:787   */\n      swap1\n      pop\n        /* \"#utility.yul\":796:829   */\n      tag_240\n        /* \"#utility.yul\":823:828   */\n      dup2\n        /* \"#utility.yul\":796:829   */\n      tag_167\n      jump\t// in\n    tag_240:\n        /* \"#utility.yul\":696:835   */\n      swap3\n      swap2\n      pop\n      pop\n      jump\t// out\n        /* \"#utility.yul\":841:1170   */\n    tag_23:\n        /* \"#utility.yul\":900:906   */\n      0x00\n        /* \"#utility.yul\":949:951   */\n      0x20\n        /* \"#utility.yul\":937:946   */\n      dup3\n        /* \"#utility.yul\":928:935   */\n      dup5\n        /* \"#utility.yul\":924:947   */\n      sub\n        /* \"#utility.yul\":920:952   */\n      slt\n        /* \"#utility.yul\":917:1036   */\n      iszero\n      tag_242\n      jumpi\n        /* \"#utility.yul\":955:1034   */\n      tag_243\n      tag_163\n      jump\t// in\n    tag_243:\n        /* \"#utility.yul\":917:1036   */\n    tag_242:\n        /* \"#utility.yul\":1075:1076   */\n      0x00\n        /* \"#utility.yul\":1100:1153   */\n      tag_244\n        /* \"#utility.yul\":1145:1152   */\n      dup5\n        /* \"#utility.yul\":1136:1142   */\n      dup3\n        /* \"#utility.yul\":1125:1134   */\n      dup6\n        /* \"#utility.yul\":1121:1143   */\n      add\n        /* \"#utility.yul\":1100:1153   */\n      tag_168\n      jump\t// in\n    tag_244:\n        /* \"#utility.yul\":1090:1153   */\n      swap2\n      pop\n        /* \"#utility.yul\":1046:1163   */\n      pop\n        /* \"#utility.yul\":841:1170   */\n      swap3\n      swap2\n      pop\n      pop\n      jump\t// out\n        /* \"#utility.yul\":1176:1294   */\n    tag_169:\n        /* \"#utility.yul\":1263:1287   */\n      tag_246\n        /* \"#utility.yul\":1281:1286   */\n      dup2\n        /* \"#utility.yul\":1263:1287   */\n      tag_166\n      jump\t// in\n    tag_246:\n        /* \"#utility.yul\":1258:1261   */\n      dup3\n        /* \"#utility.yul\":1251:1288   */\n      mstore\n        /* \"#utility.yul\":1176:1294   */\n      pop\n      pop\n      jump\t// out\n        /* \"#utility.yul\":1300:1522   */\n    tag_28:\n        /* \"#utility.yul\":1393:1397   */\n      0x00\n        /* \"#utility.yul\":1431:1433   */\n      0x20\n        /* \"#utility.yul\":1420:1429   */\n      dup3\n        /* \"#utility.yul\":1416:1434   */\n      add\n        /* \"#utility.yul\":1408:1434   */\n      swap1\n      pop\n        /* \"#utility.yul\":1444:1515   */\n      tag_248\n        /* \"#utility.yul\":1512:1513   */\n      0x00\n        /* \"#utility.yul\":1501:1510   */\n      dup4\n        /* \"#utility.yul\":1497:1514   */\n      add\n        /* \"#utility.yul\":1488:1494   */\n      dup5\n        /* \"#utility.yul\":1444:1515   */\n      tag_169\n      jump\t// in\n    tag_248:\n        /* \"#utility.yul\":1300:1522   */\n      swap3\n      swap2\n      pop\n      pop\n      jump\t// out\n        /* \"#utility.yul\":1528:1605   */\n    tag_170:\n        /* \"#utility.yul\":1565:1572   */\n      0x00\n        /* \"#utility.yul\":1594:1599   */\n      dup2\n        /* \"#utility.yul\":1583:1599   */\n      swap1\n      pop\n        /* \"#utility.yul\":1528:1605   */\n      swap2\n      swap1\n      pop\n      jump\t// out\n        /* \"#utility.yul\":1611:1733   */\n    tag_171:\n        /* \"#utility.yul\":1684:1708   */\n      tag_251\n        /* \"#utility.yul\":1702:1707   */\n      dup2\n        /* \"#utility.yul\":1684:1708   */\n      tag_170\n      jump\t// in\n    tag_251:\n        /* \"#utility.yul\":1677:1682   */\n      dup2\n        /* \"#utility.yul\":1674:1709   */\n      eq\n        /* \"#utility.yul\":1664:1727   */\n      tag_252\n      jumpi\n        /* \"#utility.yul\":1723:1724   */\n      0x00\n        /* \"#utility.yul\":1720:1721   */\n      dup1\n        /* \"#utility.yul\":1713:1725   */\n      revert\n        /* \"#utility.yul\":1664:1727   */\n    tag_252:\n        /* \"#utility.yul\":1611:1733   */\n      pop\n      jump\t// out\n        /* \"#utility.yul\":1739:1878   */\n    tag_172:\n        /* \"#utility.yul\":1785:1790   */\n      0x00\n        /* \"#utility.yul\":1823:1829   */\n      dup2\n        /* \"#utility.yul\":1810:1830   */\n      calldataload\n        /* \"#utility.yul\":1801:1830   */\n      swap1\n      pop\n        /* \"#utility.yul\":1839:1872   */\n      tag_254\n        /* \"#utility.yul\":1866:1871   */\n      dup2\n        /* \"#utility.yul\":1839:1872   */\n      tag_171\n      jump\t// in\n    tag_254:\n        /* \"#utility.yul\":1739:1878   */\n      swap3\n      swap2\n      pop\n      pop\n      jump\t// out\n        /* \"#utility.yul\":1884:2213   */\n    tag_31:\n        /* \"#utility.yul\":1943:1949   */\n      0x00\n        /* \"#utility.yul\":1992:1994   */\n      0x20\n        /* \"#utility.yul\":1980:1989   */\n      dup3\n        /* \"#utility.yul\":1971:1978   */\n      dup5\n        /* \"#utility.yul\":1967:1990   */\n      sub\n        /* \"#utility.yul\":1963:1995   */\n      slt\n        /* \"#utility.yul\":1960:2079   */\n      iszero\n      tag_256\n      jumpi\n        /* \"#utility.yul\":1998:2077   */\n      tag_257\n      tag_163\n      jump\t// in\n    tag_257:\n        /* \"#utility.yul\":1960:2079   */\n    tag_256:\n        /* \"#utility.yul\":2118:2119   */\n      0x00\n        /* \"#utility.yul\":2143:2196   */\n      tag_258\n        /* \"#utility.yul\":2188:2195   */\n      dup5\n        /* \"#utility.yul\":2179:2185   */\n      dup3\n        /* \"#utility.yul\":2168:2177   */\n      dup6\n        /* \"#utility.yul\":2164:2186   */\n      add\n        /* \"#utility.yul\":2143:2196   */\n      tag_172\n      jump\t// in\n    tag_258:\n        /* \"#utility.yul\":2133:2196   */\n      swap2\n      pop\n        /* \"#utility.yul\":2089:2206   */\n      pop\n        /* \"#utility.yul\":1884:2213   */\n      swap3\n      swap2\n      pop\n      pop\n      jump\t// out\n        /* \"#utility.yul\":2219:2279   */\n    tag_173:\n        /* \"#utility.yul\":2247:2250   */\n      0x00\n        /* \"#utility.yul\":2268:2273   */\n      dup2\n        /* \"#utility.yul\":2261:2273   */\n      swap1\n      pop\n        /* \"#utility.yul\":2219:2279   */\n      swap2\n      swap1\n      pop\n      jump\t// out\n        /* \"#utility.yul\":2285:2427   */\n    tag_174:\n        /* \"#utility.yul\":2335:2344   */\n      0x00\n        /* \"#utility.yul\":2368:2421   */\n      tag_261\n        /* \"#utility.yul\":2386:2420   */\n      tag_262\n        /* \"#utility.yul\":2395:2419   */\n      tag_263\n        /* \"#utility.yul\":2413:2418   */\n      dup5\n        /* \"#utility.yul\":2395:2419   */\n      tag_165\n      jump\t// in\n    tag_263:\n        /* \"#utility.yul\":2386:2420   */\n      tag_173\n      jump\t// in\n    tag_262:\n        /* \"#utility.yul\":2368:2421   */\n      tag_165\n      jump\t// in\n    tag_261:\n        /* \"#utility.yul\":2355:2421   */\n      swap1\n      pop\n        /* \"#utility.yul\":2285:2427   */\n      swap2\n      swap1\n      pop\n      jump\t// out\n        /* \"#utility.yul\":2433:2559   */\n    tag_175:\n        /* \"#utility.yul\":2483:2492   */\n      0x00\n        /* \"#utility.yul\":2516:2553   */\n      tag_265\n        /* \"#utility.yul\":2547:2552   */\n      dup3\n        /* \"#utility.yul\":2516:2553   */\n      tag_174\n      jump\t// in\n    tag_265:\n        /* \"#utility.yul\":2503:2553   */\n      swap1\n      pop\n        /* \"#utility.yul\":2433:2559   */\n      swap2\n      swap1\n      pop\n      jump\t// out\n        /* \"#utility.yul\":2565:2711   */\n    tag_176:\n        /* \"#utility.yul\":2635:2644   */\n      0x00\n        /* \"#utility.yul\":2668:2705   */\n      tag_267\n        /* \"#utility.yul\":2699:2704   */\n      dup3\n        /* \"#utility.yul\":2668:2705   */\n      tag_175\n      jump\t// in\n    tag_267:\n        /* \"#utility.yul\":2655:2705   */\n      swap1\n      pop\n        /* \"#utility.yul\":2565:2711   */\n      swap2\n      swap1\n      pop\n      jump\t// out\n        /* \"#utility.yul\":2717:2888   */\n    tag_177:\n        /* \"#utility.yul\":2824:2881   */\n      tag_269\n        /* \"#utility.yul\":2875:2880   */\n      dup2\n        /* \"#utility.yul\":2824:2881   */\n      tag_176\n      jump\t// in\n    tag_269:\n        /* \"#utility.yul\":2819:2822   */\n      dup3\n        /* \"#utility.yul\":2812:2882   */\n      mstore\n        /* \"#utility.yul\":2717:2888   */\n      pop\n      pop\n      jump\t// out\n        /* \"#utility.yul\":2894:3156   */\n    tag_39:\n        /* \"#utility.yul\":3007:3011   */\n      0x00\n        /* \"#utility.yul\":3045:3047   */\n      0x20\n        /* \"#utility.yul\":3034:3043   */\n      dup3\n        /* \"#utility.yul\":3030:3048   */\n      add\n        /* \"#utility.yul\":3022:3048   */\n      swap1\n      pop\n        /* \"#utility.yul\":3058:3149   */\n      tag_271\n        /* \"#utility.yul\":3146:3147   */\n      0x00\n        /* \"#utility.yul\":3135:3144   */\n      dup4\n        /* \"#utility.yul\":3131:3148   */\n      add\n        /* \"#utility.yul\":3122:3128   */\n      dup5\n        /* \"#utility.yul\":3058:3149   */\n      tag_177\n      jump\t// in\n    tag_271:\n        /* \"#utility.yul\":2894:3156   */\n      swap3\n      swap2\n      pop\n      pop\n      jump\t// out\n        /* \"#utility.yul\":3162:3239   */\n    tag_178:\n        /* \"#utility.yul\":3199:3206   */\n      0x00\n        /* \"#utility.yul\":3228:3233   */\n      dup2\n        /* \"#utility.yul\":3217:3233   */\n      swap1\n      pop\n        /* \"#utility.yul\":3162:3239   */\n      swap2\n      swap1\n      pop\n      jump\t// out\n        /* \"#utility.yul\":3245:3363   */\n    tag_179:\n        /* \"#utility.yul\":3332:3356   */\n      tag_274\n        /* \"#utility.yul\":3350:3355   */\n      dup2\n        /* \"#utility.yul\":3332:3356   */\n      tag_178\n      jump\t// in\n    tag_274:\n        /* \"#utility.yul\":3327:3330   */\n      dup3\n        /* \"#utility.yul\":3320:3357   */\n      mstore\n        /* \"#utility.yul\":3245:3363   */\n      pop\n      pop\n      jump\t// out\n        /* \"#utility.yul\":3369:3487   */\n    tag_180:\n        /* \"#utility.yul\":3456:3480   */\n      tag_276\n        /* \"#utility.yul\":3474:3479   */\n      dup2\n        /* \"#utility.yul\":3456:3480   */\n      tag_170\n      jump\t// in\n    tag_276:\n        /* \"#utility.yul\":3451:3454   */\n      dup3\n        /* \"#utility.yul\":3444:3481   */\n      mstore\n        /* \"#utility.yul\":3369:3487   */\n      pop\n      pop\n      jump\t// out\n        /* \"#utility.yul\":3493:3583   */\n    tag_181:\n        /* \"#utility.yul\":3527:3534   */\n      0x00\n        /* \"#utility.yul\":3570:3575   */\n      dup2\n        /* \"#utility.yul\":3563:3576   */\n      iszero\n        /* \"#utility.yul\":3556:3577   */\n      iszero\n        /* \"#utility.yul\":3545:3577   */\n      swap1\n      pop\n        /* \"#utility.yul\":3493:3583   */\n      swap2\n      swap1\n      pop\n      jump\t// out\n        /* \"#utility.yul\":3589:3698   */\n    tag_182:\n        /* \"#utility.yul\":3670:3691   */\n      tag_279\n        /* \"#utility.yul\":3685:3690   */\n      dup2\n        /* \"#utility.yul\":3670:3691   */\n      tag_181\n      jump\t// in\n    tag_279:\n        /* \"#utility.yul\":3665:3668   */\n      dup3\n        /* \"#utility.yul\":3658:3692   */\n      mstore\n        /* \"#utility.yul\":3589:3698   */\n      pop\n      pop\n      jump\t// out\n        /* \"#utility.yul\":3704:5113   */\n    tag_44:\n        /* \"#utility.yul\":4089:4093   */\n      0x00\n        /* \"#utility.yul\":4127:4130   */\n      0x0180\n        /* \"#utility.yul\":4116:4125   */\n      dup3\n        /* \"#utility.yul\":4112:4131   */\n      add\n        /* \"#utility.yul\":4104:4131   */\n      swap1\n      pop\n        /* \"#utility.yul\":4141:4212   */\n      tag_281\n        /* \"#utility.yul\":4209:4210   */\n      0x00\n        /* \"#utility.yul\":4198:4207   */\n      dup4\n        /* \"#utility.yul\":4194:4211   */\n      add\n        /* \"#utility.yul\":4185:4191   */\n      dup16\n        /* \"#utility.yul\":4141:4212   */\n      tag_169\n      jump\t// in\n    tag_281:\n        /* \"#utility.yul\":4222:4294   */\n      tag_282\n        /* \"#utility.yul\":4290:4292   */\n      0x20\n        /* \"#utility.yul\":4279:4288   */\n      dup4\n        /* \"#utility.yul\":4275:4293   */\n      add\n        /* \"#utility.yul\":4266:4272   */\n      dup15\n        /* \"#utility.yul\":4222:4294   */\n      tag_169\n      jump\t// in\n    tag_282:\n        /* \"#utility.yul\":4304:4376   */\n      tag_283\n        /* \"#utility.yul\":4372:4374   */\n      0x40\n        /* \"#utility.yul\":4361:4370   */\n      dup4\n        /* \"#utility.yul\":4357:4375   */\n      add\n        /* \"#utility.yul\":4348:4354   */\n      dup14\n        /* \"#utility.yul\":4304:4376   */\n      tag_179\n      jump\t// in\n    tag_283:\n        /* \"#utility.yul\":4386:4458   */\n      tag_284\n        /* \"#utility.yul\":4454:4456   */\n      0x60\n        /* \"#utility.yul\":4443:4452   */\n      dup4\n        /* \"#utility.yul\":4439:4457   */\n      add\n        /* \"#utility.yul\":4430:4436   */\n      dup13\n        /* \"#utility.yul\":4386:4458   */\n      tag_180\n      jump\t// in\n    tag_284:\n        /* \"#utility.yul\":4468:4541   */\n      tag_285\n        /* \"#utility.yul\":4536:4539   */\n      0x80\n        /* \"#utility.yul\":4525:4534   */\n      dup4\n        /* \"#utility.yul\":4521:4540   */\n      add\n        /* \"#utility.yul\":4512:4518   */\n      dup12\n        /* \"#utility.yul\":4468:4541   */\n      tag_180\n      jump\t// in\n    tag_285:\n        /* \"#utility.yul\":4551:4624   */\n      tag_286\n        /* \"#utility.yul\":4619:4622   */\n      0xa0\n        /* \"#utility.yul\":4608:4617   */\n      dup4\n        /* \"#utility.yul\":4604:4623   */\n      add\n        /* \"#utility.yul\":4595:4601   */\n      dup11\n        /* \"#utility.yul\":4551:4624   */\n      tag_180\n      jump\t// in\n    tag_286:\n        /* \"#utility.yul\":4634:4707   */\n      tag_287\n        /* \"#utility.yul\":4702:4705   */\n      0xc0\n        /* \"#utility.yul\":4691:4700   */\n      dup4\n        /* \"#utility.yul\":4687:4706   */\n      add\n        /* \"#utility.yul\":4678:4684   */\n      dup10\n        /* \"#utility.yul\":4634:4707   */\n      tag_180\n      jump\t// in\n    tag_287:\n        /* \"#utility.yul\":4717:4784   */\n      tag_288\n        /* \"#utility.yul\":4779:4782   */\n      0xe0\n        /* \"#utility.yul\":4768:4777   */\n      dup4\n        /* \"#utility.yul\":4764:4783   */\n      add\n        /* \"#utility.yul\":4755:4761   */\n      dup9\n        /* \"#utility.yul\":4717:4784   */\n      tag_182\n      jump\t// in\n    tag_288:\n        /* \"#utility.yul\":4794:4861   */\n      tag_289\n        /* \"#utility.yul\":4856:4859   */\n      0x0100\n        /* \"#utility.yul\":4845:4854   */\n      dup4\n        /* \"#utility.yul\":4841:4860   */\n      add\n        /* \"#utility.yul\":4832:4838   */\n      dup8\n        /* \"#utility.yul\":4794:4861   */\n      tag_182\n      jump\t// in\n    tag_289:\n        /* \"#utility.yul\":4871:4938   */\n      tag_290\n        /* \"#utility.yul\":4933:4936   */\n      0x0120\n        /* \"#utility.yul\":4922:4931   */\n      dup4\n        /* \"#utility.yul\":4918:4937   */\n      add\n        /* \"#utility.yul\":4909:4915   */\n      dup7\n        /* \"#utility.yul\":4871:4938   */\n      tag_182\n      jump\t// in\n    tag_290:\n        /* \"#utility.yul\":4948:5022   */\n      tag_291\n        /* \"#utility.yul\":5017:5020   */\n      0x0140\n        /* \"#utility.yul\":5006:5015   */\n      dup4\n        /* \"#utility.yul\":5002:5021   */\n      add\n        /* \"#utility.yul\":4992:4999   */\n      dup6\n        /* \"#utility.yul\":4948:5022   */\n      tag_180\n      jump\t// in\n    tag_291:\n        /* \"#utility.yul\":5032:5106   */\n      tag_292\n        /* \"#utility.yul\":5101:5104   */\n      0x0160\n        /* \"#utility.yul\":5090:5099   */\n      dup4\n        /* \"#utility.yul\":5086:5105   */\n      add\n        /* \"#utility.yul\":5076:5083   */\n      dup5\n        /* \"#utility.yul\":5032:5106   */\n      tag_180\n      jump\t// in\n    tag_292:\n        /* \"#utility.yul\":3704:5113   */\n      swap14\n      swap13\n      pop\n      pop\n      pop\n      pop\n      pop\n      pop\n      pop\n      pop\n      pop\n      pop\n      pop\n      pop\n      pop\n      jump\t// out\n        /* \"#utility.yul\":5119:5341   */\n    tag_58:\n        /* \"#utility.yul\":5212:5216   */\n      0x00\n        /* \"#utility.yul\":5250:5252   */\n      0x20\n        /* \"#utility.yul\":5239:5248   */\n      dup3\n        /* \"#utility.yul\":5235:5253   */\n      add\n        /* \"#utility.yul\":5227:5253   */\n      swap1\n      pop\n        /* \"#utility.yul\":5263:5334   */\n      tag_294\n        /* \"#utility.yul\":5331:5332   */\n      0x00\n        /* \"#utility.yul\":5320:5329   */\n      dup4\n        /* \"#utility.yul\":5316:5333   */\n      add\n        /* \"#utility.yul\":5307:5313   */\n      dup5\n        /* \"#utility.yul\":5263:5334   */\n      tag_180\n      jump\t// in\n    tag_294:\n        /* \"#utility.yul\":5119:5341   */\n      swap3\n      swap2\n      pop\n      pop\n      jump\t// out\n        /* \"#utility.yul\":5347:5469   */\n    tag_183:\n        /* \"#utility.yul\":5420:5444   */\n      tag_296\n        /* \"#utility.yul\":5438:5443   */\n      dup2\n        /* \"#utility.yul\":5420:5444   */\n      tag_178\n      jump\t// in\n    tag_296:\n        /* \"#utility.yul\":5413:5418   */\n      dup2\n        /* \"#utility.yul\":5410:5445   */\n      eq\n        /* \"#utility.yul\":5400:5463   */\n      tag_297\n      jumpi\n        /* \"#utility.yul\":5459:5460   */\n      0x00\n        /* \"#utility.yul\":5456:5457   */\n      dup1\n        /* \"#utility.yul\":5449:5461   */\n      revert\n        /* \"#utility.yul\":5400:5463   */\n    tag_297:\n        /* \"#utility.yul\":5347:5469   */\n      pop\n      jump\t// out\n        /* \"#utility.yul\":5475:5614   */\n    tag_184:\n        /* \"#utility.yul\":5521:5526   */\n      0x00\n        /* \"#utility.yul\":5559:5565   */\n      dup2\n        /* \"#utility.yul\":5546:5566   */\n      calldataload\n        /* \"#utility.yul\":5537:5566   */\n      swap1\n      pop\n        /* \"#utility.yul\":5575:5608   */\n      tag_299\n        /* \"#utility.yul\":5602:5607   */\n      dup2\n        /* \"#utility.yul\":5575:5608   */\n      tag_183\n      jump\t// in\n    tag_299:\n        /* \"#utility.yul\":5475:5614   */\n      swap3\n      swap2\n      pop\n      pop\n      jump\t// out\n        /* \"#utility.yul\":5620:6677   */\n    tag_67:\n        /* \"#utility.yul\":5724:5730   */\n      0x00\n        /* \"#utility.yul\":5732:5738   */\n      dup1\n        /* \"#utility.yul\":5740:5746   */\n      0x00\n        /* \"#utility.yul\":5748:5754   */\n      dup1\n        /* \"#utility.yul\":5756:5762   */\n      0x00\n        /* \"#utility.yul\":5764:5770   */\n      dup1\n        /* \"#utility.yul\":5813:5816   */\n      0xc0\n        /* \"#utility.yul\":5801:5810   */\n      dup8\n        /* \"#utility.yul\":5792:5799   */\n      dup10\n        /* \"#utility.yul\":5788:5811   */\n      sub\n        /* \"#utility.yul\":5784:5817   */\n      slt\n        /* \"#utility.yul\":5781:5901   */\n      iszero\n      tag_301\n      jumpi\n        /* \"#utility.yul\":5820:5899   */\n      tag_302\n      tag_163\n      jump\t// in\n    tag_302:\n        /* \"#utility.yul\":5781:5901   */\n    tag_301:\n        /* \"#utility.yul\":5940:5941   */\n      0x00\n        /* \"#utility.yul\":5965:6018   */\n      tag_303\n        /* \"#utility.yul\":6010:6017   */\n      dup10\n        /* \"#utility.yul\":6001:6007   */\n      dup3\n        /* \"#utility.yul\":5990:5999   */\n      dup11\n        /* \"#utility.yul\":5986:6008   */\n      add\n        /* \"#utility.yul\":5965:6018   */\n      tag_168\n      jump\t// in\n    tag_303:\n        /* \"#utility.yul\":5955:6018   */\n      swap7\n      pop\n        /* \"#utility.yul\":5911:6028   */\n      pop\n        /* \"#utility.yul\":6067:6069   */\n      0x20\n        /* \"#utility.yul\":6093:6146   */\n      tag_304\n        /* \"#utility.yul\":6138:6145   */\n      dup10\n        /* \"#utility.yul\":6129:6135   */\n      dup3\n        /* \"#utility.yul\":6118:6127   */\n      dup11\n        /* \"#utility.yul\":6114:6136   */\n      add\n        /* \"#utility.yul\":6093:6146   */\n      tag_184\n      jump\t// in\n    tag_304:\n        /* \"#utility.yul\":6083:6146   */\n      swap6\n      pop\n        /* \"#utility.yul\":6038:6156   */\n      pop\n        /* \"#utility.yul\":6195:6197   */\n      0x40\n        /* \"#utility.yul\":6221:6274   */\n      tag_305\n        /* \"#utility.yul\":6266:6273   */\n      dup10\n        /* \"#utility.yul\":6257:6263   */\n      dup3\n        /* \"#utility.yul\":6246:6255   */\n      dup11\n        /* \"#utility.yul\":6242:6264   */\n      add\n        /* \"#utility.yul\":6221:6274   */\n      tag_172\n      jump\t// in\n    tag_305:\n        /* \"#utility.yul\":6211:6274   */\n      swap5\n      pop\n        /* \"#utility.yul\":6166:6284   */\n      pop\n        /* \"#utility.yul\":6323:6325   */\n      0x60\n        /* \"#utility.yul\":6349:6402   */\n      tag_306\n        /* \"#utility.yul\":6394:6401   */\n      dup10\n        /* \"#utility.yul\":6385:6391   */\n      dup3\n        /* \"#utility.yul\":6374:6383   */\n      dup11\n        /* \"#utility.yul\":6370:6392   */\n      add\n        /* \"#utility.yul\":6349:6402   */\n      tag_172\n      jump\t// in\n    tag_306:\n        /* \"#utility.yul\":6339:6402   */\n      swap4\n      pop\n        /* \"#utility.yul\":6294:6412   */\n      pop\n        /* \"#utility.yul\":6451:6454   */\n      0x80\n        /* \"#utility.yul\":6478:6531   */\n      tag_307\n        /* \"#utility.yul\":6523:6530   */\n      dup10\n        /* \"#utility.yul\":6514:6520   */\n      dup3\n        /* \"#utility.yul\":6503:6512   */\n      dup11\n        /* \"#utility.yul\":6499:6521   */\n      add\n        /* \"#utility.yul\":6478:6531   */\n      tag_172\n      jump\t// in\n    tag_307:\n        /* \"#utility.yul\":6468:6531   */\n      swap3\n      pop\n        /* \"#utility.yul\":6422:6541   */\n      pop\n        /* \"#utility.yul\":6580:6583   */\n      0xa0\n        /* \"#utility.yul\":6607:6660   */\n      tag_308\n        /* \"#utility.yul\":6652:6659   */\n      dup10\n        /* \"#utility.yul\":6643:6649   */\n      dup3\n        /* \"#utility.yul\":6632:6641   */\n      dup11\n        /* \"#utility.yul\":6628:6650   */\n      add\n        /* \"#utility.yul\":6607:6660   */\n      tag_172\n      jump\t// in\n    tag_308:\n        /* \"#utility.yul\":6597:6660   */\n      swap2\n      pop\n        /* \"#utility.yul\":6551:6670   */\n      pop\n        /* \"#utility.yul\":5620:6677   */\n      swap3\n      swap6\n      pop\n      swap3\n      swap6\n      pop\n      swap3\n      swap6\n      jump\t// out\n        /* \"#utility.yul\":6683:6782   */\n    tag_185:\n        /* \"#utility.yul\":6735:6741   */\n      0x00\n        /* \"#utility.yul\":6769:6774   */\n      dup2\n        /* \"#utility.yul\":6763:6775   */\n      mload\n        /* \"#utility.yul\":6753:6775   */\n      swap1\n      pop\n        /* \"#utility.yul\":6683:6782   */\n      swap2\n      swap1\n      pop\n      jump\t// out\n        /* \"#utility.yul\":6788:6957   */\n    tag_186:\n        /* \"#utility.yul\":6872:6883   */\n      0x00\n        /* \"#utility.yul\":6906:6912   */\n      dup3\n        /* \"#utility.yul\":6901:6904   */\n      dup3\n        /* \"#utility.yul\":6894:6913   */\n      mstore\n        /* \"#utility.yul\":6946:6950   */\n      0x20\n        /* \"#utility.yul\":6941:6944   */\n      dup3\n        /* \"#utility.yul\":6937:6951   */\n      add\n        /* \"#utility.yul\":6922:6951   */\n      swap1\n      pop\n        /* \"#utility.yul\":6788:6957   */\n      swap3\n      swap2\n      pop\n      pop\n      jump\t// out\n        /* \"#utility.yul\":6963:7209   */\n    tag_187:\n        /* \"#utility.yul\":7044:7045   */\n      0x00\n        /* \"#utility.yul\":7054:7167   */\n    tag_312:\n        /* \"#utility.yul\":7068:7074   */\n      dup4\n        /* \"#utility.yul\":7065:7066   */\n      dup2\n        /* \"#utility.yul\":7062:7075   */\n      lt\n        /* \"#utility.yul\":7054:7167   */\n      iszero\n      tag_314\n      jumpi\n        /* \"#utility.yul\":7153:7154   */\n      dup1\n        /* \"#utility.yul\":7148:7151   */\n      dup3\n        /* \"#utility.yul\":7144:7155   */\n      add\n        /* \"#utility.yul\":7138:7156   */\n      mload\n        /* \"#utility.yul\":7134:7135   */\n      dup2\n        /* \"#utility.yul\":7129:7132   */\n      dup5\n        /* \"#utility.yul\":7125:7136   */\n      add\n        /* \"#utility.yul\":7118:7157   */\n      mstore\n        /* \"#utility.yul\":7090:7092   */\n      0x20\n        /* \"#utility.yul\":7087:7088   */\n      dup2\n        /* \"#utility.yul\":7083:7093   */\n      add\n        /* \"#utility.yul\":7078:7093   */\n      swap1\n      pop\n        /* \"#utility.yul\":7054:7167   */\n      jump(tag_312)\n    tag_314:\n        /* \"#utility.yul\":7201:7202   */\n      0x00\n        /* \"#utility.yul\":7192:7198   */\n      dup5\n        /* \"#utility.yul\":7187:7190   */\n      dup5\n        /* \"#utility.yul\":7183:7199   */\n      add\n        /* \"#utility.yul\":7176:7203   */\n      mstore\n        /* \"#utility.yul\":7025:7209   */\n      pop\n        /* \"#utility.yul\":6963:7209   */\n      pop\n      pop\n      pop\n      jump\t// out\n        /* \"#utility.yul\":7215:7317   */\n    tag_188:\n        /* \"#utility.yul\":7256:7262   */\n      0x00\n        /* \"#utility.yul\":7307:7309   */\n      0x1f\n        /* \"#utility.yul\":7303:7310   */\n      not\n        /* \"#utility.yul\":7298:7300   */\n      0x1f\n        /* \"#utility.yul\":7291:7296   */\n      dup4\n        /* \"#utility.yul\":7287:7301   */\n      add\n        /* \"#utility.yul\":7283:7311   */\n      and\n        /* \"#utility.yul\":7273:7311   */\n      swap1\n      pop\n        /* \"#utility.yul\":7215:7317   */\n      swap2\n      swap1\n      pop\n      jump\t// out\n        /* \"#utility.yul\":7323:7700   */\n    tag_189:\n        /* \"#utility.yul\":7411:7414   */\n      0x00\n        /* \"#utility.yul\":7439:7478   */\n      tag_317\n        /* \"#utility.yul\":7472:7477   */\n      dup3\n        /* \"#utility.yul\":7439:7478   */\n      tag_185\n      jump\t// in\n    tag_317:\n        /* \"#utility.yul\":7494:7565   */\n      tag_318\n        /* \"#utility.yul\":7558:7564   */\n      dup2\n        /* \"#utility.yul\":7553:7556   */\n      dup6\n        /* \"#utility.yul\":7494:7565   */\n      tag_186\n      jump\t// in\n    tag_318:\n        /* \"#utility.yul\":7487:7565   */\n      swap4\n      pop\n        /* \"#utility.yul\":7574:7639   */\n      tag_319\n        /* \"#utility.yul\":7632:7638   */\n      dup2\n        /* \"#utility.yul\":7627:7630   */\n      dup6\n        /* \"#utility.yul\":7620:7624   */\n      0x20\n        /* \"#utility.yul\":7613:7618   */\n      dup7\n        /* \"#utility.yul\":7609:7625   */\n      add\n        /* \"#utility.yul\":7574:7639   */\n      tag_187\n      jump\t// in\n    tag_319:\n        /* \"#utility.yul\":7664:7693   */\n      tag_320\n        /* \"#utility.yul\":7686:7692   */\n      dup2\n        /* \"#utility.yul\":7664:7693   */\n      tag_188\n      jump\t// in\n    tag_320:\n        /* \"#utility.yul\":7659:7662   */\n      dup5\n        /* \"#utility.yul\":7655:7694   */\n      add\n        /* \"#utility.yul\":7648:7694   */\n      swap2\n      pop\n        /* \"#utility.yul\":7415:7700   */\n      pop\n        /* \"#utility.yul\":7323:7700   */\n      swap3\n      swap2\n      pop\n      pop\n      jump\t// out\n        /* \"#utility.yul\":7706:8227   */\n    tag_73:\n        /* \"#utility.yul\":7869:7873   */\n      0x00\n        /* \"#utility.yul\":7907:7909   */\n      0x60\n        /* \"#utility.yul\":7896:7905   */\n      dup3\n        /* \"#utility.yul\":7892:7910   */\n      add\n        /* \"#utility.yul\":7884:7910   */\n      swap1\n      pop\n        /* \"#utility.yul\":7920:7991   */\n      tag_322\n        /* \"#utility.yul\":7988:7989   */\n      0x00\n        /* \"#utility.yul\":7977:7986   */\n      dup4\n        /* \"#utility.yul\":7973:7990   */\n      add\n        /* \"#utility.yul\":7964:7970   */\n      dup7\n        /* \"#utility.yul\":7920:7991   */\n      tag_169\n      jump\t// in\n    tag_322:\n        /* \"#utility.yul\":8038:8047   */\n      dup2\n        /* \"#utility.yul\":8032:8036   */\n      dup2\n        /* \"#utility.yul\":8028:8048   */\n      sub\n        /* \"#utility.yul\":8023:8025   */\n      0x20\n        /* \"#utility.yul\":8012:8021   */\n      dup4\n        /* \"#utility.yul\":8008:8026   */\n      add\n        /* \"#utility.yul\":8001:8049   */\n      mstore\n        /* \"#utility.yul\":8066:8144   */\n      tag_323\n        /* \"#utility.yul\":8139:8143   */\n      dup2\n        /* \"#utility.yul\":8130:8136   */\n      dup6\n        /* \"#utility.yul\":8066:8144   */\n      tag_189\n      jump\t// in\n    tag_323:\n        /* \"#utility.yul\":8058:8144   */\n      swap1\n      pop\n        /* \"#utility.yul\":8154:8220   */\n      tag_324\n        /* \"#utility.yul\":8216:8218   */\n      0x40\n        /* \"#utility.yul\":8205:8214   */\n      dup4\n        /* \"#utility.yul\":8201:8219   */\n      add\n        /* \"#utility.yul\":8192:8198   */\n      dup5\n        /* \"#utility.yul\":8154:8220   */\n      tag_182\n      jump\t// in\n    tag_324:\n        /* \"#utility.yul\":7706:8227   */\n      swap5\n      swap4\n      pop\n      pop\n      pop\n      pop\n      jump\t// out\n        /* \"#utility.yul\":8233:8350   */\n    tag_190:\n        /* \"#utility.yul\":8342:8343   */\n      0x00\n        /* \"#utility.yul\":8339:8340   */\n      dup1\n        /* \"#utility.yul\":8332:8344   */\n      revert\n        /* \"#utility.yul\":8356:8473   */\n    tag_191:\n        /* \"#utility.yul\":8465:8466   */\n      0x00\n        /* \"#utility.yul\":8462:8463   */\n      dup1\n        /* \"#utility.yul\":8455:8467   */\n      revert\n        /* \"#utility.yul\":8479:8659   */\n    tag_192:\n        /* \"#utility.yul\":8527:8604   */\n      0x4e487b7100000000000000000000000000000000000000000000000000000000\n        /* \"#utility.yul\":8524:8525   */\n      0x00\n        /* \"#utility.yul\":8517:8605   */\n      mstore\n        /* \"#utility.yul\":8624:8628   */\n      0x41\n        /* \"#utility.yul\":8621:8622   */\n      0x04\n        /* \"#utility.yul\":8614:8629   */\n      mstore\n        /* \"#utility.yul\":8648:8652   */\n      0x24\n        /* \"#utility.yul\":8645:8646   */\n      0x00\n        /* \"#utility.yul\":8638:8653   */\n      revert\n        /* \"#utility.yul\":8665:8946   */\n    tag_193:\n        /* \"#utility.yul\":8748:8775   */\n      tag_329\n        /* \"#utility.yul\":8770:8774   */\n      dup3\n        /* \"#utility.yul\":8748:8775   */\n      tag_188\n      jump\t// in\n    tag_329:\n        /* \"#utility.yul\":8740:8746   */\n      dup2\n        /* \"#utility.yul\":8736:8776   */\n      add\n        /* \"#utility.yul\":8878:8884   */\n      dup2\n        /* \"#utility.yul\":8866:8876   */\n      dup2\n        /* \"#utility.yul\":8863:8885   */\n      lt\n        /* \"#utility.yul\":8842:8860   */\n      0xffffffffffffffff\n        /* \"#utility.yul\":8830:8840   */\n      dup3\n        /* \"#utility.yul\":8827:8861   */\n      gt\n        /* \"#utility.yul\":8824:8886   */\n      or\n        /* \"#utility.yul\":8821:8909   */\n      iszero\n      tag_330\n      jumpi\n        /* \"#utility.yul\":8889:8907   */\n      tag_331\n      tag_192\n      jump\t// in\n    tag_331:\n        /* \"#utility.yul\":8821:8909   */\n    tag_330:\n        /* \"#utility.yul\":8929:8939   */\n      dup1\n        /* \"#utility.yul\":8925:8927   */\n      0x40\n        /* \"#utility.yul\":8918:8940   */\n      mstore\n        /* \"#utility.yul\":8708:8946   */\n      pop\n        /* \"#utility.yul\":8665:8946   */\n      pop\n      pop\n      jump\t// out\n        /* \"#utility.yul\":8952:9081   */\n    tag_194:\n        /* \"#utility.yul\":8986:8992   */\n      0x00\n        /* \"#utility.yul\":9013:9033   */\n      tag_333\n      tag_162\n      jump\t// in\n    tag_333:\n        /* \"#utility.yul\":9003:9033   */\n      swap1\n      pop\n        /* \"#utility.yul\":9042:9075   */\n      tag_334\n        /* \"#utility.yul\":9070:9074   */\n      dup3\n        /* \"#utility.yul\":9062:9068   */\n      dup3\n        /* \"#utility.yul\":9042:9075   */\n      tag_193\n      jump\t// in\n    tag_334:\n        /* \"#utility.yul\":8952:9081   */\n      swap2\n      swap1\n      pop\n      jump\t// out\n        /* \"#utility.yul\":9087:9395   */\n    tag_195:\n        /* \"#utility.yul\":9149:9153   */\n      0x00\n        /* \"#utility.yul\":9239:9257   */\n      0xffffffffffffffff\n        /* \"#utility.yul\":9231:9237   */\n      dup3\n        /* \"#utility.yul\":9228:9258   */\n      gt\n        /* \"#utility.yul\":9225:9281   */\n      iszero\n      tag_336\n      jumpi\n        /* \"#utility.yul\":9261:9279   */\n      tag_337\n      tag_192\n      jump\t// in\n    tag_337:\n        /* \"#utility.yul\":9225:9281   */\n    tag_336:\n        /* \"#utility.yul\":9299:9328   */\n      tag_338\n        /* \"#utility.yul\":9321:9327   */\n      dup3\n        /* \"#utility.yul\":9299:9328   */\n      tag_188\n      jump\t// in\n    tag_338:\n        /* \"#utility.yul\":9291:9328   */\n      swap1\n      pop\n        /* \"#utility.yul\":9383:9387   */\n      0x20\n        /* \"#utility.yul\":9377:9381   */\n      dup2\n        /* \"#utility.yul\":9373:9388   */\n      add\n        /* \"#utility.yul\":9365:9388   */\n      swap1\n      pop\n        /* \"#utility.yul\":9087:9395   */\n      swap2\n      swap1\n      pop\n      jump\t// out\n        /* \"#utility.yul\":9401:9547   */\n    tag_196:\n        /* \"#utility.yul\":9498:9504   */\n      dup3\n        /* \"#utility.yul\":9493:9496   */\n      dup2\n        /* \"#utility.yul\":9488:9491   */\n      dup4\n        /* \"#utility.yul\":9475:9505   */\n      calldatacopy\n        /* \"#utility.yul\":9539:9540   */\n      0x00\n        /* \"#utility.yul\":9530:9536   */\n      dup4\n        /* \"#utility.yul\":9525:9528   */\n      dup4\n        /* \"#utility.yul\":9521:9537   */\n      add\n        /* \"#utility.yul\":9514:9541   */\n      mstore\n        /* \"#utility.yul\":9401:9547   */\n      pop\n      pop\n      pop\n      jump\t// out\n        /* \"#utility.yul\":9553:9978   */\n    tag_197:\n        /* \"#utility.yul\":9631:9636   */\n      0x00\n        /* \"#utility.yul\":9656:9722   */\n      tag_341\n        /* \"#utility.yul\":9672:9721   */\n      tag_342\n        /* \"#utility.yul\":9714:9720   */\n      dup5\n        /* \"#utility.yul\":9672:9721   */\n      tag_195\n      jump\t// in\n    tag_342:\n        /* \"#utility.yul\":9656:9722   */\n      tag_194\n      jump\t// in\n    tag_341:\n        /* \"#utility.yul\":9647:9722   */\n      swap1\n      pop\n        /* \"#utility.yul\":9745:9751   */\n      dup3\n        /* \"#utility.yul\":9738:9743   */\n      dup2\n        /* \"#utility.yul\":9731:9752   */\n      mstore\n        /* \"#utility.yul\":9783:9787   */\n      0x20\n        /* \"#utility.yul\":9776:9781   */\n      dup2\n        /* \"#utility.yul\":9772:9788   */\n      add\n        /* \"#utility.yul\":9821:9824   */\n      dup5\n        /* \"#utility.yul\":9812:9818   */\n      dup5\n        /* \"#utility.yul\":9807:9810   */\n      dup5\n        /* \"#utility.yul\":9803:9819   */\n      add\n        /* \"#utility.yul\":9800:9825   */\n      gt\n        /* \"#utility.yul\":9797:9909   */\n      iszero\n      tag_343\n      jumpi\n        /* \"#utility.yul\":9828:9907   */\n      tag_344\n      tag_191\n      jump\t// in\n    tag_344:\n        /* \"#utility.yul\":9797:9909   */\n    tag_343:\n        /* \"#utility.yul\":9918:9972   */\n      tag_345\n        /* \"#utility.yul\":9965:9971   */\n      dup5\n        /* \"#utility.yul\":9960:9963   */\n      dup3\n        /* \"#utility.yul\":9955:9958   */\n      dup6\n        /* \"#utility.yul\":9918:9972   */\n      tag_196\n      jump\t// in\n    tag_345:\n        /* \"#utility.yul\":9637:9978   */\n      pop\n        /* \"#utility.yul\":9553:9978   */\n      swap4\n      swap3\n      pop\n      pop\n      pop\n      jump\t// out\n        /* \"#utility.yul\":9998:10338   */\n    tag_198:\n        /* \"#utility.yul\":10054:10059   */\n      0x00\n        /* \"#utility.yul\":10103:10106   */\n      dup3\n        /* \"#utility.yul\":10096:10100   */\n      0x1f\n        /* \"#utility.yul\":10088:10094   */\n      dup4\n        /* \"#utility.yul\":10084:10101   */\n      add\n        /* \"#utility.yul\":10080:10107   */\n      slt\n        /* \"#utility.yul\":10070:10192   */\n      tag_347\n      jumpi\n        /* \"#utility.yul\":10111:10190   */\n      tag_348\n      tag_190\n      jump\t// in\n    tag_348:\n        /* \"#utility.yul\":10070:10192   */\n    tag_347:\n        /* \"#utility.yul\":10228:10234   */\n      dup2\n        /* \"#utility.yul\":10215:10235   */\n      calldataload\n        /* \"#utility.yul\":10253:10332   */\n      tag_349\n        /* \"#utility.yul\":10328:10331   */\n      dup5\n        /* \"#utility.yul\":10320:10326   */\n      dup3\n        /* \"#utility.yul\":10313:10317   */\n      0x20\n        /* \"#utility.yul\":10305:10311   */\n      dup7\n        /* \"#utility.yul\":10301:10318   */\n      add\n        /* \"#utility.yul\":10253:10332   */\n      tag_197\n      jump\t// in\n    tag_349:\n        /* \"#utility.yul\":10244:10332   */\n      swap2\n      pop\n        /* \"#utility.yul\":10060:10338   */\n      pop\n        /* \"#utility.yul\":9998:10338   */\n      swap3\n      swap2\n      pop\n      pop\n      jump\t// out\n        /* \"#utility.yul\":10344:10998   */\n    tag_76:\n        /* \"#utility.yul\":10422:10428   */\n      0x00\n        /* \"#utility.yul\":10430:10436   */\n      dup1\n        /* \"#utility.yul\":10479:10481   */\n      0x40\n        /* \"#utility.yul\":10467:10476   */\n      dup4\n        /* \"#utility.yul\":10458:10465   */\n      dup6\n        /* \"#utility.yul\":10454:10477   */\n      sub\n        /* \"#utility.yul\":10450:10482   */\n      slt\n        /* \"#utility.yul\":10447:10566   */\n      iszero\n      tag_351\n      jumpi\n        /* \"#utility.yul\":10485:10564   */\n      tag_352\n      tag_163\n      jump\t// in\n    tag_352:\n        /* \"#utility.yul\":10447:10566   */\n    tag_351:\n        /* \"#utility.yul\":10605:10606   */\n      0x00\n        /* \"#utility.yul\":10630:10683   */\n      tag_353\n        /* \"#utility.yul\":10675:10682   */\n      dup6\n        /* \"#utility.yul\":10666:10672   */\n      dup3\n        /* \"#utility.yul\":10655:10664   */\n      dup7\n        /* \"#utility.yul\":10651:10673   */\n      add\n        /* \"#utility.yul\":10630:10683   */\n      tag_168\n      jump\t// in\n    tag_353:\n        /* \"#utility.yul\":10620:10683   */\n      swap3\n      pop\n        /* \"#utility.yul\":10576:10693   */\n      pop\n        /* \"#utility.yul\":10760:10762   */\n      0x20\n        /* \"#utility.yul\":10749:10758   */\n      dup4\n        /* \"#utility.yul\":10745:10763   */\n      add\n        /* \"#utility.yul\":10732:10764   */\n      calldataload\n        /* \"#utility.yul\":10791:10809   */\n      0xffffffffffffffff\n        /* \"#utility.yul\":10783:10789   */\n      dup2\n        /* \"#utility.yul\":10780:10810   */\n      gt\n        /* \"#utility.yul\":10777:10894   */\n      iszero\n      tag_354\n      jumpi\n        /* \"#utility.yul\":10813:10892   */\n      tag_355\n      tag_164\n      jump\t// in\n    tag_355:\n        /* \"#utility.yul\":10777:10894   */\n    tag_354:\n        /* \"#utility.yul\":10918:10981   */\n      tag_356\n        /* \"#utility.yul\":10973:10980   */\n      dup6\n        /* \"#utility.yul\":10964:10970   */\n      dup3\n        /* \"#utility.yul\":10953:10962   */\n      dup7\n        /* \"#utility.yul\":10949:10971   */\n      add\n        /* \"#utility.yul\":10918:10981   */\n      tag_198\n      jump\t// in\n    tag_356:\n        /* \"#utility.yul\":10908:10981   */\n      swap2\n      pop\n        /* \"#utility.yul\":10703:10991   */\n      pop\n        /* \"#utility.yul\":10344:10998   */\n      swap3\n      pop\n      swap3\n      swap1\n      pop\n      jump\t// out\n        /* \"#utility.yul\":11004:11185   */\n    tag_199:\n        /* \"#utility.yul\":11144:11177   */\n      0x4f6e6c7920746865206f776e65722063616e2065786563757465207468697300\n        /* \"#utility.yul\":11140:11141   */\n      0x00\n        /* \"#utility.yul\":11132:11138   */\n      dup3\n        /* \"#utility.yul\":11128:11142   */\n      add\n        /* \"#utility.yul\":11121:11178   */\n      mstore\n        /* \"#utility.yul\":11004:11185   */\n      pop\n      jump\t// out\n        /* \"#utility.yul\":11191:11557   */\n    tag_200:\n        /* \"#utility.yul\":11333:11336   */\n      0x00\n        /* \"#utility.yul\":11354:11421   */\n      tag_359\n        /* \"#utility.yul\":11418:11420   */\n      0x1f\n        /* \"#utility.yul\":11413:11416   */\n      dup4\n        /* \"#utility.yul\":11354:11421   */\n      tag_186\n      jump\t// in\n    tag_359:\n        /* \"#utility.yul\":11347:11421   */\n      swap2\n      pop\n        /* \"#utility.yul\":11430:11523   */\n      tag_360\n        /* \"#utility.yul\":11519:11522   */\n      dup3\n        /* \"#utility.yul\":11430:11523   */\n      tag_199\n      jump\t// in\n    tag_360:\n        /* \"#utility.yul\":11548:11550   */\n      0x20\n        /* \"#utility.yul\":11543:11546   */\n      dup3\n        /* \"#utility.yul\":11539:11551   */\n      add\n        /* \"#utility.yul\":11532:11551   */\n      swap1\n      pop\n        /* \"#utility.yul\":11191:11557   */\n      swap2\n      swap1\n      pop\n      jump\t// out\n        /* \"#utility.yul\":11563:11982   */\n    tag_81:\n        /* \"#utility.yul\":11729:11733   */\n      0x00\n        /* \"#utility.yul\":11767:11769   */\n      0x20\n        /* \"#utility.yul\":11756:11765   */\n      dup3\n        /* \"#utility.yul\":11752:11770   */\n      add\n        /* \"#utility.yul\":11744:11770   */\n      swap1\n      pop\n        /* \"#utility.yul\":11816:11825   */\n      dup2\n        /* \"#utility.yul\":11810:11814   */\n      dup2\n        /* \"#utility.yul\":11806:11826   */\n      sub\n        /* \"#utility.yul\":11802:11803   */\n      0x00\n        /* \"#utility.yul\":11791:11800   */\n      dup4\n        /* \"#utility.yul\":11787:11804   */\n      add\n        /* \"#utility.yul\":11780:11827   */\n      mstore\n        /* \"#utility.yul\":11844:11975   */\n      tag_362\n        /* \"#utility.yul\":11970:11974   */\n      dup2\n        /* \"#utility.yul\":11844:11975   */\n      tag_200\n      jump\t// in\n    tag_362:\n        /* \"#utility.yul\":11836:11975   */\n      swap1\n      pop\n        /* \"#utility.yul\":11563:11982   */\n      swap2\n      swap1\n      pop\n      jump\t// out\n        /* \"#utility.yul\":11988:12209   */\n    tag_201:\n        /* \"#utility.yul\":12128:12162   */\n      0x4f6e6c7920616374697665206361726574616b6572732061726520616c6c6f77\n        /* \"#utility.yul\":12124:12125   */\n      0x00\n        /* \"#utility.yul\":12116:12122   */\n      dup3\n        /* \"#utility.yul\":12112:12126   */\n      add\n        /* \"#utility.yul\":12105:12163   */\n      mstore\n        /* \"#utility.yul\":12197:12201   */\n      0x6564000000000000000000000000000000000000000000000000000000000000\n        /* \"#utility.yul\":12192:12194   */\n      0x20\n        /* \"#utility.yul\":12184:12190   */\n      dup3\n        /* \"#utility.yul\":12180:12195   */\n      add\n        /* \"#utility.yul\":12173:12202   */\n      mstore\n        /* \"#utility.yul\":11988:12209   */\n      pop\n      jump\t// out\n        /* \"#utility.yul\":12215:12581   */\n    tag_202:\n        /* \"#utility.yul\":12357:12360   */\n      0x00\n        /* \"#utility.yul\":12378:12445   */\n      tag_365\n        /* \"#utility.yul\":12442:12444   */\n      0x22\n        /* \"#utility.yul\":12437:12440   */\n      dup4\n        /* \"#utility.yul\":12378:12445   */\n      tag_186\n      jump\t// in\n    tag_365:\n        /* \"#utility.yul\":12371:12445   */\n      swap2\n      pop\n        /* \"#utility.yul\":12454:12547   */\n      tag_366\n        /* \"#utility.yul\":12543:12546   */\n      dup3\n        /* \"#utility.yul\":12454:12547   */\n      tag_201\n      jump\t// in\n    tag_366:\n        /* \"#utility.yul\":12572:12574   */\n      0x40\n        /* \"#utility.yul\":12567:12570   */\n      dup3\n        /* \"#utility.yul\":12563:12575   */\n      add\n        /* \"#utility.yul\":12556:12575   */\n      swap1\n      pop\n        /* \"#utility.yul\":12215:12581   */\n      swap2\n      swap1\n      pop\n      jump\t// out\n        /* \"#utility.yul\":12587:13006   */\n    tag_88:\n        /* \"#utility.yul\":12753:12757   */\n      0x00\n        /* \"#utility.yul\":12791:12793   */\n      0x20\n        /* \"#utility.yul\":12780:12789   */\n      dup3\n        /* \"#utility.yul\":12776:12794   */\n      add\n        /* \"#utility.yul\":12768:12794   */\n      swap1\n      pop\n        /* \"#utility.yul\":12840:12849   */\n      dup2\n        /* \"#utility.yul\":12834:12838   */\n      dup2\n        /* \"#utility.yul\":12830:12850   */\n      sub\n        /* \"#utility.yul\":12826:12827   */\n      0x00\n        /* \"#utility.yul\":12815:12824   */\n      dup4\n        /* \"#utility.yul\":12811:12828   */\n      add\n        /* \"#utility.yul\":12804:12851   */\n      mstore\n        /* \"#utility.yul\":12868:12999   */\n      tag_368\n        /* \"#utility.yul\":12994:12998   */\n      dup2\n        /* \"#utility.yul\":12868:12999   */\n      tag_202\n      jump\t// in\n    tag_368:\n        /* \"#utility.yul\":12860:12999   */\n      swap1\n      pop\n        /* \"#utility.yul\":12587:13006   */\n      swap2\n      swap1\n      pop\n      jump\t// out\n        /* \"#utility.yul\":13012:13239   */\n    tag_203:\n        /* \"#utility.yul\":13152:13186   */\n      0x4e6f74207468652061737369676e6564206361726574616b657220666f722074\n        /* \"#utility.yul\":13148:13149   */\n      0x00\n        /* \"#utility.yul\":13140:13146   */\n      dup3\n        /* \"#utility.yul\":13136:13150   */\n      add\n        /* \"#utility.yul\":13129:13187   */\n      mstore\n        /* \"#utility.yul\":13221:13231   */\n      0x686973207461736b000000000000000000000000000000000000000000000000\n        /* \"#utility.yul\":13216:13218   */\n      0x20\n        /* \"#utility.yul\":13208:13214   */\n      dup3\n        /* \"#utility.yul\":13204:13219   */\n      add\n        /* \"#utility.yul\":13197:13232   */\n      mstore\n        /* \"#utility.yul\":13012:13239   */\n      pop\n      jump\t// out\n        /* \"#utility.yul\":13245:13611   */\n    tag_204:\n        /* \"#utility.yul\":13387:13390   */\n      0x00\n        /* \"#utility.yul\":13408:13475   */\n      tag_371\n        /* \"#utility.yul\":13472:13474   */\n      0x28\n        /* \"#utility.yul\":13467:13470   */\n      dup4\n        /* \"#utility.yul\":13408:13475   */\n      tag_186\n      jump\t// in\n    tag_371:\n        /* \"#utility.yul\":13401:13475   */\n      swap2\n      pop\n        /* \"#utility.yul\":13484:13577   */\n      tag_372\n        /* \"#utility.yul\":13573:13576   */\n      dup3\n        /* \"#utility.yul\":13484:13577   */\n      tag_203\n      jump\t// in\n    tag_372:\n        /* \"#utility.yul\":13602:13604   */\n      0x40\n        /* \"#utility.yul\":13597:13600   */\n      dup3\n        /* \"#utility.yul\":13593:13605   */\n      add\n        /* \"#utility.yul\":13586:13605   */\n      swap1\n      pop\n        /* \"#utility.yul\":13245:13611   */\n      swap2\n      swap1\n      pop\n      jump\t// out\n        /* \"#utility.yul\":13617:14036   */\n    tag_92:\n        /* \"#utility.yul\":13783:13787   */\n      0x00\n        /* \"#utility.yul\":13821:13823   */\n      0x20\n        /* \"#utility.yul\":13810:13819   */\n      dup3\n        /* \"#utility.yul\":13806:13824   */\n      add\n        /* \"#utility.yul\":13798:13824   */\n      swap1\n      pop\n        /* \"#utility.yul\":13870:13879   */\n      dup2\n        /* \"#utility.yul\":13864:13868   */\n      dup2\n        /* \"#utility.yul\":13860:13880   */\n      sub\n        /* \"#utility.yul\":13856:13857   */\n      0x00\n        /* \"#utility.yul\":13845:13854   */\n      dup4\n        /* \"#utility.yul\":13841:13858   */\n      add\n        /* \"#utility.yul\":13834:13881   */\n      mstore\n        /* \"#utility.yul\":13898:14029   */\n      tag_374\n        /* \"#utility.yul\":14024:14028   */\n      dup2\n        /* \"#utility.yul\":13898:14029   */\n      tag_204\n      jump\t// in\n    tag_374:\n        /* \"#utility.yul\":13890:14029   */\n      swap1\n      pop\n        /* \"#utility.yul\":13617:14036   */\n      swap2\n      swap1\n      pop\n      jump\t// out\n        /* \"#utility.yul\":14042:14212   */\n    tag_205:\n        /* \"#utility.yul\":14182:14204   */\n      0x5461736b20616c72656164792073746172746564000000000000000000000000\n        /* \"#utility.yul\":14178:14179   */\n      0x00\n        /* \"#utility.yul\":14170:14176   */\n      dup3\n        /* \"#utility.yul\":14166:14180   */\n      add\n        /* \"#utility.yul\":14159:14205   */\n      mstore\n        /* \"#utility.yul\":14042:14212   */\n      pop\n      jump\t// out\n        /* \"#utility.yul\":14218:14584   */\n    tag_206:\n        /* \"#utility.yul\":14360:14363   */\n      0x00\n        /* \"#utility.yul\":14381:14448   */\n      tag_377\n        /* \"#utility.yul\":14445:14447   */\n      0x14\n        /* \"#utility.yul\":14440:14443   */\n      dup4\n        /* \"#utility.yul\":14381:14448   */\n      tag_186\n      jump\t// in\n    tag_377:\n        /* \"#utility.yul\":14374:14448   */\n      swap2\n      pop\n        /* \"#utility.yul\":14457:14550   */\n      tag_378\n        /* \"#utility.yul\":14546:14549   */\n      dup3\n        /* \"#utility.yul\":14457:14550   */\n      tag_205\n      jump\t// in\n    tag_378:\n        /* \"#utility.yul\":14575:14577   */\n      0x20\n        /* \"#utility.yul\":14570:14573   */\n      dup3\n        /* \"#utility.yul\":14566:14578   */\n      add\n        /* \"#utility.yul\":14559:14578   */\n      swap1\n      pop\n        /* \"#utility.yul\":14218:14584   */\n      swap2\n      swap1\n      pop\n      jump\t// out\n        /* \"#utility.yul\":14590:15009   */\n    tag_96:\n        /* \"#utility.yul\":14756:14760   */\n      0x00\n        /* \"#utility.yul\":14794:14796   */\n      0x20\n        /* \"#utility.yul\":14783:14792   */\n      dup3\n        /* \"#utility.yul\":14779:14797   */\n      add\n        /* \"#utility.yul\":14771:14797   */\n      swap1\n      pop\n        /* \"#utility.yul\":14843:14852   */\n      dup2\n        /* \"#utility.yul\":14837:14841   */\n      dup2\n        /* \"#utility.yul\":14833:14853   */\n      sub\n        /* \"#utility.yul\":14829:14830   */\n      0x00\n        /* \"#utility.yul\":14818:14827   */\n      dup4\n        /* \"#utility.yul\":14814:14831   */\n      add\n        /* \"#utility.yul\":14807:14854   */\n      mstore\n        /* \"#utility.yul\":14871:15002   */\n      tag_380\n        /* \"#utility.yul\":14997:15001   */\n      dup2\n        /* \"#utility.yul\":14871:15002   */\n      tag_206\n      jump\t// in\n    tag_380:\n        /* \"#utility.yul\":14863:15002   */\n      swap1\n      pop\n        /* \"#utility.yul\":14590:15009   */\n      swap2\n      swap1\n      pop\n      jump\t// out\n        /* \"#utility.yul\":15015:15239   */\n    tag_207:\n        /* \"#utility.yul\":15155:15189   */\n      0x5461736b206e6f742073746172746564206f7220616c726561647920636f6d70\n        /* \"#utility.yul\":15151:15152   */\n      0x00\n        /* \"#utility.yul\":15143:15149   */\n      dup3\n        /* \"#utility.yul\":15139:15153   */\n      add\n        /* \"#utility.yul\":15132:15190   */\n      mstore\n        /* \"#utility.yul\":15224:15231   */\n      0x6c65746564000000000000000000000000000000000000000000000000000000\n        /* \"#utility.yul\":15219:15221   */\n      0x20\n        /* \"#utility.yul\":15211:15217   */\n      dup3\n        /* \"#utility.yul\":15207:15222   */\n      add\n        /* \"#utility.yul\":15200:15232   */\n      mstore\n        /* \"#utility.yul\":15015:15239   */\n      pop\n      jump\t// out\n        /* \"#utility.yul\":15245:15611   */\n    tag_208:\n        /* \"#utility.yul\":15387:15390   */\n      0x00\n        /* \"#utility.yul\":15408:15475   */\n      tag_383\n        /* \"#utility.yul\":15472:15474   */\n      0x25\n        /* \"#utility.yul\":15467:15470   */\n      dup4\n        /* \"#utility.yul\":15408:15475   */\n      tag_186\n      jump\t// in\n    tag_383:\n        /* \"#utility.yul\":15401:15475   */\n      swap2\n      pop\n        /* \"#utility.yul\":15484:15577   */\n      tag_384\n        /* \"#utility.yul\":15573:15576   */\n      dup3\n        /* \"#utility.yul\":15484:15577   */\n      tag_207\n      jump\t// in\n    tag_384:\n        /* \"#utility.yul\":15602:15604   */\n      0x40\n        /* \"#utility.yul\":15597:15600   */\n      dup3\n        /* \"#utility.yul\":15593:15605   */\n      add\n        /* \"#utility.yul\":15586:15605   */\n      swap1\n      pop\n        /* \"#utility.yul\":15245:15611   */\n      swap2\n      swap1\n      pop\n      jump\t// out\n        /* \"#utility.yul\":15617:16036   */\n    tag_108:\n        /* \"#utility.yul\":15783:15787   */\n      0x00\n        /* \"#utility.yul\":15821:15823   */\n      0x20\n        /* \"#utility.yul\":15810:15819   */\n      dup3\n        /* \"#utility.yul\":15806:15824   */\n      add\n        /* \"#utility.yul\":15798:15824   */\n      swap1\n      pop\n        /* \"#utility.yul\":15870:15879   */\n      dup2\n        /* \"#utility.yul\":15864:15868   */\n      dup2\n        /* \"#utility.yul\":15860:15880   */\n      sub\n        /* \"#utility.yul\":15856:15857   */\n      0x00\n        /* \"#utility.yul\":15845:15854   */\n      dup4\n        /* \"#utility.yul\":15841:15858   */\n      add\n        /* \"#utility.yul\":15834:15881   */\n      mstore\n        /* \"#utility.yul\":15898:16029   */\n      tag_386\n        /* \"#utility.yul\":16024:16028   */\n      dup2\n        /* \"#utility.yul\":15898:16029   */\n      tag_208\n      jump\t// in\n    tag_386:\n        /* \"#utility.yul\":15890:16029   */\n      swap1\n      pop\n        /* \"#utility.yul\":15617:16036   */\n      swap2\n      swap1\n      pop\n      jump\t// out\n        /* \"#utility.yul\":16042:16222   */\n    tag_209:\n        /* \"#utility.yul\":16090:16167   */\n      0x4e487b7100000000000000000000000000000000000000000000000000000000\n        /* \"#utility.yul\":16087:16088   */\n      0x00\n        /* \"#utility.yul\":16080:16168   */\n      mstore\n        /* \"#utility.yul\":16187:16191   */\n      0x11\n        /* \"#utility.yul\":16184:16185   */\n      0x04\n        /* \"#utility.yul\":16177:16192   */\n      mstore\n        /* \"#utility.yul\":16211:16215   */\n      0x24\n        /* \"#utility.yul\":16208:16209   */\n      0x00\n        /* \"#utility.yul\":16201:16216   */\n      revert\n        /* \"#utility.yul\":16228:16422   */\n    tag_110:\n        /* \"#utility.yul\":16268:16272   */\n      0x00\n        /* \"#utility.yul\":16288:16308   */\n      tag_389\n        /* \"#utility.yul\":16306:16307   */\n      dup3\n        /* \"#utility.yul\":16288:16308   */\n      tag_170\n      jump\t// in\n    tag_389:\n        /* \"#utility.yul\":16283:16308   */\n      swap2\n      pop\n        /* \"#utility.yul\":16322:16342   */\n      tag_390\n        /* \"#utility.yul\":16340:16341   */\n      dup4\n        /* \"#utility.yul\":16322:16342   */\n      tag_170\n      jump\t// in\n    tag_390:\n        /* \"#utility.yul\":16317:16342   */\n      swap3\n      pop\n        /* \"#utility.yul\":16366:16367   */\n      dup3\n        /* \"#utility.yul\":16363:16364   */\n      dup3\n        /* \"#utility.yul\":16359:16368   */\n      sub\n        /* \"#utility.yul\":16351:16368   */\n      swap1\n      pop\n        /* \"#utility.yul\":16390:16391   */\n      dup2\n        /* \"#utility.yul\":16384:16388   */\n      dup2\n        /* \"#utility.yul\":16381:16392   */\n      gt\n        /* \"#utility.yul\":16378:16415   */\n      iszero\n      tag_391\n      jumpi\n        /* \"#utility.yul\":16395:16413   */\n      tag_392\n      tag_209\n      jump\t// in\n    tag_392:\n        /* \"#utility.yul\":16378:16415   */\n    tag_391:\n        /* \"#utility.yul\":16228:16422   */\n      swap3\n      swap2\n      pop\n      pop\n      jump\t// out\n        /* \"#utility.yul\":16428:16760   */\n    tag_112:\n        /* \"#utility.yul\":16549:16553   */\n      0x00\n        /* \"#utility.yul\":16587:16589   */\n      0x40\n        /* \"#utility.yul\":16576:16585   */\n      dup3\n        /* \"#utility.yul\":16572:16590   */\n      add\n        /* \"#utility.yul\":16564:16590   */\n      swap1\n      pop\n        /* \"#utility.yul\":16600:16671   */\n      tag_394\n        /* \"#utility.yul\":16668:16669   */\n      0x00\n        /* \"#utility.yul\":16657:16666   */\n      dup4\n        /* \"#utility.yul\":16653:16670   */\n      add\n        /* \"#utility.yul\":16644:16650   */\n      dup6\n        /* \"#utility.yul\":16600:16671   */\n      tag_180\n      jump\t// in\n    tag_394:\n        /* \"#utility.yul\":16681:16753   */\n      tag_395\n        /* \"#utility.yul\":16749:16751   */\n      0x20\n        /* \"#utility.yul\":16738:16747   */\n      dup4\n        /* \"#utility.yul\":16734:16752   */\n      add\n        /* \"#utility.yul\":16725:16731   */\n      dup5\n        /* \"#utility.yul\":16681:16753   */\n      tag_180\n      jump\t// in\n    tag_395:\n        /* \"#utility.yul\":16428:16760   */\n      swap4\n      swap3\n      pop\n      pop\n      pop\n      jump\t// out\n        /* \"#utility.yul\":16766:16934   */\n    tag_210:\n        /* \"#utility.yul\":16906:16926   */\n      0x5461736b206e6f7420636f6d706c657465640000000000000000000000000000\n        /* \"#utility.yul\":16902:16903   */\n      0x00\n        /* \"#utility.yul\":16894:16900   */\n      dup3\n        /* \"#utility.yul\":16890:16904   */\n      add\n        /* \"#utility.yul\":16883:16927   */\n      mstore\n        /* \"#utility.yul\":16766:16934   */\n      pop\n      jump\t// out\n        /* \"#utility.yul\":16940:17306   */\n    tag_211:\n        /* \"#utility.yul\":17082:17085   */\n      0x00\n        /* \"#utility.yul\":17103:17170   */\n      tag_398\n        /* \"#utility.yul\":17167:17169   */\n      0x12\n        /* \"#utility.yul\":17162:17165   */\n      dup4\n        /* \"#utility.yul\":17103:17170   */\n      tag_186\n      jump\t// in\n    tag_398:\n        /* \"#utility.yul\":17096:17170   */\n      swap2\n      pop\n        /* \"#utility.yul\":17179:17272   */\n      tag_399\n        /* \"#utility.yul\":17268:17271   */\n      dup3\n        /* \"#utility.yul\":17179:17272   */\n      tag_210\n      jump\t// in\n    tag_399:\n        /* \"#utility.yul\":17297:17299   */\n      0x20\n        /* \"#utility.yul\":17292:17295   */\n      dup3\n        /* \"#utility.yul\":17288:17300   */\n      add\n        /* \"#utility.yul\":17281:17300   */\n      swap1\n      pop\n        /* \"#utility.yul\":16940:17306   */\n      swap2\n      swap1\n      pop\n      jump\t// out\n        /* \"#utility.yul\":17312:17731   */\n    tag_124:\n        /* \"#utility.yul\":17478:17482   */\n      0x00\n        /* \"#utility.yul\":17516:17518   */\n      0x20\n        /* \"#utility.yul\":17505:17514   */\n      dup3\n        /* \"#utility.yul\":17501:17519   */\n      add\n        /* \"#utility.yul\":17493:17519   */\n      swap1\n      pop\n        /* \"#utility.yul\":17565:17574   */\n      dup2\n        /* \"#utility.yul\":17559:17563   */\n      dup2\n        /* \"#utility.yul\":17555:17575   */\n      sub\n        /* \"#utility.yul\":17551:17552   */\n      0x00\n        /* \"#utility.yul\":17540:17549   */\n      dup4\n        /* \"#utility.yul\":17536:17553   */\n      add\n        /* \"#utility.yul\":17529:17576   */\n      mstore\n        /* \"#utility.yul\":17593:17724   */\n      tag_401\n        /* \"#utility.yul\":17719:17723   */\n      dup2\n        /* \"#utility.yul\":17593:17724   */\n      tag_211\n      jump\t// in\n    tag_401:\n        /* \"#utility.yul\":17585:17724   */\n      swap1\n      pop\n        /* \"#utility.yul\":17312:17731   */\n      swap2\n      swap1\n      pop\n      jump\t// out\n        /* \"#utility.yul\":17737:17959   */\n    tag_212:\n        /* \"#utility.yul\":17877:17911   */\n      0x4f6e6c79204d65646963616c2053746166662063616e20657865637574652074\n        /* \"#utility.yul\":17873:17874   */\n      0x00\n        /* \"#utility.yul\":17865:17871   */\n      dup3\n        /* \"#utility.yul\":17861:17875   */\n      add\n        /* \"#utility.yul\":17854:17912   */\n      mstore\n        /* \"#utility.yul\":17946:17951   */\n      0x6869730000000000000000000000000000000000000000000000000000000000\n        /* \"#utility.yul\":17941:17943   */\n      0x20\n        /* \"#utility.yul\":17933:17939   */\n      dup3\n        /* \"#utility.yul\":17929:17944   */\n      add\n        /* \"#utility.yul\":17922:17952   */\n      mstore\n        /* \"#utility.yul\":17737:17959   */\n      pop\n      jump\t// out\n        /* \"#utility.yul\":17965:18331   */\n    tag_213:\n        /* \"#utility.yul\":18107:18110   */\n      0x00\n        /* \"#utility.yul\":18128:18195   */\n      tag_404\n        /* \"#utility.yul\":18192:18194   */\n      0x23\n        /* \"#utility.yul\":18187:18190   */\n      dup4\n        /* \"#utility.yul\":18128:18195   */\n      tag_186\n      jump\t// in\n    tag_404:\n        /* \"#utility.yul\":18121:18195   */\n      swap2\n      pop\n        /* \"#utility.yul\":18204:18297   */\n      tag_405\n        /* \"#utility.yul\":18293:18296   */\n      dup3\n        /* \"#utility.yul\":18204:18297   */\n      tag_212\n      jump\t// in\n    tag_405:\n        /* \"#utility.yul\":18322:18324   */\n      0x40\n        /* \"#utility.yul\":18317:18320   */\n      dup3\n        /* \"#utility.yul\":18313:18325   */\n      add\n        /* \"#utility.yul\":18306:18325   */\n      swap1\n      pop\n        /* \"#utility.yul\":17965:18331   */\n      swap2\n      swap1\n      pop\n      jump\t// out\n        /* \"#utility.yul\":18337:18756   */\n    tag_133:\n        /* \"#utility.yul\":18503:18507   */\n      0x00\n        /* \"#utility.yul\":18541:18543   */\n      0x20\n        /* \"#utility.yul\":18530:18539   */\n      dup3\n        /* \"#utility.yul\":18526:18544   */\n      add\n        /* \"#utility.yul\":18518:18544   */\n      swap1\n      pop\n        /* \"#utility.yul\":18590:18599   */\n      dup2\n        /* \"#utility.yul\":18584:18588   */\n      dup2\n        /* \"#utility.yul\":18580:18600   */\n      sub\n        /* \"#utility.yul\":18576:18577   */\n      0x00\n        /* \"#utility.yul\":18565:18574   */\n      dup4\n        /* \"#utility.yul\":18561:18578   */\n      add\n        /* \"#utility.yul\":18554:18601   */\n      mstore\n        /* \"#utility.yul\":18618:18749   */\n      tag_407\n        /* \"#utility.yul\":18744:18748   */\n      dup2\n        /* \"#utility.yul\":18618:18749   */\n      tag_213\n      jump\t// in\n    tag_407:\n        /* \"#utility.yul\":18610:18749   */\n      swap1\n      pop\n        /* \"#utility.yul\":18337:18756   */\n      swap2\n      swap1\n      pop\n      jump\t// out\n        /* \"#utility.yul\":18762:19094   */\n    tag_140:\n        /* \"#utility.yul\":18883:18887   */\n      0x00\n        /* \"#utility.yul\":18921:18923   */\n      0x40\n        /* \"#utility.yul\":18910:18919   */\n      dup3\n        /* \"#utility.yul\":18906:18924   */\n      add\n        /* \"#utility.yul\":18898:18924   */\n      swap1\n      pop\n        /* \"#utility.yul\":18934:19005   */\n      tag_409\n        /* \"#utility.yul\":19002:19003   */\n      0x00\n        /* \"#utility.yul\":18991:19000   */\n      dup4\n        /* \"#utility.yul\":18987:19004   */\n      add\n        /* \"#utility.yul\":18978:18984   */\n      dup6\n        /* \"#utility.yul\":18934:19005   */\n      tag_180\n      jump\t// in\n    tag_409:\n        /* \"#utility.yul\":19015:19087   */\n      tag_410\n        /* \"#utility.yul\":19083:19085   */\n      0x20\n        /* \"#utility.yul\":19072:19081   */\n      dup4\n        /* \"#utility.yul\":19068:19086   */\n      add\n        /* \"#utility.yul\":19059:19065   */\n      dup5\n        /* \"#utility.yul\":19015:19087   */\n      tag_169\n      jump\t// in\n    tag_410:\n        /* \"#utility.yul\":18762:19094   */\n      swap4\n      swap3\n      pop\n      pop\n      pop\n      jump\t// out\n        /* \"#utility.yul\":19100:19333   */\n    tag_142:\n        /* \"#utility.yul\":19139:19142   */\n      0x00\n        /* \"#utility.yul\":19162:19186   */\n      tag_412\n        /* \"#utility.yul\":19180:19185   */\n      dup3\n        /* \"#utility.yul\":19162:19186   */\n      tag_170\n      jump\t// in\n    tag_412:\n        /* \"#utility.yul\":19153:19186   */\n      swap2\n      pop\n        /* \"#utility.yul\":19208:19274   */\n      0xffffffffffffffffffffffffffffffffffffffffffffffffffffffffffffffff\n        /* \"#utility.yul\":19201:19206   */\n      dup3\n        /* \"#utility.yul\":19198:19275   */\n      sub\n        /* \"#utility.yul\":19195:19298   */\n      tag_413\n      jumpi\n        /* \"#utility.yul\":19278:19296   */\n      tag_414\n      tag_209\n      jump\t// in\n    tag_414:\n        /* \"#utility.yul\":19195:19298   */\n    tag_413:\n        /* \"#utility.yul\":19325:19326   */\n      0x01\n        /* \"#utility.yul\":19318:19323   */\n      dup3\n        /* \"#utility.yul\":19314:19327   */\n      add\n        /* \"#utility.yul\":19307:19327   */\n      swap1\n      pop\n        /* \"#utility.yul\":19100:19333   */\n      swap2\n      swap1\n      pop\n      jump\t// out\n        /* \"#utility.yul\":19339:19519   */\n    tag_214:\n        /* \"#utility.yul\":19387:19464   */\n      0x4e487b7100000000000000000000000000000000000000000000000000000000\n        /* \"#utility.yul\":19384:19385   */\n      0x00\n        /* \"#utility.yul\":19377:19465   */\n      mstore\n        /* \"#utility.yul\":19484:19488   */\n      0x22\n        /* \"#utility.yul\":19481:19482   */\n      0x04\n        /* \"#utility.yul\":19474:19489   */\n      mstore\n        /* \"#utility.yul\":19508:19512   */\n      0x24\n        /* \"#utility.yul\":19505:19506   */\n      0x00\n        /* \"#utility.yul\":19498:19513   */\n      revert\n        /* \"#utility.yul\":19525:19845   */\n    tag_144:\n        /* \"#utility.yul\":19569:19575   */\n      0x00\n        /* \"#utility.yul\":19606:19607   */\n      0x02\n        /* \"#utility.yul\":19600:19604   */\n      dup3\n        /* \"#utility.yul\":19596:19608   */\n      div\n        /* \"#utility.yul\":19586:19608   */\n      swap1\n      pop\n        /* \"#utility.yul\":19653:19654   */\n      0x01\n        /* \"#utility.yul\":19647:19651   */\n      dup3\n        /* \"#utility.yul\":19643:19655   */\n      and\n        /* \"#utility.yul\":19674:19692   */\n      dup1\n        /* \"#utility.yul\":19664:19745   */\n      tag_417\n      jumpi\n        /* \"#utility.yul\":19730:19734   */\n      0x7f\n        /* \"#utility.yul\":19722:19728   */\n      dup3\n        /* \"#utility.yul\":19718:19735   */\n      and\n        /* \"#utility.yul\":19708:19735   */\n      swap2\n      pop\n        /* \"#utility.yul\":19664:19745   */\n    tag_417:\n        /* \"#utility.yul\":19792:19794   */\n      0x20\n        /* \"#utility.yul\":19784:19790   */\n      dup3\n        /* \"#utility.yul\":19781:19795   */\n      lt\n        /* \"#utility.yul\":19761:19779   */\n      dup2\n        /* \"#utility.yul\":19758:19796   */\n      sub\n        /* \"#utility.yul\":19755:19839   */\n      tag_418\n      jumpi\n        /* \"#utility.yul\":19811:19829   */\n      tag_419\n      tag_214\n      jump\t// in\n    tag_419:\n        /* \"#utility.yul\":19755:19839   */\n    tag_418:\n        /* \"#utility.yul\":19576:19845   */\n      pop\n        /* \"#utility.yul\":19525:19845   */\n      swap2\n      swap1\n      pop\n      jump\t// out\n        /* \"#utility.yul\":19851:19992   */\n    tag_215:\n        /* \"#utility.yul\":19900:19904   */\n      0x00\n        /* \"#utility.yul\":19923:19926   */\n      dup2\n        /* \"#utility.yul\":19915:19926   */\n      swap1\n      pop\n        /* \"#utility.yul\":19946:19949   */\n      dup2\n        /* \"#utility.yul\":19943:19944   */\n      0x00\n        /* \"#utility.yul\":19936:19950   */\n      mstore\n        /* \"#utility.yul\":19980:19984   */\n      0x20\n        /* \"#utility.yul\":19977:19978   */\n      0x00\n        /* \"#utility.yul\":19967:19985   */\n      keccak256\n        /* \"#utility.yul\":19959:19985   */\n      swap1\n      pop\n        /* \"#utility.yul\":19851:19992   */\n      swap2\n      swap1\n      pop\n      jump\t// out\n        /* \"#utility.yul\":19998:20091   */\n    tag_216:\n        /* \"#utility.yul\":20035:20041   */\n      0x00\n        /* \"#utility.yul\":20082:20084   */\n      0x20\n        /* \"#utility.yul\":20077:20079   */\n      0x1f\n        /* \"#utility.yul\":20070:20075   */\n      dup4\n        /* \"#utility.yul\":20066:20080   */\n      add\n        /* \"#utility.yul\":20062:20085   */\n      div\n        /* \"#utility.yul\":20052:20085   */\n      swap1\n      pop\n        /* \"#utility.yul\":19998:20091   */\n      swap2\n      swap1\n      pop\n      jump\t// out\n        /* \"#utility.yul\":20097:20204   */\n    tag_217:\n        /* \"#utility.yul\":20141:20149   */\n      0x00\n        /* \"#utility.yul\":20191:20196   */\n      dup3\n        /* \"#utility.yul\":20185:20189   */\n      dup3\n        /* \"#utility.yul\":20181:20197   */\n      shl\n        /* \"#utility.yul\":20160:20197   */\n      swap1\n      pop\n        /* \"#utility.yul\":20097:20204   */\n      swap3\n      swap2\n      pop\n      pop\n      jump\t// out\n        /* \"#utility.yul\":20210:20603   */\n    tag_218:\n        /* \"#utility.yul\":20279:20285   */\n      0x00\n        /* \"#utility.yul\":20329:20330   */\n      0x08\n        /* \"#utility.yul\":20317:20327   */\n      dup4\n        /* \"#utility.yul\":20313:20331   */\n      mul\n        /* \"#utility.yul\":20352:20449   */\n      tag_424\n        /* \"#utility.yul\":20382:20448   */\n      0xffffffffffffffffffffffffffffffffffffffffffffffffffffffffffffffff\n        /* \"#utility.yul\":20371:20380   */\n      dup3\n        /* \"#utility.yul\":20352:20449   */\n      tag_217\n      jump\t// in\n    tag_424:\n        /* \"#utility.yul\":20470:20509   */\n      tag_425\n        /* \"#utility.yul\":20500:20508   */\n      dup7\n        /* \"#utility.yul\":20489:20498   */\n      dup4\n        /* \"#utility.yul\":20470:20509   */\n      tag_217\n      jump\t// in\n    tag_425:\n        /* \"#utility.yul\":20458:20509   */\n      swap6\n      pop\n        /* \"#utility.yul\":20542:20546   */\n      dup1\n        /* \"#utility.yul\":20538:20547   */\n      not\n        /* \"#utility.yul\":20531:20536   */\n      dup5\n        /* \"#utility.yul\":20527:20548   */\n      and\n        /* \"#utility.yul\":20518:20548   */\n      swap4\n      pop\n        /* \"#utility.yul\":20591:20595   */\n      dup1\n        /* \"#utility.yul\":20581:20589   */\n      dup7\n        /* \"#utility.yul\":20577:20596   */\n      and\n        /* \"#utility.yul\":20570:20575   */\n      dup5\n        /* \"#utility.yul\":20567:20597   */\n      or\n        /* \"#utility.yul\":20557:20597   */\n      swap3\n      pop\n        /* \"#utility.yul\":20286:20603   */\n      pop\n      pop\n        /* \"#utility.yul\":20210:20603   */\n      swap4\n      swap3\n      pop\n      pop\n      pop\n      jump\t// out\n        /* \"#utility.yul\":20609:20751   */\n    tag_219:\n        /* \"#utility.yul\":20659:20668   */\n      0x00\n        /* \"#utility.yul\":20692:20745   */\n      tag_427\n        /* \"#utility.yul\":20710:20744   */\n      tag_428\n        /* \"#utility.yul\":20719:20743   */\n      tag_429\n        /* \"#utility.yul\":20737:20742   */\n      dup5\n        /* \"#utility.yul\":20719:20743   */\n      tag_170\n      jump\t// in\n    tag_429:\n        /* \"#utility.yul\":20710:20744   */\n      tag_173\n      jump\t// in\n    tag_428:\n        /* \"#utility.yul\":20692:20745   */\n      tag_170\n      jump\t// in\n    tag_427:\n        /* \"#utility.yul\":20679:20745   */\n      swap1\n      pop\n        /* \"#utility.yul\":20609:20751   */\n      swap2\n      swap1\n      pop\n      jump\t// out\n        /* \"#utility.yul\":20757:20832   */\n    tag_220:\n        /* \"#utility.yul\":20800:20803   */\n      0x00\n        /* \"#utility.yul\":20821:20826   */\n      dup2\n        /* \"#utility.yul\":20814:20826   */\n      swap1\n      pop\n        /* \"#utility.yul\":20757:20832   */\n      swap2\n      swap1\n      pop\n      jump\t// out\n        /* \"#utility.yul\":20838:21107   */\n    tag_221:\n        /* \"#utility.yul\":20948:20987   */\n      tag_432\n        /* \"#utility.yul\":20979:20986   */\n      dup4\n        /* \"#utility.yul\":20948:20987   */\n      tag_219\n      jump\t// in\n    tag_432:\n        /* \"#utility.yul\":21009:21100   */\n      tag_433\n        /* \"#utility.yul\":21058:21099   */\n      tag_434\n        /* \"#utility.yul\":21082:21098   */\n      dup3\n        /* \"#utility.yul\":21058:21099   */\n      tag_220\n      jump\t// in\n    tag_434:\n        /* \"#utility.yul\":21050:21056   */\n      dup5\n        /* \"#utility.yul\":21043:21047   */\n      dup5\n        /* \"#utility.yul\":21037:21048   */\n      sload\n        /* \"#utility.yul\":21009:21100   */\n      tag_218\n      jump\t// in\n    tag_433:\n        /* \"#utility.yul\":21003:21007   */\n      dup3\n        /* \"#utility.yul\":20996:21101   */\n      sstore\n        /* \"#utility.yul\":20914:21107   */\n      pop\n        /* \"#utility.yul\":20838:21107   */\n      pop\n      pop\n      pop\n      jump\t// out\n        /* \"#utility.yul\":21113:21186   */\n    tag_222:\n        /* \"#utility.yul\":21158:21161   */\n      0x00\n        /* \"#utility.yul\":21113:21186   */\n      swap1\n      jump\t// out\n        /* \"#utility.yul\":21192:21381   */\n    tag_223:\n        /* \"#utility.yul\":21269:21301   */\n      tag_437\n      tag_222\n      jump\t// in\n    tag_437:\n        /* \"#utility.yul\":21310:21375   */\n      tag_438\n        /* \"#utility.yul\":21368:21374   */\n      dup2\n        /* \"#utility.yul\":21360:21366   */\n      dup5\n        /* \"#utility.yul\":21354:21358   */\n      dup5\n        /* \"#utility.yul\":21310:21375   */\n      tag_221\n      jump\t// in\n    tag_438:\n        /* \"#utility.yul\":21245:21381   */\n      pop\n        /* \"#utility.yul\":21192:21381   */\n      pop\n      pop\n      jump\t// out\n        /* \"#utility.yul\":21387:21573   */\n    tag_224:\n        /* \"#utility.yul\":21447:21567   */\n    tag_440:\n        /* \"#utility.yul\":21464:21467   */\n      dup2\n        /* \"#utility.yul\":21457:21462   */\n      dup2\n        /* \"#utility.yul\":21454:21468   */\n      lt\n        /* \"#utility.yul\":21447:21567   */\n      iszero\n      tag_442\n      jumpi\n        /* \"#utility.yul\":21518:21557   */\n      tag_443\n        /* \"#utility.yul\":21555:21556   */\n      0x00\n        /* \"#utility.yul\":21548:21553   */\n      dup3\n        /* \"#utility.yul\":21518:21557   */\n      tag_223\n      jump\t// in\n    tag_443:\n        /* \"#utility.yul\":21491:21492   */\n      0x01\n        /* \"#utility.yul\":21484:21489   */\n      dup2\n        /* \"#utility.yul\":21480:21493   */\n      add\n        /* \"#utility.yul\":21471:21493   */\n      swap1\n      pop\n        /* \"#utility.yul\":21447:21567   */\n      jump(tag_440)\n    tag_442:\n        /* \"#utility.yul\":21387:21573   */\n      pop\n      pop\n      jump\t// out\n        /* \"#utility.yul\":21579:22122   */\n    tag_225:\n        /* \"#utility.yul\":21680:21682   */\n      0x1f\n        /* \"#utility.yul\":21675:21678   */\n      dup3\n        /* \"#utility.yul\":21672:21683   */\n      gt\n        /* \"#utility.yul\":21669:22115   */\n      iszero\n      tag_445\n      jumpi\n        /* \"#utility.yul\":21714:21752   */\n      tag_446\n        /* \"#utility.yul\":21746:21751   */\n      dup2\n        /* \"#utility.yul\":21714:21752   */\n      tag_215\n      jump\t// in\n    tag_446:\n        /* \"#utility.yul\":21798:21827   */\n      tag_447\n        /* \"#utility.yul\":21816:21826   */\n      dup5\n        /* \"#utility.yul\":21798:21827   */\n      tag_216\n      jump\t// in\n    tag_447:\n        /* \"#utility.yul\":21788:21796   */\n      dup2\n        /* \"#utility.yul\":21784:21828   */\n      add\n        /* \"#utility.yul\":21981:21983   */\n      0x20\n        /* \"#utility.yul\":21969:21979   */\n      dup6\n        /* \"#utility.yul\":21966:21984   */\n      lt\n        /* \"#utility.yul\":21963:22012   */\n      iszero\n      tag_448\n      jumpi\n        /* \"#utility.yul\":22002:22010   */\n      dup2\n        /* \"#utility.yul\":21987:22010   */\n      swap1\n      pop\n        /* \"#utility.yul\":21963:22012   */\n    tag_448:\n        /* \"#utility.yul\":22025:22105   */\n      tag_449\n        /* \"#utility.yul\":22081:22103   */\n      tag_450\n        /* \"#utility.yul\":22099:22102   */\n      dup6\n        /* \"#utility.yul\":22081:22103   */\n      tag_216\n      jump\t// in\n    tag_450:\n        /* \"#utility.yul\":22071:22079   */\n      dup4\n        /* \"#utility.yul\":22067:22104   */\n      add\n        /* \"#utility.yul\":22054:22065   */\n      dup3\n        /* \"#utility.yul\":22025:22105   */\n      tag_224\n      jump\t// in\n    tag_449:\n        /* \"#utility.yul\":21684:22115   */\n      pop\n      pop\n        /* \"#utility.yul\":21669:22115   */\n    tag_445:\n        /* \"#utility.yul\":21579:22122   */\n      pop\n      pop\n      pop\n      jump\t// out\n        /* \"#utility.yul\":22128:22245   */\n    tag_226:\n        /* \"#utility.yul\":22182:22190   */\n      0x00\n        /* \"#utility.yul\":22232:22237   */\n      dup3\n        /* \"#utility.yul\":22226:22230   */\n      dup3\n        /* \"#utility.yul\":22222:22238   */\n      shr\n        /* \"#utility.yul\":22201:22238   */\n      swap1\n      pop\n        /* \"#utility.yul\":22128:22245   */\n      swap3\n      swap2\n      pop\n      pop\n      jump\t// out\n        /* \"#utility.yul\":22251:22420   */\n    tag_227:\n        /* \"#utility.yul\":22295:22301   */\n      0x00\n        /* \"#utility.yul\":22328:22379   */\n      tag_453\n        /* \"#utility.yul\":22376:22377   */\n      0x00\n        /* \"#utility.yul\":22372:22378   */\n      not\n        /* \"#utility.yul\":22364:22369   */\n      dup5\n        /* \"#utility.yul\":22361:22362   */\n      0x08\n        /* \"#utility.yul\":22357:22370   */\n      mul\n        /* \"#utility.yul\":22328:22379   */\n      tag_226\n      jump\t// in\n    tag_453:\n        /* \"#utility.yul\":22324:22380   */\n      not\n        /* \"#utility.yul\":22409:22413   */\n      dup1\n        /* \"#utility.yul\":22403:22407   */\n      dup4\n        /* \"#utility.yul\":22399:22414   */\n      and\n        /* \"#utility.yul\":22389:22414   */\n      swap2\n      pop\n        /* \"#utility.yul\":22302:22420   */\n      pop\n        /* \"#utility.yul\":22251:22420   */\n      swap3\n      swap2\n      pop\n      pop\n      jump\t// out\n        /* \"#utility.yul\":22425:22720   */\n    tag_228:\n        /* \"#utility.yul\":22501:22505   */\n      0x00\n        /* \"#utility.yul\":22647:22676   */\n      tag_455\n        /* \"#utility.yul\":22672:22675   */\n      dup4\n        /* \"#utility.yul\":22666:22670   */\n      dup4\n        /* \"#utility.yul\":22647:22676   */\n      tag_227\n      jump\t// in\n    tag_455:\n        /* \"#utility.yul\":22639:22676   */\n      swap2\n      pop\n        /* \"#utility.yul\":22709:22712   */\n      dup3\n        /* \"#utility.yul\":22706:22707   */\n      0x02\n        /* \"#utility.yul\":22702:22713   */\n      mul\n        /* \"#utility.yul\":22696:22700   */\n      dup3\n        /* \"#utility.yul\":22693:22714   */\n      or\n        /* \"#utility.yul\":22685:22714   */\n      swap1\n      pop\n        /* \"#utility.yul\":22425:22720   */\n      swap3\n      swap2\n      pop\n      pop\n      jump\t// out\n        /* \"#utility.yul\":22725:24120   */\n    tag_154:\n        /* \"#utility.yul\":22842:22879   */\n      tag_457\n        /* \"#utility.yul\":22875:22878   */\n      dup3\n        /* \"#utility.yul\":22842:22879   */\n      tag_185\n      jump\t// in\n    tag_457:\n        /* \"#utility.yul\":22944:22962   */\n      0xffffffffffffffff\n        /* \"#utility.yul\":22936:22942   */\n      dup2\n        /* \"#utility.yul\":22933:22963   */\n      gt\n        /* \"#utility.yul\":22930:22986   */\n      iszero\n      tag_458\n      jumpi\n        /* \"#utility.yul\":22966:22984   */\n      tag_459\n      tag_192\n      jump\t// in\n    tag_459:\n        /* \"#utility.yul\":22930:22986   */\n    tag_458:\n        /* \"#utility.yul\":23010:23048   */\n      tag_460\n        /* \"#utility.yul\":23042:23046   */\n      dup3\n        /* \"#utility.yul\":23036:23047   */\n      sload\n        /* \"#utility.yul\":23010:23048   */\n      tag_144\n      jump\t// in\n    tag_460:\n        /* \"#utility.yul\":23095:23162   */\n      tag_461\n        /* \"#utility.yul\":23155:23161   */\n      dup3\n        /* \"#utility.yul\":23147:23153   */\n      dup3\n        /* \"#utility.yul\":23141:23145   */\n      dup6\n        /* \"#utility.yul\":23095:23162   */\n      tag_225\n      jump\t// in\n    tag_461:\n        /* \"#utility.yul\":23189:23190   */\n      0x00\n        /* \"#utility.yul\":23213:23217   */\n      0x20\n        /* \"#utility.yul\":23200:23217   */\n      swap1\n      pop\n        /* \"#utility.yul\":23245:23247   */\n      0x1f\n        /* \"#utility.yul\":23237:23243   */\n      dup4\n        /* \"#utility.yul\":23234:23248   */\n      gt\n        /* \"#utility.yul\":23262:23263   */\n      0x01\n        /* \"#utility.yul\":23257:23875   */\n      dup2\n      eq\n      tag_463\n      jumpi\n        /* \"#utility.yul\":23919:23920   */\n      0x00\n        /* \"#utility.yul\":23936:23942   */\n      dup5\n        /* \"#utility.yul\":23933:24010   */\n      iszero\n      tag_464\n      jumpi\n        /* \"#utility.yul\":23985:23994   */\n      dup3\n        /* \"#utility.yul\":23980:23983   */\n      dup8\n        /* \"#utility.yul\":23976:23995   */\n      add\n        /* \"#utility.yul\":23970:23996   */\n      mload\n        /* \"#utility.yul\":23961:23996   */\n      swap1\n      pop\n        /* \"#utility.yul\":23933:24010   */\n    tag_464:\n        /* \"#utility.yul\":24036:24103   */\n      tag_465\n        /* \"#utility.yul\":24096:24102   */\n      dup6\n        /* \"#utility.yul\":24089:24094   */\n      dup3\n        /* \"#utility.yul\":24036:24103   */\n      tag_228\n      jump\t// in\n    tag_465:\n        /* \"#utility.yul\":24030:24034   */\n      dup7\n        /* \"#utility.yul\":24023:24104   */\n      sstore\n        /* \"#utility.yul\":23892:24114   */\n      pop\n        /* \"#utility.yul\":23227:24114   */\n      jump(tag_462)\n        /* \"#utility.yul\":23257:23875   */\n    tag_463:\n        /* \"#utility.yul\":23309:23313   */\n      0x1f\n        /* \"#utility.yul\":23305:23314   */\n      not\n        /* \"#utility.yul\":23297:23303   */\n      dup5\n        /* \"#utility.yul\":23293:23315   */\n      and\n        /* \"#utility.yul\":23343:23380   */\n      tag_466\n        /* \"#utility.yul\":23375:23379   */\n      dup7\n        /* \"#utility.yul\":23343:23380   */\n      tag_215\n      jump\t// in\n    tag_466:\n        /* \"#utility.yul\":23402:23403   */\n      0x00\n        /* \"#utility.yul\":23416:23624   */\n    tag_467:\n        /* \"#utility.yul\":23430:23437   */\n      dup3\n        /* \"#utility.yul\":23427:23428   */\n      dup2\n        /* \"#utility.yul\":23424:23438   */\n      lt\n        /* \"#utility.yul\":23416:23624   */\n      iszero\n      tag_469\n      jumpi\n        /* \"#utility.yul\":23509:23518   */\n      dup5\n        /* \"#utility.yul\":23504:23507   */\n      dup10\n        /* \"#utility.yul\":23500:23519   */\n      add\n        /* \"#utility.yul\":23494:23520   */\n      mload\n        /* \"#utility.yul\":23486:23492   */\n      dup3\n        /* \"#utility.yul\":23479:23521   */\n      sstore\n        /* \"#utility.yul\":23560:23561   */\n      0x01\n        /* \"#utility.yul\":23552:23558   */\n      dup3\n        /* \"#utility.yul\":23548:23562   */\n      add\n        /* \"#utility.yul\":23538:23562   */\n      swap2\n      pop\n        /* \"#utility.yul\":23607:23609   */\n      0x20\n        /* \"#utility.yul\":23596:23605   */\n      dup6\n        /* \"#utility.yul\":23592:23610   */\n      add\n        /* \"#utility.yul\":23579:23610   */\n      swap5\n      pop\n        /* \"#utility.yul\":23453:23457   */\n      0x20\n        /* \"#utility.yul\":23450:23451   */\n      dup2\n        /* \"#utility.yul\":23446:23458   */\n      add\n        /* \"#utility.yul\":23441:23458   */\n      swap1\n      pop\n        /* \"#utility.yul\":23416:23624   */\n      jump(tag_467)\n    tag_469:\n        /* \"#utility.yul\":23652:23658   */\n      dup7\n        /* \"#utility.yul\":23643:23650   */\n      dup4\n        /* \"#utility.yul\":23640:23659   */\n      lt\n        /* \"#utility.yul\":23637:23816   */\n      iszero\n      tag_470\n      jumpi\n        /* \"#utility.yul\":23710:23719   */\n      dup5\n        /* \"#utility.yul\":23705:23708   */\n      dup10\n        /* \"#utility.yul\":23701:23720   */\n      add\n        /* \"#utility.yul\":23695:23721   */\n      mload\n        /* \"#utility.yul\":23753:23801   */\n      tag_471\n        /* \"#utility.yul\":23795:23799   */\n      0x1f\n        /* \"#utility.yul\":23787:23793   */\n      dup10\n        /* \"#utility.yul\":23783:23800   */\n      and\n        /* \"#utility.yul\":23772:23781   */\n      dup3\n        /* \"#utility.yul\":23753:23801   */\n      tag_227\n      jump\t// in\n    tag_471:\n        /* \"#utility.yul\":23745:23751   */\n      dup4\n        /* \"#utility.yul\":23738:23802   */\n      sstore\n        /* \"#utility.yul\":23660:23816   */\n      pop\n        /* \"#utility.yul\":23637:23816   */\n    tag_470:\n        /* \"#utility.yul\":23862:23863   */\n      0x01\n        /* \"#utility.yul\":23858:23859   */\n      0x02\n        /* \"#utility.yul\":23850:23856   */\n      dup9\n        /* \"#utility.yul\":23846:23860   */\n      mul\n        /* \"#utility.yul\":23842:23864   */\n      add\n        /* \"#utility.yul\":23836:23840   */\n      dup9\n        /* \"#utility.yul\":23829:23865   */\n      sstore\n        /* \"#utility.yul\":23264:23875   */\n      pop\n      pop\n      pop\n        /* \"#utility.yul\":23227:24114   */\n    tag_462:\n      pop\n        /* \"#utility.yul\":22817:24120   */\n      pop\n      pop\n      pop\n        /* \"#utility.yul\":22725:24120   */\n      pop\n      pop\n      jump\t// out\n\n    auxdata: 0xa2646970667358221220eab4fa9d8a0dce05aa20897f4784409d7684e60521cff384f2847238e69e881c64736f6c63430008150033\n}\n",
				"bytecode": {
					"linkReferences": {},
					"object": "60806040525f60055534801562000014575f80fd5b50604051620021fe380380620021fe83398181016040528101906200003a919062000125565b335f806101000a81548173ffffffffffffffffffffffffffffffffffffffff021916908373ffffffffffffffffffffffffffffffffffffffff1602179055508060025f6101000a81548173ffffffffffffffffffffffffffffffffffffffff021916908373ffffffffffffffffffffffffffffffffffffffff1602179055505062000155565b5f80fd5b5f73ffffffffffffffffffffffffffffffffffffffff82169050919050565b5f620000ef82620000c4565b9050919050565b6200010181620000e3565b81146200010c575f80fd5b50565b5f815190506200011f81620000f6565b92915050565b5f602082840312156200013d576200013c620000c0565b5b5f6200014c848285016200010f565b91505092915050565b61209b80620001635f395ff3fe608060405234801561000f575f80fd5b50600436106100f3575f3560e01c80639673e40511610095578063b6cb58a511610064578063b6cb58a514610264578063cbcc57ff14610282578063dc3489cf1461029e578063edd92a3f146102d0576100f3565b80639673e405146101e05780639e088b0b146101fc578063a19c895814610218578063a3748a2e14610248576100f3565b80636115786d116100d15780636115786d1461014d5780637e335de2146101695780638d977672146101875780638da5cb5b146101c2576100f3565b806346cf351e146100f75780634a1aedcf146101135780635f94432614610131575b5f80fd5b610111600480360381019061010c919061140a565b6102ec565b005b61011b610403565b6040516101289190611444565b60405180910390f35b61014b60048036038101906101469190611490565b610428565b005b61016760048036038101906101629190611490565b61061d565b005b610171610841565b60405161017e9190611516565b60405180910390f35b6101a1600480360381019061019c9190611490565b610866565b6040516101b99c9b9a99989796959493929190611570565b60405180910390f35b6101ca610926565b6040516101d79190611444565b60405180910390f35b6101fa60048036038101906101f5919061140a565b610949565b005b6102166004803603810190610211919061140a565b610a19565b005b610232600480360381019061022d9190611490565b610b00565b60405161023f9190611628565b60405180910390f35b610262600480360381019061025d919061140a565b610cc3565b005b61026c610dab565b6040516102799190611628565b60405180910390f35b61029c6004803603810190610297919061166b565b610db1565b005b6102b860048036038101906102b3919061140a565b6110f2565b6040516102c79392919061177e565b60405180910390f35b6102ea60048036038101906102e591906118e6565b6111c9565b005b5f8054906101000a900473ffffffffffffffffffffffffffffffffffffffff1673ffffffffffffffffffffffffffffffffffffffff163373ffffffffffffffffffffffffffffffffffffffff1614610379576040517f08c379a00000000000000000000000000000000000000000000000000000000081526004016103709061198a565b60405180910390fd5b60035f8273ffffffffffffffffffffffffffffffffffffffff1673ffffffffffffffffffffffffffffffffffffffff1681526020019081526020015f205f8082015f6101000a81549073ffffffffffffffffffffffffffffffffffffffff0219169055600182015f6103eb9190611347565b600282015f6101000a81549060ff0219169055505050565b60015f9054906101000a900473ffffffffffffffffffffffffffffffffffffffff1681565b60035f3373ffffffffffffffffffffffffffffffffffffffff1673ffffffffffffffffffffffffffffffffffffffff1681526020019081526020015f206002015f9054906101000a900460ff166104b4576040517f08c379a00000000000000000000000000000000000000000000000000000000081526004016104ab90611a18565b60405180910390fd5b803373ffffffffffffffffffffffffffffffffffffffff1660045f8381526020019081526020015f205f015f9054906101000a900473ffffffffffffffffffffffffffffffffffffffff1673ffffffffffffffffffffffffffffffffffffffff1614610555576040517f08c379a000000000000000000000000000000000000000000000000000000000815260040161054c90611aa6565b60405180910390fd5b5f60045f8481526020019081526020015f2090508060070160019054906101000a900460ff16156105bb576040517f08c379a00000000000000000000000000000000000000000000000000000000081526004016105b290611b0e565b60405180910390fd5b60018160070160016101000a81548160ff0219169083151502179055504281600801819055507fa20ac7f16cfb4313b156d64f380ccd1f8276f438d0b621eb33db07cfc639da47836040516106109190611628565b60405180910390a1505050565b60035f3373ffffffffffffffffffffffffffffffffffffffff1673ffffffffffffffffffffffffffffffffffffffff1681526020019081526020015f206002015f9054906101000a900460ff166106a9576040517f08c379a00000000000000000000000000000000000000000000000000000000081526004016106a090611a18565b60405180910390fd5b803373ffffffffffffffffffffffffffffffffffffffff1660045f8381526020019081526020015f205f015f9054906101000a900473ffffffffffffffffffffffffffffffffffffffff1673ffffffffffffffffffffffffffffffffffffffff161461074a576040517f08c379a000000000000000000000000000000000000000000000000000000000815260040161074190611aa6565b60405180910390fd5b5f60045f8481526020019081526020015f2090508060070160019054906101000a900460ff16801561078b57508060070160029054906101000a900460ff16155b6107ca576040517f08c379a00000000000000000000000000000000000000000000000000000000081526004016107c190611b9c565b60405180910390fd5b60018160070160026101000a81548160ff0219169083151502179055504281600901819055507ff9c405f91e34dcd1dc136cf6992ada4a8c24a2803e0fab7546364c64dac7ba2b83826008015483600901546108269190611be7565b604051610834929190611c1a565b60405180910390a1505050565b60025f9054906101000a900473ffffffffffffffffffffffffffffffffffffffff1681565b6004602052805f5260405f205f91509050805f015f9054906101000a900473ffffffffffffffffffffffffffffffffffffffff1690806001015f9054906101000a900473ffffffffffffffffffffffffffffffffffffffff1690806002015490806003015490806004015490806005015490806006015490806007015f9054906101000a900460ff16908060070160019054906101000a900460ff16908060070160029054906101000a900460ff1690806008015490806009015490508c565b5f8054906101000a900473ffffffffffffffffffffffffffffffffffffffff1681565b5f8054906101000a900473ffffffffffffffffffffffffffffffffffffffff1673ffffffffffffffffffffffffffffffffffffffff163373ffffffffffffffffffffffffffffffffffffffff16146109d6576040517f08c379a00000000000000000000000000000000000000000000000000000000081526004016109cd9061198a565b60405180910390fd5b8060015f6101000a81548173ffffffffffffffffffffffffffffffffffffffff021916908373ffffffffffffffffffffffffffffffffffffffff16021790555050565b5f8054906101000a900473ffffffffffffffffffffffffffffffffffffffff1673ffffffffffffffffffffffffffffffffffffffff163373ffffffffffffffffffffffffffffffffffffffff1614610aa6576040517f08c379a0000000000000000000000000000000000000000000000000000000008152600401610a9d9061198a565b60405180910390fd5b5f60035f8373ffffffffffffffffffffffffffffffffffffffff1673ffffffffffffffffffffffffffffffffffffffff1681526020019081526020015f206002015f6101000a81548160ff02191690831515021790555050565b5f8060045f8481526020019081526020015f20604051806101800160405290815f82015f9054906101000a900473ffffffffffffffffffffffffffffffffffffffff1673ffffffffffffffffffffffffffffffffffffffff1673ffffffffffffffffffffffffffffffffffffffff168152602001600182015f9054906101000a900473ffffffffffffffffffffffffffffffffffffffff1673ffffffffffffffffffffffffffffffffffffffff1673ffffffffffffffffffffffffffffffffffffffff1681526020016002820154815260200160038201548152602001600482015481526020016005820154815260200160068201548152602001600782015f9054906101000a900460ff161515151581526020016007820160019054906101000a900460ff161515151581526020016007820160029054906101000a900460ff16151515158152602001600882015481526020016009820154815250509050806101200151610ca5576040517f08c379a0000000000000000000000000000000000000000000000000000000008152600401610c9c90611c8b565b60405180910390fd5b806101400151816101600151610cbb9190611be7565b915050919050565b5f8054906101000a900473ffffffffffffffffffffffffffffffffffffffff1673ffffffffffffffffffffffffffffffffffffffff163373ffffffffffffffffffffffffffffffffffffffff1614610d50576040517f08c379a0000000000000000000000000000000000000000000000000000000008152600401610d479061198a565b60405180910390fd5b600160035f8373ffffffffffffffffffffffffffffffffffffffff1673ffffffffffffffffffffffffffffffffffffffff1681526020019081526020015f206002015f6101000a81548160ff02191690831515021790555050565b60055481565b60015f9054906101000a900473ffffffffffffffffffffffffffffffffffffffff1673ffffffffffffffffffffffffffffffffffffffff163373ffffffffffffffffffffffffffffffffffffffff1614610e40576040517f08c379a0000000000000000000000000000000000000000000000000000000008152600401610e3790611d19565b60405180910390fd5b6040518061018001604052803373ffffffffffffffffffffffffffffffffffffffff1681526020018773ffffffffffffffffffffffffffffffffffffffff1681526020018681526020018581526020018481526020018381526020018281526020015f151581526020015f151581526020015f151581526020015f81526020015f81525060045f60055481526020019081526020015f205f820151815f015f6101000a81548173ffffffffffffffffffffffffffffffffffffffff021916908373ffffffffffffffffffffffffffffffffffffffff1602179055506020820151816001015f6101000a81548173ffffffffffffffffffffffffffffffffffffffff021916908373ffffffffffffffffffffffffffffffffffffffff16021790555060408201518160020155606082015181600301556080820151816004015560a0820151816005015560c0820151816006015560e0820151816007015f6101000a81548160ff0219169083151502179055506101008201518160070160016101000a81548160ff0219169083151502179055506101208201518160070160026101000a81548160ff0219169083151502179055506101408201518160080155610160820151816009015590505060025f9054906101000a900473ffffffffffffffffffffffffffffffffffffffff1673ffffffffffffffffffffffffffffffffffffffff16631d834a1b600554836040518363ffffffff1660e01b815260040161106b929190611c1a565b5f604051808303815f87803b158015611082575f80fd5b505af1158015611094573d5f803e3d5ffd5b505050507f52476d55ecef5cf13caa64038f297fe6bbf865d9584a98b8722a15a6d5db128f600554336040516110cb929190611d37565b60405180910390a160055f8154809291906110e590611d5e565b9190505550505050505050565b6003602052805f5260405f205f91509050805f015f9054906101000a900473ffffffffffffffffffffffffffffffffffffffff169080600101805461113690611dd2565b80601f016020809104026020016040519081016040528092919081815260200182805461116290611dd2565b80156111ad5780601f10611184576101008083540402835291602001916111ad565b820191905f5260205f20905b81548152906001019060200180831161119057829003601f168201915b505050505090806002015f9054906101000a900460ff16905083565b5f8054906101000a900473ffffffffffffffffffffffffffffffffffffffff1673ffffffffffffffffffffffffffffffffffffffff163373ffffffffffffffffffffffffffffffffffffffff1614611256576040517f08c379a000000000000000000000000000000000000000000000000000000000815260040161124d9061198a565b60405180910390fd5b60405180606001604052808373ffffffffffffffffffffffffffffffffffffffff1681526020018281526020016001151581525060035f8473ffffffffffffffffffffffffffffffffffffffff1673ffffffffffffffffffffffffffffffffffffffff1681526020019081526020015f205f820151815f015f6101000a81548173ffffffffffffffffffffffffffffffffffffffff021916908373ffffffffffffffffffffffffffffffffffffffff16021790555060208201518160010190816113209190611f96565b506040820151816002015f6101000a81548160ff0219169083151502179055509050505050565b50805461135390611dd2565b5f825580601f106113645750611381565b601f0160209004905f5260205f20908101906113809190611384565b5b50565b5b8082111561139b575f815f905550600101611385565b5090565b5f604051905090565b5f80fd5b5f80fd5b5f73ffffffffffffffffffffffffffffffffffffffff82169050919050565b5f6113d9826113b0565b9050919050565b6113e9816113cf565b81146113f3575f80fd5b50565b5f81359050611404816113e0565b92915050565b5f6020828403121561141f5761141e6113a8565b5b5f61142c848285016113f6565b91505092915050565b61143e816113cf565b82525050565b5f6020820190506114575f830184611435565b92915050565b5f819050919050565b61146f8161145d565b8114611479575f80fd5b50565b5f8135905061148a81611466565b92915050565b5f602082840312156114a5576114a46113a8565b5b5f6114b28482850161147c565b91505092915050565b5f819050919050565b5f6114de6114d96114d4846113b0565b6114bb565b6113b0565b9050919050565b5f6114ef826114c4565b9050919050565b5f611500826114e5565b9050919050565b611510816114f6565b82525050565b5f6020820190506115295f830184611507565b92915050565b5f819050919050565b6115418161152f565b82525050565b6115508161145d565b82525050565b5f8115159050919050565b61156a81611556565b82525050565b5f610180820190506115845f83018f611435565b611591602083018e611435565b61159e604083018d611538565b6115ab606083018c611547565b6115b8608083018b611547565b6115c560a083018a611547565b6115d260c0830189611547565b6115df60e0830188611561565b6115ed610100830187611561565b6115fb610120830186611561565b611609610140830185611547565b611617610160830184611547565b9d9c50505050505050505050505050565b5f60208201905061163b5f830184611547565b92915050565b61164a8161152f565b8114611654575f80fd5b50565b5f8135905061166581611641565b92915050565b5f805f805f8060c08789031215611685576116846113a8565b5b5f61169289828a016113f6565b96505060206116a389828a01611657565b95505060406116b489828a0161147c565b94505060606116c589828a0161147c565b93505060806116d689828a0161147c565b92505060a06116e789828a0161147c565b9150509295509295509295565b5f81519050919050565b5f82825260208201905092915050565b5f5b8381101561172b578082015181840152602081019050611710565b5f8484015250505050565b5f601f19601f8301169050919050565b5f611750826116f4565b61175a81856116fe565b935061176a81856020860161170e565b61177381611736565b840191505092915050565b5f6060820190506117915f830186611435565b81810360208301526117a38185611746565b90506117b26040830184611561565b949350505050565b5f80fd5b5f80fd5b7f4e487b71000000000000000000000000000000000000000000000000000000005f52604160045260245ffd5b6117f882611736565b810181811067ffffffffffffffff82111715611817576118166117c2565b5b80604052505050565b5f61182961139f565b905061183582826117ef565b919050565b5f67ffffffffffffffff821115611854576118536117c2565b5b61185d82611736565b9050602081019050919050565b828183375f83830152505050565b5f61188a6118858461183a565b611820565b9050828152602081018484840111156118a6576118a56117be565b5b6118b184828561186a565b509392505050565b5f82601f8301126118cd576118cc6117ba565b5b81356118dd848260208601611878565b91505092915050565b5f80604083850312156118fc576118fb6113a8565b5b5f611909858286016113f6565b925050602083013567ffffffffffffffff81111561192a576119296113ac565b5b611936858286016118b9565b9150509250929050565b7f4f6e6c7920746865206f776e65722063616e20657865637574652074686973005f82015250565b5f611974601f836116fe565b915061197f82611940565b602082019050919050565b5f6020820190508181035f8301526119a181611968565b9050919050565b7f4f6e6c7920616374697665206361726574616b6572732061726520616c6c6f775f8201527f6564000000000000000000000000000000000000000000000000000000000000602082015250565b5f611a026022836116fe565b9150611a0d826119a8565b604082019050919050565b5f6020820190508181035f830152611a2f816119f6565b9050919050565b7f4e6f74207468652061737369676e6564206361726574616b657220666f7220745f8201527f686973207461736b000000000000000000000000000000000000000000000000602082015250565b5f611a906028836116fe565b9150611a9b82611a36565b604082019050919050565b5f6020820190508181035f830152611abd81611a84565b9050919050565b7f5461736b20616c726561647920737461727465640000000000000000000000005f82015250565b5f611af86014836116fe565b9150611b0382611ac4565b602082019050919050565b5f6020820190508181035f830152611b2581611aec565b9050919050565b7f5461736b206e6f742073746172746564206f7220616c726561647920636f6d705f8201527f6c65746564000000000000000000000000000000000000000000000000000000602082015250565b5f611b866025836116fe565b9150611b9182611b2c565b604082019050919050565b5f6020820190508181035f830152611bb381611b7a565b9050919050565b7f4e487b71000000000000000000000000000000000000000000000000000000005f52601160045260245ffd5b5f611bf18261145d565b9150611bfc8361145d565b9250828203905081811115611c1457611c13611bba565b5b92915050565b5f604082019050611c2d5f830185611547565b611c3a6020830184611547565b9392505050565b7f5461736b206e6f7420636f6d706c6574656400000000000000000000000000005f82015250565b5f611c756012836116fe565b9150611c8082611c41565b602082019050919050565b5f6020820190508181035f830152611ca281611c69565b9050919050565b7f4f6e6c79204d65646963616c2053746166662063616e206578656375746520745f8201527f6869730000000000000000000000000000000000000000000000000000000000602082015250565b5f611d036023836116fe565b9150611d0e82611ca9565b604082019050919050565b5f6020820190508181035f830152611d3081611cf7565b9050919050565b5f604082019050611d4a5f830185611547565b611d576020830184611435565b9392505050565b5f611d688261145d565b91507fffffffffffffffffffffffffffffffffffffffffffffffffffffffffffffffff8203611d9a57611d99611bba565b5b600182019050919050565b7f4e487b71000000000000000000000000000000000000000000000000000000005f52602260045260245ffd5b5f6002820490506001821680611de957607f821691505b602082108103611dfc57611dfb611da5565b5b50919050565b5f819050815f5260205f209050919050565b5f6020601f8301049050919050565b5f82821b905092915050565b5f60088302611e5e7fffffffffffffffffffffffffffffffffffffffffffffffffffffffffffffffff82611e23565b611e688683611e23565b95508019841693508086168417925050509392505050565b5f611e9a611e95611e908461145d565b6114bb565b61145d565b9050919050565b5f819050919050565b611eb383611e80565b611ec7611ebf82611ea1565b848454611e2f565b825550505050565b5f90565b611edb611ecf565b611ee6818484611eaa565b505050565b5b81811015611f0957611efe5f82611ed3565b600181019050611eec565b5050565b601f821115611f4e57611f1f81611e02565b611f2884611e14565b81016020851015611f37578190505b611f4b611f4385611e14565b830182611eeb565b50505b505050565b5f82821c905092915050565b5f611f6e5f1984600802611f53565b1980831691505092915050565b5f611f868383611f5f565b9150826002028217905092915050565b611f9f826116f4565b67ffffffffffffffff811115611fb857611fb76117c2565b5b611fc28254611dd2565b611fcd828285611f0d565b5f60209050601f831160018114611ffe575f8415611fec578287015190505b611ff68582611f7b565b86555061205d565b601f19841661200c86611e02565b5f5b828110156120335784890151825560018201915060208501945060208101905061200e565b86831015612050578489015161204c601f891682611f5f565b8355505b6001600288020188555050505b50505050505056fea2646970667358221220eab4fa9d8a0dce05aa20897f4784409d7684e60521cff384f2847238e69e881c64736f6c63430008150033",
					"opcodes": "PUSH1 0x80 PUSH1 0x40 MSTORE PUSH0 PUSH1 0x5 SSTORE CALLVALUE DUP1 ISZERO PUSH3 0x14 JUMPI PUSH0 DUP1 REVERT JUMPDEST POP PUSH1 0x40 MLOAD PUSH3 0x21FE CODESIZE SUB DUP1 PUSH3 0x21FE DUP4 CODECOPY DUP2 DUP2 ADD PUSH1 0x40 MSTORE DUP2 ADD SWAP1 PUSH3 0x3A SWAP2 SWAP1 PUSH3 0x125 JUMP JUMPDEST CALLER PUSH0 DUP1 PUSH2 0x100 EXP DUP2 SLOAD DUP2 PUSH20 0xFFFFFFFFFFFFFFFFFFFFFFFFFFFFFFFFFFFFFFFF MUL NOT AND SWAP1 DUP4 PUSH20 0xFFFFFFFFFFFFFFFFFFFFFFFFFFFFFFFFFFFFFFFF AND MUL OR SWAP1 SSTORE POP DUP1 PUSH1 0x2 PUSH0 PUSH2 0x100 EXP DUP2 SLOAD DUP2 PUSH20 0xFFFFFFFFFFFFFFFFFFFFFFFFFFFFFFFFFFFFFFFF MUL NOT AND SWAP1 DUP4 PUSH20 0xFFFFFFFFFFFFFFFFFFFFFFFFFFFFFFFFFFFFFFFF AND MUL OR SWAP1 SSTORE POP POP PUSH3 0x155 JUMP JUMPDEST PUSH0 DUP1 REVERT JUMPDEST PUSH0 PUSH20 0xFFFFFFFFFFFFFFFFFFFFFFFFFFFFFFFFFFFFFFFF DUP3 AND SWAP1 POP SWAP2 SWAP1 POP JUMP JUMPDEST PUSH0 PUSH3 0xEF DUP3 PUSH3 0xC4 JUMP JUMPDEST SWAP1 POP SWAP2 SWAP1 POP JUMP JUMPDEST PUSH3 0x101 DUP2 PUSH3 0xE3 JUMP JUMPDEST DUP2 EQ PUSH3 0x10C JUMPI PUSH0 DUP1 REVERT JUMPDEST POP JUMP JUMPDEST PUSH0 DUP2 MLOAD SWAP1 POP PUSH3 0x11F DUP2 PUSH3 0xF6 JUMP JUMPDEST SWAP3 SWAP2 POP POP JUMP JUMPDEST PUSH0 PUSH1 0x20 DUP3 DUP5 SUB SLT ISZERO PUSH3 0x13D JUMPI PUSH3 0x13C PUSH3 0xC0 JUMP JUMPDEST JUMPDEST PUSH0 PUSH3 0x14C DUP5 DUP3 DUP6 ADD PUSH3 0x10F JUMP JUMPDEST SWAP2 POP POP SWAP3 SWAP2 POP POP JUMP JUMPDEST PUSH2 0x209B DUP1 PUSH3 0x163 PUSH0 CODECOPY PUSH0 RETURN INVALID PUSH1 0x80 PUSH1 0x40 MSTORE CALLVALUE DUP1 ISZERO PUSH2 0xF JUMPI PUSH0 DUP1 REVERT JUMPDEST POP PUSH1 0x4 CALLDATASIZE LT PUSH2 0xF3 JUMPI PUSH0 CALLDATALOAD PUSH1 0xE0 SHR DUP1 PUSH4 0x9673E405 GT PUSH2 0x95 JUMPI DUP1 PUSH4 0xB6CB58A5 GT PUSH2 0x64 JUMPI DUP1 PUSH4 0xB6CB58A5 EQ PUSH2 0x264 JUMPI DUP1 PUSH4 0xCBCC57FF EQ PUSH2 0x282 JUMPI DUP1 PUSH4 0xDC3489CF EQ PUSH2 0x29E JUMPI DUP1 PUSH4 0xEDD92A3F EQ PUSH2 0x2D0 JUMPI PUSH2 0xF3 JUMP JUMPDEST DUP1 PUSH4 0x9673E405 EQ PUSH2 0x1E0 JUMPI DUP1 PUSH4 0x9E088B0B EQ PUSH2 0x1FC JUMPI DUP1 PUSH4 0xA19C8958 EQ PUSH2 0x218 JUMPI DUP1 PUSH4 0xA3748A2E EQ PUSH2 0x248 JUMPI PUSH2 0xF3 JUMP JUMPDEST DUP1 PUSH4 0x6115786D GT PUSH2 0xD1 JUMPI DUP1 PUSH4 0x6115786D EQ PUSH2 0x14D JUMPI DUP1 PUSH4 0x7E335DE2 EQ PUSH2 0x169 JUMPI DUP1 PUSH4 0x8D977672 EQ PUSH2 0x187 JUMPI DUP1 PUSH4 0x8DA5CB5B EQ PUSH2 0x1C2 JUMPI PUSH2 0xF3 JUMP JUMPDEST DUP1 PUSH4 0x46CF351E EQ PUSH2 0xF7 JUMPI DUP1 PUSH4 0x4A1AEDCF EQ PUSH2 0x113 JUMPI DUP1 PUSH4 0x5F944326 EQ PUSH2 0x131 JUMPI JUMPDEST PUSH0 DUP1 REVERT JUMPDEST PUSH2 0x111 PUSH1 0x4 DUP1 CALLDATASIZE SUB DUP2 ADD SWAP1 PUSH2 0x10C SWAP2 SWAP1 PUSH2 0x140A JUMP JUMPDEST PUSH2 0x2EC JUMP JUMPDEST STOP JUMPDEST PUSH2 0x11B PUSH2 0x403 JUMP JUMPDEST PUSH1 0x40 MLOAD PUSH2 0x128 SWAP2 SWAP1 PUSH2 0x1444 JUMP JUMPDEST PUSH1 0x40 MLOAD DUP1 SWAP2 SUB SWAP1 RETURN JUMPDEST PUSH2 0x14B PUSH1 0x4 DUP1 CALLDATASIZE SUB DUP2 ADD SWAP1 PUSH2 0x146 SWAP2 SWAP1 PUSH2 0x1490 JUMP JUMPDEST PUSH2 0x428 JUMP JUMPDEST STOP JUMPDEST PUSH2 0x167 PUSH1 0x4 DUP1 CALLDATASIZE SUB DUP2 ADD SWAP1 PUSH2 0x162 SWAP2 SWAP1 PUSH2 0x1490 JUMP JUMPDEST PUSH2 0x61D JUMP JUMPDEST STOP JUMPDEST PUSH2 0x171 PUSH2 0x841 JUMP JUMPDEST PUSH1 0x40 MLOAD PUSH2 0x17E SWAP2 SWAP1 PUSH2 0x1516 JUMP JUMPDEST PUSH1 0x40 MLOAD DUP1 SWAP2 SUB SWAP1 RETURN JUMPDEST PUSH2 0x1A1 PUSH1 0x4 DUP1 CALLDATASIZE SUB DUP2 ADD SWAP1 PUSH2 0x19C SWAP2 SWAP1 PUSH2 0x1490 JUMP JUMPDEST PUSH2 0x866 JUMP JUMPDEST PUSH1 0x40 MLOAD PUSH2 0x1B9 SWAP13 SWAP12 SWAP11 SWAP10 SWAP9 SWAP8 SWAP7 SWAP6 SWAP5 SWAP4 SWAP3 SWAP2 SWAP1 PUSH2 0x1570 JUMP JUMPDEST PUSH1 0x40 MLOAD DUP1 SWAP2 SUB SWAP1 RETURN JUMPDEST PUSH2 0x1CA PUSH2 0x926 JUMP JUMPDEST PUSH1 0x40 MLOAD PUSH2 0x1D7 SWAP2 SWAP1 PUSH2 0x1444 JUMP JUMPDEST PUSH1 0x40 MLOAD DUP1 SWAP2 SUB SWAP1 RETURN JUMPDEST PUSH2 0x1FA PUSH1 0x4 DUP1 CALLDATASIZE SUB DUP2 ADD SWAP1 PUSH2 0x1F5 SWAP2 SWAP1 PUSH2 0x140A JUMP JUMPDEST PUSH2 0x949 JUMP JUMPDEST STOP JUMPDEST PUSH2 0x216 PUSH1 0x4 DUP1 CALLDATASIZE SUB DUP2 ADD SWAP1 PUSH2 0x211 SWAP2 SWAP1 PUSH2 0x140A JUMP JUMPDEST PUSH2 0xA19 JUMP JUMPDEST STOP JUMPDEST PUSH2 0x232 PUSH1 0x4 DUP1 CALLDATASIZE SUB DUP2 ADD SWAP1 PUSH2 0x22D SWAP2 SWAP1 PUSH2 0x1490 JUMP JUMPDEST PUSH2 0xB00 JUMP JUMPDEST PUSH1 0x40 MLOAD PUSH2 0x23F SWAP2 SWAP1 PUSH2 0x1628 JUMP JUMPDEST PUSH1 0x40 MLOAD DUP1 SWAP2 SUB SWAP1 RETURN JUMPDEST PUSH2 0x262 PUSH1 0x4 DUP1 CALLDATASIZE SUB DUP2 ADD SWAP1 PUSH2 0x25D SWAP2 SWAP1 PUSH2 0x140A JUMP JUMPDEST PUSH2 0xCC3 JUMP JUMPDEST STOP JUMPDEST PUSH2 0x26C PUSH2 0xDAB JUMP JUMPDEST PUSH1 0x40 MLOAD PUSH2 0x279 SWAP2 SWAP1 PUSH2 0x1628 JUMP JUMPDEST PUSH1 0x40 MLOAD DUP1 SWAP2 SUB SWAP1 RETURN JUMPDEST PUSH2 0x29C PUSH1 0x4 DUP1 CALLDATASIZE SUB DUP2 ADD SWAP1 PUSH2 0x297 SWAP2 SWAP1 PUSH2 0x166B JUMP JUMPDEST PUSH2 0xDB1 JUMP JUMPDEST STOP JUMPDEST PUSH2 0x2B8 PUSH1 0x4 DUP1 CALLDATASIZE SUB DUP2 ADD SWAP1 PUSH2 0x2B3 SWAP2 SWAP1 PUSH2 0x140A JUMP JUMPDEST PUSH2 0x10F2 JUMP JUMPDEST PUSH1 0x40 MLOAD PUSH2 0x2C7 SWAP4 SWAP3 SWAP2 SWAP1 PUSH2 0x177E JUMP JUMPDEST PUSH1 0x40 MLOAD DUP1 SWAP2 SUB SWAP1 RETURN JUMPDEST PUSH2 0x2EA PUSH1 0x4 DUP1 CALLDATASIZE SUB DUP2 ADD SWAP1 PUSH2 0x2E5 SWAP2 SWAP1 PUSH2 0x18E6 JUMP JUMPDEST PUSH2 0x11C9 JUMP JUMPDEST STOP JUMPDEST PUSH0 DUP1 SLOAD SWAP1 PUSH2 0x100 EXP SWAP1 DIV PUSH20 0xFFFFFFFFFFFFFFFFFFFFFFFFFFFFFFFFFFFFFFFF AND PUSH20 0xFFFFFFFFFFFFFFFFFFFFFFFFFFFFFFFFFFFFFFFF AND CALLER PUSH20 0xFFFFFFFFFFFFFFFFFFFFFFFFFFFFFFFFFFFFFFFF AND EQ PUSH2 0x379 JUMPI PUSH1 0x40 MLOAD PUSH32 0x8C379A000000000000000000000000000000000000000000000000000000000 DUP2 MSTORE PUSH1 0x4 ADD PUSH2 0x370 SWAP1 PUSH2 0x198A JUMP JUMPDEST PUSH1 0x40 MLOAD DUP1 SWAP2 SUB SWAP1 REVERT JUMPDEST PUSH1 0x3 PUSH0 DUP3 PUSH20 0xFFFFFFFFFFFFFFFFFFFFFFFFFFFFFFFFFFFFFFFF AND PUSH20 0xFFFFFFFFFFFFFFFFFFFFFFFFFFFFFFFFFFFFFFFF AND DUP2 MSTORE PUSH1 0x20 ADD SWAP1 DUP2 MSTORE PUSH1 0x20 ADD PUSH0 KECCAK256 PUSH0 DUP1 DUP3 ADD PUSH0 PUSH2 0x100 EXP DUP2 SLOAD SWAP1 PUSH20 0xFFFFFFFFFFFFFFFFFFFFFFFFFFFFFFFFFFFFFFFF MUL NOT AND SWAP1 SSTORE PUSH1 0x1 DUP3 ADD PUSH0 PUSH2 0x3EB SWAP2 SWAP1 PUSH2 0x1347 JUMP JUMPDEST PUSH1 0x2 DUP3 ADD PUSH0 PUSH2 0x100 EXP DUP2 SLOAD SWAP1 PUSH1 0xFF MUL NOT AND SWAP1 SSTORE POP POP POP JUMP JUMPDEST PUSH1 0x1 PUSH0 SWAP1 SLOAD SWAP1 PUSH2 0x100 EXP SWAP1 DIV PUSH20 0xFFFFFFFFFFFFFFFFFFFFFFFFFFFFFFFFFFFFFFFF AND DUP2 JUMP JUMPDEST PUSH1 0x3 PUSH0 CALLER PUSH20 0xFFFFFFFFFFFFFFFFFFFFFFFFFFFFFFFFFFFFFFFF AND PUSH20 0xFFFFFFFFFFFFFFFFFFFFFFFFFFFFFFFFFFFFFFFF AND DUP2 MSTORE PUSH1 0x20 ADD SWAP1 DUP2 MSTORE PUSH1 0x20 ADD PUSH0 KECCAK256 PUSH1 0x2 ADD PUSH0 SWAP1 SLOAD SWAP1 PUSH2 0x100 EXP SWAP1 DIV PUSH1 0xFF AND PUSH2 0x4B4 JUMPI PUSH1 0x40 MLOAD PUSH32 0x8C379A000000000000000000000000000000000000000000000000000000000 DUP2 MSTORE PUSH1 0x4 ADD PUSH2 0x4AB SWAP1 PUSH2 0x1A18 JUMP JUMPDEST PUSH1 0x40 MLOAD DUP1 SWAP2 SUB SWAP1 REVERT JUMPDEST DUP1 CALLER PUSH20 0xFFFFFFFFFFFFFFFFFFFFFFFFFFFFFFFFFFFFFFFF AND PUSH1 0x4 PUSH0 DUP4 DUP2 MSTORE PUSH1 0x20 ADD SWAP1 DUP2 MSTORE PUSH1 0x20 ADD PUSH0 KECCAK256 PUSH0 ADD PUSH0 SWAP1 SLOAD SWAP1 PUSH2 0x100 EXP SWAP1 DIV PUSH20 0xFFFFFFFFFFFFFFFFFFFFFFFFFFFFFFFFFFFFFFFF AND PUSH20 0xFFFFFFFFFFFFFFFFFFFFFFFFFFFFFFFFFFFFFFFF AND EQ PUSH2 0x555 JUMPI PUSH1 0x40 MLOAD PUSH32 0x8C379A000000000000000000000000000000000000000000000000000000000 DUP2 MSTORE PUSH1 0x4 ADD PUSH2 0x54C SWAP1 PUSH2 0x1AA6 JUMP JUMPDEST PUSH1 0x40 MLOAD DUP1 SWAP2 SUB SWAP1 REVERT JUMPDEST PUSH0 PUSH1 0x4 PUSH0 DUP5 DUP2 MSTORE PUSH1 0x20 ADD SWAP1 DUP2 MSTORE PUSH1 0x20 ADD PUSH0 KECCAK256 SWAP1 POP DUP1 PUSH1 0x7 ADD PUSH1 0x1 SWAP1 SLOAD SWAP1 PUSH2 0x100 EXP SWAP1 DIV PUSH1 0xFF AND ISZERO PUSH2 0x5BB JUMPI PUSH1 0x40 MLOAD PUSH32 0x8C379A000000000000000000000000000000000000000000000000000000000 DUP2 MSTORE PUSH1 0x4 ADD PUSH2 0x5B2 SWAP1 PUSH2 0x1B0E JUMP JUMPDEST PUSH1 0x40 MLOAD DUP1 SWAP2 SUB SWAP1 REVERT JUMPDEST PUSH1 0x1 DUP2 PUSH1 0x7 ADD PUSH1 0x1 PUSH2 0x100 EXP DUP2 SLOAD DUP2 PUSH1 0xFF MUL NOT AND SWAP1 DUP4 ISZERO ISZERO MUL OR SWAP1 SSTORE POP TIMESTAMP DUP2 PUSH1 0x8 ADD DUP2 SWAP1 SSTORE POP PUSH32 0xA20AC7F16CFB4313B156D64F380CCD1F8276F438D0B621EB33DB07CFC639DA47 DUP4 PUSH1 0x40 MLOAD PUSH2 0x610 SWAP2 SWAP1 PUSH2 0x1628 JUMP JUMPDEST PUSH1 0x40 MLOAD DUP1 SWAP2 SUB SWAP1 LOG1 POP POP POP JUMP JUMPDEST PUSH1 0x3 PUSH0 CALLER PUSH20 0xFFFFFFFFFFFFFFFFFFFFFFFFFFFFFFFFFFFFFFFF AND PUSH20 0xFFFFFFFFFFFFFFFFFFFFFFFFFFFFFFFFFFFFFFFF AND DUP2 MSTORE PUSH1 0x20 ADD SWAP1 DUP2 MSTORE PUSH1 0x20 ADD PUSH0 KECCAK256 PUSH1 0x2 ADD PUSH0 SWAP1 SLOAD SWAP1 PUSH2 0x100 EXP SWAP1 DIV PUSH1 0xFF AND PUSH2 0x6A9 JUMPI PUSH1 0x40 MLOAD PUSH32 0x8C379A000000000000000000000000000000000000000000000000000000000 DUP2 MSTORE PUSH1 0x4 ADD PUSH2 0x6A0 SWAP1 PUSH2 0x1A18 JUMP JUMPDEST PUSH1 0x40 MLOAD DUP1 SWAP2 SUB SWAP1 REVERT JUMPDEST DUP1 CALLER PUSH20 0xFFFFFFFFFFFFFFFFFFFFFFFFFFFFFFFFFFFFFFFF AND PUSH1 0x4 PUSH0 DUP4 DUP2 MSTORE PUSH1 0x20 ADD SWAP1 DUP2 MSTORE PUSH1 0x20 ADD PUSH0 KECCAK256 PUSH0 ADD PUSH0 SWAP1 SLOAD SWAP1 PUSH2 0x100 EXP SWAP1 DIV PUSH20 0xFFFFFFFFFFFFFFFFFFFFFFFFFFFFFFFFFFFFFFFF AND PUSH20 0xFFFFFFFFFFFFFFFFFFFFFFFFFFFFFFFFFFFFFFFF AND EQ PUSH2 0x74A JUMPI PUSH1 0x40 MLOAD PUSH32 0x8C379A000000000000000000000000000000000000000000000000000000000 DUP2 MSTORE PUSH1 0x4 ADD PUSH2 0x741 SWAP1 PUSH2 0x1AA6 JUMP JUMPDEST PUSH1 0x40 MLOAD DUP1 SWAP2 SUB SWAP1 REVERT JUMPDEST PUSH0 PUSH1 0x4 PUSH0 DUP5 DUP2 MSTORE PUSH1 0x20 ADD SWAP1 DUP2 MSTORE PUSH1 0x20 ADD PUSH0 KECCAK256 SWAP1 POP DUP1 PUSH1 0x7 ADD PUSH1 0x1 SWAP1 SLOAD SWAP1 PUSH2 0x100 EXP SWAP1 DIV PUSH1 0xFF AND DUP1 ISZERO PUSH2 0x78B JUMPI POP DUP1 PUSH1 0x7 ADD PUSH1 0x2 SWAP1 SLOAD SWAP1 PUSH2 0x100 EXP SWAP1 DIV PUSH1 0xFF AND ISZERO JUMPDEST PUSH2 0x7CA JUMPI PUSH1 0x40 MLOAD PUSH32 0x8C379A000000000000000000000000000000000000000000000000000000000 DUP2 MSTORE PUSH1 0x4 ADD PUSH2 0x7C1 SWAP1 PUSH2 0x1B9C JUMP JUMPDEST PUSH1 0x40 MLOAD DUP1 SWAP2 SUB SWAP1 REVERT JUMPDEST PUSH1 0x1 DUP2 PUSH1 0x7 ADD PUSH1 0x2 PUSH2 0x100 EXP DUP2 SLOAD DUP2 PUSH1 0xFF MUL NOT AND SWAP1 DUP4 ISZERO ISZERO MUL OR SWAP1 SSTORE POP TIMESTAMP DUP2 PUSH1 0x9 ADD DUP2 SWAP1 SSTORE POP PUSH32 0xF9C405F91E34DCD1DC136CF6992ADA4A8C24A2803E0FAB7546364C64DAC7BA2B DUP4 DUP3 PUSH1 0x8 ADD SLOAD DUP4 PUSH1 0x9 ADD SLOAD PUSH2 0x826 SWAP2 SWAP1 PUSH2 0x1BE7 JUMP JUMPDEST PUSH1 0x40 MLOAD PUSH2 0x834 SWAP3 SWAP2 SWAP1 PUSH2 0x1C1A JUMP JUMPDEST PUSH1 0x40 MLOAD DUP1 SWAP2 SUB SWAP1 LOG1 POP POP POP JUMP JUMPDEST PUSH1 0x2 PUSH0 SWAP1 SLOAD SWAP1 PUSH2 0x100 EXP SWAP1 DIV PUSH20 0xFFFFFFFFFFFFFFFFFFFFFFFFFFFFFFFFFFFFFFFF AND DUP2 JUMP JUMPDEST PUSH1 0x4 PUSH1 0x20 MSTORE DUP1 PUSH0 MSTORE PUSH1 0x40 PUSH0 KECCAK256 PUSH0 SWAP2 POP SWAP1 POP DUP1 PUSH0 ADD PUSH0 SWAP1 SLOAD SWAP1 PUSH2 0x100 EXP SWAP1 DIV PUSH20 0xFFFFFFFFFFFFFFFFFFFFFFFFFFFFFFFFFFFFFFFF AND SWAP1 DUP1 PUSH1 0x1 ADD PUSH0 SWAP1 SLOAD SWAP1 PUSH2 0x100 EXP SWAP1 DIV PUSH20 0xFFFFFFFFFFFFFFFFFFFFFFFFFFFFFFFFFFFFFFFF AND SWAP1 DUP1 PUSH1 0x2 ADD SLOAD SWAP1 DUP1 PUSH1 0x3 ADD SLOAD SWAP1 DUP1 PUSH1 0x4 ADD SLOAD SWAP1 DUP1 PUSH1 0x5 ADD SLOAD SWAP1 DUP1 PUSH1 0x6 ADD SLOAD SWAP1 DUP1 PUSH1 0x7 ADD PUSH0 SWAP1 SLOAD SWAP1 PUSH2 0x100 EXP SWAP1 DIV PUSH1 0xFF AND SWAP1 DUP1 PUSH1 0x7 ADD PUSH1 0x1 SWAP1 SLOAD SWAP1 PUSH2 0x100 EXP SWAP1 DIV PUSH1 0xFF AND SWAP1 DUP1 PUSH1 0x7 ADD PUSH1 0x2 SWAP1 SLOAD SWAP1 PUSH2 0x100 EXP SWAP1 DIV PUSH1 0xFF AND SWAP1 DUP1 PUSH1 0x8 ADD SLOAD SWAP1 DUP1 PUSH1 0x9 ADD SLOAD SWAP1 POP DUP13 JUMP JUMPDEST PUSH0 DUP1 SLOAD SWAP1 PUSH2 0x100 EXP SWAP1 DIV PUSH20 0xFFFFFFFFFFFFFFFFFFFFFFFFFFFFFFFFFFFFFFFF AND DUP2 JUMP JUMPDEST PUSH0 DUP1 SLOAD SWAP1 PUSH2 0x100 EXP SWAP1 DIV PUSH20 0xFFFFFFFFFFFFFFFFFFFFFFFFFFFFFFFFFFFFFFFF AND PUSH20 0xFFFFFFFFFFFFFFFFFFFFFFFFFFFFFFFFFFFFFFFF AND CALLER PUSH20 0xFFFFFFFFFFFFFFFFFFFFFFFFFFFFFFFFFFFFFFFF AND EQ PUSH2 0x9D6 JUMPI PUSH1 0x40 MLOAD PUSH32 0x8C379A000000000000000000000000000000000000000000000000000000000 DUP2 MSTORE PUSH1 0x4 ADD PUSH2 0x9CD SWAP1 PUSH2 0x198A JUMP JUMPDEST PUSH1 0x40 MLOAD DUP1 SWAP2 SUB SWAP1 REVERT JUMPDEST DUP1 PUSH1 0x1 PUSH0 PUSH2 0x100 EXP DUP2 SLOAD DUP2 PUSH20 0xFFFFFFFFFFFFFFFFFFFFFFFFFFFFFFFFFFFFFFFF MUL NOT AND SWAP1 DUP4 PUSH20 0xFFFFFFFFFFFFFFFFFFFFFFFFFFFFFFFFFFFFFFFF AND MUL OR SWAP1 SSTORE POP POP JUMP JUMPDEST PUSH0 DUP1 SLOAD SWAP1 PUSH2 0x100 EXP SWAP1 DIV PUSH20 0xFFFFFFFFFFFFFFFFFFFFFFFFFFFFFFFFFFFFFFFF AND PUSH20 0xFFFFFFFFFFFFFFFFFFFFFFFFFFFFFFFFFFFFFFFF AND CALLER PUSH20 0xFFFFFFFFFFFFFFFFFFFFFFFFFFFFFFFFFFFFFFFF AND EQ PUSH2 0xAA6 JUMPI PUSH1 0x40 MLOAD PUSH32 0x8C379A000000000000000000000000000000000000000000000000000000000 DUP2 MSTORE PUSH1 0x4 ADD PUSH2 0xA9D SWAP1 PUSH2 0x198A JUMP JUMPDEST PUSH1 0x40 MLOAD DUP1 SWAP2 SUB SWAP1 REVERT JUMPDEST PUSH0 PUSH1 0x3 PUSH0 DUP4 PUSH20 0xFFFFFFFFFFFFFFFFFFFFFFFFFFFFFFFFFFFFFFFF AND PUSH20 0xFFFFFFFFFFFFFFFFFFFFFFFFFFFFFFFFFFFFFFFF AND DUP2 MSTORE PUSH1 0x20 ADD SWAP1 DUP2 MSTORE PUSH1 0x20 ADD PUSH0 KECCAK256 PUSH1 0x2 ADD PUSH0 PUSH2 0x100 EXP DUP2 SLOAD DUP2 PUSH1 0xFF MUL NOT AND SWAP1 DUP4 ISZERO ISZERO MUL OR SWAP1 SSTORE POP POP JUMP JUMPDEST PUSH0 DUP1 PUSH1 0x4 PUSH0 DUP5 DUP2 MSTORE PUSH1 0x20 ADD SWAP1 DUP2 MSTORE PUSH1 0x20 ADD PUSH0 KECCAK256 PUSH1 0x40 MLOAD DUP1 PUSH2 0x180 ADD PUSH1 0x40 MSTORE SWAP1 DUP2 PUSH0 DUP3 ADD PUSH0 SWAP1 SLOAD SWAP1 PUSH2 0x100 EXP SWAP1 DIV PUSH20 0xFFFFFFFFFFFFFFFFFFFFFFFFFFFFFFFFFFFFFFFF AND PUSH20 0xFFFFFFFFFFFFFFFFFFFFFFFFFFFFFFFFFFFFFFFF AND PUSH20 0xFFFFFFFFFFFFFFFFFFFFFFFFFFFFFFFFFFFFFFFF AND DUP2 MSTORE PUSH1 0x20 ADD PUSH1 0x1 DUP3 ADD PUSH0 SWAP1 SLOAD SWAP1 PUSH2 0x100 EXP SWAP1 DIV PUSH20 0xFFFFFFFFFFFFFFFFFFFFFFFFFFFFFFFFFFFFFFFF AND PUSH20 0xFFFFFFFFFFFFFFFFFFFFFFFFFFFFFFFFFFFFFFFF AND PUSH20 0xFFFFFFFFFFFFFFFFFFFFFFFFFFFFFFFFFFFFFFFF AND DUP2 MSTORE PUSH1 0x20 ADD PUSH1 0x2 DUP3 ADD SLOAD DUP2 MSTORE PUSH1 0x20 ADD PUSH1 0x3 DUP3 ADD SLOAD DUP2 MSTORE PUSH1 0x20 ADD PUSH1 0x4 DUP3 ADD SLOAD DUP2 MSTORE PUSH1 0x20 ADD PUSH1 0x5 DUP3 ADD SLOAD DUP2 MSTORE PUSH1 0x20 ADD PUSH1 0x6 DUP3 ADD SLOAD DUP2 MSTORE PUSH1 0x20 ADD PUSH1 0x7 DUP3 ADD PUSH0 SWAP1 SLOAD SWAP1 PUSH2 0x100 EXP SWAP1 DIV PUSH1 0xFF AND ISZERO ISZERO ISZERO ISZERO DUP2 MSTORE PUSH1 0x20 ADD PUSH1 0x7 DUP3 ADD PUSH1 0x1 SWAP1 SLOAD SWAP1 PUSH2 0x100 EXP SWAP1 DIV PUSH1 0xFF AND ISZERO ISZERO ISZERO ISZERO DUP2 MSTORE PUSH1 0x20 ADD PUSH1 0x7 DUP3 ADD PUSH1 0x2 SWAP1 SLOAD SWAP1 PUSH2 0x100 EXP SWAP1 DIV PUSH1 0xFF AND ISZERO ISZERO ISZERO ISZERO DUP2 MSTORE PUSH1 0x20 ADD PUSH1 0x8 DUP3 ADD SLOAD DUP2 MSTORE PUSH1 0x20 ADD PUSH1 0x9 DUP3 ADD SLOAD DUP2 MSTORE POP POP SWAP1 POP DUP1 PUSH2 0x120 ADD MLOAD PUSH2 0xCA5 JUMPI PUSH1 0x40 MLOAD PUSH32 0x8C379A000000000000000000000000000000000000000000000000000000000 DUP2 MSTORE PUSH1 0x4 ADD PUSH2 0xC9C SWAP1 PUSH2 0x1C8B JUMP JUMPDEST PUSH1 0x40 MLOAD DUP1 SWAP2 SUB SWAP1 REVERT JUMPDEST DUP1 PUSH2 0x140 ADD MLOAD DUP2 PUSH2 0x160 ADD MLOAD PUSH2 0xCBB SWAP2 SWAP1 PUSH2 0x1BE7 JUMP JUMPDEST SWAP2 POP POP SWAP2 SWAP1 POP JUMP JUMPDEST PUSH0 DUP1 SLOAD SWAP1 PUSH2 0x100 EXP SWAP1 DIV PUSH20 0xFFFFFFFFFFFFFFFFFFFFFFFFFFFFFFFFFFFFFFFF AND PUSH20 0xFFFFFFFFFFFFFFFFFFFFFFFFFFFFFFFFFFFFFFFF AND CALLER PUSH20 0xFFFFFFFFFFFFFFFFFFFFFFFFFFFFFFFFFFFFFFFF AND EQ PUSH2 0xD50 JUMPI PUSH1 0x40 MLOAD PUSH32 0x8C379A000000000000000000000000000000000000000000000000000000000 DUP2 MSTORE PUSH1 0x4 ADD PUSH2 0xD47 SWAP1 PUSH2 0x198A JUMP JUMPDEST PUSH1 0x40 MLOAD DUP1 SWAP2 SUB SWAP1 REVERT JUMPDEST PUSH1 0x1 PUSH1 0x3 PUSH0 DUP4 PUSH20 0xFFFFFFFFFFFFFFFFFFFFFFFFFFFFFFFFFFFFFFFF AND PUSH20 0xFFFFFFFFFFFFFFFFFFFFFFFFFFFFFFFFFFFFFFFF AND DUP2 MSTORE PUSH1 0x20 ADD SWAP1 DUP2 MSTORE PUSH1 0x20 ADD PUSH0 KECCAK256 PUSH1 0x2 ADD PUSH0 PUSH2 0x100 EXP DUP2 SLOAD DUP2 PUSH1 0xFF MUL NOT AND SWAP1 DUP4 ISZERO ISZERO MUL OR SWAP1 SSTORE POP POP JUMP JUMPDEST PUSH1 0x5 SLOAD DUP2 JUMP JUMPDEST PUSH1 0x1 PUSH0 SWAP1 SLOAD SWAP1 PUSH2 0x100 EXP SWAP1 DIV PUSH20 0xFFFFFFFFFFFFFFFFFFFFFFFFFFFFFFFFFFFFFFFF AND PUSH20 0xFFFFFFFFFFFFFFFFFFFFFFFFFFFFFFFFFFFFFFFF AND CALLER PUSH20 0xFFFFFFFFFFFFFFFFFFFFFFFFFFFFFFFFFFFFFFFF AND EQ PUSH2 0xE40 JUMPI PUSH1 0x40 MLOAD PUSH32 0x8C379A000000000000000000000000000000000000000000000000000000000 DUP2 MSTORE PUSH1 0x4 ADD PUSH2 0xE37 SWAP1 PUSH2 0x1D19 JUMP JUMPDEST PUSH1 0x40 MLOAD DUP1 SWAP2 SUB SWAP1 REVERT JUMPDEST PUSH1 0x40 MLOAD DUP1 PUSH2 0x180 ADD PUSH1 0x40 MSTORE DUP1 CALLER PUSH20 0xFFFFFFFFFFFFFFFFFFFFFFFFFFFFFFFFFFFFFFFF AND DUP2 MSTORE PUSH1 0x20 ADD DUP8 PUSH20 0xFFFFFFFFFFFFFFFFFFFFFFFFFFFFFFFFFFFFFFFF AND DUP2 MSTORE PUSH1 0x20 ADD DUP7 DUP2 MSTORE PUSH1 0x20 ADD DUP6 DUP2 MSTORE PUSH1 0x20 ADD DUP5 DUP2 MSTORE PUSH1 0x20 ADD DUP4 DUP2 MSTORE PUSH1 0x20 ADD DUP3 DUP2 MSTORE PUSH1 0x20 ADD PUSH0 ISZERO ISZERO DUP2 MSTORE PUSH1 0x20 ADD PUSH0 ISZERO ISZERO DUP2 MSTORE PUSH1 0x20 ADD PUSH0 ISZERO ISZERO DUP2 MSTORE PUSH1 0x20 ADD PUSH0 DUP2 MSTORE PUSH1 0x20 ADD PUSH0 DUP2 MSTORE POP PUSH1 0x4 PUSH0 PUSH1 0x5 SLOAD DUP2 MSTORE PUSH1 0x20 ADD SWAP1 DUP2 MSTORE PUSH1 0x20 ADD PUSH0 KECCAK256 PUSH0 DUP3 ADD MLOAD DUP2 PUSH0 ADD PUSH0 PUSH2 0x100 EXP DUP2 SLOAD DUP2 PUSH20 0xFFFFFFFFFFFFFFFFFFFFFFFFFFFFFFFFFFFFFFFF MUL NOT AND SWAP1 DUP4 PUSH20 0xFFFFFFFFFFFFFFFFFFFFFFFFFFFFFFFFFFFFFFFF AND MUL OR SWAP1 SSTORE POP PUSH1 0x20 DUP3 ADD MLOAD DUP2 PUSH1 0x1 ADD PUSH0 PUSH2 0x100 EXP DUP2 SLOAD DUP2 PUSH20 0xFFFFFFFFFFFFFFFFFFFFFFFFFFFFFFFFFFFFFFFF MUL NOT AND SWAP1 DUP4 PUSH20 0xFFFFFFFFFFFFFFFFFFFFFFFFFFFFFFFFFFFFFFFF AND MUL OR SWAP1 SSTORE POP PUSH1 0x40 DUP3 ADD MLOAD DUP2 PUSH1 0x2 ADD SSTORE PUSH1 0x60 DUP3 ADD MLOAD DUP2 PUSH1 0x3 ADD SSTORE PUSH1 0x80 DUP3 ADD MLOAD DUP2 PUSH1 0x4 ADD SSTORE PUSH1 0xA0 DUP3 ADD MLOAD DUP2 PUSH1 0x5 ADD SSTORE PUSH1 0xC0 DUP3 ADD MLOAD DUP2 PUSH1 0x6 ADD SSTORE PUSH1 0xE0 DUP3 ADD MLOAD DUP2 PUSH1 0x7 ADD PUSH0 PUSH2 0x100 EXP DUP2 SLOAD DUP2 PUSH1 0xFF MUL NOT AND SWAP1 DUP4 ISZERO ISZERO MUL OR SWAP1 SSTORE POP PUSH2 0x100 DUP3 ADD MLOAD DUP2 PUSH1 0x7 ADD PUSH1 0x1 PUSH2 0x100 EXP DUP2 SLOAD DUP2 PUSH1 0xFF MUL NOT AND SWAP1 DUP4 ISZERO ISZERO MUL OR SWAP1 SSTORE POP PUSH2 0x120 DUP3 ADD MLOAD DUP2 PUSH1 0x7 ADD PUSH1 0x2 PUSH2 0x100 EXP DUP2 SLOAD DUP2 PUSH1 0xFF MUL NOT AND SWAP1 DUP4 ISZERO ISZERO MUL OR SWAP1 SSTORE POP PUSH2 0x140 DUP3 ADD MLOAD DUP2 PUSH1 0x8 ADD SSTORE PUSH2 0x160 DUP3 ADD MLOAD DUP2 PUSH1 0x9 ADD SSTORE SWAP1 POP POP PUSH1 0x2 PUSH0 SWAP1 SLOAD SWAP1 PUSH2 0x100 EXP SWAP1 DIV PUSH20 0xFFFFFFFFFFFFFFFFFFFFFFFFFFFFFFFFFFFFFFFF AND PUSH20 0xFFFFFFFFFFFFFFFFFFFFFFFFFFFFFFFFFFFFFFFF AND PUSH4 0x1D834A1B PUSH1 0x5 SLOAD DUP4 PUSH1 0x40 MLOAD DUP4 PUSH4 0xFFFFFFFF AND PUSH1 0xE0 SHL DUP2 MSTORE PUSH1 0x4 ADD PUSH2 0x106B SWAP3 SWAP2 SWAP1 PUSH2 0x1C1A JUMP JUMPDEST PUSH0 PUSH1 0x40 MLOAD DUP1 DUP4 SUB DUP2 PUSH0 DUP8 DUP1 EXTCODESIZE ISZERO DUP1 ISZERO PUSH2 0x1082 JUMPI PUSH0 DUP1 REVERT JUMPDEST POP GAS CALL ISZERO DUP1 ISZERO PUSH2 0x1094 JUMPI RETURNDATASIZE PUSH0 DUP1 RETURNDATACOPY RETURNDATASIZE PUSH0 REVERT JUMPDEST POP POP POP POP PUSH32 0x52476D55ECEF5CF13CAA64038F297FE6BBF865D9584A98B8722A15A6D5DB128F PUSH1 0x5 SLOAD CALLER PUSH1 0x40 MLOAD PUSH2 0x10CB SWAP3 SWAP2 SWAP1 PUSH2 0x1D37 JUMP JUMPDEST PUSH1 0x40 MLOAD DUP1 SWAP2 SUB SWAP1 LOG1 PUSH1 0x5 PUSH0 DUP2 SLOAD DUP1 SWAP3 SWAP2 SWAP1 PUSH2 0x10E5 SWAP1 PUSH2 0x1D5E JUMP JUMPDEST SWAP2 SWAP1 POP SSTORE POP POP POP POP POP POP POP JUMP JUMPDEST PUSH1 0x3 PUSH1 0x20 MSTORE DUP1 PUSH0 MSTORE PUSH1 0x40 PUSH0 KECCAK256 PUSH0 SWAP2 POP SWAP1 POP DUP1 PUSH0 ADD PUSH0 SWAP1 SLOAD SWAP1 PUSH2 0x100 EXP SWAP1 DIV PUSH20 0xFFFFFFFFFFFFFFFFFFFFFFFFFFFFFFFFFFFFFFFF AND SWAP1 DUP1 PUSH1 0x1 ADD DUP1 SLOAD PUSH2 0x1136 SWAP1 PUSH2 0x1DD2 JUMP JUMPDEST DUP1 PUSH1 0x1F ADD PUSH1 0x20 DUP1 SWAP2 DIV MUL PUSH1 0x20 ADD PUSH1 0x40 MLOAD SWAP1 DUP2 ADD PUSH1 0x40 MSTORE DUP1 SWAP3 SWAP2 SWAP1 DUP2 DUP2 MSTORE PUSH1 0x20 ADD DUP3 DUP1 SLOAD PUSH2 0x1162 SWAP1 PUSH2 0x1DD2 JUMP JUMPDEST DUP1 ISZERO PUSH2 0x11AD JUMPI DUP1 PUSH1 0x1F LT PUSH2 0x1184 JUMPI PUSH2 0x100 DUP1 DUP4 SLOAD DIV MUL DUP4 MSTORE SWAP2 PUSH1 0x20 ADD SWAP2 PUSH2 0x11AD JUMP JUMPDEST DUP3 ADD SWAP2 SWAP1 PUSH0 MSTORE PUSH1 0x20 PUSH0 KECCAK256 SWAP1 JUMPDEST DUP2 SLOAD DUP2 MSTORE SWAP1 PUSH1 0x1 ADD SWAP1 PUSH1 0x20 ADD DUP1 DUP4 GT PUSH2 0x1190 JUMPI DUP3 SWAP1 SUB PUSH1 0x1F AND DUP3 ADD SWAP2 JUMPDEST POP POP POP POP POP SWAP1 DUP1 PUSH1 0x2 ADD PUSH0 SWAP1 SLOAD SWAP1 PUSH2 0x100 EXP SWAP1 DIV PUSH1 0xFF AND SWAP1 POP DUP4 JUMP JUMPDEST PUSH0 DUP1 SLOAD SWAP1 PUSH2 0x100 EXP SWAP1 DIV PUSH20 0xFFFFFFFFFFFFFFFFFFFFFFFFFFFFFFFFFFFFFFFF AND PUSH20 0xFFFFFFFFFFFFFFFFFFFFFFFFFFFFFFFFFFFFFFFF AND CALLER PUSH20 0xFFFFFFFFFFFFFFFFFFFFFFFFFFFFFFFFFFFFFFFF AND EQ PUSH2 0x1256 JUMPI PUSH1 0x40 MLOAD PUSH32 0x8C379A000000000000000000000000000000000000000000000000000000000 DUP2 MSTORE PUSH1 0x4 ADD PUSH2 0x124D SWAP1 PUSH2 0x198A JUMP JUMPDEST PUSH1 0x40 MLOAD DUP1 SWAP2 SUB SWAP1 REVERT JUMPDEST PUSH1 0x40 MLOAD DUP1 PUSH1 0x60 ADD PUSH1 0x40 MSTORE DUP1 DUP4 PUSH20 0xFFFFFFFFFFFFFFFFFFFFFFFFFFFFFFFFFFFFFFFF AND DUP2 MSTORE PUSH1 0x20 ADD DUP3 DUP2 MSTORE PUSH1 0x20 ADD PUSH1 0x1 ISZERO ISZERO DUP2 MSTORE POP PUSH1 0x3 PUSH0 DUP5 PUSH20 0xFFFFFFFFFFFFFFFFFFFFFFFFFFFFFFFFFFFFFFFF AND PUSH20 0xFFFFFFFFFFFFFFFFFFFFFFFFFFFFFFFFFFFFFFFF AND DUP2 MSTORE PUSH1 0x20 ADD SWAP1 DUP2 MSTORE PUSH1 0x20 ADD PUSH0 KECCAK256 PUSH0 DUP3 ADD MLOAD DUP2 PUSH0 ADD PUSH0 PUSH2 0x100 EXP DUP2 SLOAD DUP2 PUSH20 0xFFFFFFFFFFFFFFFFFFFFFFFFFFFFFFFFFFFFFFFF MUL NOT AND SWAP1 DUP4 PUSH20 0xFFFFFFFFFFFFFFFFFFFFFFFFFFFFFFFFFFFFFFFF AND MUL OR SWAP1 SSTORE POP PUSH1 0x20 DUP3 ADD MLOAD DUP2 PUSH1 0x1 ADD SWAP1 DUP2 PUSH2 0x1320 SWAP2 SWAP1 PUSH2 0x1F96 JUMP JUMPDEST POP PUSH1 0x40 DUP3 ADD MLOAD DUP2 PUSH1 0x2 ADD PUSH0 PUSH2 0x100 EXP DUP2 SLOAD DUP2 PUSH1 0xFF MUL NOT AND SWAP1 DUP4 ISZERO ISZERO MUL OR SWAP1 SSTORE POP SWAP1 POP POP POP POP JUMP JUMPDEST POP DUP1 SLOAD PUSH2 0x1353 SWAP1 PUSH2 0x1DD2 JUMP JUMPDEST PUSH0 DUP3 SSTORE DUP1 PUSH1 0x1F LT PUSH2 0x1364 JUMPI POP PUSH2 0x1381 JUMP JUMPDEST PUSH1 0x1F ADD PUSH1 0x20 SWAP1 DIV SWAP1 PUSH0 MSTORE PUSH1 0x20 PUSH0 KECCAK256 SWAP1 DUP2 ADD SWAP1 PUSH2 0x1380 SWAP2 SWAP1 PUSH2 0x1384 JUMP JUMPDEST JUMPDEST POP JUMP JUMPDEST JUMPDEST DUP1 DUP3 GT ISZERO PUSH2 0x139B JUMPI PUSH0 DUP2 PUSH0 SWAP1 SSTORE POP PUSH1 0x1 ADD PUSH2 0x1385 JUMP JUMPDEST POP SWAP1 JUMP JUMPDEST PUSH0 PUSH1 0x40 MLOAD SWAP1 POP SWAP1 JUMP JUMPDEST PUSH0 DUP1 REVERT JUMPDEST PUSH0 DUP1 REVERT JUMPDEST PUSH0 PUSH20 0xFFFFFFFFFFFFFFFFFFFFFFFFFFFFFFFFFFFFFFFF DUP3 AND SWAP1 POP SWAP2 SWAP1 POP JUMP JUMPDEST PUSH0 PUSH2 0x13D9 DUP3 PUSH2 0x13B0 JUMP JUMPDEST SWAP1 POP SWAP2 SWAP1 POP JUMP JUMPDEST PUSH2 0x13E9 DUP2 PUSH2 0x13CF JUMP JUMPDEST DUP2 EQ PUSH2 0x13F3 JUMPI PUSH0 DUP1 REVERT JUMPDEST POP JUMP JUMPDEST PUSH0 DUP2 CALLDATALOAD SWAP1 POP PUSH2 0x1404 DUP2 PUSH2 0x13E0 JUMP JUMPDEST SWAP3 SWAP2 POP POP JUMP JUMPDEST PUSH0 PUSH1 0x20 DUP3 DUP5 SUB SLT ISZERO PUSH2 0x141F JUMPI PUSH2 0x141E PUSH2 0x13A8 JUMP JUMPDEST JUMPDEST PUSH0 PUSH2 0x142C DUP5 DUP3 DUP6 ADD PUSH2 0x13F6 JUMP JUMPDEST SWAP2 POP POP SWAP3 SWAP2 POP POP JUMP JUMPDEST PUSH2 0x143E DUP2 PUSH2 0x13CF JUMP JUMPDEST DUP3 MSTORE POP POP JUMP JUMPDEST PUSH0 PUSH1 0x20 DUP3 ADD SWAP1 POP PUSH2 0x1457 PUSH0 DUP4 ADD DUP5 PUSH2 0x1435 JUMP JUMPDEST SWAP3 SWAP2 POP POP JUMP JUMPDEST PUSH0 DUP2 SWAP1 POP SWAP2 SWAP1 POP JUMP JUMPDEST PUSH2 0x146F DUP2 PUSH2 0x145D JUMP JUMPDEST DUP2 EQ PUSH2 0x1479 JUMPI PUSH0 DUP1 REVERT JUMPDEST POP JUMP JUMPDEST PUSH0 DUP2 CALLDATALOAD SWAP1 POP PUSH2 0x148A DUP2 PUSH2 0x1466 JUMP JUMPDEST SWAP3 SWAP2 POP POP JUMP JUMPDEST PUSH0 PUSH1 0x20 DUP3 DUP5 SUB SLT ISZERO PUSH2 0x14A5 JUMPI PUSH2 0x14A4 PUSH2 0x13A8 JUMP JUMPDEST JUMPDEST PUSH0 PUSH2 0x14B2 DUP5 DUP3 DUP6 ADD PUSH2 0x147C JUMP JUMPDEST SWAP2 POP POP SWAP3 SWAP2 POP POP JUMP JUMPDEST PUSH0 DUP2 SWAP1 POP SWAP2 SWAP1 POP JUMP JUMPDEST PUSH0 PUSH2 0x14DE PUSH2 0x14D9 PUSH2 0x14D4 DUP5 PUSH2 0x13B0 JUMP JUMPDEST PUSH2 0x14BB JUMP JUMPDEST PUSH2 0x13B0 JUMP JUMPDEST SWAP1 POP SWAP2 SWAP1 POP JUMP JUMPDEST PUSH0 PUSH2 0x14EF DUP3 PUSH2 0x14C4 JUMP JUMPDEST SWAP1 POP SWAP2 SWAP1 POP JUMP JUMPDEST PUSH0 PUSH2 0x1500 DUP3 PUSH2 0x14E5 JUMP JUMPDEST SWAP1 POP SWAP2 SWAP1 POP JUMP JUMPDEST PUSH2 0x1510 DUP2 PUSH2 0x14F6 JUMP JUMPDEST DUP3 MSTORE POP POP JUMP JUMPDEST PUSH0 PUSH1 0x20 DUP3 ADD SWAP1 POP PUSH2 0x1529 PUSH0 DUP4 ADD DUP5 PUSH2 0x1507 JUMP JUMPDEST SWAP3 SWAP2 POP POP JUMP JUMPDEST PUSH0 DUP2 SWAP1 POP SWAP2 SWAP1 POP JUMP JUMPDEST PUSH2 0x1541 DUP2 PUSH2 0x152F JUMP JUMPDEST DUP3 MSTORE POP POP JUMP JUMPDEST PUSH2 0x1550 DUP2 PUSH2 0x145D JUMP JUMPDEST DUP3 MSTORE POP POP JUMP JUMPDEST PUSH0 DUP2 ISZERO ISZERO SWAP1 POP SWAP2 SWAP1 POP JUMP JUMPDEST PUSH2 0x156A DUP2 PUSH2 0x1556 JUMP JUMPDEST DUP3 MSTORE POP POP JUMP JUMPDEST PUSH0 PUSH2 0x180 DUP3 ADD SWAP1 POP PUSH2 0x1584 PUSH0 DUP4 ADD DUP16 PUSH2 0x1435 JUMP JUMPDEST PUSH2 0x1591 PUSH1 0x20 DUP4 ADD DUP15 PUSH2 0x1435 JUMP JUMPDEST PUSH2 0x159E PUSH1 0x40 DUP4 ADD DUP14 PUSH2 0x1538 JUMP JUMPDEST PUSH2 0x15AB PUSH1 0x60 DUP4 ADD DUP13 PUSH2 0x1547 JUMP JUMPDEST PUSH2 0x15B8 PUSH1 0x80 DUP4 ADD DUP12 PUSH2 0x1547 JUMP JUMPDEST PUSH2 0x15C5 PUSH1 0xA0 DUP4 ADD DUP11 PUSH2 0x1547 JUMP JUMPDEST PUSH2 0x15D2 PUSH1 0xC0 DUP4 ADD DUP10 PUSH2 0x1547 JUMP JUMPDEST PUSH2 0x15DF PUSH1 0xE0 DUP4 ADD DUP9 PUSH2 0x1561 JUMP JUMPDEST PUSH2 0x15ED PUSH2 0x100 DUP4 ADD DUP8 PUSH2 0x1561 JUMP JUMPDEST PUSH2 0x15FB PUSH2 0x120 DUP4 ADD DUP7 PUSH2 0x1561 JUMP JUMPDEST PUSH2 0x1609 PUSH2 0x140 DUP4 ADD DUP6 PUSH2 0x1547 JUMP JUMPDEST PUSH2 0x1617 PUSH2 0x160 DUP4 ADD DUP5 PUSH2 0x1547 JUMP JUMPDEST SWAP14 SWAP13 POP POP POP POP POP POP POP POP POP POP POP POP POP JUMP JUMPDEST PUSH0 PUSH1 0x20 DUP3 ADD SWAP1 POP PUSH2 0x163B PUSH0 DUP4 ADD DUP5 PUSH2 0x1547 JUMP JUMPDEST SWAP3 SWAP2 POP POP JUMP JUMPDEST PUSH2 0x164A DUP2 PUSH2 0x152F JUMP JUMPDEST DUP2 EQ PUSH2 0x1654 JUMPI PUSH0 DUP1 REVERT JUMPDEST POP JUMP JUMPDEST PUSH0 DUP2 CALLDATALOAD SWAP1 POP PUSH2 0x1665 DUP2 PUSH2 0x1641 JUMP JUMPDEST SWAP3 SWAP2 POP POP JUMP JUMPDEST PUSH0 DUP1 PUSH0 DUP1 PUSH0 DUP1 PUSH1 0xC0 DUP8 DUP10 SUB SLT ISZERO PUSH2 0x1685 JUMPI PUSH2 0x1684 PUSH2 0x13A8 JUMP JUMPDEST JUMPDEST PUSH0 PUSH2 0x1692 DUP10 DUP3 DUP11 ADD PUSH2 0x13F6 JUMP JUMPDEST SWAP7 POP POP PUSH1 0x20 PUSH2 0x16A3 DUP10 DUP3 DUP11 ADD PUSH2 0x1657 JUMP JUMPDEST SWAP6 POP POP PUSH1 0x40 PUSH2 0x16B4 DUP10 DUP3 DUP11 ADD PUSH2 0x147C JUMP JUMPDEST SWAP5 POP POP PUSH1 0x60 PUSH2 0x16C5 DUP10 DUP3 DUP11 ADD PUSH2 0x147C JUMP JUMPDEST SWAP4 POP POP PUSH1 0x80 PUSH2 0x16D6 DUP10 DUP3 DUP11 ADD PUSH2 0x147C JUMP JUMPDEST SWAP3 POP POP PUSH1 0xA0 PUSH2 0x16E7 DUP10 DUP3 DUP11 ADD PUSH2 0x147C JUMP JUMPDEST SWAP2 POP POP SWAP3 SWAP6 POP SWAP3 SWAP6 POP SWAP3 SWAP6 JUMP JUMPDEST PUSH0 DUP2 MLOAD SWAP1 POP SWAP2 SWAP1 POP JUMP JUMPDEST PUSH0 DUP3 DUP3 MSTORE PUSH1 0x20 DUP3 ADD SWAP1 POP SWAP3 SWAP2 POP POP JUMP JUMPDEST PUSH0 JUMPDEST DUP4 DUP2 LT ISZERO PUSH2 0x172B JUMPI DUP1 DUP3 ADD MLOAD DUP2 DUP5 ADD MSTORE PUSH1 0x20 DUP2 ADD SWAP1 POP PUSH2 0x1710 JUMP JUMPDEST PUSH0 DUP5 DUP5 ADD MSTORE POP POP POP POP JUMP JUMPDEST PUSH0 PUSH1 0x1F NOT PUSH1 0x1F DUP4 ADD AND SWAP1 POP SWAP2 SWAP1 POP JUMP JUMPDEST PUSH0 PUSH2 0x1750 DUP3 PUSH2 0x16F4 JUMP JUMPDEST PUSH2 0x175A DUP2 DUP6 PUSH2 0x16FE JUMP JUMPDEST SWAP4 POP PUSH2 0x176A DUP2 DUP6 PUSH1 0x20 DUP7 ADD PUSH2 0x170E JUMP JUMPDEST PUSH2 0x1773 DUP2 PUSH2 0x1736 JUMP JUMPDEST DUP5 ADD SWAP2 POP POP SWAP3 SWAP2 POP POP JUMP JUMPDEST PUSH0 PUSH1 0x60 DUP3 ADD SWAP1 POP PUSH2 0x1791 PUSH0 DUP4 ADD DUP7 PUSH2 0x1435 JUMP JUMPDEST DUP2 DUP2 SUB PUSH1 0x20 DUP4 ADD MSTORE PUSH2 0x17A3 DUP2 DUP6 PUSH2 0x1746 JUMP JUMPDEST SWAP1 POP PUSH2 0x17B2 PUSH1 0x40 DUP4 ADD DUP5 PUSH2 0x1561 JUMP JUMPDEST SWAP5 SWAP4 POP POP POP POP JUMP JUMPDEST PUSH0 DUP1 REVERT JUMPDEST PUSH0 DUP1 REVERT JUMPDEST PUSH32 0x4E487B7100000000000000000000000000000000000000000000000000000000 PUSH0 MSTORE PUSH1 0x41 PUSH1 0x4 MSTORE PUSH1 0x24 PUSH0 REVERT JUMPDEST PUSH2 0x17F8 DUP3 PUSH2 0x1736 JUMP JUMPDEST DUP2 ADD DUP2 DUP2 LT PUSH8 0xFFFFFFFFFFFFFFFF DUP3 GT OR ISZERO PUSH2 0x1817 JUMPI PUSH2 0x1816 PUSH2 0x17C2 JUMP JUMPDEST JUMPDEST DUP1 PUSH1 0x40 MSTORE POP POP POP JUMP JUMPDEST PUSH0 PUSH2 0x1829 PUSH2 0x139F JUMP JUMPDEST SWAP1 POP PUSH2 0x1835 DUP3 DUP3 PUSH2 0x17EF JUMP JUMPDEST SWAP2 SWAP1 POP JUMP JUMPDEST PUSH0 PUSH8 0xFFFFFFFFFFFFFFFF DUP3 GT ISZERO PUSH2 0x1854 JUMPI PUSH2 0x1853 PUSH2 0x17C2 JUMP JUMPDEST JUMPDEST PUSH2 0x185D DUP3 PUSH2 0x1736 JUMP JUMPDEST SWAP1 POP PUSH1 0x20 DUP2 ADD SWAP1 POP SWAP2 SWAP1 POP JUMP JUMPDEST DUP3 DUP2 DUP4 CALLDATACOPY PUSH0 DUP4 DUP4 ADD MSTORE POP POP POP JUMP JUMPDEST PUSH0 PUSH2 0x188A PUSH2 0x1885 DUP5 PUSH2 0x183A JUMP JUMPDEST PUSH2 0x1820 JUMP JUMPDEST SWAP1 POP DUP3 DUP2 MSTORE PUSH1 0x20 DUP2 ADD DUP5 DUP5 DUP5 ADD GT ISZERO PUSH2 0x18A6 JUMPI PUSH2 0x18A5 PUSH2 0x17BE JUMP JUMPDEST JUMPDEST PUSH2 0x18B1 DUP5 DUP3 DUP6 PUSH2 0x186A JUMP JUMPDEST POP SWAP4 SWAP3 POP POP POP JUMP JUMPDEST PUSH0 DUP3 PUSH1 0x1F DUP4 ADD SLT PUSH2 0x18CD JUMPI PUSH2 0x18CC PUSH2 0x17BA JUMP JUMPDEST JUMPDEST DUP2 CALLDATALOAD PUSH2 0x18DD DUP5 DUP3 PUSH1 0x20 DUP7 ADD PUSH2 0x1878 JUMP JUMPDEST SWAP2 POP POP SWAP3 SWAP2 POP POP JUMP JUMPDEST PUSH0 DUP1 PUSH1 0x40 DUP4 DUP6 SUB SLT ISZERO PUSH2 0x18FC JUMPI PUSH2 0x18FB PUSH2 0x13A8 JUMP JUMPDEST JUMPDEST PUSH0 PUSH2 0x1909 DUP6 DUP3 DUP7 ADD PUSH2 0x13F6 JUMP JUMPDEST SWAP3 POP POP PUSH1 0x20 DUP4 ADD CALLDATALOAD PUSH8 0xFFFFFFFFFFFFFFFF DUP2 GT ISZERO PUSH2 0x192A JUMPI PUSH2 0x1929 PUSH2 0x13AC JUMP JUMPDEST JUMPDEST PUSH2 0x1936 DUP6 DUP3 DUP7 ADD PUSH2 0x18B9 JUMP JUMPDEST SWAP2 POP POP SWAP3 POP SWAP3 SWAP1 POP JUMP JUMPDEST PUSH32 0x4F6E6C7920746865206F776E65722063616E2065786563757465207468697300 PUSH0 DUP3 ADD MSTORE POP JUMP JUMPDEST PUSH0 PUSH2 0x1974 PUSH1 0x1F DUP4 PUSH2 0x16FE JUMP JUMPDEST SWAP2 POP PUSH2 0x197F DUP3 PUSH2 0x1940 JUMP JUMPDEST PUSH1 0x20 DUP3 ADD SWAP1 POP SWAP2 SWAP1 POP JUMP JUMPDEST PUSH0 PUSH1 0x20 DUP3 ADD SWAP1 POP DUP2 DUP2 SUB PUSH0 DUP4 ADD MSTORE PUSH2 0x19A1 DUP2 PUSH2 0x1968 JUMP JUMPDEST SWAP1 POP SWAP2 SWAP1 POP JUMP JUMPDEST PUSH32 0x4F6E6C7920616374697665206361726574616B6572732061726520616C6C6F77 PUSH0 DUP3 ADD MSTORE PUSH32 0x6564000000000000000000000000000000000000000000000000000000000000 PUSH1 0x20 DUP3 ADD MSTORE POP JUMP JUMPDEST PUSH0 PUSH2 0x1A02 PUSH1 0x22 DUP4 PUSH2 0x16FE JUMP JUMPDEST SWAP2 POP PUSH2 0x1A0D DUP3 PUSH2 0x19A8 JUMP JUMPDEST PUSH1 0x40 DUP3 ADD SWAP1 POP SWAP2 SWAP1 POP JUMP JUMPDEST PUSH0 PUSH1 0x20 DUP3 ADD SWAP1 POP DUP2 DUP2 SUB PUSH0 DUP4 ADD MSTORE PUSH2 0x1A2F DUP2 PUSH2 0x19F6 JUMP JUMPDEST SWAP1 POP SWAP2 SWAP1 POP JUMP JUMPDEST PUSH32 0x4E6F74207468652061737369676E6564206361726574616B657220666F722074 PUSH0 DUP3 ADD MSTORE PUSH32 0x686973207461736B000000000000000000000000000000000000000000000000 PUSH1 0x20 DUP3 ADD MSTORE POP JUMP JUMPDEST PUSH0 PUSH2 0x1A90 PUSH1 0x28 DUP4 PUSH2 0x16FE JUMP JUMPDEST SWAP2 POP PUSH2 0x1A9B DUP3 PUSH2 0x1A36 JUMP JUMPDEST PUSH1 0x40 DUP3 ADD SWAP1 POP SWAP2 SWAP1 POP JUMP JUMPDEST PUSH0 PUSH1 0x20 DUP3 ADD SWAP1 POP DUP2 DUP2 SUB PUSH0 DUP4 ADD MSTORE PUSH2 0x1ABD DUP2 PUSH2 0x1A84 JUMP JUMPDEST SWAP1 POP SWAP2 SWAP1 POP JUMP JUMPDEST PUSH32 0x5461736B20616C72656164792073746172746564000000000000000000000000 PUSH0 DUP3 ADD MSTORE POP JUMP JUMPDEST PUSH0 PUSH2 0x1AF8 PUSH1 0x14 DUP4 PUSH2 0x16FE JUMP JUMPDEST SWAP2 POP PUSH2 0x1B03 DUP3 PUSH2 0x1AC4 JUMP JUMPDEST PUSH1 0x20 DUP3 ADD SWAP1 POP SWAP2 SWAP1 POP JUMP JUMPDEST PUSH0 PUSH1 0x20 DUP3 ADD SWAP1 POP DUP2 DUP2 SUB PUSH0 DUP4 ADD MSTORE PUSH2 0x1B25 DUP2 PUSH2 0x1AEC JUMP JUMPDEST SWAP1 POP SWAP2 SWAP1 POP JUMP JUMPDEST PUSH32 0x5461736B206E6F742073746172746564206F7220616C726561647920636F6D70 PUSH0 DUP3 ADD MSTORE PUSH32 0x6C65746564000000000000000000000000000000000000000000000000000000 PUSH1 0x20 DUP3 ADD MSTORE POP JUMP JUMPDEST PUSH0 PUSH2 0x1B86 PUSH1 0x25 DUP4 PUSH2 0x16FE JUMP JUMPDEST SWAP2 POP PUSH2 0x1B91 DUP3 PUSH2 0x1B2C JUMP JUMPDEST PUSH1 0x40 DUP3 ADD SWAP1 POP SWAP2 SWAP1 POP JUMP JUMPDEST PUSH0 PUSH1 0x20 DUP3 ADD SWAP1 POP DUP2 DUP2 SUB PUSH0 DUP4 ADD MSTORE PUSH2 0x1BB3 DUP2 PUSH2 0x1B7A JUMP JUMPDEST SWAP1 POP SWAP2 SWAP1 POP JUMP JUMPDEST PUSH32 0x4E487B7100000000000000000000000000000000000000000000000000000000 PUSH0 MSTORE PUSH1 0x11 PUSH1 0x4 MSTORE PUSH1 0x24 PUSH0 REVERT JUMPDEST PUSH0 PUSH2 0x1BF1 DUP3 PUSH2 0x145D JUMP JUMPDEST SWAP2 POP PUSH2 0x1BFC DUP4 PUSH2 0x145D JUMP JUMPDEST SWAP3 POP DUP3 DUP3 SUB SWAP1 POP DUP2 DUP2 GT ISZERO PUSH2 0x1C14 JUMPI PUSH2 0x1C13 PUSH2 0x1BBA JUMP JUMPDEST JUMPDEST SWAP3 SWAP2 POP POP JUMP JUMPDEST PUSH0 PUSH1 0x40 DUP3 ADD SWAP1 POP PUSH2 0x1C2D PUSH0 DUP4 ADD DUP6 PUSH2 0x1547 JUMP JUMPDEST PUSH2 0x1C3A PUSH1 0x20 DUP4 ADD DUP5 PUSH2 0x1547 JUMP JUMPDEST SWAP4 SWAP3 POP POP POP JUMP JUMPDEST PUSH32 0x5461736B206E6F7420636F6D706C657465640000000000000000000000000000 PUSH0 DUP3 ADD MSTORE POP JUMP JUMPDEST PUSH0 PUSH2 0x1C75 PUSH1 0x12 DUP4 PUSH2 0x16FE JUMP JUMPDEST SWAP2 POP PUSH2 0x1C80 DUP3 PUSH2 0x1C41 JUMP JUMPDEST PUSH1 0x20 DUP3 ADD SWAP1 POP SWAP2 SWAP1 POP JUMP JUMPDEST PUSH0 PUSH1 0x20 DUP3 ADD SWAP1 POP DUP2 DUP2 SUB PUSH0 DUP4 ADD MSTORE PUSH2 0x1CA2 DUP2 PUSH2 0x1C69 JUMP JUMPDEST SWAP1 POP SWAP2 SWAP1 POP JUMP JUMPDEST PUSH32 0x4F6E6C79204D65646963616C2053746166662063616E20657865637574652074 PUSH0 DUP3 ADD MSTORE PUSH32 0x6869730000000000000000000000000000000000000000000000000000000000 PUSH1 0x20 DUP3 ADD MSTORE POP JUMP JUMPDEST PUSH0 PUSH2 0x1D03 PUSH1 0x23 DUP4 PUSH2 0x16FE JUMP JUMPDEST SWAP2 POP PUSH2 0x1D0E DUP3 PUSH2 0x1CA9 JUMP JUMPDEST PUSH1 0x40 DUP3 ADD SWAP1 POP SWAP2 SWAP1 POP JUMP JUMPDEST PUSH0 PUSH1 0x20 DUP3 ADD SWAP1 POP DUP2 DUP2 SUB PUSH0 DUP4 ADD MSTORE PUSH2 0x1D30 DUP2 PUSH2 0x1CF7 JUMP JUMPDEST SWAP1 POP SWAP2 SWAP1 POP JUMP JUMPDEST PUSH0 PUSH1 0x40 DUP3 ADD SWAP1 POP PUSH2 0x1D4A PUSH0 DUP4 ADD DUP6 PUSH2 0x1547 JUMP JUMPDEST PUSH2 0x1D57 PUSH1 0x20 DUP4 ADD DUP5 PUSH2 0x1435 JUMP JUMPDEST SWAP4 SWAP3 POP POP POP JUMP JUMPDEST PUSH0 PUSH2 0x1D68 DUP3 PUSH2 0x145D JUMP JUMPDEST SWAP2 POP PUSH32 0xFFFFFFFFFFFFFFFFFFFFFFFFFFFFFFFFFFFFFFFFFFFFFFFFFFFFFFFFFFFFFFFF DUP3 SUB PUSH2 0x1D9A JUMPI PUSH2 0x1D99 PUSH2 0x1BBA JUMP JUMPDEST JUMPDEST PUSH1 0x1 DUP3 ADD SWAP1 POP SWAP2 SWAP1 POP JUMP JUMPDEST PUSH32 0x4E487B7100000000000000000000000000000000000000000000000000000000 PUSH0 MSTORE PUSH1 0x22 PUSH1 0x4 MSTORE PUSH1 0x24 PUSH0 REVERT JUMPDEST PUSH0 PUSH1 0x2 DUP3 DIV SWAP1 POP PUSH1 0x1 DUP3 AND DUP1 PUSH2 0x1DE9 JUMPI PUSH1 0x7F DUP3 AND SWAP2 POP JUMPDEST PUSH1 0x20 DUP3 LT DUP2 SUB PUSH2 0x1DFC JUMPI PUSH2 0x1DFB PUSH2 0x1DA5 JUMP JUMPDEST JUMPDEST POP SWAP2 SWAP1 POP JUMP JUMPDEST PUSH0 DUP2 SWAP1 POP DUP2 PUSH0 MSTORE PUSH1 0x20 PUSH0 KECCAK256 SWAP1 POP SWAP2 SWAP1 POP JUMP JUMPDEST PUSH0 PUSH1 0x20 PUSH1 0x1F DUP4 ADD DIV SWAP1 POP SWAP2 SWAP1 POP JUMP JUMPDEST PUSH0 DUP3 DUP3 SHL SWAP1 POP SWAP3 SWAP2 POP POP JUMP JUMPDEST PUSH0 PUSH1 0x8 DUP4 MUL PUSH2 0x1E5E PUSH32 0xFFFFFFFFFFFFFFFFFFFFFFFFFFFFFFFFFFFFFFFFFFFFFFFFFFFFFFFFFFFFFFFF DUP3 PUSH2 0x1E23 JUMP JUMPDEST PUSH2 0x1E68 DUP7 DUP4 PUSH2 0x1E23 JUMP JUMPDEST SWAP6 POP DUP1 NOT DUP5 AND SWAP4 POP DUP1 DUP7 AND DUP5 OR SWAP3 POP POP POP SWAP4 SWAP3 POP POP POP JUMP JUMPDEST PUSH0 PUSH2 0x1E9A PUSH2 0x1E95 PUSH2 0x1E90 DUP5 PUSH2 0x145D JUMP JUMPDEST PUSH2 0x14BB JUMP JUMPDEST PUSH2 0x145D JUMP JUMPDEST SWAP1 POP SWAP2 SWAP1 POP JUMP JUMPDEST PUSH0 DUP2 SWAP1 POP SWAP2 SWAP1 POP JUMP JUMPDEST PUSH2 0x1EB3 DUP4 PUSH2 0x1E80 JUMP JUMPDEST PUSH2 0x1EC7 PUSH2 0x1EBF DUP3 PUSH2 0x1EA1 JUMP JUMPDEST DUP5 DUP5 SLOAD PUSH2 0x1E2F JUMP JUMPDEST DUP3 SSTORE POP POP POP POP JUMP JUMPDEST PUSH0 SWAP1 JUMP JUMPDEST PUSH2 0x1EDB PUSH2 0x1ECF JUMP JUMPDEST PUSH2 0x1EE6 DUP2 DUP5 DUP5 PUSH2 0x1EAA JUMP JUMPDEST POP POP POP JUMP JUMPDEST JUMPDEST DUP2 DUP2 LT ISZERO PUSH2 0x1F09 JUMPI PUSH2 0x1EFE PUSH0 DUP3 PUSH2 0x1ED3 JUMP JUMPDEST PUSH1 0x1 DUP2 ADD SWAP1 POP PUSH2 0x1EEC JUMP JUMPDEST POP POP JUMP JUMPDEST PUSH1 0x1F DUP3 GT ISZERO PUSH2 0x1F4E JUMPI PUSH2 0x1F1F DUP2 PUSH2 0x1E02 JUMP JUMPDEST PUSH2 0x1F28 DUP5 PUSH2 0x1E14 JUMP JUMPDEST DUP2 ADD PUSH1 0x20 DUP6 LT ISZERO PUSH2 0x1F37 JUMPI DUP2 SWAP1 POP JUMPDEST PUSH2 0x1F4B PUSH2 0x1F43 DUP6 PUSH2 0x1E14 JUMP JUMPDEST DUP4 ADD DUP3 PUSH2 0x1EEB JUMP JUMPDEST POP POP JUMPDEST POP POP POP JUMP JUMPDEST PUSH0 DUP3 DUP3 SHR SWAP1 POP SWAP3 SWAP2 POP POP JUMP JUMPDEST PUSH0 PUSH2 0x1F6E PUSH0 NOT DUP5 PUSH1 0x8 MUL PUSH2 0x1F53 JUMP JUMPDEST NOT DUP1 DUP4 AND SWAP2 POP POP SWAP3 SWAP2 POP POP JUMP JUMPDEST PUSH0 PUSH2 0x1F86 DUP4 DUP4 PUSH2 0x1F5F JUMP JUMPDEST SWAP2 POP DUP3 PUSH1 0x2 MUL DUP3 OR SWAP1 POP SWAP3 SWAP2 POP POP JUMP JUMPDEST PUSH2 0x1F9F DUP3 PUSH2 0x16F4 JUMP JUMPDEST PUSH8 0xFFFFFFFFFFFFFFFF DUP2 GT ISZERO PUSH2 0x1FB8 JUMPI PUSH2 0x1FB7 PUSH2 0x17C2 JUMP JUMPDEST JUMPDEST PUSH2 0x1FC2 DUP3 SLOAD PUSH2 0x1DD2 JUMP JUMPDEST PUSH2 0x1FCD DUP3 DUP3 DUP6 PUSH2 0x1F0D JUMP JUMPDEST PUSH0 PUSH1 0x20 SWAP1 POP PUSH1 0x1F DUP4 GT PUSH1 0x1 DUP2 EQ PUSH2 0x1FFE JUMPI PUSH0 DUP5 ISZERO PUSH2 0x1FEC JUMPI DUP3 DUP8 ADD MLOAD SWAP1 POP JUMPDEST PUSH2 0x1FF6 DUP6 DUP3 PUSH2 0x1F7B JUMP JUMPDEST DUP7 SSTORE POP PUSH2 0x205D JUMP JUMPDEST PUSH1 0x1F NOT DUP5 AND PUSH2 0x200C DUP7 PUSH2 0x1E02 JUMP JUMPDEST PUSH0 JUMPDEST DUP3 DUP2 LT ISZERO PUSH2 0x2033 JUMPI DUP5 DUP10 ADD MLOAD DUP3 SSTORE PUSH1 0x1 DUP3 ADD SWAP2 POP PUSH1 0x20 DUP6 ADD SWAP5 POP PUSH1 0x20 DUP2 ADD SWAP1 POP PUSH2 0x200E JUMP JUMPDEST DUP7 DUP4 LT ISZERO PUSH2 0x2050 JUMPI DUP5 DUP10 ADD MLOAD PUSH2 0x204C PUSH1 0x1F DUP10 AND DUP3 PUSH2 0x1F5F JUMP JUMPDEST DUP4 SSTORE POP JUMPDEST PUSH1 0x1 PUSH1 0x2 DUP9 MUL ADD DUP9 SSTORE POP POP POP JUMPDEST POP POP POP POP POP POP JUMP INVALID LOG2 PUSH5 0x6970667358 0x22 SLT KECCAK256 0xEA 0xB4 STATICCALL SWAP14 DUP11 0xD 0xCE SDIV 0xAA KECCAK256 DUP10 PUSH32 0x4784409D7684E60521CFF384F2847238E69E881C64736F6C6343000815003300 "
				},
				"gasEstimates": {
					"creation": {
						"codeDepositCost": "1669400",
						"executionCost": "infinite",
						"totalCost": "infinite"
					},
					"external": {
						"activateCaretaker(address)": "27064",
						"addCaretaker(address,string)": "infinite",
						"assignTask(address,bytes32,uint256,uint256,uint256,uint256)": "infinite",
						"caretakers(address)": "infinite",
						"deactivateCaretaker(address)": "27019",
						"endTask(uint256)": "infinite",
						"getTaskTime(uint256)": "infinite",
						"medicalStaffAddress()": "2554",
						"owner()": "2594",
						"removeCaretaker(address)": "infinite",
						"setMedicalStaffAddress(address)": "26904",
						"startTask(uint256)": "infinite",
						"taskCount()": "2447",
						"taskPriorityHeap()": "infinite",
						"tasks(uint256)": "infinite"
					}
				},
				"methodIdentifiers": {
					"activateCaretaker(address)": "a3748a2e",
					"addCaretaker(address,string)": "edd92a3f",
					"assignTask(address,bytes32,uint256,uint256,uint256,uint256)": "cbcc57ff",
					"caretakers(address)": "dc3489cf",
					"deactivateCaretaker(address)": "9e088b0b",
					"endTask(uint256)": "6115786d",
					"getTaskTime(uint256)": "a19c8958",
					"medicalStaffAddress()": "4a1aedcf",
					"owner()": "8da5cb5b",
					"removeCaretaker(address)": "46cf351e",
					"setMedicalStaffAddress(address)": "9673e405",
					"startTask(uint256)": "5f944326",
					"taskCount()": "b6cb58a5",
					"taskPriorityHeap()": "7e335de2",
					"tasks(uint256)": "8d977672"
				}
			},
			"storageLayout": {
				"storage": [
					{
						"astId": 4,
						"contract": "contracts/HospitalTaskManager.sol:HospitalTaskManager",
						"label": "owner",
						"offset": 0,
						"slot": "0",
						"type": "t_address"
					},
					{
						"astId": 6,
						"contract": "contracts/HospitalTaskManager.sol:HospitalTaskManager",
						"label": "medicalStaffAddress",
						"offset": 0,
						"slot": "1",
						"type": "t_address"
					},
					{
						"astId": 9,
						"contract": "contracts/HospitalTaskManager.sol:HospitalTaskManager",
						"label": "taskPriorityHeap",
						"offset": 0,
						"slot": "2",
						"type": "t_contract(PriorityHeap)640"
					},
					{
						"astId": 63,
						"contract": "contracts/HospitalTaskManager.sol:HospitalTaskManager",
						"label": "caretakers",
						"offset": 0,
						"slot": "3",
						"type": "t_mapping(t_address,t_struct(Caretaker)33_storage)"
					},
					{
						"astId": 68,
						"contract": "contracts/HospitalTaskManager.sol:HospitalTaskManager",
						"label": "tasks",
						"offset": 0,
						"slot": "4",
						"type": "t_mapping(t_uint256,t_struct(Task)58_storage)"
					},
					{
						"astId": 71,
						"contract": "contracts/HospitalTaskManager.sol:HospitalTaskManager",
						"label": "taskCount",
						"offset": 0,
						"slot": "5",
						"type": "t_uint256"
					}
				],
				"types": {
					"t_address": {
						"encoding": "inplace",
						"label": "address",
						"numberOfBytes": "20"
					},
					"t_bool": {
						"encoding": "inplace",
						"label": "bool",
						"numberOfBytes": "1"
					},
					"t_bytes32": {
						"encoding": "inplace",
						"label": "bytes32",
						"numberOfBytes": "32"
					},
					"t_contract(PriorityHeap)640": {
						"encoding": "inplace",
						"label": "contract PriorityHeap",
						"numberOfBytes": "20"
					},
					"t_mapping(t_address,t_struct(Caretaker)33_storage)": {
						"encoding": "mapping",
						"key": "t_address",
						"label": "mapping(address => struct HospitalTaskManager.Caretaker)",
						"numberOfBytes": "32",
						"value": "t_struct(Caretaker)33_storage"
					},
					"t_mapping(t_uint256,t_struct(Task)58_storage)": {
						"encoding": "mapping",
						"key": "t_uint256",
						"label": "mapping(uint256 => struct HospitalTaskManager.Task)",
						"numberOfBytes": "32",
						"value": "t_struct(Task)58_storage"
					},
					"t_string_storage": {
						"encoding": "bytes",
						"label": "string",
						"numberOfBytes": "32"
					},
					"t_struct(Caretaker)33_storage": {
						"encoding": "inplace",
						"label": "struct HospitalTaskManager.Caretaker",
						"members": [
							{
								"astId": 28,
								"contract": "contracts/HospitalTaskManager.sol:HospitalTaskManager",
								"label": "caretakerAddress",
								"offset": 0,
								"slot": "0",
								"type": "t_address"
							},
							{
								"astId": 30,
								"contract": "contracts/HospitalTaskManager.sol:HospitalTaskManager",
								"label": "name",
								"offset": 0,
								"slot": "1",
								"type": "t_string_storage"
							},
							{
								"astId": 32,
								"contract": "contracts/HospitalTaskManager.sol:HospitalTaskManager",
								"label": "isActive",
								"offset": 0,
								"slot": "2",
								"type": "t_bool"
							}
						],
						"numberOfBytes": "96"
					},
					"t_struct(Task)58_storage": {
						"encoding": "inplace",
						"label": "struct HospitalTaskManager.Task",
						"members": [
							{
								"astId": 35,
								"contract": "contracts/HospitalTaskManager.sol:HospitalTaskManager",
								"label": "assignedCaretakerAddress",
								"offset": 0,
								"slot": "0",
								"type": "t_address"
							},
							{
								"astId": 37,
								"contract": "contracts/HospitalTaskManager.sol:HospitalTaskManager",
								"label": "requester",
								"offset": 0,
								"slot": "1",
								"type": "t_address"
							},
							{
								"astId": 39,
								"contract": "contracts/HospitalTaskManager.sol:HospitalTaskManager",
								"label": "patientName",
								"offset": 0,
								"slot": "2",
								"type": "t_bytes32"
							},
							{
								"astId": 41,
								"contract": "contracts/HospitalTaskManager.sol:HospitalTaskManager",
								"label": "roomFrom",
								"offset": 0,
								"slot": "3",
								"type": "t_uint256"
							},
							{
								"astId": 43,
								"contract": "contracts/HospitalTaskManager.sol:HospitalTaskManager",
								"label": "roomTo",
								"offset": 0,
								"slot": "4",
								"type": "t_uint256"
							},
							{
								"astId": 45,
								"contract": "contracts/HospitalTaskManager.sol:HospitalTaskManager",
								"label": "bedNumber",
								"offset": 0,
								"slot": "5",
								"type": "t_uint256"
							},
							{
								"astId": 47,
								"contract": "contracts/HospitalTaskManager.sol:HospitalTaskManager",
								"label": "priority",
								"offset": 0,
								"slot": "6",
								"type": "t_uint256"
							},
							{
								"astId": 49,
								"contract": "contracts/HospitalTaskManager.sol:HospitalTaskManager",
								"label": "isAssigned",
								"offset": 0,
								"slot": "7",
								"type": "t_bool"
							},
							{
								"astId": 51,
								"contract": "contracts/HospitalTaskManager.sol:HospitalTaskManager",
								"label": "isStarted",
								"offset": 1,
								"slot": "7",
								"type": "t_bool"
							},
							{
								"astId": 53,
								"contract": "contracts/HospitalTaskManager.sol:HospitalTaskManager",
								"label": "isCompleted",
								"offset": 2,
								"slot": "7",
								"type": "t_bool"
							},
							{
								"astId": 55,
								"contract": "contracts/HospitalTaskManager.sol:HospitalTaskManager",
								"label": "startTime",
								"offset": 0,
								"slot": "8",
								"type": "t_uint256"
							},
							{
								"astId": 57,
								"contract": "contracts/HospitalTaskManager.sol:HospitalTaskManager",
								"label": "endTime",
								"offset": 0,
								"slot": "9",
								"type": "t_uint256"
							}
						],
						"numberOfBytes": "320"
					},
					"t_uint256": {
						"encoding": "inplace",
						"label": "uint256",
						"numberOfBytes": "32"
					}
				}
			},
			"userdoc": {
				"kind": "user",
				"methods": {},
				"version": 1
			}
		}
	}
}