{
	"contracts/MedicalStaff.sol": {
		"MedicalStaff": {
			"abi": [
				{
					"inputs": [
						{
							"internalType": "address",
							"name": "_hospitalTaskManager",
							"type": "address"
						}
					],
					"stateMutability": "nonpayable",
					"type": "constructor"
				},
				{
					"inputs": [],
					"name": "activateStaff",
					"outputs": [],
					"stateMutability": "nonpayable",
					"type": "function"
				},
				{
					"inputs": [
						{
							"internalType": "address",
							"name": "staffAddress",
							"type": "address"
						}
					],
					"name": "addStaff",
					"outputs": [],
					"stateMutability": "nonpayable",
					"type": "function"
				},
				{
					"inputs": [
						{
							"internalType": "address",
							"name": "requester",
							"type": "address"
						},
						{
							"internalType": "bytes32",
							"name": "patientName",
							"type": "bytes32"
						},
						{
							"internalType": "uint256",
							"name": "roomFrom",
							"type": "uint256"
						},
						{
							"internalType": "uint256",
							"name": "roomTo",
							"type": "uint256"
						},
						{
							"internalType": "uint256",
							"name": "bedNumber",
							"type": "uint256"
						},
						{
							"internalType": "uint256",
							"name": "priority",
							"type": "uint256"
						}
					],
					"name": "assignTaskToCaretaker",
					"outputs": [],
					"stateMutability": "nonpayable",
					"type": "function"
				},
				{
					"inputs": [],
					"name": "deactivateStaff",
					"outputs": [],
					"stateMutability": "nonpayable",
					"type": "function"
				},
				{
					"inputs": [],
					"name": "hospitalTaskManager",
					"outputs": [
						{
							"internalType": "contract IHospitalTaskManager",
							"name": "",
							"type": "address"
						}
					],
					"stateMutability": "view",
					"type": "function"
				},
				{
					"inputs": [],
					"name": "owner",
					"outputs": [
						{
							"internalType": "address",
							"name": "",
							"type": "address"
						}
					],
					"stateMutability": "view",
					"type": "function"
				},
				{
					"inputs": [
						{
							"internalType": "address",
							"name": "staffAddress",
							"type": "address"
						}
					],
					"name": "removeStaff",
					"outputs": [],
					"stateMutability": "nonpayable",
					"type": "function"
				},
				{
					"inputs": [
						{
							"internalType": "address",
							"name": "",
							"type": "address"
						}
					],
					"name": "staffMembers",
					"outputs": [
						{
							"internalType": "bool",
							"name": "isAuthorized",
							"type": "bool"
						},
						{
							"internalType": "bool",
							"name": "isActive",
							"type": "bool"
						}
					],
					"stateMutability": "view",
					"type": "function"
				}
			],
			"devdoc": {
				"kind": "dev",
				"methods": {},
				"version": 1
			},
			"evm": {
				"assembly": "    /* \"contracts/MedicalStaff.sol\":295:1867  contract MedicalStaff {... */\n  mstore(0x40, 0x80)\n    /* \"contracts/MedicalStaff.sol\":542:696  constructor(address _hospitalTaskManager) {... */\n  callvalue\n  dup1\n  iszero\n  tag_1\n  jumpi\n  0x00\n  dup1\n  revert\ntag_1:\n  pop\n  mload(0x40)\n  sub(codesize, bytecodeSize)\n  dup1\n  bytecodeSize\n  dup4\n  codecopy\n  dup2\n  dup2\n  add\n  0x40\n  mstore\n  dup2\n  add\n  swap1\n  tag_2\n  swap2\n  swap1\n  tag_3\n  jump\t// in\ntag_2:\n    /* \"contracts/MedicalStaff.sol\":603:613  msg.sender */\n  caller\n    /* \"contracts/MedicalStaff.sol\":595:600  owner */\n  0x00\n  dup1\n    /* \"contracts/MedicalStaff.sol\":595:613  owner = msg.sender */\n  0x0100\n  exp\n  dup2\n  sload\n  dup2\n  0xffffffffffffffffffffffffffffffffffffffff\n  mul\n  not\n  and\n  swap1\n  dup4\n  0xffffffffffffffffffffffffffffffffffffffff\n  and\n  mul\n  or\n  swap1\n  sstore\n  pop\n    /* \"contracts/MedicalStaff.sol\":667:687  _hospitalTaskManager */\n  dup1\n    /* \"contracts/MedicalStaff.sol\":624:643  hospitalTaskManager */\n  0x01\n  0x00\n    /* \"contracts/MedicalStaff.sol\":624:688  hospitalTaskManager = IHospitalTaskManager(_hospitalTaskManager) */\n  0x0100\n  exp\n  dup2\n  sload\n  dup2\n  0xffffffffffffffffffffffffffffffffffffffff\n  mul\n  not\n  and\n  swap1\n  dup4\n  0xffffffffffffffffffffffffffffffffffffffff\n  and\n  mul\n  or\n  swap1\n  sstore\n  pop\n    /* \"contracts/MedicalStaff.sol\":542:696  constructor(address _hospitalTaskManager) {... */\n  pop\n    /* \"contracts/MedicalStaff.sol\":295:1867  contract MedicalStaff {... */\n  jump(tag_6)\n    /* \"#utility.yul\":88:205   */\ntag_8:\n    /* \"#utility.yul\":197:198   */\n  0x00\n    /* \"#utility.yul\":194:195   */\n  dup1\n    /* \"#utility.yul\":187:199   */\n  revert\n    /* \"#utility.yul\":334:460   */\ntag_10:\n    /* \"#utility.yul\":371:378   */\n  0x00\n    /* \"#utility.yul\":411:453   */\n  0xffffffffffffffffffffffffffffffffffffffff\n    /* \"#utility.yul\":404:409   */\n  dup3\n    /* \"#utility.yul\":400:454   */\n  and\n    /* \"#utility.yul\":389:454   */\n  swap1\n  pop\n    /* \"#utility.yul\":334:460   */\n  swap2\n  swap1\n  pop\n  jump\t// out\n    /* \"#utility.yul\":466:562   */\ntag_11:\n    /* \"#utility.yul\":503:510   */\n  0x00\n    /* \"#utility.yul\":532:556   */\n  tag_20\n    /* \"#utility.yul\":550:555   */\n  dup3\n    /* \"#utility.yul\":532:556   */\n  tag_10\n  jump\t// in\ntag_20:\n    /* \"#utility.yul\":521:556   */\n  swap1\n  pop\n    /* \"#utility.yul\":466:562   */\n  swap2\n  swap1\n  pop\n  jump\t// out\n    /* \"#utility.yul\":568:690   */\ntag_12:\n    /* \"#utility.yul\":641:665   */\n  tag_22\n    /* \"#utility.yul\":659:664   */\n  dup2\n    /* \"#utility.yul\":641:665   */\n  tag_11\n  jump\t// in\ntag_22:\n    /* \"#utility.yul\":634:639   */\n  dup2\n    /* \"#utility.yul\":631:666   */\n  eq\n    /* \"#utility.yul\":621:684   */\n  tag_23\n  jumpi\n    /* \"#utility.yul\":680:681   */\n  0x00\n    /* \"#utility.yul\":677:678   */\n  dup1\n    /* \"#utility.yul\":670:682   */\n  revert\n    /* \"#utility.yul\":621:684   */\ntag_23:\n    /* \"#utility.yul\":568:690   */\n  pop\n  jump\t// out\n    /* \"#utility.yul\":696:839   */\ntag_13:\n    /* \"#utility.yul\":753:758   */\n  0x00\n    /* \"#utility.yul\":784:790   */\n  dup2\n    /* \"#utility.yul\":778:791   */\n  mload\n    /* \"#utility.yul\":769:791   */\n  swap1\n  pop\n    /* \"#utility.yul\":800:833   */\n  tag_25\n    /* \"#utility.yul\":827:832   */\n  dup2\n    /* \"#utility.yul\":800:833   */\n  tag_12\n  jump\t// in\ntag_25:\n    /* \"#utility.yul\":696:839   */\n  swap3\n  swap2\n  pop\n  pop\n  jump\t// out\n    /* \"#utility.yul\":845:1196   */\ntag_3:\n    /* \"#utility.yul\":915:921   */\n  0x00\n    /* \"#utility.yul\":964:966   */\n  0x20\n    /* \"#utility.yul\":952:961   */\n  dup3\n    /* \"#utility.yul\":943:950   */\n  dup5\n    /* \"#utility.yul\":939:962   */\n  sub\n    /* \"#utility.yul\":935:967   */\n  slt\n    /* \"#utility.yul\":932:1051   */\n  iszero\n  tag_27\n  jumpi\n    /* \"#utility.yul\":970:1049   */\n  tag_28\n  tag_8\n  jump\t// in\ntag_28:\n    /* \"#utility.yul\":932:1051   */\ntag_27:\n    /* \"#utility.yul\":1090:1091   */\n  0x00\n    /* \"#utility.yul\":1115:1179   */\n  tag_29\n    /* \"#utility.yul\":1171:1178   */\n  dup5\n    /* \"#utility.yul\":1162:1168   */\n  dup3\n    /* \"#utility.yul\":1151:1160   */\n  dup6\n    /* \"#utility.yul\":1147:1169   */\n  add\n    /* \"#utility.yul\":1115:1179   */\n  tag_13\n  jump\t// in\ntag_29:\n    /* \"#utility.yul\":1105:1179   */\n  swap2\n  pop\n    /* \"#utility.yul\":1061:1189   */\n  pop\n    /* \"#utility.yul\":845:1196   */\n  swap3\n  swap2\n  pop\n  pop\n  jump\t// out\n    /* \"contracts/MedicalStaff.sol\":295:1867  contract MedicalStaff {... */\ntag_6:\n  dataSize(sub_0)\n  dup1\n  dataOffset(sub_0)\n  0x00\n  codecopy\n  0x00\n  return\nstop\n\nsub_0: assembly {\n        /* \"contracts/MedicalStaff.sol\":295:1867  contract MedicalStaff {... */\n      mstore(0x40, 0x80)\n      callvalue\n      dup1\n      iszero\n      tag_1\n      jumpi\n      0x00\n      dup1\n      revert\n    tag_1:\n      pop\n      jumpi(tag_2, lt(calldatasize, 0x04))\n      shr(0xe0, calldataload(0x00))\n      dup1\n      0x611d605d\n      gt\n      tag_11\n      jumpi\n      dup1\n      0x611d605d\n      eq\n      tag_7\n      jumpi\n      dup1\n      0x8da5cb5b\n      eq\n      tag_8\n      jumpi\n      dup1\n      0xc4522c92\n      eq\n      tag_9\n      jumpi\n      dup1\n      0xe8d23972\n      eq\n      tag_10\n      jumpi\n      jump(tag_2)\n    tag_11:\n      dup1\n      0x12120120\n      eq\n      tag_3\n      jumpi\n      dup1\n      0x20b39543\n      eq\n      tag_4\n      jumpi\n      dup1\n      0x522e4c8a\n      eq\n      tag_5\n      jumpi\n      dup1\n      0x5f6ce55a\n      eq\n      tag_6\n      jumpi\n    tag_2:\n      0x00\n      dup1\n      revert\n        /* \"contracts/MedicalStaff.sol\":488:533  mapping(address => Staff) public staffMembers */\n    tag_3:\n      tag_12\n      0x04\n      dup1\n      calldatasize\n      sub\n      dup2\n      add\n      swap1\n      tag_13\n      swap2\n      swap1\n      tag_14\n      jump\t// in\n    tag_13:\n      tag_15\n      jump\t// in\n    tag_12:\n      mload(0x40)\n      tag_16\n      swap3\n      swap2\n      swap1\n      tag_17\n      jump\t// in\n    tag_16:\n      mload(0x40)\n      dup1\n      swap2\n      sub\n      swap1\n      return\n        /* \"contracts/MedicalStaff.sol\":1077:1243  function activateStaff() public {... */\n    tag_4:\n      tag_18\n      tag_19\n      jump\t// in\n    tag_18:\n      stop\n        /* \"contracts/MedicalStaff.sol\":827:949  function addStaff(address staffAddress) public onlyOwner {... */\n    tag_5:\n      tag_20\n      0x04\n      dup1\n      calldatasize\n      sub\n      dup2\n      add\n      swap1\n      tag_21\n      swap2\n      swap1\n      tag_14\n      jump\t// in\n    tag_21:\n      tag_22\n      jump\t// in\n    tag_20:\n      stop\n        /* \"contracts/MedicalStaff.sol\":1251:1420  function deactivateStaff() public {... */\n    tag_6:\n      tag_23\n      tag_24\n      jump\t// in\n    tag_23:\n      stop\n        /* \"contracts/MedicalStaff.sol\":351:398  IHospitalTaskManager public hospitalTaskManager */\n    tag_7:\n      tag_25\n      tag_26\n      jump\t// in\n    tag_25:\n      mload(0x40)\n      tag_27\n      swap2\n      swap1\n      tag_28\n      jump\t// in\n    tag_27:\n      mload(0x40)\n      dup1\n      swap2\n      sub\n      swap1\n      return\n        /* \"contracts/MedicalStaff.sol\":324:344  address public owner */\n    tag_8:\n      tag_29\n      tag_30\n      jump\t// in\n    tag_29:\n      mload(0x40)\n      tag_31\n      swap2\n      swap1\n      tag_32\n      jump\t// in\n    tag_31:\n      mload(0x40)\n      dup1\n      swap2\n      sub\n      swap1\n      return\n        /* \"contracts/MedicalStaff.sol\":957:1069  function removeStaff(address staffAddress) public onlyOwner {... */\n    tag_9:\n      tag_33\n      0x04\n      dup1\n      calldatasize\n      sub\n      dup2\n      add\n      swap1\n      tag_34\n      swap2\n      swap1\n      tag_14\n      jump\t// in\n    tag_34:\n      tag_35\n      jump\t// in\n    tag_33:\n      stop\n        /* \"contracts/MedicalStaff.sol\":1428:1864  function assignTaskToCaretaker(... */\n    tag_10:\n      tag_36\n      0x04\n      dup1\n      calldatasize\n      sub\n      dup2\n      add\n      swap1\n      tag_37\n      swap2\n      swap1\n      tag_38\n      jump\t// in\n    tag_37:\n      tag_39\n      jump\t// in\n    tag_36:\n      stop\n        /* \"contracts/MedicalStaff.sol\":488:533  mapping(address => Staff) public staffMembers */\n    tag_15:\n      mstore(0x20, 0x02)\n      dup1\n      0x00\n      mstore\n      keccak256(0x00, 0x40)\n      0x00\n      swap2\n      pop\n      swap1\n      pop\n      dup1\n      0x00\n      add\n      0x00\n      swap1\n      sload\n      swap1\n      0x0100\n      exp\n      swap1\n      div\n      0xff\n      and\n      swap1\n      dup1\n      0x00\n      add\n      0x01\n      swap1\n      sload\n      swap1\n      0x0100\n      exp\n      swap1\n      div\n      0xff\n      and\n      swap1\n      pop\n      dup3\n      jump\t// out\n        /* \"contracts/MedicalStaff.sol\":1077:1243  function activateStaff() public {... */\n    tag_19:\n        /* \"contracts/MedicalStaff.sol\":1128:1140  staffMembers */\n      0x02\n        /* \"contracts/MedicalStaff.sol\":1128:1152  staffMembers[msg.sender] */\n      0x00\n        /* \"contracts/MedicalStaff.sol\":1141:1151  msg.sender */\n      caller\n        /* \"contracts/MedicalStaff.sol\":1128:1152  staffMembers[msg.sender] */\n      0xffffffffffffffffffffffffffffffffffffffff\n      and\n      0xffffffffffffffffffffffffffffffffffffffff\n      and\n      dup2\n      mstore\n      0x20\n      add\n      swap1\n      dup2\n      mstore\n      0x20\n      add\n      0x00\n      keccak256\n        /* \"contracts/MedicalStaff.sol\":1128:1165  staffMembers[msg.sender].isAuthorized */\n      0x00\n      add\n      0x00\n      swap1\n      sload\n      swap1\n      0x0100\n      exp\n      swap1\n      div\n      0xff\n      and\n        /* \"contracts/MedicalStaff.sol\":1120:1184  require(staffMembers[msg.sender].isAuthorized, \"Not authorized\") */\n      tag_41\n      jumpi\n      mload(0x40)\n      0x08c379a000000000000000000000000000000000000000000000000000000000\n      dup2\n      mstore\n      0x04\n      add\n      tag_42\n      swap1\n      tag_43\n      jump\t// in\n    tag_42:\n      mload(0x40)\n      dup1\n      swap2\n      sub\n      swap1\n      revert\n    tag_41:\n        /* \"contracts/MedicalStaff.sol\":1231:1235  true */\n      0x01\n        /* \"contracts/MedicalStaff.sol\":1195:1207  staffMembers */\n      0x02\n        /* \"contracts/MedicalStaff.sol\":1195:1219  staffMembers[msg.sender] */\n      0x00\n        /* \"contracts/MedicalStaff.sol\":1208:1218  msg.sender */\n      caller\n        /* \"contracts/MedicalStaff.sol\":1195:1219  staffMembers[msg.sender] */\n      0xffffffffffffffffffffffffffffffffffffffff\n      and\n      0xffffffffffffffffffffffffffffffffffffffff\n      and\n      dup2\n      mstore\n      0x20\n      add\n      swap1\n      dup2\n      mstore\n      0x20\n      add\n      0x00\n      keccak256\n        /* \"contracts/MedicalStaff.sol\":1195:1228  staffMembers[msg.sender].isActive */\n      0x00\n      add\n      0x01\n        /* \"contracts/MedicalStaff.sol\":1195:1235  staffMembers[msg.sender].isActive = true */\n      0x0100\n      exp\n      dup2\n      sload\n      dup2\n      0xff\n      mul\n      not\n      and\n      swap1\n      dup4\n      iszero\n      iszero\n      mul\n      or\n      swap1\n      sstore\n      pop\n        /* \"contracts/MedicalStaff.sol\":1077:1243  function activateStaff() public {... */\n      jump\t// out\n        /* \"contracts/MedicalStaff.sol\":827:949  function addStaff(address staffAddress) public onlyOwner {... */\n    tag_22:\n        /* \"contracts/MedicalStaff.sol\":758:763  owner */\n      0x00\n      dup1\n      sload\n      swap1\n      0x0100\n      exp\n      swap1\n      div\n      0xffffffffffffffffffffffffffffffffffffffff\n      and\n        /* \"contracts/MedicalStaff.sol\":744:763  msg.sender == owner */\n      0xffffffffffffffffffffffffffffffffffffffff\n      and\n        /* \"contracts/MedicalStaff.sol\":744:754  msg.sender */\n      caller\n        /* \"contracts/MedicalStaff.sol\":744:763  msg.sender == owner */\n      0xffffffffffffffffffffffffffffffffffffffff\n      and\n      eq\n        /* \"contracts/MedicalStaff.sol\":736:799  require(msg.sender == owner, \"Only the owner can execute this\") */\n      tag_45\n      jumpi\n      mload(0x40)\n      0x08c379a000000000000000000000000000000000000000000000000000000000\n      dup2\n      mstore\n      0x04\n      add\n      tag_46\n      swap1\n      tag_47\n      jump\t// in\n    tag_46:\n      mload(0x40)\n      dup1\n      swap2\n      sub\n      swap1\n      revert\n    tag_45:\n        /* \"contracts/MedicalStaff.sol\":924:941  Staff(true, true) */\n      mload(0x40)\n      dup1\n      0x40\n      add\n      0x40\n      mstore\n      dup1\n        /* \"contracts/MedicalStaff.sol\":930:934  true */\n      0x01\n        /* \"contracts/MedicalStaff.sol\":924:941  Staff(true, true) */\n      iszero\n      iszero\n      dup2\n      mstore\n      0x20\n      add\n        /* \"contracts/MedicalStaff.sol\":936:940  true */\n      0x01\n        /* \"contracts/MedicalStaff.sol\":924:941  Staff(true, true) */\n      iszero\n      iszero\n      dup2\n      mstore\n      pop\n        /* \"contracts/MedicalStaff.sol\":895:907  staffMembers */\n      0x02\n        /* \"contracts/MedicalStaff.sol\":895:921  staffMembers[staffAddress] */\n      0x00\n        /* \"contracts/MedicalStaff.sol\":908:920  staffAddress */\n      dup4\n        /* \"contracts/MedicalStaff.sol\":895:921  staffMembers[staffAddress] */\n      0xffffffffffffffffffffffffffffffffffffffff\n      and\n      0xffffffffffffffffffffffffffffffffffffffff\n      and\n      dup2\n      mstore\n      0x20\n      add\n      swap1\n      dup2\n      mstore\n      0x20\n      add\n      0x00\n      keccak256\n        /* \"contracts/MedicalStaff.sol\":895:941  staffMembers[staffAddress] = Staff(true, true) */\n      0x00\n      dup3\n      add\n      mload\n      dup2\n      0x00\n      add\n      exp(0x0100, 0x00)\n      dup2\n      sload\n      dup2\n      0xff\n      mul\n      not\n      and\n      swap1\n      dup4\n      iszero\n      iszero\n      mul\n      or\n      swap1\n      sstore\n      pop\n      0x20\n      dup3\n      add\n      mload\n      dup2\n      0x00\n      add\n      exp(0x0100, 0x01)\n      dup2\n      sload\n      dup2\n      0xff\n      mul\n      not\n      and\n      swap1\n      dup4\n      iszero\n      iszero\n      mul\n      or\n      swap1\n      sstore\n      pop\n      swap1\n      pop\n      pop\n        /* \"contracts/MedicalStaff.sol\":827:949  function addStaff(address staffAddress) public onlyOwner {... */\n      pop\n      jump\t// out\n        /* \"contracts/MedicalStaff.sol\":1251:1420  function deactivateStaff() public {... */\n    tag_24:\n        /* \"contracts/MedicalStaff.sol\":1304:1316  staffMembers */\n      0x02\n        /* \"contracts/MedicalStaff.sol\":1304:1328  staffMembers[msg.sender] */\n      0x00\n        /* \"contracts/MedicalStaff.sol\":1317:1327  msg.sender */\n      caller\n        /* \"contracts/MedicalStaff.sol\":1304:1328  staffMembers[msg.sender] */\n      0xffffffffffffffffffffffffffffffffffffffff\n      and\n      0xffffffffffffffffffffffffffffffffffffffff\n      and\n      dup2\n      mstore\n      0x20\n      add\n      swap1\n      dup2\n      mstore\n      0x20\n      add\n      0x00\n      keccak256\n        /* \"contracts/MedicalStaff.sol\":1304:1341  staffMembers[msg.sender].isAuthorized */\n      0x00\n      add\n      0x00\n      swap1\n      sload\n      swap1\n      0x0100\n      exp\n      swap1\n      div\n      0xff\n      and\n        /* \"contracts/MedicalStaff.sol\":1296:1360  require(staffMembers[msg.sender].isAuthorized, \"Not authorized\") */\n      tag_50\n      jumpi\n      mload(0x40)\n      0x08c379a000000000000000000000000000000000000000000000000000000000\n      dup2\n      mstore\n      0x04\n      add\n      tag_51\n      swap1\n      tag_43\n      jump\t// in\n    tag_51:\n      mload(0x40)\n      dup1\n      swap2\n      sub\n      swap1\n      revert\n    tag_50:\n        /* \"contracts/MedicalStaff.sol\":1407:1412  false */\n      0x00\n        /* \"contracts/MedicalStaff.sol\":1371:1383  staffMembers */\n      0x02\n        /* \"contracts/MedicalStaff.sol\":1371:1395  staffMembers[msg.sender] */\n      0x00\n        /* \"contracts/MedicalStaff.sol\":1384:1394  msg.sender */\n      caller\n        /* \"contracts/MedicalStaff.sol\":1371:1395  staffMembers[msg.sender] */\n      0xffffffffffffffffffffffffffffffffffffffff\n      and\n      0xffffffffffffffffffffffffffffffffffffffff\n      and\n      dup2\n      mstore\n      0x20\n      add\n      swap1\n      dup2\n      mstore\n      0x20\n      add\n      0x00\n      keccak256\n        /* \"contracts/MedicalStaff.sol\":1371:1404  staffMembers[msg.sender].isActive */\n      0x00\n      add\n      0x01\n        /* \"contracts/MedicalStaff.sol\":1371:1412  staffMembers[msg.sender].isActive = false */\n      0x0100\n      exp\n      dup2\n      sload\n      dup2\n      0xff\n      mul\n      not\n      and\n      swap1\n      dup4\n      iszero\n      iszero\n      mul\n      or\n      swap1\n      sstore\n      pop\n        /* \"contracts/MedicalStaff.sol\":1251:1420  function deactivateStaff() public {... */\n      jump\t// out\n        /* \"contracts/MedicalStaff.sol\":351:398  IHospitalTaskManager public hospitalTaskManager */\n    tag_26:\n      0x01\n      0x00\n      swap1\n      sload\n      swap1\n      0x0100\n      exp\n      swap1\n      div\n      0xffffffffffffffffffffffffffffffffffffffff\n      and\n      dup2\n      jump\t// out\n        /* \"contracts/MedicalStaff.sol\":324:344  address public owner */\n    tag_30:\n      0x00\n      dup1\n      sload\n      swap1\n      0x0100\n      exp\n      swap1\n      div\n      0xffffffffffffffffffffffffffffffffffffffff\n      and\n      dup2\n      jump\t// out\n        /* \"contracts/MedicalStaff.sol\":957:1069  function removeStaff(address staffAddress) public onlyOwner {... */\n    tag_35:\n        /* \"contracts/MedicalStaff.sol\":758:763  owner */\n      0x00\n      dup1\n      sload\n      swap1\n      0x0100\n      exp\n      swap1\n      div\n      0xffffffffffffffffffffffffffffffffffffffff\n      and\n        /* \"contracts/MedicalStaff.sol\":744:763  msg.sender == owner */\n      0xffffffffffffffffffffffffffffffffffffffff\n      and\n        /* \"contracts/MedicalStaff.sol\":744:754  msg.sender */\n      caller\n        /* \"contracts/MedicalStaff.sol\":744:763  msg.sender == owner */\n      0xffffffffffffffffffffffffffffffffffffffff\n      and\n      eq\n        /* \"contracts/MedicalStaff.sol\":736:799  require(msg.sender == owner, \"Only the owner can execute this\") */\n      tag_53\n      jumpi\n      mload(0x40)\n      0x08c379a000000000000000000000000000000000000000000000000000000000\n      dup2\n      mstore\n      0x04\n      add\n      tag_54\n      swap1\n      tag_47\n      jump\t// in\n    tag_54:\n      mload(0x40)\n      dup1\n      swap2\n      sub\n      swap1\n      revert\n    tag_53:\n        /* \"contracts/MedicalStaff.sol\":1035:1047  staffMembers */\n      0x02\n        /* \"contracts/MedicalStaff.sol\":1035:1061  staffMembers[staffAddress] */\n      0x00\n        /* \"contracts/MedicalStaff.sol\":1048:1060  staffAddress */\n      dup3\n        /* \"contracts/MedicalStaff.sol\":1035:1061  staffMembers[staffAddress] */\n      0xffffffffffffffffffffffffffffffffffffffff\n      and\n      0xffffffffffffffffffffffffffffffffffffffff\n      and\n      dup2\n      mstore\n      0x20\n      add\n      swap1\n      dup2\n      mstore\n      0x20\n      add\n      0x00\n      keccak256\n      0x00\n        /* \"contracts/MedicalStaff.sol\":1028:1061  delete staffMembers[staffAddress] */\n      dup1\n      dup3\n      add\n      exp(0x0100, 0x00)\n      dup2\n      sload\n      swap1\n      0xff\n      mul\n      not\n      and\n      swap1\n      sstore\n      0x00\n      dup3\n      add\n      exp(0x0100, 0x01)\n      dup2\n      sload\n      swap1\n      0xff\n      mul\n      not\n      and\n      swap1\n      sstore\n      pop\n      pop\n        /* \"contracts/MedicalStaff.sol\":957:1069  function removeStaff(address staffAddress) public onlyOwner {... */\n      pop\n      jump\t// out\n        /* \"contracts/MedicalStaff.sol\":1428:1864  function assignTaskToCaretaker(... */\n    tag_39:\n        /* \"contracts/MedicalStaff.sol\":1645:1657  staffMembers */\n      0x02\n        /* \"contracts/MedicalStaff.sol\":1645:1669  staffMembers[msg.sender] */\n      0x00\n        /* \"contracts/MedicalStaff.sol\":1658:1668  msg.sender */\n      caller\n        /* \"contracts/MedicalStaff.sol\":1645:1669  staffMembers[msg.sender] */\n      0xffffffffffffffffffffffffffffffffffffffff\n      and\n      0xffffffffffffffffffffffffffffffffffffffff\n      and\n      dup2\n      mstore\n      0x20\n      add\n      swap1\n      dup2\n      mstore\n      0x20\n      add\n      0x00\n      keccak256\n        /* \"contracts/MedicalStaff.sol\":1645:1682  staffMembers[msg.sender].isAuthorized */\n      0x00\n      add\n      0x00\n      swap1\n      sload\n      swap1\n      0x0100\n      exp\n      swap1\n      div\n      0xff\n      and\n        /* \"contracts/MedicalStaff.sol\":1645:1719  staffMembers[msg.sender].isAuthorized && staffMembers[msg.sender].isActive */\n      dup1\n      iszero\n      tag_57\n      jumpi\n      pop\n        /* \"contracts/MedicalStaff.sol\":1686:1698  staffMembers */\n      0x02\n        /* \"contracts/MedicalStaff.sol\":1686:1710  staffMembers[msg.sender] */\n      0x00\n        /* \"contracts/MedicalStaff.sol\":1699:1709  msg.sender */\n      caller\n        /* \"contracts/MedicalStaff.sol\":1686:1710  staffMembers[msg.sender] */\n      0xffffffffffffffffffffffffffffffffffffffff\n      and\n      0xffffffffffffffffffffffffffffffffffffffff\n      and\n      dup2\n      mstore\n      0x20\n      add\n      swap1\n      dup2\n      mstore\n      0x20\n      add\n      0x00\n      keccak256\n        /* \"contracts/MedicalStaff.sol\":1686:1719  staffMembers[msg.sender].isActive */\n      0x00\n      add\n      0x01\n      swap1\n      sload\n      swap1\n      0x0100\n      exp\n      swap1\n      div\n      0xff\n      and\n        /* \"contracts/MedicalStaff.sol\":1645:1719  staffMembers[msg.sender].isAuthorized && staffMembers[msg.sender].isActive */\n    tag_57:\n        /* \"contracts/MedicalStaff.sol\":1637:1752  require(staffMembers[msg.sender].isAuthorized && staffMembers[msg.sender].isActive, \"Not authorized or not active\") */\n      tag_58\n      jumpi\n      mload(0x40)\n      0x08c379a000000000000000000000000000000000000000000000000000000000\n      dup2\n      mstore\n      0x04\n      add\n      tag_59\n      swap1\n      tag_60\n      jump\t// in\n    tag_59:\n      mload(0x40)\n      dup1\n      swap2\n      sub\n      swap1\n      revert\n    tag_58:\n        /* \"contracts/MedicalStaff.sol\":1763:1782  hospitalTaskManager */\n      0x01\n      0x00\n      swap1\n      sload\n      swap1\n      0x0100\n      exp\n      swap1\n      div\n      0xffffffffffffffffffffffffffffffffffffffff\n      and\n        /* \"contracts/MedicalStaff.sol\":1763:1793  hospitalTaskManager.assignTask */\n      0xffffffffffffffffffffffffffffffffffffffff\n      and\n      0xcbcc57ff\n        /* \"contracts/MedicalStaff.sol\":1794:1803  requester */\n      dup8\n        /* \"contracts/MedicalStaff.sol\":1805:1816  patientName */\n      dup8\n        /* \"contracts/MedicalStaff.sol\":1818:1826  roomFrom */\n      dup8\n        /* \"contracts/MedicalStaff.sol\":1828:1834  roomTo */\n      dup8\n        /* \"contracts/MedicalStaff.sol\":1836:1845  bedNumber */\n      dup8\n        /* \"contracts/MedicalStaff.sol\":1847:1855  priority */\n      dup8\n        /* \"contracts/MedicalStaff.sol\":1763:1856  hospitalTaskManager.assignTask(requester, patientName, roomFrom, roomTo, bedNumber, priority) */\n      mload(0x40)\n      dup8\n      0xffffffff\n      and\n      0xe0\n      shl\n      dup2\n      mstore\n      0x04\n      add\n      tag_61\n      swap7\n      swap6\n      swap5\n      swap4\n      swap3\n      swap2\n      swap1\n      tag_62\n      jump\t// in\n    tag_61:\n      0x00\n      mload(0x40)\n      dup1\n      dup4\n      sub\n      dup2\n      0x00\n      dup8\n      dup1\n      extcodesize\n      iszero\n      dup1\n      iszero\n      tag_63\n      jumpi\n      0x00\n      dup1\n      revert\n    tag_63:\n      pop\n      gas\n      call\n      iszero\n      dup1\n      iszero\n      tag_65\n      jumpi\n      returndatasize\n      0x00\n      dup1\n      returndatacopy\n      revert(0x00, returndatasize)\n    tag_65:\n      pop\n      pop\n      pop\n      pop\n        /* \"contracts/MedicalStaff.sol\":1428:1864  function assignTaskToCaretaker(... */\n      pop\n      pop\n      pop\n      pop\n      pop\n      pop\n      jump\t// out\n        /* \"#utility.yul\":88:205   */\n    tag_67:\n        /* \"#utility.yul\":197:198   */\n      0x00\n        /* \"#utility.yul\":194:195   */\n      dup1\n        /* \"#utility.yul\":187:199   */\n      revert\n        /* \"#utility.yul\":334:460   */\n    tag_69:\n        /* \"#utility.yul\":371:378   */\n      0x00\n        /* \"#utility.yul\":411:453   */\n      0xffffffffffffffffffffffffffffffffffffffff\n        /* \"#utility.yul\":404:409   */\n      dup3\n        /* \"#utility.yul\":400:454   */\n      and\n        /* \"#utility.yul\":389:454   */\n      swap1\n      pop\n        /* \"#utility.yul\":334:460   */\n      swap2\n      swap1\n      pop\n      jump\t// out\n        /* \"#utility.yul\":466:562   */\n    tag_70:\n        /* \"#utility.yul\":503:510   */\n      0x00\n        /* \"#utility.yul\":532:556   */\n      tag_102\n        /* \"#utility.yul\":550:555   */\n      dup3\n        /* \"#utility.yul\":532:556   */\n      tag_69\n      jump\t// in\n    tag_102:\n        /* \"#utility.yul\":521:556   */\n      swap1\n      pop\n        /* \"#utility.yul\":466:562   */\n      swap2\n      swap1\n      pop\n      jump\t// out\n        /* \"#utility.yul\":568:690   */\n    tag_71:\n        /* \"#utility.yul\":641:665   */\n      tag_104\n        /* \"#utility.yul\":659:664   */\n      dup2\n        /* \"#utility.yul\":641:665   */\n      tag_70\n      jump\t// in\n    tag_104:\n        /* \"#utility.yul\":634:639   */\n      dup2\n        /* \"#utility.yul\":631:666   */\n      eq\n        /* \"#utility.yul\":621:684   */\n      tag_105\n      jumpi\n        /* \"#utility.yul\":680:681   */\n      0x00\n        /* \"#utility.yul\":677:678   */\n      dup1\n        /* \"#utility.yul\":670:682   */\n      revert\n        /* \"#utility.yul\":621:684   */\n    tag_105:\n        /* \"#utility.yul\":568:690   */\n      pop\n      jump\t// out\n        /* \"#utility.yul\":696:835   */\n    tag_72:\n        /* \"#utility.yul\":742:747   */\n      0x00\n        /* \"#utility.yul\":780:786   */\n      dup2\n        /* \"#utility.yul\":767:787   */\n      calldataload\n        /* \"#utility.yul\":758:787   */\n      swap1\n      pop\n        /* \"#utility.yul\":796:829   */\n      tag_107\n        /* \"#utility.yul\":823:828   */\n      dup2\n        /* \"#utility.yul\":796:829   */\n      tag_71\n      jump\t// in\n    tag_107:\n        /* \"#utility.yul\":696:835   */\n      swap3\n      swap2\n      pop\n      pop\n      jump\t// out\n        /* \"#utility.yul\":841:1170   */\n    tag_14:\n        /* \"#utility.yul\":900:906   */\n      0x00\n        /* \"#utility.yul\":949:951   */\n      0x20\n        /* \"#utility.yul\":937:946   */\n      dup3\n        /* \"#utility.yul\":928:935   */\n      dup5\n        /* \"#utility.yul\":924:947   */\n      sub\n        /* \"#utility.yul\":920:952   */\n      slt\n        /* \"#utility.yul\":917:1036   */\n      iszero\n      tag_109\n      jumpi\n        /* \"#utility.yul\":955:1034   */\n      tag_110\n      tag_67\n      jump\t// in\n    tag_110:\n        /* \"#utility.yul\":917:1036   */\n    tag_109:\n        /* \"#utility.yul\":1075:1076   */\n      0x00\n        /* \"#utility.yul\":1100:1153   */\n      tag_111\n        /* \"#utility.yul\":1145:1152   */\n      dup5\n        /* \"#utility.yul\":1136:1142   */\n      dup3\n        /* \"#utility.yul\":1125:1134   */\n      dup6\n        /* \"#utility.yul\":1121:1143   */\n      add\n        /* \"#utility.yul\":1100:1153   */\n      tag_72\n      jump\t// in\n    tag_111:\n        /* \"#utility.yul\":1090:1153   */\n      swap2\n      pop\n        /* \"#utility.yul\":1046:1163   */\n      pop\n        /* \"#utility.yul\":841:1170   */\n      swap3\n      swap2\n      pop\n      pop\n      jump\t// out\n        /* \"#utility.yul\":1176:1266   */\n    tag_73:\n        /* \"#utility.yul\":1210:1217   */\n      0x00\n        /* \"#utility.yul\":1253:1258   */\n      dup2\n        /* \"#utility.yul\":1246:1259   */\n      iszero\n        /* \"#utility.yul\":1239:1260   */\n      iszero\n        /* \"#utility.yul\":1228:1260   */\n      swap1\n      pop\n        /* \"#utility.yul\":1176:1266   */\n      swap2\n      swap1\n      pop\n      jump\t// out\n        /* \"#utility.yul\":1272:1381   */\n    tag_74:\n        /* \"#utility.yul\":1353:1374   */\n      tag_114\n        /* \"#utility.yul\":1368:1373   */\n      dup2\n        /* \"#utility.yul\":1353:1374   */\n      tag_73\n      jump\t// in\n    tag_114:\n        /* \"#utility.yul\":1348:1351   */\n      dup3\n        /* \"#utility.yul\":1341:1375   */\n      mstore\n        /* \"#utility.yul\":1272:1381   */\n      pop\n      pop\n      jump\t// out\n        /* \"#utility.yul\":1387:1695   */\n    tag_17:\n        /* \"#utility.yul\":1496:1500   */\n      0x00\n        /* \"#utility.yul\":1534:1536   */\n      0x40\n        /* \"#utility.yul\":1523:1532   */\n      dup3\n        /* \"#utility.yul\":1519:1537   */\n      add\n        /* \"#utility.yul\":1511:1537   */\n      swap1\n      pop\n        /* \"#utility.yul\":1547:1612   */\n      tag_116\n        /* \"#utility.yul\":1609:1610   */\n      0x00\n        /* \"#utility.yul\":1598:1607   */\n      dup4\n        /* \"#utility.yul\":1594:1611   */\n      add\n        /* \"#utility.yul\":1585:1591   */\n      dup6\n        /* \"#utility.yul\":1547:1612   */\n      tag_74\n      jump\t// in\n    tag_116:\n        /* \"#utility.yul\":1622:1688   */\n      tag_117\n        /* \"#utility.yul\":1684:1686   */\n      0x20\n        /* \"#utility.yul\":1673:1682   */\n      dup4\n        /* \"#utility.yul\":1669:1687   */\n      add\n        /* \"#utility.yul\":1660:1666   */\n      dup5\n        /* \"#utility.yul\":1622:1688   */\n      tag_74\n      jump\t// in\n    tag_117:\n        /* \"#utility.yul\":1387:1695   */\n      swap4\n      swap3\n      pop\n      pop\n      pop\n      jump\t// out\n        /* \"#utility.yul\":1701:1761   */\n    tag_75:\n        /* \"#utility.yul\":1729:1732   */\n      0x00\n        /* \"#utility.yul\":1750:1755   */\n      dup2\n        /* \"#utility.yul\":1743:1755   */\n      swap1\n      pop\n        /* \"#utility.yul\":1701:1761   */\n      swap2\n      swap1\n      pop\n      jump\t// out\n        /* \"#utility.yul\":1767:1909   */\n    tag_76:\n        /* \"#utility.yul\":1817:1826   */\n      0x00\n        /* \"#utility.yul\":1850:1903   */\n      tag_120\n        /* \"#utility.yul\":1868:1902   */\n      tag_121\n        /* \"#utility.yul\":1877:1901   */\n      tag_122\n        /* \"#utility.yul\":1895:1900   */\n      dup5\n        /* \"#utility.yul\":1877:1901   */\n      tag_69\n      jump\t// in\n    tag_122:\n        /* \"#utility.yul\":1868:1902   */\n      tag_75\n      jump\t// in\n    tag_121:\n        /* \"#utility.yul\":1850:1903   */\n      tag_69\n      jump\t// in\n    tag_120:\n        /* \"#utility.yul\":1837:1903   */\n      swap1\n      pop\n        /* \"#utility.yul\":1767:1909   */\n      swap2\n      swap1\n      pop\n      jump\t// out\n        /* \"#utility.yul\":1915:2041   */\n    tag_77:\n        /* \"#utility.yul\":1965:1974   */\n      0x00\n        /* \"#utility.yul\":1998:2035   */\n      tag_124\n        /* \"#utility.yul\":2029:2034   */\n      dup3\n        /* \"#utility.yul\":1998:2035   */\n      tag_76\n      jump\t// in\n    tag_124:\n        /* \"#utility.yul\":1985:2035   */\n      swap1\n      pop\n        /* \"#utility.yul\":1915:2041   */\n      swap2\n      swap1\n      pop\n      jump\t// out\n        /* \"#utility.yul\":2047:2200   */\n    tag_78:\n        /* \"#utility.yul\":2124:2133   */\n      0x00\n        /* \"#utility.yul\":2157:2194   */\n      tag_126\n        /* \"#utility.yul\":2188:2193   */\n      dup3\n        /* \"#utility.yul\":2157:2194   */\n      tag_77\n      jump\t// in\n    tag_126:\n        /* \"#utility.yul\":2144:2194   */\n      swap1\n      pop\n        /* \"#utility.yul\":2047:2200   */\n      swap2\n      swap1\n      pop\n      jump\t// out\n        /* \"#utility.yul\":2206:2391   */\n    tag_79:\n        /* \"#utility.yul\":2320:2384   */\n      tag_128\n        /* \"#utility.yul\":2378:2383   */\n      dup2\n        /* \"#utility.yul\":2320:2384   */\n      tag_78\n      jump\t// in\n    tag_128:\n        /* \"#utility.yul\":2315:2318   */\n      dup3\n        /* \"#utility.yul\":2308:2385   */\n      mstore\n        /* \"#utility.yul\":2206:2391   */\n      pop\n      pop\n      jump\t// out\n        /* \"#utility.yul\":2397:2673   */\n    tag_28:\n        /* \"#utility.yul\":2517:2521   */\n      0x00\n        /* \"#utility.yul\":2555:2557   */\n      0x20\n        /* \"#utility.yul\":2544:2553   */\n      dup3\n        /* \"#utility.yul\":2540:2558   */\n      add\n        /* \"#utility.yul\":2532:2558   */\n      swap1\n      pop\n        /* \"#utility.yul\":2568:2666   */\n      tag_130\n        /* \"#utility.yul\":2663:2664   */\n      0x00\n        /* \"#utility.yul\":2652:2661   */\n      dup4\n        /* \"#utility.yul\":2648:2665   */\n      add\n        /* \"#utility.yul\":2639:2645   */\n      dup5\n        /* \"#utility.yul\":2568:2666   */\n      tag_79\n      jump\t// in\n    tag_130:\n        /* \"#utility.yul\":2397:2673   */\n      swap3\n      swap2\n      pop\n      pop\n      jump\t// out\n        /* \"#utility.yul\":2679:2797   */\n    tag_80:\n        /* \"#utility.yul\":2766:2790   */\n      tag_132\n        /* \"#utility.yul\":2784:2789   */\n      dup2\n        /* \"#utility.yul\":2766:2790   */\n      tag_70\n      jump\t// in\n    tag_132:\n        /* \"#utility.yul\":2761:2764   */\n      dup3\n        /* \"#utility.yul\":2754:2791   */\n      mstore\n        /* \"#utility.yul\":2679:2797   */\n      pop\n      pop\n      jump\t// out\n        /* \"#utility.yul\":2803:3025   */\n    tag_32:\n        /* \"#utility.yul\":2896:2900   */\n      0x00\n        /* \"#utility.yul\":2934:2936   */\n      0x20\n        /* \"#utility.yul\":2923:2932   */\n      dup3\n        /* \"#utility.yul\":2919:2937   */\n      add\n        /* \"#utility.yul\":2911:2937   */\n      swap1\n      pop\n        /* \"#utility.yul\":2947:3018   */\n      tag_134\n        /* \"#utility.yul\":3015:3016   */\n      0x00\n        /* \"#utility.yul\":3004:3013   */\n      dup4\n        /* \"#utility.yul\":3000:3017   */\n      add\n        /* \"#utility.yul\":2991:2997   */\n      dup5\n        /* \"#utility.yul\":2947:3018   */\n      tag_80\n      jump\t// in\n    tag_134:\n        /* \"#utility.yul\":2803:3025   */\n      swap3\n      swap2\n      pop\n      pop\n      jump\t// out\n        /* \"#utility.yul\":3031:3108   */\n    tag_81:\n        /* \"#utility.yul\":3068:3075   */\n      0x00\n        /* \"#utility.yul\":3097:3102   */\n      dup2\n        /* \"#utility.yul\":3086:3102   */\n      swap1\n      pop\n        /* \"#utility.yul\":3031:3108   */\n      swap2\n      swap1\n      pop\n      jump\t// out\n        /* \"#utility.yul\":3114:3236   */\n    tag_82:\n        /* \"#utility.yul\":3187:3211   */\n      tag_137\n        /* \"#utility.yul\":3205:3210   */\n      dup2\n        /* \"#utility.yul\":3187:3211   */\n      tag_81\n      jump\t// in\n    tag_137:\n        /* \"#utility.yul\":3180:3185   */\n      dup2\n        /* \"#utility.yul\":3177:3212   */\n      eq\n        /* \"#utility.yul\":3167:3230   */\n      tag_138\n      jumpi\n        /* \"#utility.yul\":3226:3227   */\n      0x00\n        /* \"#utility.yul\":3223:3224   */\n      dup1\n        /* \"#utility.yul\":3216:3228   */\n      revert\n        /* \"#utility.yul\":3167:3230   */\n    tag_138:\n        /* \"#utility.yul\":3114:3236   */\n      pop\n      jump\t// out\n        /* \"#utility.yul\":3242:3381   */\n    tag_83:\n        /* \"#utility.yul\":3288:3293   */\n      0x00\n        /* \"#utility.yul\":3326:3332   */\n      dup2\n        /* \"#utility.yul\":3313:3333   */\n      calldataload\n        /* \"#utility.yul\":3304:3333   */\n      swap1\n      pop\n        /* \"#utility.yul\":3342:3375   */\n      tag_140\n        /* \"#utility.yul\":3369:3374   */\n      dup2\n        /* \"#utility.yul\":3342:3375   */\n      tag_82\n      jump\t// in\n    tag_140:\n        /* \"#utility.yul\":3242:3381   */\n      swap3\n      swap2\n      pop\n      pop\n      jump\t// out\n        /* \"#utility.yul\":3387:3464   */\n    tag_84:\n        /* \"#utility.yul\":3424:3431   */\n      0x00\n        /* \"#utility.yul\":3453:3458   */\n      dup2\n        /* \"#utility.yul\":3442:3458   */\n      swap1\n      pop\n        /* \"#utility.yul\":3387:3464   */\n      swap2\n      swap1\n      pop\n      jump\t// out\n        /* \"#utility.yul\":3470:3592   */\n    tag_85:\n        /* \"#utility.yul\":3543:3567   */\n      tag_143\n        /* \"#utility.yul\":3561:3566   */\n      dup2\n        /* \"#utility.yul\":3543:3567   */\n      tag_84\n      jump\t// in\n    tag_143:\n        /* \"#utility.yul\":3536:3541   */\n      dup2\n        /* \"#utility.yul\":3533:3568   */\n      eq\n        /* \"#utility.yul\":3523:3586   */\n      tag_144\n      jumpi\n        /* \"#utility.yul\":3582:3583   */\n      0x00\n        /* \"#utility.yul\":3579:3580   */\n      dup1\n        /* \"#utility.yul\":3572:3584   */\n      revert\n        /* \"#utility.yul\":3523:3586   */\n    tag_144:\n        /* \"#utility.yul\":3470:3592   */\n      pop\n      jump\t// out\n        /* \"#utility.yul\":3598:3737   */\n    tag_86:\n        /* \"#utility.yul\":3644:3649   */\n      0x00\n        /* \"#utility.yul\":3682:3688   */\n      dup2\n        /* \"#utility.yul\":3669:3689   */\n      calldataload\n        /* \"#utility.yul\":3660:3689   */\n      swap1\n      pop\n        /* \"#utility.yul\":3698:3731   */\n      tag_146\n        /* \"#utility.yul\":3725:3730   */\n      dup2\n        /* \"#utility.yul\":3698:3731   */\n      tag_85\n      jump\t// in\n    tag_146:\n        /* \"#utility.yul\":3598:3737   */\n      swap3\n      swap2\n      pop\n      pop\n      jump\t// out\n        /* \"#utility.yul\":3743:4800   */\n    tag_38:\n        /* \"#utility.yul\":3847:3853   */\n      0x00\n        /* \"#utility.yul\":3855:3861   */\n      dup1\n        /* \"#utility.yul\":3863:3869   */\n      0x00\n        /* \"#utility.yul\":3871:3877   */\n      dup1\n        /* \"#utility.yul\":3879:3885   */\n      0x00\n        /* \"#utility.yul\":3887:3893   */\n      dup1\n        /* \"#utility.yul\":3936:3939   */\n      0xc0\n        /* \"#utility.yul\":3924:3933   */\n      dup8\n        /* \"#utility.yul\":3915:3922   */\n      dup10\n        /* \"#utility.yul\":3911:3934   */\n      sub\n        /* \"#utility.yul\":3907:3940   */\n      slt\n        /* \"#utility.yul\":3904:4024   */\n      iszero\n      tag_148\n      jumpi\n        /* \"#utility.yul\":3943:4022   */\n      tag_149\n      tag_67\n      jump\t// in\n    tag_149:\n        /* \"#utility.yul\":3904:4024   */\n    tag_148:\n        /* \"#utility.yul\":4063:4064   */\n      0x00\n        /* \"#utility.yul\":4088:4141   */\n      tag_150\n        /* \"#utility.yul\":4133:4140   */\n      dup10\n        /* \"#utility.yul\":4124:4130   */\n      dup3\n        /* \"#utility.yul\":4113:4122   */\n      dup11\n        /* \"#utility.yul\":4109:4131   */\n      add\n        /* \"#utility.yul\":4088:4141   */\n      tag_72\n      jump\t// in\n    tag_150:\n        /* \"#utility.yul\":4078:4141   */\n      swap7\n      pop\n        /* \"#utility.yul\":4034:4151   */\n      pop\n        /* \"#utility.yul\":4190:4192   */\n      0x20\n        /* \"#utility.yul\":4216:4269   */\n      tag_151\n        /* \"#utility.yul\":4261:4268   */\n      dup10\n        /* \"#utility.yul\":4252:4258   */\n      dup3\n        /* \"#utility.yul\":4241:4250   */\n      dup11\n        /* \"#utility.yul\":4237:4259   */\n      add\n        /* \"#utility.yul\":4216:4269   */\n      tag_83\n      jump\t// in\n    tag_151:\n        /* \"#utility.yul\":4206:4269   */\n      swap6\n      pop\n        /* \"#utility.yul\":4161:4279   */\n      pop\n        /* \"#utility.yul\":4318:4320   */\n      0x40\n        /* \"#utility.yul\":4344:4397   */\n      tag_152\n        /* \"#utility.yul\":4389:4396   */\n      dup10\n        /* \"#utility.yul\":4380:4386   */\n      dup3\n        /* \"#utility.yul\":4369:4378   */\n      dup11\n        /* \"#utility.yul\":4365:4387   */\n      add\n        /* \"#utility.yul\":4344:4397   */\n      tag_86\n      jump\t// in\n    tag_152:\n        /* \"#utility.yul\":4334:4397   */\n      swap5\n      pop\n        /* \"#utility.yul\":4289:4407   */\n      pop\n        /* \"#utility.yul\":4446:4448   */\n      0x60\n        /* \"#utility.yul\":4472:4525   */\n      tag_153\n        /* \"#utility.yul\":4517:4524   */\n      dup10\n        /* \"#utility.yul\":4508:4514   */\n      dup3\n        /* \"#utility.yul\":4497:4506   */\n      dup11\n        /* \"#utility.yul\":4493:4515   */\n      add\n        /* \"#utility.yul\":4472:4525   */\n      tag_86\n      jump\t// in\n    tag_153:\n        /* \"#utility.yul\":4462:4525   */\n      swap4\n      pop\n        /* \"#utility.yul\":4417:4535   */\n      pop\n        /* \"#utility.yul\":4574:4577   */\n      0x80\n        /* \"#utility.yul\":4601:4654   */\n      tag_154\n        /* \"#utility.yul\":4646:4653   */\n      dup10\n        /* \"#utility.yul\":4637:4643   */\n      dup3\n        /* \"#utility.yul\":4626:4635   */\n      dup11\n        /* \"#utility.yul\":4622:4644   */\n      add\n        /* \"#utility.yul\":4601:4654   */\n      tag_86\n      jump\t// in\n    tag_154:\n        /* \"#utility.yul\":4591:4654   */\n      swap3\n      pop\n        /* \"#utility.yul\":4545:4664   */\n      pop\n        /* \"#utility.yul\":4703:4706   */\n      0xa0\n        /* \"#utility.yul\":4730:4783   */\n      tag_155\n        /* \"#utility.yul\":4775:4782   */\n      dup10\n        /* \"#utility.yul\":4766:4772   */\n      dup3\n        /* \"#utility.yul\":4755:4764   */\n      dup11\n        /* \"#utility.yul\":4751:4773   */\n      add\n        /* \"#utility.yul\":4730:4783   */\n      tag_86\n      jump\t// in\n    tag_155:\n        /* \"#utility.yul\":4720:4783   */\n      swap2\n      pop\n        /* \"#utility.yul\":4674:4793   */\n      pop\n        /* \"#utility.yul\":3743:4800   */\n      swap3\n      swap6\n      pop\n      swap3\n      swap6\n      pop\n      swap3\n      swap6\n      jump\t// out\n        /* \"#utility.yul\":4806:4975   */\n    tag_87:\n        /* \"#utility.yul\":4890:4901   */\n      0x00\n        /* \"#utility.yul\":4924:4930   */\n      dup3\n        /* \"#utility.yul\":4919:4922   */\n      dup3\n        /* \"#utility.yul\":4912:4931   */\n      mstore\n        /* \"#utility.yul\":4964:4968   */\n      0x20\n        /* \"#utility.yul\":4959:4962   */\n      dup3\n        /* \"#utility.yul\":4955:4969   */\n      add\n        /* \"#utility.yul\":4940:4969   */\n      swap1\n      pop\n        /* \"#utility.yul\":4806:4975   */\n      swap3\n      swap2\n      pop\n      pop\n      jump\t// out\n        /* \"#utility.yul\":4981:5145   */\n    tag_88:\n        /* \"#utility.yul\":5121:5137   */\n      0x4e6f7420617574686f72697a6564000000000000000000000000000000000000\n        /* \"#utility.yul\":5117:5118   */\n      0x00\n        /* \"#utility.yul\":5109:5115   */\n      dup3\n        /* \"#utility.yul\":5105:5119   */\n      add\n        /* \"#utility.yul\":5098:5138   */\n      mstore\n        /* \"#utility.yul\":4981:5145   */\n      pop\n      jump\t// out\n        /* \"#utility.yul\":5151:5517   */\n    tag_89:\n        /* \"#utility.yul\":5293:5296   */\n      0x00\n        /* \"#utility.yul\":5314:5381   */\n      tag_159\n        /* \"#utility.yul\":5378:5380   */\n      0x0e\n        /* \"#utility.yul\":5373:5376   */\n      dup4\n        /* \"#utility.yul\":5314:5381   */\n      tag_87\n      jump\t// in\n    tag_159:\n        /* \"#utility.yul\":5307:5381   */\n      swap2\n      pop\n        /* \"#utility.yul\":5390:5483   */\n      tag_160\n        /* \"#utility.yul\":5479:5482   */\n      dup3\n        /* \"#utility.yul\":5390:5483   */\n      tag_88\n      jump\t// in\n    tag_160:\n        /* \"#utility.yul\":5508:5510   */\n      0x20\n        /* \"#utility.yul\":5503:5506   */\n      dup3\n        /* \"#utility.yul\":5499:5511   */\n      add\n        /* \"#utility.yul\":5492:5511   */\n      swap1\n      pop\n        /* \"#utility.yul\":5151:5517   */\n      swap2\n      swap1\n      pop\n      jump\t// out\n        /* \"#utility.yul\":5523:5942   */\n    tag_43:\n        /* \"#utility.yul\":5689:5693   */\n      0x00\n        /* \"#utility.yul\":5727:5729   */\n      0x20\n        /* \"#utility.yul\":5716:5725   */\n      dup3\n        /* \"#utility.yul\":5712:5730   */\n      add\n        /* \"#utility.yul\":5704:5730   */\n      swap1\n      pop\n        /* \"#utility.yul\":5776:5785   */\n      dup2\n        /* \"#utility.yul\":5770:5774   */\n      dup2\n        /* \"#utility.yul\":5766:5786   */\n      sub\n        /* \"#utility.yul\":5762:5763   */\n      0x00\n        /* \"#utility.yul\":5751:5760   */\n      dup4\n        /* \"#utility.yul\":5747:5764   */\n      add\n        /* \"#utility.yul\":5740:5787   */\n      mstore\n        /* \"#utility.yul\":5804:5935   */\n      tag_162\n        /* \"#utility.yul\":5930:5934   */\n      dup2\n        /* \"#utility.yul\":5804:5935   */\n      tag_89\n      jump\t// in\n    tag_162:\n        /* \"#utility.yul\":5796:5935   */\n      swap1\n      pop\n        /* \"#utility.yul\":5523:5942   */\n      swap2\n      swap1\n      pop\n      jump\t// out\n        /* \"#utility.yul\":5948:6129   */\n    tag_90:\n        /* \"#utility.yul\":6088:6121   */\n      0x4f6e6c7920746865206f776e65722063616e2065786563757465207468697300\n        /* \"#utility.yul\":6084:6085   */\n      0x00\n        /* \"#utility.yul\":6076:6082   */\n      dup3\n        /* \"#utility.yul\":6072:6086   */\n      add\n        /* \"#utility.yul\":6065:6122   */\n      mstore\n        /* \"#utility.yul\":5948:6129   */\n      pop\n      jump\t// out\n        /* \"#utility.yul\":6135:6501   */\n    tag_91:\n        /* \"#utility.yul\":6277:6280   */\n      0x00\n        /* \"#utility.yul\":6298:6365   */\n      tag_165\n        /* \"#utility.yul\":6362:6364   */\n      0x1f\n        /* \"#utility.yul\":6357:6360   */\n      dup4\n        /* \"#utility.yul\":6298:6365   */\n      tag_87\n      jump\t// in\n    tag_165:\n        /* \"#utility.yul\":6291:6365   */\n      swap2\n      pop\n        /* \"#utility.yul\":6374:6467   */\n      tag_166\n        /* \"#utility.yul\":6463:6466   */\n      dup3\n        /* \"#utility.yul\":6374:6467   */\n      tag_90\n      jump\t// in\n    tag_166:\n        /* \"#utility.yul\":6492:6494   */\n      0x20\n        /* \"#utility.yul\":6487:6490   */\n      dup3\n        /* \"#utility.yul\":6483:6495   */\n      add\n        /* \"#utility.yul\":6476:6495   */\n      swap1\n      pop\n        /* \"#utility.yul\":6135:6501   */\n      swap2\n      swap1\n      pop\n      jump\t// out\n        /* \"#utility.yul\":6507:6926   */\n    tag_47:\n        /* \"#utility.yul\":6673:6677   */\n      0x00\n        /* \"#utility.yul\":6711:6713   */\n      0x20\n        /* \"#utility.yul\":6700:6709   */\n      dup3\n        /* \"#utility.yul\":6696:6714   */\n      add\n        /* \"#utility.yul\":6688:6714   */\n      swap1\n      pop\n        /* \"#utility.yul\":6760:6769   */\n      dup2\n        /* \"#utility.yul\":6754:6758   */\n      dup2\n        /* \"#utility.yul\":6750:6770   */\n      sub\n        /* \"#utility.yul\":6746:6747   */\n      0x00\n        /* \"#utility.yul\":6735:6744   */\n      dup4\n        /* \"#utility.yul\":6731:6748   */\n      add\n        /* \"#utility.yul\":6724:6771   */\n      mstore\n        /* \"#utility.yul\":6788:6919   */\n      tag_168\n        /* \"#utility.yul\":6914:6918   */\n      dup2\n        /* \"#utility.yul\":6788:6919   */\n      tag_91\n      jump\t// in\n    tag_168:\n        /* \"#utility.yul\":6780:6919   */\n      swap1\n      pop\n        /* \"#utility.yul\":6507:6926   */\n      swap2\n      swap1\n      pop\n      jump\t// out\n        /* \"#utility.yul\":6932:7110   */\n    tag_92:\n        /* \"#utility.yul\":7072:7102   */\n      0x4e6f7420617574686f72697a6564206f72206e6f742061637469766500000000\n        /* \"#utility.yul\":7068:7069   */\n      0x00\n        /* \"#utility.yul\":7060:7066   */\n      dup3\n        /* \"#utility.yul\":7056:7070   */\n      add\n        /* \"#utility.yul\":7049:7103   */\n      mstore\n        /* \"#utility.yul\":6932:7110   */\n      pop\n      jump\t// out\n        /* \"#utility.yul\":7116:7482   */\n    tag_93:\n        /* \"#utility.yul\":7258:7261   */\n      0x00\n        /* \"#utility.yul\":7279:7346   */\n      tag_171\n        /* \"#utility.yul\":7343:7345   */\n      0x1c\n        /* \"#utility.yul\":7338:7341   */\n      dup4\n        /* \"#utility.yul\":7279:7346   */\n      tag_87\n      jump\t// in\n    tag_171:\n        /* \"#utility.yul\":7272:7346   */\n      swap2\n      pop\n        /* \"#utility.yul\":7355:7448   */\n      tag_172\n        /* \"#utility.yul\":7444:7447   */\n      dup3\n        /* \"#utility.yul\":7355:7448   */\n      tag_92\n      jump\t// in\n    tag_172:\n        /* \"#utility.yul\":7473:7475   */\n      0x20\n        /* \"#utility.yul\":7468:7471   */\n      dup3\n        /* \"#utility.yul\":7464:7476   */\n      add\n        /* \"#utility.yul\":7457:7476   */\n      swap1\n      pop\n        /* \"#utility.yul\":7116:7482   */\n      swap2\n      swap1\n      pop\n      jump\t// out\n        /* \"#utility.yul\":7488:7907   */\n    tag_60:\n        /* \"#utility.yul\":7654:7658   */\n      0x00\n        /* \"#utility.yul\":7692:7694   */\n      0x20\n        /* \"#utility.yul\":7681:7690   */\n      dup3\n        /* \"#utility.yul\":7677:7695   */\n      add\n        /* \"#utility.yul\":7669:7695   */\n      swap1\n      pop\n        /* \"#utility.yul\":7741:7750   */\n      dup2\n        /* \"#utility.yul\":7735:7739   */\n      dup2\n        /* \"#utility.yul\":7731:7751   */\n      sub\n        /* \"#utility.yul\":7727:7728   */\n      0x00\n        /* \"#utility.yul\":7716:7725   */\n      dup4\n        /* \"#utility.yul\":7712:7729   */\n      add\n        /* \"#utility.yul\":7705:7752   */\n      mstore\n        /* \"#utility.yul\":7769:7900   */\n      tag_174\n        /* \"#utility.yul\":7895:7899   */\n      dup2\n        /* \"#utility.yul\":7769:7900   */\n      tag_93\n      jump\t// in\n    tag_174:\n        /* \"#utility.yul\":7761:7900   */\n      swap1\n      pop\n        /* \"#utility.yul\":7488:7907   */\n      swap2\n      swap1\n      pop\n      jump\t// out\n        /* \"#utility.yul\":7913:8031   */\n    tag_94:\n        /* \"#utility.yul\":8000:8024   */\n      tag_176\n        /* \"#utility.yul\":8018:8023   */\n      dup2\n        /* \"#utility.yul\":8000:8024   */\n      tag_81\n      jump\t// in\n    tag_176:\n        /* \"#utility.yul\":7995:7998   */\n      dup3\n        /* \"#utility.yul\":7988:8025   */\n      mstore\n        /* \"#utility.yul\":7913:8031   */\n      pop\n      pop\n      jump\t// out\n        /* \"#utility.yul\":8037:8155   */\n    tag_95:\n        /* \"#utility.yul\":8124:8148   */\n      tag_178\n        /* \"#utility.yul\":8142:8147   */\n      dup2\n        /* \"#utility.yul\":8124:8148   */\n      tag_84\n      jump\t// in\n    tag_178:\n        /* \"#utility.yul\":8119:8122   */\n      dup3\n        /* \"#utility.yul\":8112:8149   */\n      mstore\n        /* \"#utility.yul\":8037:8155   */\n      pop\n      pop\n      jump\t// out\n        /* \"#utility.yul\":8161:8936   */\n    tag_62:\n        /* \"#utility.yul\":8394:8398   */\n      0x00\n        /* \"#utility.yul\":8432:8435   */\n      0xc0\n        /* \"#utility.yul\":8421:8430   */\n      dup3\n        /* \"#utility.yul\":8417:8436   */\n      add\n        /* \"#utility.yul\":8409:8436   */\n      swap1\n      pop\n        /* \"#utility.yul\":8446:8517   */\n      tag_180\n        /* \"#utility.yul\":8514:8515   */\n      0x00\n        /* \"#utility.yul\":8503:8512   */\n      dup4\n        /* \"#utility.yul\":8499:8516   */\n      add\n        /* \"#utility.yul\":8490:8496   */\n      dup10\n        /* \"#utility.yul\":8446:8517   */\n      tag_80\n      jump\t// in\n    tag_180:\n        /* \"#utility.yul\":8527:8599   */\n      tag_181\n        /* \"#utility.yul\":8595:8597   */\n      0x20\n        /* \"#utility.yul\":8584:8593   */\n      dup4\n        /* \"#utility.yul\":8580:8598   */\n      add\n        /* \"#utility.yul\":8571:8577   */\n      dup9\n        /* \"#utility.yul\":8527:8599   */\n      tag_94\n      jump\t// in\n    tag_181:\n        /* \"#utility.yul\":8609:8681   */\n      tag_182\n        /* \"#utility.yul\":8677:8679   */\n      0x40\n        /* \"#utility.yul\":8666:8675   */\n      dup4\n        /* \"#utility.yul\":8662:8680   */\n      add\n        /* \"#utility.yul\":8653:8659   */\n      dup8\n        /* \"#utility.yul\":8609:8681   */\n      tag_95\n      jump\t// in\n    tag_182:\n        /* \"#utility.yul\":8691:8763   */\n      tag_183\n        /* \"#utility.yul\":8759:8761   */\n      0x60\n        /* \"#utility.yul\":8748:8757   */\n      dup4\n        /* \"#utility.yul\":8744:8762   */\n      add\n        /* \"#utility.yul\":8735:8741   */\n      dup7\n        /* \"#utility.yul\":8691:8763   */\n      tag_95\n      jump\t// in\n    tag_183:\n        /* \"#utility.yul\":8773:8846   */\n      tag_184\n        /* \"#utility.yul\":8841:8844   */\n      0x80\n        /* \"#utility.yul\":8830:8839   */\n      dup4\n        /* \"#utility.yul\":8826:8845   */\n      add\n        /* \"#utility.yul\":8817:8823   */\n      dup6\n        /* \"#utility.yul\":8773:8846   */\n      tag_95\n      jump\t// in\n    tag_184:\n        /* \"#utility.yul\":8856:8929   */\n      tag_185\n        /* \"#utility.yul\":8924:8927   */\n      0xa0\n        /* \"#utility.yul\":8913:8922   */\n      dup4\n        /* \"#utility.yul\":8909:8928   */\n      add\n        /* \"#utility.yul\":8900:8906   */\n      dup5\n        /* \"#utility.yul\":8856:8929   */\n      tag_95\n      jump\t// in\n    tag_185:\n        /* \"#utility.yul\":8161:8936   */\n      swap8\n      swap7\n      pop\n      pop\n      pop\n      pop\n      pop\n      pop\n      pop\n      jump\t// out\n\n    auxdata: 0xa2646970667358221220d4633b401ba69590c81ec4e9124cac6e721ac1e4505cbcc5fd122f4fa981255664736f6c63430008150033\n}\n",
				"bytecode": {
					"linkReferences": {},
					"object": "608060405234801561000f575f80fd5b50604051610cd9380380610cd983398181016040528101906100319190610114565b335f806101000a81548173ffffffffffffffffffffffffffffffffffffffff021916908373ffffffffffffffffffffffffffffffffffffffff1602179055508060015f6101000a81548173ffffffffffffffffffffffffffffffffffffffff021916908373ffffffffffffffffffffffffffffffffffffffff1602179055505061013f565b5f80fd5b5f73ffffffffffffffffffffffffffffffffffffffff82169050919050565b5f6100e3826100ba565b9050919050565b6100f3816100d9565b81146100fd575f80fd5b50565b5f8151905061010e816100ea565b92915050565b5f60208284031215610129576101286100b6565b5b5f61013684828501610100565b91505092915050565b610b8d8061014c5f395ff3fe608060405234801561000f575f80fd5b5060043610610086575f3560e01c8063611d605d11610059578063611d605d146100eb5780638da5cb5b14610109578063c4522c9214610127578063e8d239721461014357610086565b8063121201201461008a57806320b39543146100bb578063522e4c8a146100c55780635f6ce55a146100e1575b5f80fd5b6100a4600480360381019061009f919061079b565b61015f565b6040516100b29291906107e0565b60405180910390f35b6100c3610197565b005b6100df60048036038101906100da919061079b565b61027c565b005b6100e96103a3565b005b6100f3610487565b6040516101009190610862565b60405180910390f35b6101116104ac565b60405161011e919061088a565b60405180910390f35b610141600480360381019061013c919061079b565b6104cf565b005b61015d60048036038101906101589190610909565b6105c4565b005b6002602052805f5260405f205f91509050805f015f9054906101000a900460ff1690805f0160019054906101000a900460ff16905082565b60025f3373ffffffffffffffffffffffffffffffffffffffff1673ffffffffffffffffffffffffffffffffffffffff1681526020019081526020015f205f015f9054906101000a900460ff16610222576040517f08c379a0000000000000000000000000000000000000000000000000000000008152600401610219906109ec565b60405180910390fd5b600160025f3373ffffffffffffffffffffffffffffffffffffffff1673ffffffffffffffffffffffffffffffffffffffff1681526020019081526020015f205f0160016101000a81548160ff021916908315150217905550565b5f8054906101000a900473ffffffffffffffffffffffffffffffffffffffff1673ffffffffffffffffffffffffffffffffffffffff163373ffffffffffffffffffffffffffffffffffffffff1614610309576040517f08c379a000000000000000000000000000000000000000000000000000000000815260040161030090610a54565b60405180910390fd5b60405180604001604052806001151581526020016001151581525060025f8373ffffffffffffffffffffffffffffffffffffffff1673ffffffffffffffffffffffffffffffffffffffff1681526020019081526020015f205f820151815f015f6101000a81548160ff0219169083151502179055506020820151815f0160016101000a81548160ff02191690831515021790555090505050565b60025f3373ffffffffffffffffffffffffffffffffffffffff1673ffffffffffffffffffffffffffffffffffffffff1681526020019081526020015f205f015f9054906101000a900460ff1661042e576040517f08c379a0000000000000000000000000000000000000000000000000000000008152600401610425906109ec565b60405180910390fd5b5f60025f3373ffffffffffffffffffffffffffffffffffffffff1673ffffffffffffffffffffffffffffffffffffffff1681526020019081526020015f205f0160016101000a81548160ff021916908315150217905550565b60015f9054906101000a900473ffffffffffffffffffffffffffffffffffffffff1681565b5f8054906101000a900473ffffffffffffffffffffffffffffffffffffffff1681565b5f8054906101000a900473ffffffffffffffffffffffffffffffffffffffff1673ffffffffffffffffffffffffffffffffffffffff163373ffffffffffffffffffffffffffffffffffffffff161461055c576040517f08c379a000000000000000000000000000000000000000000000000000000000815260040161055390610a54565b60405180910390fd5b60025f8273ffffffffffffffffffffffffffffffffffffffff1673ffffffffffffffffffffffffffffffffffffffff1681526020019081526020015f205f8082015f6101000a81549060ff02191690555f820160016101000a81549060ff0219169055505050565b60025f3373ffffffffffffffffffffffffffffffffffffffff1673ffffffffffffffffffffffffffffffffffffffff1681526020019081526020015f205f015f9054906101000a900460ff168015610665575060025f3373ffffffffffffffffffffffffffffffffffffffff1673ffffffffffffffffffffffffffffffffffffffff1681526020019081526020015f205f0160019054906101000a900460ff165b6106a4576040517f08c379a000000000000000000000000000000000000000000000000000000000815260040161069b90610abc565b60405180910390fd5b60015f9054906101000a900473ffffffffffffffffffffffffffffffffffffffff1673ffffffffffffffffffffffffffffffffffffffff1663cbcc57ff8787878787876040518763ffffffff1660e01b815260040161070896959493929190610af8565b5f604051808303815f87803b15801561071f575f80fd5b505af1158015610731573d5f803e3d5ffd5b50505050505050505050565b5f80fd5b5f73ffffffffffffffffffffffffffffffffffffffff82169050919050565b5f61076a82610741565b9050919050565b61077a81610760565b8114610784575f80fd5b50565b5f8135905061079581610771565b92915050565b5f602082840312156107b0576107af61073d565b5b5f6107bd84828501610787565b91505092915050565b5f8115159050919050565b6107da816107c6565b82525050565b5f6040820190506107f35f8301856107d1565b61080060208301846107d1565b9392505050565b5f819050919050565b5f61082a61082561082084610741565b610807565b610741565b9050919050565b5f61083b82610810565b9050919050565b5f61084c82610831565b9050919050565b61085c81610842565b82525050565b5f6020820190506108755f830184610853565b92915050565b61088481610760565b82525050565b5f60208201905061089d5f83018461087b565b92915050565b5f819050919050565b6108b5816108a3565b81146108bf575f80fd5b50565b5f813590506108d0816108ac565b92915050565b5f819050919050565b6108e8816108d6565b81146108f2575f80fd5b50565b5f81359050610903816108df565b92915050565b5f805f805f8060c087890312156109235761092261073d565b5b5f61093089828a01610787565b965050602061094189828a016108c2565b955050604061095289828a016108f5565b945050606061096389828a016108f5565b935050608061097489828a016108f5565b92505060a061098589828a016108f5565b9150509295509295509295565b5f82825260208201905092915050565b7f4e6f7420617574686f72697a65640000000000000000000000000000000000005f82015250565b5f6109d6600e83610992565b91506109e1826109a2565b602082019050919050565b5f6020820190508181035f830152610a03816109ca565b9050919050565b7f4f6e6c7920746865206f776e65722063616e20657865637574652074686973005f82015250565b5f610a3e601f83610992565b9150610a4982610a0a565b602082019050919050565b5f6020820190508181035f830152610a6b81610a32565b9050919050565b7f4e6f7420617574686f72697a6564206f72206e6f7420616374697665000000005f82015250565b5f610aa6601c83610992565b9150610ab182610a72565b602082019050919050565b5f6020820190508181035f830152610ad381610a9a565b9050919050565b610ae3816108a3565b82525050565b610af2816108d6565b82525050565b5f60c082019050610b0b5f83018961087b565b610b186020830188610ada565b610b256040830187610ae9565b610b326060830186610ae9565b610b3f6080830185610ae9565b610b4c60a0830184610ae9565b97965050505050505056fea2646970667358221220d4633b401ba69590c81ec4e9124cac6e721ac1e4505cbcc5fd122f4fa981255664736f6c63430008150033",
					"opcodes": "PUSH1 0x80 PUSH1 0x40 MSTORE CALLVALUE DUP1 ISZERO PUSH2 0xF JUMPI PUSH0 DUP1 REVERT JUMPDEST POP PUSH1 0x40 MLOAD PUSH2 0xCD9 CODESIZE SUB DUP1 PUSH2 0xCD9 DUP4 CODECOPY DUP2 DUP2 ADD PUSH1 0x40 MSTORE DUP2 ADD SWAP1 PUSH2 0x31 SWAP2 SWAP1 PUSH2 0x114 JUMP JUMPDEST CALLER PUSH0 DUP1 PUSH2 0x100 EXP DUP2 SLOAD DUP2 PUSH20 0xFFFFFFFFFFFFFFFFFFFFFFFFFFFFFFFFFFFFFFFF MUL NOT AND SWAP1 DUP4 PUSH20 0xFFFFFFFFFFFFFFFFFFFFFFFFFFFFFFFFFFFFFFFF AND MUL OR SWAP1 SSTORE POP DUP1 PUSH1 0x1 PUSH0 PUSH2 0x100 EXP DUP2 SLOAD DUP2 PUSH20 0xFFFFFFFFFFFFFFFFFFFFFFFFFFFFFFFFFFFFFFFF MUL NOT AND SWAP1 DUP4 PUSH20 0xFFFFFFFFFFFFFFFFFFFFFFFFFFFFFFFFFFFFFFFF AND MUL OR SWAP1 SSTORE POP POP PUSH2 0x13F JUMP JUMPDEST PUSH0 DUP1 REVERT JUMPDEST PUSH0 PUSH20 0xFFFFFFFFFFFFFFFFFFFFFFFFFFFFFFFFFFFFFFFF DUP3 AND SWAP1 POP SWAP2 SWAP1 POP JUMP JUMPDEST PUSH0 PUSH2 0xE3 DUP3 PUSH2 0xBA JUMP JUMPDEST SWAP1 POP SWAP2 SWAP1 POP JUMP JUMPDEST PUSH2 0xF3 DUP2 PUSH2 0xD9 JUMP JUMPDEST DUP2 EQ PUSH2 0xFD JUMPI PUSH0 DUP1 REVERT JUMPDEST POP JUMP JUMPDEST PUSH0 DUP2 MLOAD SWAP1 POP PUSH2 0x10E DUP2 PUSH2 0xEA JUMP JUMPDEST SWAP3 SWAP2 POP POP JUMP JUMPDEST PUSH0 PUSH1 0x20 DUP3 DUP5 SUB SLT ISZERO PUSH2 0x129 JUMPI PUSH2 0x128 PUSH2 0xB6 JUMP JUMPDEST JUMPDEST PUSH0 PUSH2 0x136 DUP5 DUP3 DUP6 ADD PUSH2 0x100 JUMP JUMPDEST SWAP2 POP POP SWAP3 SWAP2 POP POP JUMP JUMPDEST PUSH2 0xB8D DUP1 PUSH2 0x14C PUSH0 CODECOPY PUSH0 RETURN INVALID PUSH1 0x80 PUSH1 0x40 MSTORE CALLVALUE DUP1 ISZERO PUSH2 0xF JUMPI PUSH0 DUP1 REVERT JUMPDEST POP PUSH1 0x4 CALLDATASIZE LT PUSH2 0x86 JUMPI PUSH0 CALLDATALOAD PUSH1 0xE0 SHR DUP1 PUSH4 0x611D605D GT PUSH2 0x59 JUMPI DUP1 PUSH4 0x611D605D EQ PUSH2 0xEB JUMPI DUP1 PUSH4 0x8DA5CB5B EQ PUSH2 0x109 JUMPI DUP1 PUSH4 0xC4522C92 EQ PUSH2 0x127 JUMPI DUP1 PUSH4 0xE8D23972 EQ PUSH2 0x143 JUMPI PUSH2 0x86 JUMP JUMPDEST DUP1 PUSH4 0x12120120 EQ PUSH2 0x8A JUMPI DUP1 PUSH4 0x20B39543 EQ PUSH2 0xBB JUMPI DUP1 PUSH4 0x522E4C8A EQ PUSH2 0xC5 JUMPI DUP1 PUSH4 0x5F6CE55A EQ PUSH2 0xE1 JUMPI JUMPDEST PUSH0 DUP1 REVERT JUMPDEST PUSH2 0xA4 PUSH1 0x4 DUP1 CALLDATASIZE SUB DUP2 ADD SWAP1 PUSH2 0x9F SWAP2 SWAP1 PUSH2 0x79B JUMP JUMPDEST PUSH2 0x15F JUMP JUMPDEST PUSH1 0x40 MLOAD PUSH2 0xB2 SWAP3 SWAP2 SWAP1 PUSH2 0x7E0 JUMP JUMPDEST PUSH1 0x40 MLOAD DUP1 SWAP2 SUB SWAP1 RETURN JUMPDEST PUSH2 0xC3 PUSH2 0x197 JUMP JUMPDEST STOP JUMPDEST PUSH2 0xDF PUSH1 0x4 DUP1 CALLDATASIZE SUB DUP2 ADD SWAP1 PUSH2 0xDA SWAP2 SWAP1 PUSH2 0x79B JUMP JUMPDEST PUSH2 0x27C JUMP JUMPDEST STOP JUMPDEST PUSH2 0xE9 PUSH2 0x3A3 JUMP JUMPDEST STOP JUMPDEST PUSH2 0xF3 PUSH2 0x487 JUMP JUMPDEST PUSH1 0x40 MLOAD PUSH2 0x100 SWAP2 SWAP1 PUSH2 0x862 JUMP JUMPDEST PUSH1 0x40 MLOAD DUP1 SWAP2 SUB SWAP1 RETURN JUMPDEST PUSH2 0x111 PUSH2 0x4AC JUMP JUMPDEST PUSH1 0x40 MLOAD PUSH2 0x11E SWAP2 SWAP1 PUSH2 0x88A JUMP JUMPDEST PUSH1 0x40 MLOAD DUP1 SWAP2 SUB SWAP1 RETURN JUMPDEST PUSH2 0x141 PUSH1 0x4 DUP1 CALLDATASIZE SUB DUP2 ADD SWAP1 PUSH2 0x13C SWAP2 SWAP1 PUSH2 0x79B JUMP JUMPDEST PUSH2 0x4CF JUMP JUMPDEST STOP JUMPDEST PUSH2 0x15D PUSH1 0x4 DUP1 CALLDATASIZE SUB DUP2 ADD SWAP1 PUSH2 0x158 SWAP2 SWAP1 PUSH2 0x909 JUMP JUMPDEST PUSH2 0x5C4 JUMP JUMPDEST STOP JUMPDEST PUSH1 0x2 PUSH1 0x20 MSTORE DUP1 PUSH0 MSTORE PUSH1 0x40 PUSH0 KECCAK256 PUSH0 SWAP2 POP SWAP1 POP DUP1 PUSH0 ADD PUSH0 SWAP1 SLOAD SWAP1 PUSH2 0x100 EXP SWAP1 DIV PUSH1 0xFF AND SWAP1 DUP1 PUSH0 ADD PUSH1 0x1 SWAP1 SLOAD SWAP1 PUSH2 0x100 EXP SWAP1 DIV PUSH1 0xFF AND SWAP1 POP DUP3 JUMP JUMPDEST PUSH1 0x2 PUSH0 CALLER PUSH20 0xFFFFFFFFFFFFFFFFFFFFFFFFFFFFFFFFFFFFFFFF AND PUSH20 0xFFFFFFFFFFFFFFFFFFFFFFFFFFFFFFFFFFFFFFFF AND DUP2 MSTORE PUSH1 0x20 ADD SWAP1 DUP2 MSTORE PUSH1 0x20 ADD PUSH0 KECCAK256 PUSH0 ADD PUSH0 SWAP1 SLOAD SWAP1 PUSH2 0x100 EXP SWAP1 DIV PUSH1 0xFF AND PUSH2 0x222 JUMPI PUSH1 0x40 MLOAD PUSH32 0x8C379A000000000000000000000000000000000000000000000000000000000 DUP2 MSTORE PUSH1 0x4 ADD PUSH2 0x219 SWAP1 PUSH2 0x9EC JUMP JUMPDEST PUSH1 0x40 MLOAD DUP1 SWAP2 SUB SWAP1 REVERT JUMPDEST PUSH1 0x1 PUSH1 0x2 PUSH0 CALLER PUSH20 0xFFFFFFFFFFFFFFFFFFFFFFFFFFFFFFFFFFFFFFFF AND PUSH20 0xFFFFFFFFFFFFFFFFFFFFFFFFFFFFFFFFFFFFFFFF AND DUP2 MSTORE PUSH1 0x20 ADD SWAP1 DUP2 MSTORE PUSH1 0x20 ADD PUSH0 KECCAK256 PUSH0 ADD PUSH1 0x1 PUSH2 0x100 EXP DUP2 SLOAD DUP2 PUSH1 0xFF MUL NOT AND SWAP1 DUP4 ISZERO ISZERO MUL OR SWAP1 SSTORE POP JUMP JUMPDEST PUSH0 DUP1 SLOAD SWAP1 PUSH2 0x100 EXP SWAP1 DIV PUSH20 0xFFFFFFFFFFFFFFFFFFFFFFFFFFFFFFFFFFFFFFFF AND PUSH20 0xFFFFFFFFFFFFFFFFFFFFFFFFFFFFFFFFFFFFFFFF AND CALLER PUSH20 0xFFFFFFFFFFFFFFFFFFFFFFFFFFFFFFFFFFFFFFFF AND EQ PUSH2 0x309 JUMPI PUSH1 0x40 MLOAD PUSH32 0x8C379A000000000000000000000000000000000000000000000000000000000 DUP2 MSTORE PUSH1 0x4 ADD PUSH2 0x300 SWAP1 PUSH2 0xA54 JUMP JUMPDEST PUSH1 0x40 MLOAD DUP1 SWAP2 SUB SWAP1 REVERT JUMPDEST PUSH1 0x40 MLOAD DUP1 PUSH1 0x40 ADD PUSH1 0x40 MSTORE DUP1 PUSH1 0x1 ISZERO ISZERO DUP2 MSTORE PUSH1 0x20 ADD PUSH1 0x1 ISZERO ISZERO DUP2 MSTORE POP PUSH1 0x2 PUSH0 DUP4 PUSH20 0xFFFFFFFFFFFFFFFFFFFFFFFFFFFFFFFFFFFFFFFF AND PUSH20 0xFFFFFFFFFFFFFFFFFFFFFFFFFFFFFFFFFFFFFFFF AND DUP2 MSTORE PUSH1 0x20 ADD SWAP1 DUP2 MSTORE PUSH1 0x20 ADD PUSH0 KECCAK256 PUSH0 DUP3 ADD MLOAD DUP2 PUSH0 ADD PUSH0 PUSH2 0x100 EXP DUP2 SLOAD DUP2 PUSH1 0xFF MUL NOT AND SWAP1 DUP4 ISZERO ISZERO MUL OR SWAP1 SSTORE POP PUSH1 0x20 DUP3 ADD MLOAD DUP2 PUSH0 ADD PUSH1 0x1 PUSH2 0x100 EXP DUP2 SLOAD DUP2 PUSH1 0xFF MUL NOT AND SWAP1 DUP4 ISZERO ISZERO MUL OR SWAP1 SSTORE POP SWAP1 POP POP POP JUMP JUMPDEST PUSH1 0x2 PUSH0 CALLER PUSH20 0xFFFFFFFFFFFFFFFFFFFFFFFFFFFFFFFFFFFFFFFF AND PUSH20 0xFFFFFFFFFFFFFFFFFFFFFFFFFFFFFFFFFFFFFFFF AND DUP2 MSTORE PUSH1 0x20 ADD SWAP1 DUP2 MSTORE PUSH1 0x20 ADD PUSH0 KECCAK256 PUSH0 ADD PUSH0 SWAP1 SLOAD SWAP1 PUSH2 0x100 EXP SWAP1 DIV PUSH1 0xFF AND PUSH2 0x42E JUMPI PUSH1 0x40 MLOAD PUSH32 0x8C379A000000000000000000000000000000000000000000000000000000000 DUP2 MSTORE PUSH1 0x4 ADD PUSH2 0x425 SWAP1 PUSH2 0x9EC JUMP JUMPDEST PUSH1 0x40 MLOAD DUP1 SWAP2 SUB SWAP1 REVERT JUMPDEST PUSH0 PUSH1 0x2 PUSH0 CALLER PUSH20 0xFFFFFFFFFFFFFFFFFFFFFFFFFFFFFFFFFFFFFFFF AND PUSH20 0xFFFFFFFFFFFFFFFFFFFFFFFFFFFFFFFFFFFFFFFF AND DUP2 MSTORE PUSH1 0x20 ADD SWAP1 DUP2 MSTORE PUSH1 0x20 ADD PUSH0 KECCAK256 PUSH0 ADD PUSH1 0x1 PUSH2 0x100 EXP DUP2 SLOAD DUP2 PUSH1 0xFF MUL NOT AND SWAP1 DUP4 ISZERO ISZERO MUL OR SWAP1 SSTORE POP JUMP JUMPDEST PUSH1 0x1 PUSH0 SWAP1 SLOAD SWAP1 PUSH2 0x100 EXP SWAP1 DIV PUSH20 0xFFFFFFFFFFFFFFFFFFFFFFFFFFFFFFFFFFFFFFFF AND DUP2 JUMP JUMPDEST PUSH0 DUP1 SLOAD SWAP1 PUSH2 0x100 EXP SWAP1 DIV PUSH20 0xFFFFFFFFFFFFFFFFFFFFFFFFFFFFFFFFFFFFFFFF AND DUP2 JUMP JUMPDEST PUSH0 DUP1 SLOAD SWAP1 PUSH2 0x100 EXP SWAP1 DIV PUSH20 0xFFFFFFFFFFFFFFFFFFFFFFFFFFFFFFFFFFFFFFFF AND PUSH20 0xFFFFFFFFFFFFFFFFFFFFFFFFFFFFFFFFFFFFFFFF AND CALLER PUSH20 0xFFFFFFFFFFFFFFFFFFFFFFFFFFFFFFFFFFFFFFFF AND EQ PUSH2 0x55C JUMPI PUSH1 0x40 MLOAD PUSH32 0x8C379A000000000000000000000000000000000000000000000000000000000 DUP2 MSTORE PUSH1 0x4 ADD PUSH2 0x553 SWAP1 PUSH2 0xA54 JUMP JUMPDEST PUSH1 0x40 MLOAD DUP1 SWAP2 SUB SWAP1 REVERT JUMPDEST PUSH1 0x2 PUSH0 DUP3 PUSH20 0xFFFFFFFFFFFFFFFFFFFFFFFFFFFFFFFFFFFFFFFF AND PUSH20 0xFFFFFFFFFFFFFFFFFFFFFFFFFFFFFFFFFFFFFFFF AND DUP2 MSTORE PUSH1 0x20 ADD SWAP1 DUP2 MSTORE PUSH1 0x20 ADD PUSH0 KECCAK256 PUSH0 DUP1 DUP3 ADD PUSH0 PUSH2 0x100 EXP DUP2 SLOAD SWAP1 PUSH1 0xFF MUL NOT AND SWAP1 SSTORE PUSH0 DUP3 ADD PUSH1 0x1 PUSH2 0x100 EXP DUP2 SLOAD SWAP1 PUSH1 0xFF MUL NOT AND SWAP1 SSTORE POP POP POP JUMP JUMPDEST PUSH1 0x2 PUSH0 CALLER PUSH20 0xFFFFFFFFFFFFFFFFFFFFFFFFFFFFFFFFFFFFFFFF AND PUSH20 0xFFFFFFFFFFFFFFFFFFFFFFFFFFFFFFFFFFFFFFFF AND DUP2 MSTORE PUSH1 0x20 ADD SWAP1 DUP2 MSTORE PUSH1 0x20 ADD PUSH0 KECCAK256 PUSH0 ADD PUSH0 SWAP1 SLOAD SWAP1 PUSH2 0x100 EXP SWAP1 DIV PUSH1 0xFF AND DUP1 ISZERO PUSH2 0x665 JUMPI POP PUSH1 0x2 PUSH0 CALLER PUSH20 0xFFFFFFFFFFFFFFFFFFFFFFFFFFFFFFFFFFFFFFFF AND PUSH20 0xFFFFFFFFFFFFFFFFFFFFFFFFFFFFFFFFFFFFFFFF AND DUP2 MSTORE PUSH1 0x20 ADD SWAP1 DUP2 MSTORE PUSH1 0x20 ADD PUSH0 KECCAK256 PUSH0 ADD PUSH1 0x1 SWAP1 SLOAD SWAP1 PUSH2 0x100 EXP SWAP1 DIV PUSH1 0xFF AND JUMPDEST PUSH2 0x6A4 JUMPI PUSH1 0x40 MLOAD PUSH32 0x8C379A000000000000000000000000000000000000000000000000000000000 DUP2 MSTORE PUSH1 0x4 ADD PUSH2 0x69B SWAP1 PUSH2 0xABC JUMP JUMPDEST PUSH1 0x40 MLOAD DUP1 SWAP2 SUB SWAP1 REVERT JUMPDEST PUSH1 0x1 PUSH0 SWAP1 SLOAD SWAP1 PUSH2 0x100 EXP SWAP1 DIV PUSH20 0xFFFFFFFFFFFFFFFFFFFFFFFFFFFFFFFFFFFFFFFF AND PUSH20 0xFFFFFFFFFFFFFFFFFFFFFFFFFFFFFFFFFFFFFFFF AND PUSH4 0xCBCC57FF DUP8 DUP8 DUP8 DUP8 DUP8 DUP8 PUSH1 0x40 MLOAD DUP8 PUSH4 0xFFFFFFFF AND PUSH1 0xE0 SHL DUP2 MSTORE PUSH1 0x4 ADD PUSH2 0x708 SWAP7 SWAP6 SWAP5 SWAP4 SWAP3 SWAP2 SWAP1 PUSH2 0xAF8 JUMP JUMPDEST PUSH0 PUSH1 0x40 MLOAD DUP1 DUP4 SUB DUP2 PUSH0 DUP8 DUP1 EXTCODESIZE ISZERO DUP1 ISZERO PUSH2 0x71F JUMPI PUSH0 DUP1 REVERT JUMPDEST POP GAS CALL ISZERO DUP1 ISZERO PUSH2 0x731 JUMPI RETURNDATASIZE PUSH0 DUP1 RETURNDATACOPY RETURNDATASIZE PUSH0 REVERT JUMPDEST POP POP POP POP POP POP POP POP POP POP JUMP JUMPDEST PUSH0 DUP1 REVERT JUMPDEST PUSH0 PUSH20 0xFFFFFFFFFFFFFFFFFFFFFFFFFFFFFFFFFFFFFFFF DUP3 AND SWAP1 POP SWAP2 SWAP1 POP JUMP JUMPDEST PUSH0 PUSH2 0x76A DUP3 PUSH2 0x741 JUMP JUMPDEST SWAP1 POP SWAP2 SWAP1 POP JUMP JUMPDEST PUSH2 0x77A DUP2 PUSH2 0x760 JUMP JUMPDEST DUP2 EQ PUSH2 0x784 JUMPI PUSH0 DUP1 REVERT JUMPDEST POP JUMP JUMPDEST PUSH0 DUP2 CALLDATALOAD SWAP1 POP PUSH2 0x795 DUP2 PUSH2 0x771 JUMP JUMPDEST SWAP3 SWAP2 POP POP JUMP JUMPDEST PUSH0 PUSH1 0x20 DUP3 DUP5 SUB SLT ISZERO PUSH2 0x7B0 JUMPI PUSH2 0x7AF PUSH2 0x73D JUMP JUMPDEST JUMPDEST PUSH0 PUSH2 0x7BD DUP5 DUP3 DUP6 ADD PUSH2 0x787 JUMP JUMPDEST SWAP2 POP POP SWAP3 SWAP2 POP POP JUMP JUMPDEST PUSH0 DUP2 ISZERO ISZERO SWAP1 POP SWAP2 SWAP1 POP JUMP JUMPDEST PUSH2 0x7DA DUP2 PUSH2 0x7C6 JUMP JUMPDEST DUP3 MSTORE POP POP JUMP JUMPDEST PUSH0 PUSH1 0x40 DUP3 ADD SWAP1 POP PUSH2 0x7F3 PUSH0 DUP4 ADD DUP6 PUSH2 0x7D1 JUMP JUMPDEST PUSH2 0x800 PUSH1 0x20 DUP4 ADD DUP5 PUSH2 0x7D1 JUMP JUMPDEST SWAP4 SWAP3 POP POP POP JUMP JUMPDEST PUSH0 DUP2 SWAP1 POP SWAP2 SWAP1 POP JUMP JUMPDEST PUSH0 PUSH2 0x82A PUSH2 0x825 PUSH2 0x820 DUP5 PUSH2 0x741 JUMP JUMPDEST PUSH2 0x807 JUMP JUMPDEST PUSH2 0x741 JUMP JUMPDEST SWAP1 POP SWAP2 SWAP1 POP JUMP JUMPDEST PUSH0 PUSH2 0x83B DUP3 PUSH2 0x810 JUMP JUMPDEST SWAP1 POP SWAP2 SWAP1 POP JUMP JUMPDEST PUSH0 PUSH2 0x84C DUP3 PUSH2 0x831 JUMP JUMPDEST SWAP1 POP SWAP2 SWAP1 POP JUMP JUMPDEST PUSH2 0x85C DUP2 PUSH2 0x842 JUMP JUMPDEST DUP3 MSTORE POP POP JUMP JUMPDEST PUSH0 PUSH1 0x20 DUP3 ADD SWAP1 POP PUSH2 0x875 PUSH0 DUP4 ADD DUP5 PUSH2 0x853 JUMP JUMPDEST SWAP3 SWAP2 POP POP JUMP JUMPDEST PUSH2 0x884 DUP2 PUSH2 0x760 JUMP JUMPDEST DUP3 MSTORE POP POP JUMP JUMPDEST PUSH0 PUSH1 0x20 DUP3 ADD SWAP1 POP PUSH2 0x89D PUSH0 DUP4 ADD DUP5 PUSH2 0x87B JUMP JUMPDEST SWAP3 SWAP2 POP POP JUMP JUMPDEST PUSH0 DUP2 SWAP1 POP SWAP2 SWAP1 POP JUMP JUMPDEST PUSH2 0x8B5 DUP2 PUSH2 0x8A3 JUMP JUMPDEST DUP2 EQ PUSH2 0x8BF JUMPI PUSH0 DUP1 REVERT JUMPDEST POP JUMP JUMPDEST PUSH0 DUP2 CALLDATALOAD SWAP1 POP PUSH2 0x8D0 DUP2 PUSH2 0x8AC JUMP JUMPDEST SWAP3 SWAP2 POP POP JUMP JUMPDEST PUSH0 DUP2 SWAP1 POP SWAP2 SWAP1 POP JUMP JUMPDEST PUSH2 0x8E8 DUP2 PUSH2 0x8D6 JUMP JUMPDEST DUP2 EQ PUSH2 0x8F2 JUMPI PUSH0 DUP1 REVERT JUMPDEST POP JUMP JUMPDEST PUSH0 DUP2 CALLDATALOAD SWAP1 POP PUSH2 0x903 DUP2 PUSH2 0x8DF JUMP JUMPDEST SWAP3 SWAP2 POP POP JUMP JUMPDEST PUSH0 DUP1 PUSH0 DUP1 PUSH0 DUP1 PUSH1 0xC0 DUP8 DUP10 SUB SLT ISZERO PUSH2 0x923 JUMPI PUSH2 0x922 PUSH2 0x73D JUMP JUMPDEST JUMPDEST PUSH0 PUSH2 0x930 DUP10 DUP3 DUP11 ADD PUSH2 0x787 JUMP JUMPDEST SWAP7 POP POP PUSH1 0x20 PUSH2 0x941 DUP10 DUP3 DUP11 ADD PUSH2 0x8C2 JUMP JUMPDEST SWAP6 POP POP PUSH1 0x40 PUSH2 0x952 DUP10 DUP3 DUP11 ADD PUSH2 0x8F5 JUMP JUMPDEST SWAP5 POP POP PUSH1 0x60 PUSH2 0x963 DUP10 DUP3 DUP11 ADD PUSH2 0x8F5 JUMP JUMPDEST SWAP4 POP POP PUSH1 0x80 PUSH2 0x974 DUP10 DUP3 DUP11 ADD PUSH2 0x8F5 JUMP JUMPDEST SWAP3 POP POP PUSH1 0xA0 PUSH2 0x985 DUP10 DUP3 DUP11 ADD PUSH2 0x8F5 JUMP JUMPDEST SWAP2 POP POP SWAP3 SWAP6 POP SWAP3 SWAP6 POP SWAP3 SWAP6 JUMP JUMPDEST PUSH0 DUP3 DUP3 MSTORE PUSH1 0x20 DUP3 ADD SWAP1 POP SWAP3 SWAP2 POP POP JUMP JUMPDEST PUSH32 0x4E6F7420617574686F72697A6564000000000000000000000000000000000000 PUSH0 DUP3 ADD MSTORE POP JUMP JUMPDEST PUSH0 PUSH2 0x9D6 PUSH1 0xE DUP4 PUSH2 0x992 JUMP JUMPDEST SWAP2 POP PUSH2 0x9E1 DUP3 PUSH2 0x9A2 JUMP JUMPDEST PUSH1 0x20 DUP3 ADD SWAP1 POP SWAP2 SWAP1 POP JUMP JUMPDEST PUSH0 PUSH1 0x20 DUP3 ADD SWAP1 POP DUP2 DUP2 SUB PUSH0 DUP4 ADD MSTORE PUSH2 0xA03 DUP2 PUSH2 0x9CA JUMP JUMPDEST SWAP1 POP SWAP2 SWAP1 POP JUMP JUMPDEST PUSH32 0x4F6E6C7920746865206F776E65722063616E2065786563757465207468697300 PUSH0 DUP3 ADD MSTORE POP JUMP JUMPDEST PUSH0 PUSH2 0xA3E PUSH1 0x1F DUP4 PUSH2 0x992 JUMP JUMPDEST SWAP2 POP PUSH2 0xA49 DUP3 PUSH2 0xA0A JUMP JUMPDEST PUSH1 0x20 DUP3 ADD SWAP1 POP SWAP2 SWAP1 POP JUMP JUMPDEST PUSH0 PUSH1 0x20 DUP3 ADD SWAP1 POP DUP2 DUP2 SUB PUSH0 DUP4 ADD MSTORE PUSH2 0xA6B DUP2 PUSH2 0xA32 JUMP JUMPDEST SWAP1 POP SWAP2 SWAP1 POP JUMP JUMPDEST PUSH32 0x4E6F7420617574686F72697A6564206F72206E6F742061637469766500000000 PUSH0 DUP3 ADD MSTORE POP JUMP JUMPDEST PUSH0 PUSH2 0xAA6 PUSH1 0x1C DUP4 PUSH2 0x992 JUMP JUMPDEST SWAP2 POP PUSH2 0xAB1 DUP3 PUSH2 0xA72 JUMP JUMPDEST PUSH1 0x20 DUP3 ADD SWAP1 POP SWAP2 SWAP1 POP JUMP JUMPDEST PUSH0 PUSH1 0x20 DUP3 ADD SWAP1 POP DUP2 DUP2 SUB PUSH0 DUP4 ADD MSTORE PUSH2 0xAD3 DUP2 PUSH2 0xA9A JUMP JUMPDEST SWAP1 POP SWAP2 SWAP1 POP JUMP JUMPDEST PUSH2 0xAE3 DUP2 PUSH2 0x8A3 JUMP JUMPDEST DUP3 MSTORE POP POP JUMP JUMPDEST PUSH2 0xAF2 DUP2 PUSH2 0x8D6 JUMP JUMPDEST DUP3 MSTORE POP POP JUMP JUMPDEST PUSH0 PUSH1 0xC0 DUP3 ADD SWAP1 POP PUSH2 0xB0B PUSH0 DUP4 ADD DUP10 PUSH2 0x87B JUMP JUMPDEST PUSH2 0xB18 PUSH1 0x20 DUP4 ADD DUP9 PUSH2 0xADA JUMP JUMPDEST PUSH2 0xB25 PUSH1 0x40 DUP4 ADD DUP8 PUSH2 0xAE9 JUMP JUMPDEST PUSH2 0xB32 PUSH1 0x60 DUP4 ADD DUP7 PUSH2 0xAE9 JUMP JUMPDEST PUSH2 0xB3F PUSH1 0x80 DUP4 ADD DUP6 PUSH2 0xAE9 JUMP JUMPDEST PUSH2 0xB4C PUSH1 0xA0 DUP4 ADD DUP5 PUSH2 0xAE9 JUMP JUMPDEST SWAP8 SWAP7 POP POP POP POP POP POP POP JUMP INVALID LOG2 PUSH5 0x6970667358 0x22 SLT KECCAK256 0xD4 PUSH4 0x3B401BA6 SWAP6 SWAP1 0xC8 0x1E 0xC4 0xE9 SLT 0x4C 0xAC PUSH15 0x721AC1E4505CBCC5FD122F4FA98125 JUMP PUSH5 0x736F6C6343 STOP ADDMOD ISZERO STOP CALLER "
				},
				"gasEstimates": {
					"creation": {
						"codeDepositCost": "591400",
						"executionCost": "infinite",
						"totalCost": "infinite"
					},
					"external": {
						"activateStaff()": "26819",
						"addStaff(address)": "51439",
						"assignTaskToCaretaker(address,bytes32,uint256,uint256,uint256,uint256)": "infinite",
						"deactivateStaff()": "26862",
						"hospitalTaskManager()": "infinite",
						"owner()": "2527",
						"removeStaff(address)": "51300",
						"staffMembers(address)": "infinite"
					}
				},
				"methodIdentifiers": {
					"activateStaff()": "20b39543",
					"addStaff(address)": "522e4c8a",
					"assignTaskToCaretaker(address,bytes32,uint256,uint256,uint256,uint256)": "e8d23972",
					"deactivateStaff()": "5f6ce55a",
					"hospitalTaskManager()": "611d605d",
					"owner()": "8da5cb5b",
					"removeStaff(address)": "c4522c92",
					"staffMembers(address)": "12120120"
				}
			},
			"storageLayout": {
				"storage": [
					{
						"astId": 19,
						"contract": "contracts/MedicalStaff.sol:MedicalStaff",
						"label": "owner",
						"offset": 0,
						"slot": "0",
						"type": "t_address"
					},
					{
						"astId": 22,
						"contract": "contracts/MedicalStaff.sol:MedicalStaff",
						"label": "hospitalTaskManager",
						"offset": 0,
						"slot": "1",
						"type": "t_contract(IHospitalTaskManager)17"
					},
					{
						"astId": 32,
						"contract": "contracts/MedicalStaff.sol:MedicalStaff",
						"label": "staffMembers",
						"offset": 0,
						"slot": "2",
						"type": "t_mapping(t_address,t_struct(Staff)27_storage)"
					}
				],
				"types": {
					"t_address": {
						"encoding": "inplace",
						"label": "address",
						"numberOfBytes": "20"
					},
					"t_bool": {
						"encoding": "inplace",
						"label": "bool",
						"numberOfBytes": "1"
					},
					"t_contract(IHospitalTaskManager)17": {
						"encoding": "inplace",
						"label": "contract IHospitalTaskManager",
						"numberOfBytes": "20"
					},
					"t_mapping(t_address,t_struct(Staff)27_storage)": {
						"encoding": "mapping",
						"key": "t_address",
						"label": "mapping(address => struct MedicalStaff.Staff)",
						"numberOfBytes": "32",
						"value": "t_struct(Staff)27_storage"
					},
					"t_struct(Staff)27_storage": {
						"encoding": "inplace",
						"label": "struct MedicalStaff.Staff",
						"members": [
							{
								"astId": 24,
								"contract": "contracts/MedicalStaff.sol:MedicalStaff",
								"label": "isAuthorized",
								"offset": 0,
								"slot": "0",
								"type": "t_bool"
							},
							{
								"astId": 26,
								"contract": "contracts/MedicalStaff.sol:MedicalStaff",
								"label": "isActive",
								"offset": 1,
								"slot": "0",
								"type": "t_bool"
							}
						],
						"numberOfBytes": "32"
					}
				}
			},
			"userdoc": {
				"kind": "user",
				"methods": {},
				"version": 1
			}
		}
	}
}